:020000040800F2
:10000000280E0020DD010008BF2F00081D1D00087C
:10001000BD2F0008F50A0008853C0008000000001C
:10002000000000000000000000000000B1340008E3
:10003000210E000800000000F32F000849350008D9
:10004000F7010008F7010008F7010008F7010008B0
:10005000F7010008F7010008D50E00080D0F000891
:10006000F7010008F7010008F7010008F701000890
:10007000F7010008F7010008F7010008F701000880
:10008000F7010008F7010008F7010008F701000870
:10009000F7010008F7010008F7010008F701000860
:1000A000F7010008F7010008F7010008F701000850
:1000B000F7010008F7010008F7010008F701000840
:1000C000F7010008F7010008F7010008F701000830
:1000D000F7010008F7010008F7010008F701000820
:1000E000F7010008F7010008F7010008F701000810
:1000F000F7010008F7010008F7010008F701000800
:10010000F7010008F7010008F7010008F7010008EF
:10011000F7010008F7010008F7010008F7010008DF
:10012000F7010008F7010008F7010008F7010008CF
:10013000F70100080000000000000000F7010008BF
:10014000F7010008F7010008F7010008F7010008AF
:10015000F7010008F7010008F7010008F70100089F
:10016000F7010008F7010008F7010008F70100088F
:10017000F7010008F7010008F7010008000000007F
:1001800000000000F701000800000000000000006F
:10019000F70100080000000000000000F70100085F
:1001A000000000000000000000000000F70100084F
:1001B000F7010008F7010008F7010008F70100083F
:1001C000F7010008DFF810D000F09CF80048004765
:1001D0004D470008AFF30080280E002006488047F6
:1001E00006480047FEE7FEE7FEE7FEE7FEE7FEE71C
:1001F000FEE7FEE7FEE7FEE7A5370008C5010008B9
:100200002DE9F05F0546002092469B46884606464B
:10021000814640241BE0284641464746224600F0DE
:1002200061F853465A46C01A914110D311461846F8
:10023000224600F048F82D1A67EB01084F46224687
:100240000120002100F03FF817EB00094E41201E6D
:10025000A4F10104DFDC484631462A464346BDE8A6
:10026000F09F40EA01039B0703D009E008C9121F71
:1002700008C0042AFAD203E011F8013B00F8013B60
:10028000521EF9D27047D2B201E000F8012B491E8C
:10029000FBD270470022F6E710B513460A46044623
:1002A0001946FFF7F0FF204610BD10B5002200E010
:1002B000521C835C8C5CA34201D1002BF8D1D8B2D4
:1002C000E1B2401A10BD202A04DB203A00FA02F104
:1002D000002070479140C2F1200320FA03F3194334
:1002E00090407047202A04DB203A21FA02F00021D6
:1002F000704721FA02F3D040C2F120029140084336
:1003000019467047064C074D06E0E06840F00103CF
:1003100094E8070098471034AC42F6D3FFF756FF35
:10032000EC5E00080C5F000810B5044600F0F4F91C
:100330002146BDE8104001A003F0AABE436F6D6DD9
:10034000616E642025782053454E44210D0A00003B
:100350000A4810B5016841F00201016008494FF4F4
:1003600000008861082000F0D7F9102000F0D4F9CF
:10037000BDE8104003A003F08BBE0000003C01402C
:100380000004024053746172742041637175697393
:10039000696F6E210D0A0000094810B5016821F04F
:1003A000020101600749802088610A2000F0B4F949
:1003B000112000F0B1F9BDE8104003A003F068BEC1
:1003C000003C01400004024053746F70204163718F
:1003D000756973696F6E210D0A0000000A4610B539
:1003E0000146002000F0C2F9BDE8104001A003F072
:1003F0004FBE0000313239392773205265672068BB
:100400006173206265656E207772697474656E2110
:100410000D0A0000D2B2002000F0A8B970B506465F
:100420001348016821F002010160124D0120A8610A
:10043000114C4002A061C82000F082FF304600F05D
:1004400033F9A015A061296902208843FBD04FF041
:100450008070A061002000F027F9062000F05CF910
:100460000A2003F055FDBDE87040112000F054B99A
:10047000003C0140001002400004024070B5012819
:100480002CD0022829D109220421012000F06EF984
:10049000FF221021012000F069F9FF220F21012025
:1004A00000F064F900220E21012000F05FF9002223
:1004B0000D21012000F05AF90024601DC1B2002274
:1004C000104600F053F9022003F022FD0A2003F049
:1004D0001FFD641CE4B2202CEFD370BD96220121D5
:1004E000002000F043F9C0220221002000F03EF974
:1004F000EC220321002000F039F9002204211046EB
:1005000000F034F900221021104600F02FF90022EB
:100510000F21104600F02AF900220E21104600F0AB
:1005200025F9FF220D21002000F020F920221521BD
:10053000002000F01BF90024651DE9B260220020B4
:1005400000F014F9022003F0E3FCE9B2002000F00F
:100550000BF805460A2003F0DBFC602DECD1641C8F
:10056000E4B2082CE8D370BD70B52031CEB272B6BB
:100570001F4D4FF40000A861052003F0C9FC1D4C7D
:10058000E068A068C0F340000028FAD0E660A068E8
:1005900010F0010FFBD0E068042003F0B9FCA06864
:1005A000C0F340000028FAD00026E660A06810F0F2
:1005B000010FFBD0E068042003F0AAFCA068C0F3A0
:1005C00040000028FAD0E660A06810F0010FFBD0D0
:1005D000A068C0F3C0100028FAD1E068C4B20520BA
:1005E00003F096FC8020A86162B6204670BD000032
:1005F000000402400030014010B56C2100F01AF8F0
:100600000A490868C0F340100028FAD00848426838
:1006100022F002024260426822F0010242604FF082
:10062000006088602020886010BD000000640240E7
:10063000003001402DE9F041174F044688460A4634
:100640000021384601F054FC144E134D30780C351F
:1006500044510021384601F037FC0021384601F0B2
:1006600029FC0F4C606840F00100606042460321A5
:10067000384601F03DFCF1780A48485103213846DC
:1006800001F022FC0321384601F014FC606840F0C0
:1006900002006060BDE8F08100640240825E0008F4
:1006A000003001402B00002070B5084C4FF400755D
:1006B0002804A061062003F02BFCA5618020A06126
:1006C000BDE87040C82003F023BC000000040240D5
:1006D00070B50F4C0F4D78B101280CD1082000F0F7
:1006E0001BF8102000F018F8206840F0020020608D
:1006F0004FF40000A86170BD0A2000F00DF8112031
:1007000000F00AF8206820F0020020608020F1E765
:10071000003C01400004024070B5054672B6114C21
:100720004FF40000A061042003F0F2FB0E4988683A
:10073000C0F340000028FAD0CD60886810F0010FA7
:10074000FBD0C8688868C0F3C0100028FAD1042024
:1007500003F0DEFB8020A06162B60420BDE870409B
:1007600003F0D6BB00040240003001402DE9F04107
:1007700040311646CFB272B61E4D4FF40000A8614C
:10078000042003F0C5FB1C4CA068C0F34000002807
:10079000FAD0E760A06810F0010FFBD0E0680420F9
:1007A00003F0B6FBA068C0F340000028FAD0002098
:1007B000E060A06810F0010FFBD0E068042003F0B7
:1007C000A7FBA068C0F340000028FAD0E660A0684C
:1007D00010F0010FFBD0E068A068C0F3C010002843
:1007E000FAD1052003F094FB8020A86162B6BDE831
:1007F000F081000000040240003001400346002068
:10080000074A022B06D0072B07D0092B01D192688B
:100810000A60704712780A7070475268F8E7000063
:100820003000002003460020084A022B05D0072B89
:1008300009D0092B00D19160704711F0FF0100D061
:100840000121117070475160704700003000002096
:1008500010B50146044800F093FB0448418841F07C
:100860000101418010BD000028010020000000208F
:100870002DE9F041574D022829680BD0072830D0C8
:1008800009287DD10220FFF7B9FF286800780128E8
:1008900051D053E00220FFF7B1FF28684F4C017898
:1008A0004D480129018810D041F4006101800020E9
:1008B000FFF70EFF206820F001002060474900206C
:1008C000243108600146022068E041F48071018013
:1008D000206840F0010020600120FFF7F9FE0121AF
:1008E000F1E70220FFF78AFF28680078012802D18B
:1008F0000020FFF7EDFE07202968FFF77FFF28683B
:100900000068FA2808D0B0F5FA7F07D0B0F57A7FF2
:100910000DD0B0F5FA6F0CD0962200E0952201219F
:100920000020FFF723FF28680168042036E09422A6
:10093000F5E79322F3E70020FFF7CAFE09202968B4
:10094000FFF75CFF28680068062836D006DC01281F
:1009500028D0022829D0042804D12AE0082830D041
:100960000C2832D004F08F0010F1600000F0700607
:100970000024671DF9B232460020FFF74BFD00E06E
:100980000EE0F9B20020FFF7EFFD8642F1D1641CC2
:10099000E4B2082CEDD328680168032000F0A4F825
:1009A000BDE8F08104F08F00E0E704F08F00103024
:1009B000DCE704F08F002030D8E704F08F003030FF
:1009C000D4E704F08F004030D0E704F08F005030BF
:1009D000CCE70000A800002002000020000C00402E
:1009E00010B50C4803F05EFF0C480B490160891DEF
:1009F0004160123181601231C160891D0161123183
:100A00004161891D8161891DC161891D0162891D45
:100A1000416210BD400000208C5E000838040020B8
:100A200018B10349C86000207047FF2070470000DC
:100A300030000020014951F8200070475028004044
:100A400010B50220FFF7F6FF012815D00021084657
:100A500000F04AF80021012000F046F800210220B1
:100A600000F042F80021032000F03EF80021BDE82C
:100A70001040042000F038B8074C4FF4005020809C
:100A80004FF4427003F0FAF9172803D0208840F49D
:100A90008040208010BD00000200002010B503201F
:100AA000FFF7C8FF010005D00920FFF7BBFE0920B2
:100AB000FFF7DEFE0420FFF7BDFF010005D0072091
:100AC000FFF7B0FE0720FFF7D3FE0220FFF7B2FFCB
:100AD000010007D00220FFF7A5FEBDE8104002206C
:100AE000FFF7C6BE10BD0000014A42F82010704753
:100AF00050280040FEE7000001681823CAB2103AEF
:100B0000B2FBF3F2054B6FF30901032A9B5CC3654B
:100B100000D9091D81650846704700000E5E000877
:100B200010B5014600208B698A6A4FF0C07453B13A
:100B3000B3F5005F15D072B1012A0CD0022A0AD099
:100B4000032A09D104E01AB1012A06D0022A03D1EE
:100B5000C96AC90100D5012010BDC96AA142FAD0F5
:100B600010BD002AF7D0012AF2D0022AF3D0032ABE
:100B7000F3D010BD30B50468256825F480252560C4
:100B8000046863608368402B036803D09960006841
:100B9000C26030BD9A600068C16030BD2DE9F74F7A
:100BA000144605464FF6FF77082802D93846BDE8B7
:100BB000FE8F68010126083003F060F900F00F0095
:100BC000012802D04FF6FB70F1E714B341F608603C
:100BD00000EB451003F052F907EA8020A04200D252
:100BE00004464FF4427000EB451841F60870DFF8F8
:100BF00090A000EB451B06FA05F9284603F056FCC9
:100C00000646404603F03AF9172816D01C2803D0B0
:100C10000DE04FF6F270CAE7CEB9284603F06CFC3F
:100C20000746584603F02AF9B7EB802F05D128462E
:100C300003F0F6FB4FF6F970B9E7BAF8021019EABB
:100C4000010F02D01EB90020B1E7002ED5D0A64278
:100C500000D2344622462846019902F0B5FB0646EA
:100C60004FF4847000EB45100446402103F029F94D
:100C7000204603F003F90028FAD1304697E7000038
:100C80001C0000202DE9F0471E46DDF820801546A7
:100C90008A460446082803D94FF0FF30BDE8F087A4
:100CA000670108374FF00109384603F0E7F800F014
:100CB0000F00022806D0032804D0042802D06FF0C9
:100CC0000400EBE75DB13078717801EB0020B1787A
:100CD00001EB0020F17811EB002003D00AE06FF067
:100CE0000D00DBE7384603F0C9F8400702D46FF087
:100CF0000B00D3E7B8F1000F07D1384603F0BEF878
:100D0000400702D46FF00A00C8E74FF4427000EBCE
:100D10004410074603F0B2F8422806D0222804D037
:100D2000322802D06FF00600B8E740F6084000EB2A
:100D300044100422314603F0D7F841F208004FEA8C
:100D4000182100EB441003F0BCF841F2081008F041
:100D5000FF0100EB441003F0B4F841F6087000EB1B
:100D6000441003F08BF84FF6FF7101EA80208542B2
:100D700000D90546DFF8888009FA04F6204603F01A
:100D8000BBFB8146384603F079F838B1B8F8020069
:100D9000064206D04D4504D900207FE76FF00300DE
:100DA0007CE74D45EAD82A465146204603F0F6F83E
:100DB0004FF4847000EB44100646202103F081F8C4
:100DC0004FF4027000EB4414304603F057F800284B
:100DD000FAD1204603F052F800F01F00C10605D5F5
:100DE0002046102103F06DF8284657E70007F0D59C
:100DF0002046082103F065F86FF00C004EE7000074
:100E00001C00002090F8001190F80121914201D1BE
:100E1000FF207047425C491C80F800111046704763
:100E200070470000F8B52A4804224068017A491C3E
:100E30008DF80010417A491C8DF80110817A491C07
:100E40008DF80210C07A6946401C8DF8030040F608
:100E5000084003F049F80121082003F032F84FF46C
:100E600084760121304603F02CF8052000F068FA62
:100E70004FF4427003F002F8132804D010213046DA
:100E800003F01FF816E00421304603F01AF84FF47F
:100E900002754FF4C167284602F0F0FF10F01F04FE
:100EA00003D02146284603F00CF8052000F048FA4C
:100EB000200701D5FF20F8BD384602F0DFFFFF28EC
:100EC000E9D01021304602F0FCFF0020F8BD000000
:100ED00098000020094810B50068094908600948D1
:100EE000018841F480510180012001F0A3F800281D
:100EF00002D005490120086010BD0000240C00400C
:100F00000400002002000020143C014070B5174C82
:100F1000174D4FF000062188C80500D52E701548E2
:100F20000268154B287821F4045141F4007143F80C
:100F30002020218002F0CEFD10B92878401C2870B6
:100F400028780A2806D12E70208820F4007040F4FA
:100F500080602080208800F0E3FE022001F06AF823
:100F6000002802D005490220086070BD0200002060
:100F700008000020240C0040FC090020143C014023
:100F800010B590F8012190F80041531CA34205D000
:100F9000815490F80111491C80F8011110BD70476F
:100FA0000248016802A003F073B80000240C00405E
:100FB000434E543D25640D0A0000000070B5040046
:100FC00003D094F8200010B104E0012070BD204649
:100FD00000F082F82068016821F00201016000F051
:100FE00095FA0546052604E000F090FA401B0A2811
:100FF00011D8206840688007F6D42068016841F065
:101000000101016000F082FA05460BE000F07EFA73
:10101000401B0A2806D9606A40F40030606284F8F8
:101020002060D2E720684068C007EFD0207E01280A
:10103000206801683DD021F080010160607E0128B8
:101040002068016838D021F040010160A07E0128AD
:101050002068016833D021F020010160E07E012882
:10106000206801682ED041F010010160207F012826
:101070002068016829D021F008010160607F012803
:101080002068016824D021F004010160D4E9020144
:101090000843D4E90412114308436168491E084318
:1010A0002168C86100206062012084F820000020CF
:1010B00070BD41F08001C0E741F04001C5E741F05B
:1010C0002001CAE721F01001CFE741F00801D4E781
:1010D00041F00401D9E7000010B586B004461421A0
:1010E0006846FFF7D7F814492068884221D1134891
:1010F0000021026842F000720260006800F0007097
:1011000005900E481038026842F001020260006843
:1011100000F0010005904FF4C05000900220CDE98E
:10112000010103200390092004906946044800F05F
:1011300019F906B010BD00000064004040380240BC
:10114000000002402DE9F0410446876D00F0DEF911
:10115000064694F835000025022806D080206065F8
:1011600084F834500120BDE8F0812068016821F046
:10117000160101602068416921F080014161206C05
:1011800008B9A06C20B12068016821F00801016055
:101190002068016821F0010101600BE000F0B6F960
:1011A000801B052806D92020606504F8345F0320E1
:1011B0006070D8E720680068C007EFD194F85C1031
:1011C0003F208840B86004F8345F01206070002040
:1011D000C9E790F83510022903D08021416501202C
:1011E0007047052180F835100068016821F0010181
:1011F000016000207047406D704700002DE9F0410C
:10120000044600F083F906465CB1002584F83450AA
:10121000022084F835002068016821F00101016096
:101220000DE00120BDE8F08100F070F9801B052879
:1012300005D920206065032084F83500F2E7206896
:101240000068C007F0D12268116820480140D4E945
:1012500001031843D4E90336334318436369184341
:10126000A3691843E3691843236A18430843616A72
:10127000042903D1D4E90B131943084310602068F3
:101280004069666A20F0070130460E4301270428B2
:101290000CD1A06A0643E06A40B12046FFF740FC4B
:1012A00020B14020606584F83570BAE72068466157
:1012B0002046FFF721FC94F85C203F21914081609B
:1012C000656584F835700020ACE700003F8010F0C1
:1012D0002DE9F0410446866D90F834000025012880
:1012E0000DD0012084F8340094F835700020012FCF
:1012F00007D084F8340002252846BDE8F08102209A
:10130000FBE7022784F8357060652046FFF732FC62
:1013100094F85C103F208840B0602068016841F07C
:1013200016010160206C20B12068016841F00801BD
:1013300001602068016841F001010160DCE7000004
:1013400070B5044600F0E2F80546601C02D004487F
:101350000078044400F0DAF8401BA042FAD370BDD4
:101360000C0000202DE9F84F00224FF00108032562
:101370004FF00F0E0B6808FA02F42340A3426ED11F
:101380004E68012E05D0022E03D0112E01D0122E50
:1013900012D186684FEA420C05FA0CF7BE43CF68BB
:1013A00007FA0CF7374387604668A6430C79C4F305
:1013B0000014944034434460C668570005FA07FCA3
:1013C0008C6826EA0C06BC403443C4604C68022C8E
:1013D00001D0122C13D1D40800EB8404A346D4F816
:1013E000209054074FEAD46A0EFA0AF629EA060951
:1013F0000E6906FA0AF646EA0906CBF82060066886
:101400000C7926EA0C0604F00304BC403443046063
:101410004C68E40060D5334C266846F4804626606C
:10142000246822F0030604F4804400942E4C3444D3
:10143000A446D4F808489607370F0EFA07F6B443C7
:101440002A4EB04201D100261FE0294EB04201D100
:1014500001261AE0274EB04202D1022615E03BE0F9
:10146000254EB04201D103260FE0244EB04201D1F7
:1014700004260AE0224EB04201D1052605E0214EA5
:10148000B04201D1062600E00726BE402643CCF834
:1014900008681D4E34684F689C43FF0300D51C4309
:1014A0003460194E361D34684F689C43BF0300D525
:1014B0001C433460144E083634684F689C43FF0266
:1014C00000D51C433460104E0C3634684F689C4382
:1014D000BF0200D51C433460521C102AFFF44AAFEF
:1014E000BDE8F88F4438024000300140000002405F
:1014F0000004024000080240000C024000100240BC
:101500000014024000180240003C0140014880687D
:10151000704700000C0000200248816802781144E6
:10152000816070470C0000200B4810B5016841F441
:1015300000710160016841F480610160016841F45B
:1015400080710160032000F061F8002000F006F8CF
:1015500000F024F8002010BD003C024070B50D4D95
:1015600004464FF47A712878B1FBF0F00A49096813
:10157000B1FBF0F000F0BEFB48B9102C07D20022FE
:101580002146501E00F022F800206C6070BD012042
:1015900070BD00000C000020180000200A4808B5AB
:1015A000016841F480410160006800F480400090CF
:1015B0000548001F016841F080510160006800F09B
:1015C0008050009008BD000044380240F0B40E4B3B
:1015D0001B680C46C3F30223C3F10705042D00D991
:1015E0000425191D072901D2002300E0DB1E012676
:1015F00006FA05F1491E214099409E40761E16408C
:101600003143F0BC02F071BD0CED00E0064900F082
:10161000070208684FF6FF03184040EA0220034A19
:1016200010430860704700000CED00E00000FA0570
:10163000F8B504460025FFF769FF064694F8410017
:10164000800736D5002084F84000206801684907EB
:101650000BD5016821F004010160E06BFFF772FD1A
:1016600018B1606C40F0040060642068016841F0CB
:1016700002010160A06C0090334601220221204645
:1016800001F0FAFD050014D121680220C860A06CA9
:101690000090334600222021204601F0EDFD050098
:1016A00007D12068416921F040614161012084F83F
:1016B00041002846F8BD704770B5044690F84100D7
:1016C000002580072CD5002084F84000082084F8ED
:1016D00041002068016821F4F81101602068016868
:1016E000490711D5016821F004010160E16B0D4843
:1016F0000865E06BFFF76DFD90B1012084F84100B3
:101700002046FFF7D8FF0BE00221C1602068016886
:1017100041F4003101602068016841F0020101607C
:10172000284670BD533100082DE9F84F17468B4607
:101730000446FFF7EBFE824694F8400001280ED0E5
:10174000012684F8406094F841004FF00008012819
:1017500007D0022584F840802846BDE8F88F022093
:10176000FBE7C4F844804FF0020984F841905346E7
:10177000002220212046009701F07EFD0500E9D1DE
:1017800000225946204601F035FCDBF8240058B908
:101790005346012202212046009701F06DFD05000D
:1017A000D8D12168C1F80C9084F84160D2E7704725
:1017B000F8B50446FFF7AAFE064624B194F84100A6
:1017C000002510B109E00120F8BD84F84050204602
:1017D00000F042F841F28830A06420680168A268F5
:1017E0006FF0FF0321F4F85103EB02221143016073
:1017F000A06C0090334600222021204601F03CFDE1
:1018000010BBE269E16823791143226A42EA03626C
:101810001143226813680E4E334019431160D4E916
:1018200005121143226853680A4E3340268A43EA60
:1018300006431943516021680A6842F001020A60B8
:101840006564012184F8411084F84050F8BD00001F
:101850002FFFFF00FEF8E0FF2DE9F04186B00646BD
:1018600014216846FEF716FD3049306888425AD187
:101870002F480025016841F00201016000682C49F1
:1018800000F0020008390590086840F00400086084
:10189000086800F004000590086840F0080008603F
:1018A000086800F008000590086840F00200086031
:1018B0000868022400F0020005904FF4C06003277E
:1018C0004FF009088DE8B10169461A48FFF74AFD53
:1018D00008208DE8B10169461748FFF743FD4FF036
:1018E00040080A20CDF80080CDE90370694613480E
:1018F000CDE90145FFF736FD124C1148206078060E
:10190000C4E901084FF48060C4E903506561A56132
:10191000E561256220466562FFF770FC08B1FFF7BC
:101920003EFBF463A66306B0BDE8F081001000A0A2
:101930003838024000080240000C02400004024017
:10194000B8640240B40300202DE9F84F15460F4655
:101950000446FFF7DBFD82462068816994F8402049
:1019600000F12009012A0DD0012684F8406094F886
:1019700041204FF00008012A06D0022084F8408060
:10198000BDE8F88F0220FBE7C4F84480BFB32222F1
:1019900084F841200269521CA2630269521C6263EE
:1019A0002763426922F0406242F08062426120680F
:1019B00081610EE00621204601F05EFCE0B999F855
:1019C0000000216B0870206B401C2063A06B401E40
:1019D000A063A06B53464FF0010200950028E9D1A7
:1019E0004FF00201204601F047FC28B9216802208F
:1019F000C8602046FFF71CFE84F84160BEE7FFE7A1
:101A0000606C40F0080060640120B7E72DE9F04108
:101A10000368044600269F69186994F84020401C1A
:101A2000012A0AD04FF0010884F8408094F8412040
:101A30000025012A04D002261FE00220BDE8F08123
:101A40006564A9B1E26B5269DAB1B2F5006F03D0F7
:101A5000B2F5805F07D015E0C20709D1227AD2071C
:101A600006D140080DE0820702D1227A920707D002
:101A7000606C40F008006064012684F8405047E044
:101A80008008A063222084F841000320D860A06B66
:101A900060632163E26B1F48D063E26B1E481064F1
:101AA000E26B1E48D064E06B0565E06B8560E06B1F
:101AB0000068026822F0C0020260636B20680A4678
:101AC000D4F83CC000F120016046FFF701FC50B1A2
:101AD00054F8440F012640F0040044F8040984F847
:101AE0000180257014E02068416921F0406141F0D7
:101AF000806141612068876184F8405020680168F6
:101B000041F4803101602068016841F00401016006
:101B1000304693E7BD310008CF3100088D31000811
:101B2000704700002DE9F84F15460F460446FFF7B1
:101B3000EDFC8246206894F8401000F1200901294C
:101B40000ED0012684F8406094F841104FF0000850
:101B5000012907D05FF0020084F84080BDE8F88FCB
:101B60000220FBE7C4F844809FB3122184F841109F
:101B70000169491CE1620169491CA162676241690E
:101B800021F0406141610EE00421204601F074FB28
:101B9000E0B9606A017889F80010606A401C6062F0
:101BA000E06A401EE062E06A53464FF00102009591
:101BB0000028E9D14FF00201204601F05DFB28B971
:101BC00021680220C8602046FFF732FD84F841609A
:101BD000C2E7FFE7606C40F0080060640120BBE7EB
:101BE0002DE9F041036804460026186994F8402066
:101BF000401C012A09D0012784F8407094F8412044
:101C00000025012A04D002261FE00220BDE8F08151
:101C10006564A9B1E26B5269DAB1B2F5006F03D025
:101C2000B2F5805F07D015E0C20709D1227AD2074A
:101C300006D140080DE0820702D1227A920707D030
:101C4000606C40F008006064012684F8405041E078
:101C50008008E062122084F841000320D860E06A26
:101C6000A06261622068426922F040624261E26BD8
:101C70001948D063E26B19481064E26B1848D064CD
:101C8000E06B0565E26B40209060E06B00680268E5
:101C900022F0C00242F040020260A36A2268E06BB8
:101CA0002032FFF715FB48B154F8440F012640F0ED
:101CB000040044F80409677025700BE084F8405074
:101CC0002068016841F4803101602068016841F0BA
:101CD00004010160304699E7D9310008EB31000872
:101CE0008D3100087047000001480068704700000F
:101CF0001800002010B5401EB0F1807F01D30120F4
:101D000010BD4FF0E02460610F21601702F0EDF983
:101D10000020A06107202061002010BDFEE7000028
:101D20000949420505D54A6982F020024A61042228
:101D300002E0020501D520228A61800402D54FF419
:101D400080208861704700000010024007484FF46F
:101D500080018161064A491291612021816110212F
:101D60008161082181610421816170470010024076
:101D70000008024030B5134C4B680022A468124D95
:101D800004F00104AD6805F001052C430F4DAD686A
:101D900005F001052C4302D00122104630BD0C4D48
:101DA00053B10C681C43D1E902310B4341681C4319
:101DB00029400C434460F0E7436809682B400B431B
:101DC0004360EAE700200140002101400022014079
:101DD000E010FCFF30B58368002213F0010F02D041
:101DE0000122104630BD8C680B6823434468054DC2
:101DF0002C40234343608368496823F400630B430A
:101E00008360EEE7FFFEFFFC30B54B68846800227C
:101E100014F0010F02D00122104630BD002B4368A0
:101E200023F4684301D08C6823434360D1E9033431
:101E300023438468074D2C400D6805F070652C43E2
:101E4000234383604968C36A23F470030B43C3626E
:101E5000E2E70000FDFCFFC0044908B50A68024340
:101E60000A6009680140009108BD00003038024056
:101E7000044908B50A6802430A60096801400091F4
:101E800008BD000040380240044908B50A68024312
:101E90000A6009680140009108BD00004438024012
:101EA000034A1430515C0A5822F004020A50704769
:101EB0000A5D0008034A515C425822F01002425069
:101EC00070470000825E0008034A515C425842F0AD
:101ED0000102425070470000825E0008034B595CCB
:101EE000435823F060631343435070470A5D000872
:101EF000044B001D595C0B586FF30F0313430B5039
:101F000070470000825E0008034B595C435823F081
:101F1000C0031343435070470A5D0008034B595CEC
:101F2000435823F480631343435070470A5D00080D
:101F3000034B595C435823F4C04313434350704749
:101F40000A5D0008034B595C435823F49073134314
:101F5000435070470A5D0008034B595C435823F413
:101F600000731343435070470A5D0008034B595CEC
:101F7000435823F4C0531343435070470A5D00088D
:101F8000034B595C435823F4403313434350704789
:101F90000A5D000830B5264A002405790168131F40
:101FA00085B371B345798DB1012D17D0022D18D0AD
:101FB000012483792BB31E4908310A1F012B18D045
:101FC000022B20D0032B22D0012428E015688D435A
:101FD000156001681A680A431A60EAE71D688D43B4
:101FE00001E01D680D431D60016813680B43136019
:101FF000DFE703680D689D430D60006811680143C9
:1020000011600CE00DE0036815689D4302E0036871
:1020100015681D43156000680A6802430A6020467F
:1020200030BD1D688D431D60006811688143E7E77E
:10203000043C014003490968884301D000207047EF
:1020400001207047143C0140F0B50A680F2692FA4F
:10205000A2F2B2FA82F303248AE001279F4015EA34
:1020600007027DD04D68012D01D0022D1BD18D6856
:10207000876892FAA2FCBCFA8CFC4FEA4C0C04FA7A
:102080000CFC27EA0C0792FAA2FCBCFA8CFC4FEA83
:102090004C0C05FA0CF52F438760CD684768554313
:1020A00097432F4347600F69D0F80CC092FAA2F50E
:1020B000B5FA85F54FEA450E04FA0EF52CEA050C43
:1020C00092FAA2F5B5FA85F56D00AF404CEA070C1F
:1020D000C0F80CC04D68022D33D192FAA2F5B5FAC2
:1020E00085F5082D15D2D1F814C0056A92FAA2F729
:1020F000B7FA87F7BF0006FA07F7BD4392FAA2F7CF
:10210000B7FA87F7BF000CFA07FC45EA0C05056231
:1021100017E0D1F814E0476A150A95FAA5FCBCFA55
:102120008CFC4FEA8C0C06FA0CFC95FAA5F5B5FA76
:1021300085F5AD0027EA0C070EFA05FE47EA0E0703
:1021400047624D68076892FAA2FCBCFA8CFC4FEA21
:102150004C0C04FA0CFE27EA0E0792FAA2F200E0F9
:1021600005E0B2FA82F2520095402F4307605B1CF3
:102170000A681546DA407FF470AF0020F0BD30B534
:10218000036891FAA1F4B4FA84F465000324AC4026
:1021900091FAA1F1B1FA81F14900A3438A401343B6
:1021A000036030BD30B5C36891FAA1F4B4FA84F489
:1021B00065000324AC4091FAA1F1B1FA81F1490024
:1021C000A3438A401343C36030BD000030B5214CA7
:1021D0004568B1FBF4F425F03F05254345601E4DED
:1021E000AA4207D94FF4967504FB05F44FF47A75AB
:1021F000B4FBF5F4056A04F1010425F03F0544EA57
:102200000504046213D96BB102EBC20404EB0212A1
:10221000B1FBF2F4240508D0B1FBF2F1194341F40B
:1022200000410FE002EB4202F2E70121F6E7520023
:10223000B1FBF2F3C3F30B03042B01D2042101E041
:10224000B1FBF2F1C2694CF6FF739A430A43C261D3
:1022500030BD000040420F00A08601007FB504465B
:1022600000680D4620F001002060684600F02AF862
:10227000D5E90301626A084322F01F020243626249
:10228000D5E9012320460299FFF7A0FFE9696869B3
:10229000A26848F2FF339A4308430243A2602868C9
:1022A000216821F01A0101432160206840F00100FB
:1022B0002060A869216821F480610143216004B095
:1022C000002070BD10B5044601F024F8206000F035
:1022D000F7FF606001F002F8A060606801F00CF8A0
:1022E000E06010BD0248006800F03F007047000049
:1022F000043802400248006800F480007047000083
:102300000438024002480068C0F38810704700009B
:10231000043802400248006800F0E04070470000C6
:102320000438024018B54FF47A710091C168002258
:10233000C1F38011A9B9511EC160C1684FF0E023FB
:10234000C1F380110BE01969C1F3004111B100998B
:10235000491E0091C168009CC1F380111CB1002985
:10236000F1D0104618BD0122FBE770B504460126E6
:10237000CA200D466062532060622046FFF7D2FFFC
:10238000012816D02868A16821F040010143A1600E
:10239000A86821696FF30E0101432161A8882169B2
:1023A00021F4FE0141EA004020616FF08000E0600E
:1023B0000026FF206062304670BD10B50368012220
:1023C000C3F380132BBBD1E900231A43D1E90234B4
:1023D00023431A430B691A434B691A438B691A4307
:1023E000CB691A430B6A1A4303684FF6BF74A343C1
:1023F0001A43026042684B6922F0040242EA134227
:1024000042600A6AB2F5005F02D1898C89B201612B
:102410000022C16921F40061C161104610BD0000B5
:102420000A06930D074A1A44D2F8083823EA1143E2
:10243000090C91FAA1F1B1FA81F188400343C2F885
:1024400008387047003001400149086070470000BB
:1024500018000020F0B50268254B264D264E274F68
:10246000274C4FF0804C984209D0604507D0A842D5
:1024700005D0B04203D0B84201D0A04205D1D1F876
:1024800004E022F0700242EA0E0298421BD060453E
:1024900019D0A84217D0B04215D0B84213D0A042EC
:1024A00011D0184DA8420ED0174DA8420BD0174D91
:1024B000A84208D0164DA84205D0164DA84202D019
:1024C000154DA84203D1CD6822F440722A43026020
:1024D0008A68C2620A888262984201D0A04201D111
:1024E000097C0163416941F0010141610020F0BDB7
:1024F000000001400004004000080040000C0040C3
:1025000000040140004001400044014000480140F7
:1025100000180040001C004000200040012919D094
:10252000042919D0102919D0402919D0B1F5807F7C
:1025300018D0B1F5806F17D006210C4A1830525CC4
:1025400010440268094BDB1D5B5C042199408A43FF
:10255000026070470021F0E70121EEE70221ECE77D
:102560000321EAE70421E8E70521E6E7FC5C00082F
:10257000F0B5012600236E4C6E4D012908D01029BC
:102580003BD0B1F5807F73D0B1F5805F6ED1A6E00E
:10259000016A21F001010162016A46688769D2F887
:1025A00000C027F0730747EA0C07D2F810C021F0EB
:1025B000020141EA0C01D2F804C021F0010141EA14
:1025C0000C01A04201D0A84212D1546921F00801A7
:1025D00041EA8401946821F0040141EA840195698B
:1025E00026F480742C43D56924F4007444EA45062B
:1025F00046608761D26842636FE0016A21F0100192
:102600000162066A41688769D2F800C027F4E6478C
:1026100047EA0C27D2F810C026F0200646EA0C162E
:10262000D2F804C026F0100646EA0C16A04201D0EB
:10263000A84213D1556926F0800444EA85149568B0
:1026400024F0400444EA8516946921F4806141EA4B
:102650008401D46921F4006141EAC40141608761C9
:10266000D168816361E003E000E01E463046F0BDC2
:10267000016A21F480710162016A4668C769D2F873
:1026800000C027F0730747EA0C07D2F810C021F406
:10269000007141EA0C21D2F804C021F4807141EAB2
:1026A0000C21A04201D0A84213D1546921F4006149
:1026B00041EA8421946821F4806141EA842195698A
:1026C00026F4805444EA0514D56924F4005444EAFD
:1026D00045164660C761D268C2630162C5E7016AF8
:1026E00021F480510162066A4168C769D2F800C0CE
:1026F00027F4E64747EA0C27D2F810C026F4005624
:1027000046EA0C36D2F804C026F4805646EA0C3667
:10271000A04201D0A84204D1946921F4804141EA49
:1027200084114160C761D168016406629DE70000C1
:1027300000000140000401407FB50446C0680D461A
:102740000126C0F34030C0BBE9686868AA69084345
:10275000296911430843E16849F20C629143084337
:10276000E060A868216921F4405101432161686952
:10277000616921F44071014361616846FFF7A2FD80
:102780000F48844208D00F4884420DD00E4884423E
:102790000AD00E48844201D1039906E00C488442D5
:1027A00002D00C48844208D1029931B12B6823B180
:1027B00000262046AA6900F00FF804B0304670BD2C
:1027C0000010014000440040004800400014014057
:1027D000004C0040005000402DE9F0410646192011
:1027E000A1FB00011F46002364243225B2F5004FEF
:1027F00027D0BB0FBA00FDF703FD0146B0FBF4F094
:102800006FF01802504301EB800005EB0010B0FBA5
:10281000F4F000F0F002B1FBF4F002EB0012B1FBB7
:10282000F4F06FF01803584301EB800005EB001043
:10283000B0FBF4F000F00F00104480B2B060BDE8CF
:10284000F081FA195B41FDF7DBFC0146B0FBF4F0C7
:102850000201B1FBF4F06FF01803584301EB800064
:1028600005EBC000B0FBF4F000F0F80002EB400212
:10287000B1FBF4F0584301EB800005EBC000B0FB66
:10288000F4F000F00700D7E730B593B000240F94C0
:102890001094142168461194FDF7FCFC0B940C94E1
:1028A0000D94182105A80E94FDF7F4FC4FF48070E8
:1028B000FFF7EAFA0120FFF7CFFA01200590032085
:1028C000069005A909942648FFF7BEFB254D0F94F5
:1028D00010940FA928461194FFF77CFA00940194F4
:1028E00002940394694628460494FFF78DFAA86879
:1028F00040F48060A8604FF48030CDE90B040BA950
:102900001948FFF737FA4FF44072681592FAA2F2AD
:102910000104B2FA82F2D04005EB8000C26A22F0D4
:102920001F02C26291FAA1F0B0FA80F0C14005EB3B
:102930008100C1684FF0F87292FAA2F3B3FA83F300
:1029400024FA03F307259D4092FAA2F2B2FA82F22A
:1029500024FA02F2A94394402143C16013B030BD70
:1029600000000240002001400023014009480849BE
:1029700001601021416000218160C16001614161FD
:10298000017641768176C17601774177FEF716BBF5
:1029900000640040B40000202DE9F04F89B000240D
:1029A0000694182168460794FDF774FC1020FFF781
:1029B00053FA0420FFF750FA8020FFF74DFA012068
:1029C000FFF74AFA0220FFF747FA0820FFF744FA18
:1029D000DFF8289248F27D010A04C9F81820DFF8D0
:1029E00020A24FF006524FF40658CAF81820DFF81C
:1029F00014B24FF07062CBF81820834E4FF0807005
:102A0000B061824F4FF06070B8614FF40040B06128
:102A100000910125CDE90154039469464846049488
:102A2000FFF712FBCDF80080CDE90154039469460D
:102A300050460494FFF708FB4FF08008CDE900846E
:102A4000694630460494FFF7FFFA3020CDE90004D0
:102A5000694650460494FFF7F7FA0720CDE90004D1
:102A6000694638460494FFF7EFFA4FF4E340CDE9A6
:102A70000004694648460494FFF7E6FA4FF4706094
:102A80000090CDE901540394694658460494FFF739
:102A9000DBFA4FF401400090CDE9015403946946FC
:102AA00030460494FFF7D0FA4FF460700090CDE9FF
:102AB00001540394694638460494FFF7C5FA544913
:102AC0000220FFF7ADFC4FF470210320FFF7A8FCB4
:102AD00050490320FFF7A4FC4F490320FFF7A0FC57
:102AE0004FF470010420FFF79BFC40208DF81C5030
:102AF00006908DF81D408DF81E5006A8FFF74AFA83
:102B00008DF81C508DF81D40022606958DF81E602C
:102B100006A8FFF73FFA10208DF81C5006908DF89C
:102B20001D408DF81E5006A8FFF734FA8DF81C5092
:102B30008DF81D40CDF818808DF81E6006A8FFF7AF
:102B400029FA8DF81C508DF81D4006968DF81E60F0
:102B500006A8FFF71FFA002240215046FFF722FB8C
:102B6000002201215846FFF71DFB00221021584684
:102B7000FFF718FB002280215846FFF713FB0022C5
:102B800002214846FFF70EFB002240215046FFF786
:102B9000F6FA002201215846FFF7F1FA002210212F
:102BA0005846FFF7ECFA002280215846FFF7E7FA73
:102BB000002202214846FFF7E2FA184C2068002262
:102BC000C0F30220114600F0FBF90146062001F097
:102BD0007CFA062001F06CFA20680022C0F3022083
:102BE000012100F0EDF90146072001F06EFA0720FF
:102BF00001F05EFA09B0BDE8F08F0000001002405D
:102C000000080240000C02400000024000040240A4
:102C10000100000F01000F00010000F00CED00E0CA
:102C20002DE9F0418EB0202106A8FDF733FB1821D5
:102C30006846FDF72FFB0220FFF70EF90420FFF78F
:102C40000BF901240427CDE904474FF480680225DD
:102C50000326CDE90264CDE9008569461848FFF7EF
:102C6000F3F92003CDE90005CDE90264CDE904477D
:102C700069461448FFF7E8F9A005FFF7F9F8124C88
:102C8000E06820F00100E060206820F04000206053
:102C9000206820F08000206000200C490890CDE9D9
:102CA0000601CDE90B0820140D9006A92046FFF778
:102CB000D5FAE06820F0FE00E0600EB0BDE8F081DB
:102CC000000402400008024000580040A0860100B5
:102CD00070B590B028216846FDF7DCFA18210AA8E3
:102CE000FDF7D8FA4FF48050FFF7CEF80220FFF737
:102CF000B3F838200A9002200B9003200024CDE97D
:102D00000C040520CDE90E400AA93C48FFF79CF9C8
:102D10003B4E4FF0C0652A4603213046FFF7DEF8F0
:102D2000402203213046FFF7EFF80022032130460E
:102D3000FFF726F9002203213046FFF703F90022AE
:102D400003213046FFF708F9002203213046FFF740
:102D5000E5F8002203213046FFF708F9002203219D
:102D60003046FFF7E5F803213046FFF799F82A4689
:102D700000213046FFF7B2F8002211463046FFF737
:102D8000C3F86A1200213046FFF7FAF80022114614
:102D90003046FFF7D7F8002211463046FFF7DCF83F
:102DA000321500213046FFF7B9F8002211463046AF
:102DB000FFF7DCF8002211463046FFF7B9F8002192
:102DC0003046FFF76DF84FF48270CDE900400120E6
:102DD0000294CDE90340400205901020CDE906049D
:102DE0000A20CDE90840074C69462046FFF7E5FA7E
:102DF000606820F01000606010B070BD00040240F8
:102E0000006402400030014010B590B028216846AF
:102E1000FDF740FA18210AA8FDF73CFA4FF480406C
:102E2000FFF726F80220FFF717F84FF460400A90EA
:102E300002200B9003200024CDE90C040520CDE9ED
:102E40000E400AA90E48FFF7FFF84FF48270CDE953
:102E5000004001200294CDE903404002CDE9050481
:102E60000A20CDE908400794064C69462046FFF742
:102E7000A4FA606820F01000606010B010BD00007F
:102E8000000402400038004070B594B014210EA830
:102E9000FDF700FA20216846FDF7FCF9182108A883
:102EA000FDF7F8F90120FEF7E3FF0024ADF8384004
:102EB000601ECDE90F404FF080450EA928461194C1
:102EC000FFF7C8FA286820F0800028600094019479
:102ED000029403946A46012128460494FFF748FBB4
:102EE00001212846FFF71AFBAE1401946A463146C9
:102EF00028460294FFF73CFB31462846FFF70EFBBD
:102F0000686820F070006860A86820F08000A86001
:102F10000120FEF7A1FF282008900220CDE9090436
:102F20000120CDE90C4008A90B940248FFF78CF86A
:102F300014B070BD0000024010B58EB01C21684670
:102F4000FDF7A8F9182107A8FDF7A4F91020FEF74E
:102F50009BFF0120FEF780FF4FF4C0600790022026
:102F6000089003200024CDE909040720CDE90B4097
:102F700007A91048FFF768F84FF4E130CDE90004E5
:102F80000C200294CDE90340059406940A4C69464E
:102F90002046FFF7D1FB206920F490402061606952
:102FA00020F02A006061E06840F40050E0600EB05C
:102FB00010BD00000000024000100140FEE7704715
:102FC00030B500F00703C3F10704042C00D9042432
:102FD000181D072801D2002300E0DB1E012505FA99
:102FE00004F0401E084098409D406D1E1540284347
:102FF00030BD7047F0B54B6A4FF040652BB1AA4227
:1030000003D08B6A04685B1E23618C690B6A002CF9
:1030100057D05BB304688B68E361CC69B4B1D1E984
:103020000B3633434F6A4E6B3E4333438E8A43EA3B
:1030300086430E6933430E6A3343CE6833432343DA
:103040008C6924E0006849688161F0BDD1E90B34E6
:1030500023434D6A4C6B2C4323438C8A43EA8443BD
:103060000C6923430C6A23438C6923E0CE69BEB10B
:10307000D1E90B373B43D1F824C04F6B47EA0C072B
:103080003B438F8A43EA8743CF683B433343234321
:103090000C682343046813436361AA42D2D1F0BD94
:1030A000D1E90B352B434E6A4D6B35432B438D8A4B
:1030B00043EA85430968234300680B431343436194
:1030C000F0BD3BB304688B68E361CC6994B1D1E98E
:1030D0000B3633434F6A4E6B3E4333438E8A43EA8B
:1030E00086430E6933430E6A3343CE68334323432A
:1030F0008C69CEE7D1E90B3423434D6A4C6B2C43EA
:1031000023438C8A43EA84430C6923430C6A89690C
:103110002343D1E7CC6964B1D1E90B3633434F6A1D
:103120004E6B3E4333438E8A43EA8643CE68334335
:10313000AFE74B6A002BC3D0D1E90B452C434D6B55
:10314000898A1D432C43006844EA8141114341614F
:10315000F0BD10B5806B00218163C16290F8411011
:10316000082905D0012180F84110FEF720FB10BD91
:1031700002680221D16001680A6842F400320A60E4
:103180000068016841F00201016010BD10B5846B58
:10319000FEF731F8022810D00020A063E062606CD6
:1031A00040F0040060642068016821F004010160BF
:1031B0002046BDE81040FEF77FBA10BD806B0021AD
:1031C00081630068016841F400310160704710B507
:1031D000806BFEF7A5FC10BD806B0021C16200680A
:1031E000016841F400310160704710B5806BFEF753
:1031F00079FD10BD074A10B51268491E11610146DC
:1032000041F288320348FEF79FFB002800D00120DE
:1032100010BD0000DC00002010B58EB0002401902D
:103220004FF48050039002918010CDE90640CDE923
:10323000044200010D94CDE908030B940C9441F273
:10324000883269460248FEF76FFA0EB010BD0000E2
:10325000DC000020074A10B51268491E11610146C2
:1032600041F288320348FEF75DFC002800D00120BF
:1032700010BD0000DC0000202DE9F0419846164604
:103280000F460446069D08E0681C06D0FEF73EF98E
:10329000A0EB0800A8420AD84DB1206880683840E9
:1032A00000D00120B042EFD10020BDE8F081042021
:1032B00084F84100606C40F0010060640120F4E794
:1032C00004490968044A01F0F0010909515CC84049
:1032D0007047000008380240165E0008044909687B
:1032E000044A01F4E05102EB91210978C84070478B
:1032F00008380240265E000804490968044A01F4BF
:10330000604102EB51310978C840704708380240EB
:10331000265E00080948006810F00C0108480BD030
:10332000042909D0082905D00C2905D15FF00C002B
:1033300000F008B80820FBE770470000083802409A
:103340000024F40070B50546FEF7D4FF104C082D9C
:103350000DD0FEF7C7FFB4FBF0F4FEF7D3FF4443F4
:10336000FEF7D8FF5FEA1070B4FBF0F070BDFEF717
:10337000B9FFB4FBF0F4FEF7C5FF4443054800680D
:10338000012100F4403001EB10404000ECE7000068
:103390000024F4000438024070B5002415462828A3
:1033A00001D9FF290BD0074951F82000D0F80210AD
:1033B00042781A702846FCF754FF204670BD0A2454
:1033C000FBE70000380400202DE9F047074642F6ED
:1033D000081000EB471092468846054600F04EFD67
:1033E000064642F6080000EB4710044600F046FD92
:1033F00006EB002086B2300200EB47111831C1F312
:103400000F20C9B24FF080730022FFF705FF41463D
:103410002348FEF7FBFA2549DFF88880224F22482F
:10342000DFF880C0A8F154081F4B603F0968A8F17D
:103430000409B838614502D9D8F8002009E099425A
:1034400002D9D9F8002004E0B94201D9426800E06D
:10345000026812F0006FEDD04FF00062614502D9B2
:1034600010484C3803E0994203D90E4850380260A6
:1034700004E0B94201D9C26000E082600848FEF76A
:10348000D7F806EB0A0086B2310A204600F019FD93
:10349000F1B2284600F015FD3046BDE8F087000087
:1034A000DC00002058640240B8600240B4030020F1
:1034B0007047000030B5154987B01348486014487C
:1034C000016841F0080101600068002500F0080073
:1034D00005904FF44870ADF80000681ECDE901502A
:1034E0000C4C694620460395FEF7B4FFA06820F017
:1034F0008000A060074824300560206840F001008B
:10350000206007B030BD0000FC090020A8000020AA
:1035100040380240000C004005490A68C2F34012DE
:103520001AB149680170002070474FF0FF307047B2
:103530000010014003490A68C2F3C012002AFAD001
:103540004860704700100140FDF7E6BF10B5424CDF
:103550000020618800F050F9032804D0042806D028
:1035600002280BD011E0608840F0020004E060887F
:1035700020F0040040F00800608006E000210220F6
:10358000FDF750F90220FDF773F9A078800708D500
:1035900000F066FA28B9608820F0020040F00400CC
:1035A0006080608801070CD5C10707D02B48FDF764
:1035B00029FCFDF75DF9608820F0010020F008008B
:1035C000608081B2C8040AD5022000F0D3FA052831
:1035D00005D1608820F4805040F010006080A07811
:1035E000C00608D500F036FB28B9608820F010002E
:1035F00040F0400060806188480608D5022000F055
:10360000B9FA062803D1608820F040006080618804
:1036100048050AD5FF2000F05DFA012805D1608831
:1036200020F4806040F020006080618888060DD51D
:10363000012000F09FFA062808D1608820F02000C1
:103640006080010502D520F4006060806088BDE8DC
:103650001040FEF765BB000000000020280100209C
:103660004A4810B5016821F00F0141F005010160E1
:10367000016801F00F010529FAD14548016841F4BC
:1036800040410160016821F48031016041490A68CC
:1036900042F480320A600A68C2F34042002AFAD03B
:1036A0003C4A7432136843F0010313601368C3F398
:1036B0004003002BFAD0026842F480720260354861
:1036C0007030026842F0010202600268C2F34002F8
:1036D000002AFAD0026802F44072B2F5807F0DD061
:1036E000026842F480320260026822F48032026092
:1036F000026822F4407242F480720260026842F46E
:10370000004202602348244A001D0368234C2340E2
:103710001A430260026822F440320260026822F01A
:10372000E0420260086840F0807008600868C0F3FA
:1037300040600028FAD017480830016821F0F001F5
:103740000160016821F4E05141F4A0510160016879
:1037500021F4604141F400410160016821F003015E
:1037600041F002010160016801F00C010829FAD161
:103770000B48FEF769FE0020FDF7F0FE05488C308F
:10378000016821F08071016010BD0000003C024022
:103790000070004000380240105040000080BFFF21
:1037A000006889091048016841F4700101600F4800
:1037B000016841F0010101600C4A002108321160EA
:1037C00002680B4B1A400260031D0A4A1A60026825
:1037D00022F48022026005480C300160024958063C
:1037E000803908607047000088ED00E00038024032
:1037F000FFFFF6FE103000242DE9F04705464FF498
:103800004270894600EB451000F038FBDFF8AC80D1
:1038100005EB850730B113280FD0172812D01C28CC
:1038200049D144E0D8F808000023012130F81720DE
:10383000284602F049F900243DE0284600F04EFFFA
:10384000012438E04FF4027000EB4510064600F00A
:1038500015FBC00703D03046012100F032FB28469B
:1038600000F024FE020004D015492846FDF796F921
:1038700003245FEA49701ED5D8F80800042200EB43
:10388000470140F6084000EB4510091D00F007FB1A
:103890000B481030014642782846D21C01F016F938
:1038A000FF2210210648FCF7EEFC042403E0284622
:1038B00000F0B6FD02242046BDE8F0879800002005
:1038C000F40400202DE9F04104004FF0FF306FD0E8
:1038D0002368022701264C494C4A4D4D062B67D2DE
:1038E000DFE803F00305151E457C26605FE00878DD
:1038F0002071117888425AD1FF206071A071E07167
:1039000020726072A072A01DE06042A04CE0487876
:103910006071FF284BD042A000F0BAFB03201CE0EE
:10392000394863798078032B19D0012B0AD0E071D4
:103930006079C01EA071C878207208796072324820
:10394000401D206130486179801C085C51788842B4
:103950000BD135A000F09CFB0420206027E0E07133
:10396000C878207208796072ECE731A008E0274837
:10397000E1790527806801290AD010291AD031A0E1
:1039800000F086FBFF2204211F48FCF77CFCACE71B
:10399000267AD0F800C0617AE3682A1D3046E047F5
:1039A000A072E068007815E000F072FB276001204B
:1039B000BDE8F081267AD0F804C0A379617A226943
:1039C0003046E047A07238B9A279281D2169FCF77A
:1039D00048FCA079801C60711DA0E5E790782870F4
:1039E000A07A00B1677160796870A07AA870207AB7
:1039F000E870D17806486279801C115416A000F056
:103A000047FB00202060D3E7F40400207C00002066
:103A100004050020533A4C454E4754480D0A000017
:103A2000533A43484B0D0A00533A494E530D0A008E
:103A3000533A4552522D43544661696C65640D0AF0
:103A40000000000057726F6E67494E530D0A000068
:103A5000533A5250590D0A00533A454E440D0A004C
:103A600010B50448FFF72EFF002801D10249487124
:103A700010BD0000D80400207C000020014800F0A8
:103A800003B80000D8040020002801D00022026002
:103A90007047000070B50E4BFF21A3F11B04DA1F25
:103AA0002361A06805680020A847A06804F11405F8
:103AB0002A1D0668FF2105202369B047A068AA1DBA
:103AC00023690668FF21B446BDE8704001206047C5
:103AD000970000202DE9F0410546234F234C88052F
:103AE0004FF000061FD5FF2D1BD0732015FB00F0F3
:103AF000074407F11E00FCF77FFD2079F8751C488C
:103B00003D767E76016811F8250001EB8501B876D7
:103B10004878F87688783877C87878770020BDE8D4
:103B2000F0810120FBE74805F9D5080501D4E068DC
:103B300010B9FFF7AFFFE66060693860E068387180
:103B4000010A7971010CB971010EF971401CE06034
:103B5000208B3881A07EB8720348FF2204211330E5
:103B6000FCF791FBDDE70000140500207C0000203D
:103B7000AC0000202DE9F84304464FF442700F4694
:103B800000EB441000F07AF9DFF8BC8004EB840508
:103B900020B102281CD0222853D109E0D8F808000F
:103BA0000023022130F81520204601F08DFF48E067
:103BB000012C0DD1B8060BD5D8F8083040F295424B
:103BC00022499889009020461B1DFDF75BF80626C8
:103BD000F80426D5204600F069FC02000AD0D8F887
:103BE00008301B4903EB4500801C009020461B1D3C
:103BF00000F062FE4FF4B855284600F03FF9014648
:103C0000284600F05EF94FF4027000EB44142046A1
:103C100000F034F900F01F01204600F052F90526AB
:103C20000FE078060DD5D8F80800094900EB4503E8
:103C3000062258880090103120461B1D00F0D4FF4A
:103C400006263046BDE8F8839800002014050020C1
:103C5000A9090020084909480A7802704A78427088
:103C60008A788270C978C17005490A7802714978EA
:103C7000417100207047000004000020B9090020B5
:103C8000A9090020FEE7000010B58021002000F007
:103C900018F90A20FDF754FB174C042290016168C3
:103CA00000F022F9616804224FF4A060091D00F0C1
:103CB0001BF9616806224FF410600C3100F014F912
:103CC000616804224FF47060083100F00DF907219B
:103CD0004FF4C85000F0F5F8D021480100F0F1F899
:103CE00008214FF4D85000F0ECF8BDE81040002156
:103CF0004FF4B05000F0E5B89800002070B500F027
:103D000031F8144C4FF400452804A0613220FDF72F
:103D100017FBA5616420FDF713FB4FF438542046D0
:103D200000F0ACF8C007FAD0FFF7AEFFFDF77AF865
:103D3000002000F049F8012000F046F8022000F0D1
:103D400043F80649044808600548018821F4804189
:103D5000018070BD00000240140500209800002082
:103D60000200002070B51648164A00F11301C02465
:103D7000C2E901010470A825457001218170C1705C
:103D8000FF230371437183710023C3710C260673F3
:103D900029264673AB2686737C26C673037441744A
:103DA0000472457281720A21C172906841F65931DC
:103DB0000180491C41818181491C8182C18270BD81
:103DC000C90900209800002010B52B4C03281BD2F5
:103DD000DFE800F0021B3400052141F2082000F06A
:103DE00070F8B42141F2083000F06BF8E02142F69F
:103DF000084000F066F8A0680023012102881846F8
:103E000001F062FE0028F6D110BD052141F2282004
:103E100000F057F8B42141F2283000F052F80021A8
:103E200042F6284000F04DF8A068002302214289A4
:103E3000012001F049FE0128F6D110BD052141F213
:103E4000482000F03EF8B42141F2483000F039F843
:103E500004214FF4C05000F034F8E42142F6484009
:103E600000F02FF8A06802210023828A084601F0A2
:103E70002BFE0228F6D110BD9800002038B5C0F303
:103E80000F24C1B24FF0807300222046FFF7C4F91F
:103E900001216846FFF7AEF99DF8000038BD70B506
:103EA0000E461546C0F30F24C1B24FF080730022B6
:103EB0002046FFF7B1F929463046BDE87040FFF7CC
:103EC00099B938B5C0F30F248DF80010C0B240F096
:103ED00004014FF0807300222046FFF79DF9012175
:103EE0006846FFF7B7F938BD70B5C0F30F240E462A
:103EF000C0B2154640F004014FF080730022204606
:103F0000FFF78AF929463046BDE87040FFF7A2B9AD
:103F100070B54FF0E0250646AC69FDF7E5FE0849AF
:103F2000B0FBF1F1714320398C4203DA6869204417
:103F3000401A00E0601AA9698142FCD270BD0000FD
:103F400040420F0070B5044612481646282C50F81F
:103F500024000278457801D9FF2906D03AB1032A16
:103F600005D0AB4205D0022511E00A250FE001255E
:103F70000DE00025D0F802001A463146FCF771F931
:103F80002046FF2C03D00449C96801B18847284660
:103F900070BD000038040020300000202DE9F047FB
:103FA000074642F2085000EB471091468846054606
:103FB000FFF764FF064642F2084000EB4710044654
:103FC000FFF75CFF06EB002086B2300200EB4711E2
:103FD0001031C1F30F20C9B241F004014FF08073DA
:103FE0000022FFF719F9264909F111000968086153
:103FF00041462348FDF7F4FD2449DFF888A0224F0D
:104000002148DFF880C0AAF1540A1F4B603F0968BD
:10401000AAF10408B838614502D9DAF8002009E0AD
:10402000994202D9D8F8002004E0B94201D9426887
:1040300000E0026812F0006FEDD04FF000626145C1
:1040400002D910484C3803E0994203D90D48503842
:10405000026004E0B94201D9C26000E08260084811
:10406000FDF7E6FA06EB090086B2310A2046FFF7B3
:1040700028FFF1B22846FFF724FF3046BDE8F0875D
:10408000DC00002058640240B8600240B403002005
:104090000FB4054B10B503A9044A029800F044F888
:1040A00010BC5DF814FB000095440008B00000202F
:1040B000002809DB00F01F02012191404009800027
:1040C00000F1E020C0F8001170470907090E002830
:1040D00004DB00F1E02080F80014704700F00F00CE
:1040E00000F1E02080F8141D70470907090E002830
:1040F00004DB00F1E02080F80014704700F00F00AE
:1041000000F1E02080F8141D704702E008C8121F7B
:1041100008C1002AFAD170477047002001E001C1B0
:10412000121F002AFBD170472DE9FF4F8DB09B462F
:104130000F460446002606E025280BD05A460F9964
:104140009047641C761C20780028F5D111B03046C9
:10415000BDE8F08F0025A8460122984900E00543FC
:1041600014F8013F203B02FA03F00842F7D120780F
:104170002E2817D114F8010F45F004052A280ED077
:104180006FF02F022078A0F1300109290AD808EB3E
:10419000880102EB410100EB0108641CF2E757F8CB
:1041A000048B641C20786C280DD004DC4C2812D0C1
:1041B0006A2811D104E074280DD07A280CD10AE0C5
:1041C00045F4001507E0617845F48015814202D17D
:1041D000641C05F58015641C2078692844D008DC2F
:1041E0000028B3D0582867D063280FD0642808D19E
:1041F0003AE0702865D0732812D075285AD07828F4
:104200005AD05A460F999047761CD5E017F8040B00
:104210008DF8000000208DF80100E946012003E040
:1042200057F8049B4FF0FF3069074FF0000501D4A9
:104230000AE06D1C45450DDA8542FADB19F80510D8
:104240000029F6D106E06D1C8542FCDB19F805104B
:104250000029F8D12E4404E019F8010B5A460F99B1
:1042600090476D1EF8D2A7E00A200021CDE9080191
:10427000C5F3025002280CD001CFC117021E71F104
:1042800000020CDA0023D0EB030063EB01012D22C6
:1042900008E0FF1D27F00707F7E80201EEE72A050F
:1042A00004D52B228DF8282001223CE0EA073AD0E1
:1042B0002022F7E70A2000E010200021CDE90801C4
:1042C00007E01020002145F00405CDE908014FF07A
:1042D0000808C5F30250022810D001CF00214FF08A
:1042E000000A2A0720D52278702A0DD0DDE908C3FC
:1042F0008CF0100C5CEA030C0CD015E0FF1D27F0CD
:104300000707F7E80201EAE740228DF828204FF07E
:10431000010A0CE050EA010306D030238DF8283062
:104320008DF82920022292462278582A04D024A20D
:104330000DF120090B9209E026A2F9E7DDE9082337
:10434000FBF75EFF0B9B9B5C09F8013D50EA010205
:10435000F4D1ADEB090020300890680701D44FF08C
:1043600001080899884503DD0898A8EB000000E0E3
:1043700000208046002506E00AA85A46405D0F99B5
:1043800090476D1C761C5545F6DB04E030205A46FC
:104390000F999047761CB8F10001A8F10108F5DCEF
:1043A00005E019F8010B5A460F999047761C0899B9
:1043B000481E08900029F4DC641CC4E609280100AA
:1043C000303132333435363738396162636465668B
:1043D000000000003031323334353637383941424D
:1043E00043444546000000003EB5074C2118CA78FA
:1043F0004D790B798DE82C008B784A78215C03A0ED
:10440000FFF746FE3EBD00009803002025782025DA
:10441000782025782025782025782025780D0A0019
:1044200070B50446082802D94FF0FF3070BD4FF434
:10443000847000EB441005461021FFF742FD28462A
:10444000FFF71CFD0028FAD14FF4027000EB441076
:104450001F21FFF736FD0D490120A0404A88824305
:104460004A808A8882438A800949002021F8140002
:104470000649891D08554FF4427000EB441420464C
:10448000FFF7FCFC0028FAD1012070BD1C000020C1
:104490002804002004490A68C2F3C012002AFAD096
:1044A000C2B24A6070470000001001402DE9F0419F
:1044B00042F2086101EB401542F20871002601EB5F
:1044C00040142846FFF7DAFC07462046FFF7D6FCE3
:1044D00000EB072007043F0C09D02846FFF7CEFC6D
:1044E00006462046FFF7CAFC00EB062086B2BE4215
:1044F000E7D13046BDE8F0812DE9F04142F20801F4
:1045000001EB401542F20811002601EB4014284649
:10451000FFF7B4FC07462046FFF7B0FC00EB07208E
:1045200007043F0C09D02846FFF7A8FC06462046A2
:10453000FFF7A4FC00EB062086B2BE42E7D130466E
:10454000BDE8F08170B500210846FCF70DF8394C44
:104550000146207038A0FFF79BFD01210020FCF7E9
:1045600003F82070014637A0FFF792FD02210020DA
:10457000FBF7FAFF2070014635A0FFF789FD032104
:104580000020FBF7F1FF2070014634A0FFF780FD0B
:104590000025681DC1B20020FBF7E6FF207002462F
:1045A000294631A0FFF774FD6D1CEDB2082DF0D344
:1045B0000D210020FBF7D8FF207001462DA0FFF74A
:1045C00067FD0E210020FBF7CFFF207001462DA0D4
:1045D000FFF75EFD0F210020FBF7C6FF20700146AC
:1045E0002CA0FFF755FD10210020FBF7BDFF207028
:1045F00001462CA0FFF74CFD11210020FBF7B4FF72
:10460000207001462BA0FFF743FD15210020FBF78A
:10461000ABFF207001462BA0FFF73AFD17210020C9
:10462000FBF7A2FF2070BDE87040014628A0FFF70D
:104630002FBD00000000002044455649443D25237D
:10464000780D0A00434F4E46313D2523780D0A0070
:10465000434F4E46323D2523780D0A00434F4E46C8
:10466000333D2523780D0A00434825643D252378F2
:104670000D0A00004249415353454E53503D2523F6
:10468000780D0A004249415353454E534E3D252370
:10469000780D0A004C4F464653454E53503D252356
:1046A000780D0A004C4F464653454E534E3D252348
:1046B000780D0A004C4F4646464C49503D2523781C
:1046C0000D0A00004D495343313D2523780D0A0062
:1046D000434F4E46343D2523780D0A0070B50446FD
:1046E000082802D94FF0FF3070BD60010830FFF795
:1046F000C5FB00F00F00012802D06FF0040070BD70
:104700004FF4427000EB44100546FFF7B7FB132847
:1047100002D06FF0020070BD4FF4847000EB4410C3
:1047200006460221FFF7CDFB3046FFF7A7FB002826
:10473000FAD12846FFF7A2FB142805D02046FFF740
:104740006FFE6FF0030070BD012070BD0EB5FCF769
:10475000EBFEFEF785FFFEF71FF94FF48000FDF733
:104760007BFBFEF791F8FEF701F9FEF759FA414895
:104770003F4900240160032141600921C0E902147E
:10478000102101614FF44071C0E90514C461046255
:10479000FDF70EF8FEF79CFAFEF736FBFEF774FB0A
:1047A000FEF7CAFB34480094016841F400410160FF
:1047B0007F200190FF20314C029069462046FDF792
:1047C000D4FD206940F4FE00206120696FF30E00E3
:1047D00040F0FF002061FCF733F9FDF7B7FA2948F4
:1047E0002749C0F864112849C0F8681100F07AFF21
:1047F0002648016841F04001016025492348254AC7
:104800000B780C309850C97888500020FBF706FED2
:104810000120FBF733FEFEF74DFEFFF72FF9FCF703
:10482000DFF81D48FCF7FCF81C4C6088800404D5B8
:10483000FCF734F96088400401D5FFF75FFA184CA3
:104840004CF6CC40206045F255502060042060605A
:1048500040F6FF70A060E0688007FCD14AF6AA2508
:1048600025602560074801F009F9FEF76FFEF8E7BB
:10487000001000A0DC00002070380240002800403A
:10488000193500082C0200203535000800300140A1
:104890000A5D00080864024051080008000000207A
:1048A0000030004018B103498860002070470120A3
:1048B000704700007C0000202DE9FF4F002583B0E9
:1048C0001F4690460446082803D9681E07B0BDE875
:1048D000F08F60014FF0010A0830FFF7CFFA8346EE
:1048E00000F00F00022806D0032804D0042802D0CC
:1048F0006FF00400EAE7B8F1000F05D0DFF8C491CB
:1049000039F8140018B11EE06FF00D00DEE74FF427
:10491000427000EB44160AFA04FA2046FFF7C6FD7F
:1049200005463046FFF7AAFA30B1674949881AEAC6
:10493000010F06D01DB106E06FF00300C6E70020AE
:10494000C4E7002DE9D00BF00701DFF87CA14FF49C
:1049500084704FF0800B0AF1060A00EB441602291E
:1049600022D003297CD0042952D02946204601F0C8
:1049700074F929F8145030464021FFF7A2FA304666
:10498000FFF77CFA0028FAD139F81410491B090402
:10499000090C29F8141003D01AF8041041F0010191
:1049A0000AF80410284691E739F814004D4670BB08
:1049B00008226946204601F015F930464021FFF7EC
:1049C00080FA3046FFF75AFA0028FAD19DF8000025
:1049D00038709DF8010078709DF80200B8709DF85D
:1049E0000300F87010999DF8040008809DF80510E8
:1049F00001EB0020109908809DF806009DF8071033
:104A00005BE02A462046049901F0ECF8B3E72AE07F
:104A100039F814004D4630BB02226946204601F0A9
:104A2000E1F830464021FFF74CFA3046FFF726FA0E
:104A30000028FAD19DF800009DF801106FF00102E6
:104A400002EB0020084480B240F2EA5125F814003D
:104A5000884206D92046FFF7E3FC6FF47A7035E709
:104A600002E00AF804B003E039F814004D4630B112
:104A700035F8145040464545C3D90546C1E70622DE
:104A80006946204601F0AEF830464021FFF719FA9A
:104A90003046FFF7F3F90028FAD19DF8000038708E
:104AA0009DF8010078709DF80200B8709DF8030031
:104AB000F8709DF804009DF8051001EB002025F822
:104AC0001400CEE7280400201C0000202DE9F05F30
:104AD00015468B460646082803D94FF0FF30BDE83F
:104AE000F09F700101240830FFF7C8F900F00F00B3
:104AF000012801D0A01FF2E775B14FF4427000EB1E
:104B000046100746FFF7BAF96FF0060A172806D0D5
:104B10001C2804D05046E2E76FF00D00DFE7DFF815
:104B2000C480B440B8F80400044213D04FF40270BB
:104B300000EB46108146FFF7A1F900F01F00C10607
:104B400024D548461021FFF7BCF9B8F80410A1435A
:104B5000A8F8041041F6087000EB4610FFF78EF934
:104B60004FF6FF7101EA8020854200D905463046A4
:104B7000FFF7C2FC81463846FFF780F917280DD0B1
:104B80001C280BD03046FFF74BFCC3E700070BD5C2
:104B90003046FFF745FC6FF00C00A0E7B8F80200C4
:104BA000044203D04D4501D9002098E74D45DED899
:104BB0002A465946304601F071F84FF4847000EBF4
:104BC000461006462021FFF77CF93046FFF756F9DC
:104BD0000028FAD1B8F8041028460C43A8F804407D
:104BE0007DE700001C0000202DE9F0471E46DDF89F
:104BF000208015468A460446082803D94FF0FF3026
:104C0000BDE8F087670108374FF001093846FFF724
:104C100035F900F00F00022806D0032804D004283C
:104C200002D06FF00400EBE75DB13078717801EBF2
:104C30000020B17801EB0020F17811EB002003D0C7
:104C40000AE06FF00D00DBE73846FFF717F9400781
:104C500002D46FF00B00D3E7B8F1000F07D138464C
:104C6000FFF70CF9400702D46FF00A00C8E74FF4D1
:104C7000427000EB44100746FFF700F9422806D0C7
:104C8000222804D0322802D06FF00600B8E740F6A0
:104C9000084000EB441004223146FFF725F941F2A9
:104CA00008004FEA182100EB4410FFF70AF941F21F
:104CB000081008F0FF0100EB4410FFF702F941F67D
:104CC000087000EB4410FFF7D9F84FF6FF7101EAC6
:104CD0008020854200D90546DFF8888009FA04F66D
:104CE0002046FFF709FC81463846FFF7C7F838B180
:104CF000B8F80200064206D04D4504D900207FE7EF
:104D00006FF003007CE74D45EAD82A46514620461D
:104D100000F0C4FF4FF4847000EB441006462021DD
:104D2000FFF7CFF84FF4027000EB44143046FFF762
:104D3000A5F80028FAD12046FFF7A0F800F01F00E0
:104D4000C10605D520461021FFF7BBF8284657E7D6
:104D50000007F0D520460821FFF7B3F86FF00C00EC
:104D60004EE700001C00002070B5044690F8620178
:104D70000025012829D0022826D1412906D0422920
:104D800006D0432909D044291CD112E0002100E0BB
:104D90000121204600F058FC14E0208FE18E88426B
:104DA00010D2211D415C204600F0B2F8208F401C3B
:104DB00007E0208F30B10821204600F0A9F8208FAD
:104DC000401E208784F8625170BD5B29FAD1022011
:104DD00084F8620170BD70B50446C08E00284BD0C7
:104DE000228F0023211D82420BD1401E80B2E0861B
:104DF000521E228743542046BDE87040012100F036
:104E000065B8002A38D0002006E02244051D565D12
:104E1000C51C401C565500B2E58E228FAD1A854246
:104E2000F3DCE08E401E80B2E086228F521E228785
:104E300043540821204600F06BF8B4F9385006E0DE
:104E400060190179204600F063F86D1C2DB2E08EE8
:104E5000A842F5DC2021204600F05AF8E08E218F90
:104E6000401A401C05B205E00821204600F050F829
:104E70006D1E2DB2002DF7DC70BD000010B500F0E6
:104E80003BFB002804D0BDE8104002A100F02CB884
:104E900010BD00001B5B324A1B5B31480000000064
:104EA00070B50546C08E298F401A04B205E0202156
:104EB000284600F02DF8641E24B2002CF7DCE98EA1
:104EC0002846BDE8704000F001B8000070B50C46FF
:104ED000054603E003A1284600F006F8641EA4B2CC
:104EE000F8D270BD0820080070B50646D0F86801F9
:104EF00000240D4600280AD005E0D6F868116D1C84
:104F00008847641CA4B228780028F6D1204670BDDA
:104F1000D0F86821002A01D00846104770470000E9
:104F200070B50646D0F85C0100EB011530462968E3
:104F3000FFF7DAFFC0F116000404240C00D10424AA
:104F40000AA13046FFF7D0FF641E2404240CF7D1D9
:104F500007A13046FFF7C8FF3046A968FFF7C4FF36
:104F60003046BDE8704003A1FFF7BEBF200000003F
:104F70002D2D00000D0A00002DE9FE430C4625A250
:104F8000804607CA8DE8070025460A2724A1404627
:104F9000FFF7AAFF6E46002C04DA24A14046FFF773
:104FA000A3FF6D420A2055B1B5FBF0F100FB115192
:104FB000B5FBF0F57F1EFFB23031F155F3E7F01984
:104FC0004CB10021411A4046FFF78EFF0821002016
:104FD0008DF808000DE00121F4E700BF04F00F0098
:104FE000092801D9573000E03030491EC9B22409E0
:104FF0007054002CF2D10EA14046FFF775FF6946B0
:105000004046FFF771FF0CA14046FFF76DFFBDE87A
:10501000FE8300003030303030303030303000002F
:1050200052657475726E3A20000000002D00000079
:105030002C203078000000000D0A00002DE9F84F08
:1050400004460025C08EA8464FF001092F460028CF
:105050007ED0221D411C0026E1868654B4F95801F9
:1050600000EBC00101EB001004EB400011462A30B8
:10507000FBF71BF920B3B4F9580100EBC00101EBB9
:10508000001104EB4100211D5C3000F077FC20B1E1
:10509000B4F85801401CA4F85801B4F85601401C5B
:1050A00081B2A4F85611052902D90521A4F8561198
:1050B000B4F95801052801DBA4F85861A4F85A6135
:1050C00000202EE0B8F1000F07D12118097920291E
:1050D00021D009291FD02C291DD021180A79D2B13D
:1050E000222A04D1B8F1000F05D000229046B9F170
:1050F000010F02D009E00122F8E70A1D04EB850345
:105100006D1CEDB24FF00009DA6309795C2906D114
:10511000401C80B203E021184FF001090E71401CC1
:1051200080B2E18E8142CDD8E686B04626877DB139
:1051300022A12046FFF7D8FE21A1D4F85CA1E06BA4
:10514000FBF7B3F801004FF0010B04F13C0900E05C
:105150002EE001D0002622E084F863B149462846BB
:1051600000F0FEF984F8638122E000BF0AEB06102C
:1051700000900168E06BFBF798F870B984F863B1B0
:10518000009801274A464068294600F005F9014683
:1051900084F863812046FFF7EFFE761CF6B2B4F880
:1051A0006001B042E2D81FB907A12046FFF79CFE7C
:1051B00020462168BDE8F84FFFF796BE0D0A0000B3
:1051C00068656C7000000000436F6D6D616E642057
:1051D0006E6F7420666F756E640D0A00411C0020AE
:1051E0000A785C2A01D01046704749786E290FD0A2
:1051F00004DC3029F8D0622904D105E0722905D0F9
:10520000742907D008467047082070470D20704762
:105210000A20704709207047F0B507460025397805
:105220000A26012328462C462D2908D00021CA1918
:10523000002192F800C0BCF1300F04D01EE04FF006
:10524000FF330121F3E75178782907D0582905D099
:10525000622905D0422903D002210FE003210DE08D
:1052600001210BE092F800C0BCF12E0F06D192F89C
:1052700001C0BCF1000F01D0042111E012F801CBF4
:10528000BCF1000FEED1012908D0022903D0032977
:1052900006D1102603E00826012501E0022602259A
:1052A0003D445A1C02D0002215441FE00122FBE7B6
:1052B0002E2A05D0A2F13007092F03D8FAB20FE049
:1052C000012412E0A2F16107052F01D8573A04E04A
:1052D000A2F14107052F02D8373AD2B200E00022EE
:1052E00000FB062004EB840254006D1C2A78002A7F
:1052F000DED1042913D194B100EE100AB8EE401AA1
:1053000000EE104AB8EE400AC1EE000A00EE103A74
:10531000B8EEC00A20EE800A10EE100AF0BD584325
:10532000F0BD00002DE9F041017827290AD02D2990
:1053300004D000BFA1F13002092A0AD8BDE8F0412B
:10534000FFF76ABF4278002AF4D0BDE8F041FFF7CA
:1053500045BFF9B1002605460446374622290AD141
:105360006C1C254607E05C280CD0222810D0A855DC
:10537000761CB6B2641C20780028F4D1AF552846BC
:10538000BDE8F081601EFFF729FFA855641CEFE718
:10539000AF55EDE70020F3E72DE9FE4F1446054633
:1053A00009297DD2DFE801F0A4050A121F31486205
:1053B000820003B0AC46BDE8F04F60475068FFF78D
:1053C000B1FF03B0AC46BDE8F04F6047A068FFF7FF
:1053D000A9FF06466068FFF7A5FF03B03146AC465B
:1053E000BDE8F04F6047E068FFF79CFF0746A06804
:1053F000FFF798FF06466068FFF794FF03B03A4650
:105400003146AC46BDE8F04F60472069FFF78AFFA0
:105410000746E068FFF786FF8046A068FFF782FF37
:1054200006466068FFF77EFF03B03B4642463146C2
:10543000AC46BDE8F04F60476069FFF773FF074671
:105440002069FFF76FFF0646E068FFF76BFF8146B4
:10545000A068FFF767FF80466068FFF763FF334689
:105460004A4641460097A847BDE8FE8FA069FFF76E
:1054700059FF82466069FFF755FF81462069FFF7B3
:1054800051FF0746E068FFF74DFF0646A068FFF7AB
:1054900049FF80466068FFF745FF3B46324600E023
:1054A00026E0CDE9009A4146A847DDE7E069FFF72D
:1054B00039FF8346A069FFF735FF82466069FFF731
:1054C00031FF81462069FFF72DFF8046E068FFF736
:1054D00029FF0746A068FFF725FF06466068FFF72B
:1054E00021FF8DE8000E43463A463146A847BBE708
:1054F0004FF0FF30B8E700000849002051F82020A5
:105500001AB192F86321012A05D0401C00B2052887
:10551000F4DB0020704751F820007047140400208D
:1055200090F862210AB1FFF71FBC0D290DD006DCEF
:1055300008290CD009290CD00A2904D105E01B291F
:1055400009D07F2903D000F0A1B9FFF777BDFFF79D
:1055500042BC00F01FBA012180F8621170470000C0
:105560002DE9F0410F460346FFF7C6FF050016D0B0
:10557000012B05D0022B12D10024D5F85C611AE072
:1055800021A1FFF7B1FC002405E021462846FFF7E2
:10559000C7FC641CA4B2B5F86001A042F5D8BDE810
:1055A000F08100BF06EB041001687868FAF77DFE11
:1055B00038B1641CE4B2B5F86001A042F2D817A17A
:1055C0001CE01BA12846FFF78FFC06EB04142846BD
:1055D0002168FFF789FC1AA12846FFF785FC2846B9
:1055E000A168FFF781FC17A12846FFF77DFCE16861
:1055F0000029D4D02846FFF777FC12A12846BDE841
:10560000F041FFF771BC00000D0A434F4D4D414E74
:1056100044204C4953543A0D0A0D0A00636F6D6DD6
:10562000616E64206E6F7420666F756E640D0A0083
:10563000636F6D6D616E642068656C70202D2D0048
:105640003A0D0A000D0A000070B50446002561B14C
:10565000012909D1B4F85A01401C00B2A4F85A013A
:10566000002819DDA4F85A5170BDB4F95A21501E12
:10567000A4F85A01B4F85611B4F95801814201DD79
:105680000B4600E003465B429A4205DC814200DDA6
:1056900008464042A4F85A012046FFF701FCB4F93D
:1056A0005A01E0B1B4F9581108440521401D90FB9E
:1056B000F1F201FB120000EBC00101EB001004EB62
:1056C0004001201D5C3100F059F9E0860028CBD064
:1056D0002087211D2046BDE87040FFF705BCE58608
:1056E000258770BD10B504461FA1FFF7FDFB20A163
:1056F0002046FFF7F9FB2EA12046FFF7F5FB3CA162
:105700002046FFF7F1FB4AA12046FFF7EDFB18A169
:105710002046FFF7E9FB0020E0862087A4F8560129
:10572000A4F85801A4F85A0184F8620150A121603C
:10573000534984F8630100BF51F8202082B1401C16
:1057400000B20528F8DB20462168FFF7CDFB4D4865
:105750004D49C4F85C01081A0009A4F8600110BDA5
:1057600041F82040EFE700000D0A0D0A000000009C
:105770002B3D3D3D3D3D3D3D3D3D3D3D3D3D3D3D6B
:105780003D3D3D3D3D3D3D3D3D3D3D3D3D3D3D3D49
:105790003D3D3D3D3D3D3D3D3D3D3D3D3D3D3D3D39
:1057A0003D3D3D3D3D3D3D3D3D3D2B0D0A00000055
:1057B0007C2020202020202020202020202020208D
:1057C0002028432920434F505952494748542032FA
:1057D000303138204C6574746572202020202020E0
:1057E000202020202020202020207C0D0A000000E6
:1057F0007C2020202020202020202020202020204D
:10580000202020204C6574746572207368656C6C70
:105810002076322E302E32202020202020202020E2
:10582000202020202020202020207C0D0A000000A5
:105830007C2020202020202020202020202020200C
:105840004275696C643A204D6172202039203230F3
:1058500032312031343A32383A3337202020202078
:10586000202020202020202020207C0D0A00000065
:105870000D0A4D6963726F4545473E3E00000000CA
:10588000140400200C5F00089C5F000870B50446FB
:10589000C08E312841D2238F221D98420AD1431C49
:1058A000E3868154208F401C20872046BDE870404D
:1058B000FFF72EBBC01A06E0238FC51C23445E5D94
:1058C000051D401E5E5500B20028F5DC208F431CEC
:1058D00023878154E08E0021401C80B2E086204462
:1058E0000171208F401E05B206E060190179204643
:1058F000FFF70EFB6D1C2DB2E08EA842F5DC218F68
:1059000080B2401A05B205E008212046FFF700FBEF
:105910006D1E2DB2002DF7DC70BD07A12046FFF7EC
:10592000E3FA20462168FFF7DFFA211D2046FFF742
:10593000DBFAE08E208770BD0D0A5761726E6967D1
:105940003A20436F6D6D616E6420697320746F6FD0
:10595000206C6F6E670D0A0030B5044600200246C9
:1059600005E0AB4209D1401C521C80B292B2A35C4C
:10597000002B02D08D5C002DF3D130BD02460020FB
:1059800002E01354401C80B20B5C002BF9D10021C3
:10599000115470472DE9F84F4FF00008C18ED0F830
:1059A0005C7104464FF0320945464646002957D0FF
:1059B00004F1040AB34601F80A60002627E000BF9C
:1059C00007EB061000900168201DFFF7C5FFE18E70
:1059D00088421AD1ADB1012D03D127A12046FFF78E
:1059E00083FA41462046FFF79BFA0098016807EBCF
:1059F00008100068FFF7B0FF4946814500D8084607
:105A000081466D1C1FFA86F8ADB2761C36B2B4F82A
:105A10006001B042D4DC002D2CD0012D02D12046F3
:105A2000FFF73EFA07EB08100168201DFFF7A6FFFD
:105A3000E086012D09D941462046FFF771FA20463C
:105A40002168FFF751FAA4F83690E28E211D02F882
:105A50000AB0E08E20872046BDE8F84FFFF744BA31
:105A6000012084F863010021FFF77AFD84F8636167
:105A70002168F0E7BDE8F88F0D0A000038B5D0F8CE
:105A80006411044649B168468847002804D19DF84E
:105A900000102046FFF744FD38BD02A1FFF724FAAD
:105AA000FEE700006572726F723A207368656C6C75
:105AB0002E72656164206D75737420626520646563
:105AC00066696E65640D0A002DE9F8431D461746A8
:105AD0000E460446082803D94FF0FF30BDE8F8838E
