:020000040800F2
:10000000E80E0020D9010008B72A0008D51500081D
:10001000B52A0008D9050008F12F000800000000EB
:10002000000000000000000000000000452E000855
:100030008908000800000000B92A0008792E00088D
:10004000F3010008F3010008F3010008F3010008C0
:10005000F3010008F3010008F3010008F3010008B0
:10006000F3010008F3010008F3010008F3010008A0
:10007000F3010008F3010008F3010008F301000890
:10008000F3010008F3010008F3010008F301000880
:10009000F3010008F3010008F30100084509000816
:1000A000F3010008F3010008F3010008F301000860
:1000B000F3010008F3010008F3010008F301000850
:1000C000F3010008F3010008F3010008F301000840
:1000D000F3010008F3010008F3010008F301000830
:1000E000F3010008F3010008F3010008F301000820
:1000F000F3010008F3010008F3010008F301000810
:10010000F3010008F3010008F3010008F3010008FF
:10011000F3010008F3010008F3010008F3010008EF
:10012000F3010008F3010008F3010008F3010008DF
:10013000F30100080000000000000000F3010008C7
:10014000F3010008F3010008F3010008F3010008BF
:10015000F3010008F3010008F3010008F3010008AF
:10016000F3010008F3010008F3010008F30100089F
:10017000F3010008F3010008F3010008000000008B
:1001800000000000F3010008000000000000000073
:10019000F30100080000000000000000F301000867
:1001A000000000000000000000000000F301000853
:1001B000F3010008F3010008F3010008F30100084F
:1001C000F3010008DFF80CD000F088F80048004781
:1001D000DD390008E80E0020064880470648004741
:1001E000FEE7FEE7FEE7FEE7FEE7FEE7FEE7FEE7E7
:1001F000FEE7FEE79D2F0008C50100082DE9F05F2E
:100200000546002092469B46884606468146402485
:100210001BE0284641464746224600F04FF8534629
:100220005A46C01A914110D311461846224600F092
:1002300036F82D1A67EB01084F46224601200021AF
:1002400000F02DF817EB00094E41201EA4F1010427
:10025000DFDC484631462A464346BDE8F09FD2B22D
:1002600001E000F8012B491EFBD270470022F6E79F
:1002700010B513460A4604461946FFF7F0FF20461C
:1002800010BD10B5002200E0521C835C8C5CA342C0
:1002900001D1002BF8D1D8B2E1B2401A10BD202A0A
:1002A00004DB203A00FA02F1002070479140C2F1CD
:1002B000200320FA03F3194390407047202A04DBFF
:1002C000203A21FA02F00021704721FA02F3D040CF
:1002D000C2F120029140084319467047064C074D71
:1002E00006E0E06840F0010394E807009847103406
:1002F000AC42F6D3FFF76AFFC44D0008E44D000896
:1003000010B5044600F000F92146BDE8104001A0F8
:1003100003F022B8436F6D6D616E64202578205321
:10032000454E44210D0A0000064810B5016841F011
:1003300080010160102000F0E7F8BDE8104002A045
:1003400003F00AB8003C01405374617274204163A9
:1003500071756973696F6E210D0A000003480168A9
:1003600021F08001016002A002F0F6BF003C0140D4
:1003700053746F7020416371756973696F6E210DDD
:100380000A0000000A4610B50146002000F0E2F81D
:10039000BDE8104001A002F0DFBF00003132393962
:1003A00027732052656720686173206265656E203F
:1003B0007772697474656E210D0A000070B5203182
:1003C000C8B272B61D4D4FF40001A9611C4CE16822
:1003D000A168C1F340010029FAD0E060A06810F0E4
:1003E000010FFBD0E068042002F022FFA068C0F3F8
:1003F00040000028FAD00026E660A06810F0010F47
:10040000FBD0E068042002F013FFA068C0F34000B6
:100410000028FAD0E660A06810F0010FFBD0A068B9
:10042000C0F3C0100028FAD1E068C4B2022002F084
:10043000FFFE8020A86162B6204670BD0004024025
:100440000030014010B5104904464FF400008861A7
:10045000022002F0EDFE1B21204600F01BF80B49A4
:100460000868C0F340100028FAD00948426822F01A
:1004700002024260426822F0010242604FF00060D6
:1004800088602020886010BD0004024000640240A3
:10049000003001402DE9F041174F044688460A46D6
:1004A0000021384601F05AF9144E134D30780C35BE
:1004B00044510021384601F03DF90021384601F051
:1004C0002FF90F4C606840F0010060604246032144
:1004D000384601F043F9F1780A484851032138467B
:1004E00001F028F90321384601F01AF9606840F05C
:1004F00002006060BDE8F08100640240BC4D00086D
:10050000003001402B00002070B5054672B60F4C3C
:100510004FF40000A061022002F08AFE0C498868B6
:10052000C0F340000028FAD0CD60886810F0010FB9
:10053000FBD0C868022002F07BFE8020A06162B67A
:100540000220BDE8704002F073BE000000040240CB
:100550000030014070B540311646C8B272B61C4D2D
:100560004FF40001A9611B4CA168C1F340010029AF
:10057000FAD0E060A06810F0010FFBD0E068042022
:1005800002F056FEA068C0F340000028FAD0002018
:10059000E060A06810F0010FFBD0E068042002F0DA
:1005A00047FEA068C0F340000028FAD0E660A068CB
:1005B00010F0010FFBD0A068C0F3C0100028FAD1E2
:1005C000022002F035FE8020A86162B670BD0000F6
:1005D0000004024000300140FEE7000001681823DB
:1005E000CAB2103AB2FBF3F2054B6FF30901032ACA
:1005F0009B5CC36500D9091D8165084670470000F2
:10060000484D000810B5014600208B698A6A4FF0FA
:10061000C07453B1B3F5005F15D072B1012A0CD08C
:10062000022A0AD0032A09D104E01AB1012A06D00D
:10063000022A03D1C96AC90100D5012010BDC96AC7
:10064000A142FAD010BD002AF7D0012AF2D0022A26
:10065000F3D0032AF3D010BD30B50468256825F423
:1006600080252560046863608368402B036803D09D
:1006700099600068C26030BD9A600068C16030BD9A
:100680002DE9F74F154606464FF6FF7A082802D99E
:100690005046BDE8FE8F70010124083002F080FD55
:1006A00000F00F00012802D04FF6FB70F1E775B1A2
:1006B0004FF4427000EB4610074602F071FD4FF612
:1006C000F97B172806D01C2804D05846E1E74FF6DE
:1006D000F270DEE7DFF8C080B440B8F804000442EE
:1006E0001CD04FF4027000EB4610814602F058FD1A
:1006F00000F01F00C10609D54846102102F073FD25
:10070000B8F80410A143A8F8041007E0000705D5C5
:10071000304602F0CDFF4FF6F370BAE741F60870AD
:1007200000EB461002F03CFD0AEA8020854200D929
:100730000546304603F028F88146384602F030FD81
:10074000172805D01C2803D0304602F0B1FFBCE7C3
:10075000B8F80200044203D04D4501D9002098E7C3
:100760004D45E6D8AAB23046019902F07BFD074616
:100770004FF4847000EB46100546202102F033FD53
:10078000284602F00DFD0028FAD1B8F804103846CA
:100790000C43A8F804407CE71C00002038B505464F
:1007A0004FF4427000EB451002F0FAFC48B11328F8
:1007B00016D0172818D01C2802D1284602F078FF3E
:1007C00038BD002341F288320121284604F06AF93D
:1007D00042F6087000EB4510022102F004FD38BD1E
:1007E000284603F0C3F838BD0422694640F60840A5
:1007F00002F0E7FC4FF4027000EB4510044602F0F3
:10080000CFFCC00703D02046012102F0ECFC2846B3
:1008100002F094FF0200E6D00449284603F060F994
:1008200082B202492846FFF72BFF38BD6200002044
:1008300038B504464FF4427000EB441002F0B0FCAF
:1008400098B1222810D14FF4FA7000F06BFA0C48DE
:100850004FF480620B49406800EB04131889009044
:1008600020460A3303F0AEF938BD01B02046BDE89A
:100870003040002341F2B352022104F013B90000CA
:10088000000000206204002070470000F8B52C48EA
:1008900004220068017A491C8DF80010417A491C35
:1008A0008DF80110817A491C8DF80210C07A6946D2
:1008B000401C8DF8030040F6084002F0A5FC012121
:1008C000082002F090FC01214FF4C05002F08BFC94
:1008D0004FF484760121304602F085FC052000F0BB
:1008E00021FA4FF4427002F05BFC132804D010216F
:1008F000304602F078FC16E00421304602F073FC2A
:100900004FF402754FF4C167284602F049FC10F01D
:100910001F0403D02146284602F065FC052000F0A4
:1009200001FA200701D50020F8BD384602F038FC56
:10093000FF28E9D01021304602F055FCFF20F8BD19
:100940000000002010B5402000F0AAFF084C08B1BC
:1009500040202060802000F0A3FF002806D08020E7
:100960002060BDE810400348FFF76CBD10BD0000DB
:10097000143C0140440A002070470000024801680E
:1009800002A002F0E9BC0000240C0040434E543D9C
:1009900025640D0A0000000070B5040003D094F82F
:1009A000200010B104E0012070BD204600F082F864
:1009B0002068016821F00201016000F097FA054605
:1009C000052604E000F092FA401B0A2811D820689E
:1009D00040688007F6D42068016841F00101016099
:1009E00000F084FA05460BE000F080FA401B0A286C
:1009F00006D9606A40F40030606284F82060D2E773
:100A000020684068C007EFD0207E01282068016878
:100A10003DD021F080010160607E012820680168DE
:100A200038D021F040010160A07E012820680168D3
:100A300033D021F020010160E07E012820680168A8
:100A40002ED041F010010160207F0128206801684C
:100A500029D021F008010160607F01282068016829
:100A600024D021F004010160D4E902010843D4E953
:100A70000412114308436168491E08432168C86194
:100A800000206062012084F82000002070BD41F049
:100A90008001C0E741F04001C5E741F02001CAE70D
:100AA00021F01001CFE741F00801D4E741F0040143
:100AB000D9E7000010B586B0044614216846FFF758
:100AC000D5FB14492068884221D1134800210268CF
:100AD00042F000720260006800F0007005900E485D
:100AE0001038026842F001020260006800F0010064
:100AF00005904FF4C05000900220CDE90101032081
:100B00000390092004906946044800F01DF906B0DE
:100B100010BD000000640040403802400000024068
:100B20002DE9F0410446876D00F0E0F9064694F89F
:100B300035000025022806D08020606584F83450F6
:100B40000120BDE8F0812068016821F016010160F4
:100B50002068416921F080014161206C08B9A06CD6
:100B600020B12068016821F0080101602068016857
:100B700021F0010101600BE000F0B8F9801B0528AD
:100B800006D92020606504F8345F03206070D8E740
:100B900020680068C007EFD194F85C103F208840BF
:100BA000B86004F8345F012060700020C9E790F855
:100BB0003510022903D080214165012070470521AD
:100BC00080F835100068016821F001010160002003
:100BD0007047406D704700002DE9F041044600F079
:100BE00085F906465CB1002584F83450022084F86B
:100BF00035002068016821F0010101600DE001204D
:100C0000BDE8F08100F072F9801B052805D920208D
:100C10006065032084F83500F2E720680068C007AB
:100C2000F0D12268116820480140D4E9010318433B
:100C3000D4E903363343184363691843A36918435F
:100C4000E3691843236A18430843616A042903D1FE
:100C5000D4E90B1319430843106020684069666AA1
:100C600020F0070130460E43012704280CD1A06A6A
:100C70000643E06A40B12046FFF7C4FC20B14020A3
:100C8000606584F83570BAE7206846612046FFF752
:100C9000A5FC94F85C203F2191408160656584F853
:100CA00035700020ACE700003F8010F02DE9F041E6
:100CB0000446866D90F83400002501280DD00120EF
:100CC00084F8340094F835700020012F07D084F8A0
:100CD000340002252846BDE8F0810220FBE7022708
:100CE00084F8357060652046FFF7B6FC94F85C1018
:100CF0003F208840B0602068016841F01601016023
:100D00002068416941F080014161206C20B1206878
:100D1000016841F0080101602068016841F00101AB
:100D20000160D7E770B5044600F0E0F80546601CA6
:100D300002D004480078044400F0D8F8401BA042D8
:100D4000FAD370BD0C0000202DE9F84FDFF874B124
:100D500000224FF001084FF0030A4FF00F090BF18A
:100D6000040E00BF0B6808FA02F42340A3426ED1C0
:100D70004D68022D01D0122D0ED1D50800EB850C47
:100D8000DCF820505607F70E09FA07F6B5430E694E
:100D9000BE402E43CCF82060066855000F790AFA51
:100DA00005FC07F0030726EA0C06AF40374307604F
:100DB0004E68012E05D0022E03D0112E01D0122E26
:100DC0000ED18668CF6826EA0C06AF4037438760AD
:100DD0004668A6430C79C4F300149440344344603D
:100DE000C4688E6824EA0C04AE402643C6604C6892
:100DF000E40060D5344C256845F4804525602468BE
:100E000022F0030504F480440094304C2E19D6F8E7
:100E1000084895072F0F09FA07F5AC432C4DA84257
:100E200001D100251FE02B4DA84201D101251AE078
:100E3000294DA84201D1022515E0284DA84201D133
:100E4000032510E0264DA84202D104250BE032E034
:100E5000244DA84201D1052505E0234DA84201D12A
:100E6000062500E00725BD402543C6F80858DBF8F5
:100E700000405D464E689C43F60300D51C432C6041
:100E8000DEF8004075464E689C43B60300D51C430F
:100E90002C600C4D08352C684E689C43F60200D53A
:100EA0001C432C60074D0C352C684E689C43B602E1
:100EB00000D51C432C60521C102AFFF453AFBDE830
:100EC000F88F0000003C01404438024000300140EF
:100ED000000002400004024000080240000C0240F2
:100EE00000100240001402400018024001488068CF
:100EF000704700000C00002002488168027811440D
:100F0000816070470C0000200B4810B5016841F467
:100F100000710160016841F480610160016841F481
:100F200080710160032000F061F8002000F006F8F5
:100F300000F024F8002010BD003C024070B50D4DBB
:100F400004464FF47A712878B1FBF0F00A49096839
:100F5000B1FBF0F000F02AFB48B9102C07D20022B8
:100F60002146501E00F022F800206C6070BD012068
:100F700070BD00000C000020180000200A4808B5D1
:100F8000016841F480410160006800F480400090F5
:100F90000548001F016841F080510160006800F0C1
:100FA0008050009008BD000044380240F0B40E4B61
:100FB0001B680C46C3F30223C3F10705042D00D9B7
:100FC0000425191D072901D2002300E0DB1E01269C
:100FD00006FA05F1491E214099409E40761E1640B2
:100FE0003143F0BC02F0C8B90CED00E0064900F056
:100FF000070208684FF6FF03184040EA0220034A40
:1010000010430860704700000CED00E00000FA0596
:10101000F8B504460025FFF769FF064694F841003D
:10102000800731D5002084F8400020680168490716
:101030000BD5016821F004010160E06BFFF770FD42
:1010400018B1606C40F0040060642068016841F0F1
:1010500002010160A06C009033460122022120466B
:1010600001F060FE05000FD121680220C860A06C6D
:101070000090334600222021204601F053FE050057
:1010800002D1012084F841002846F8BD70470000D5
:1010900070B5044690F84100002580072CD500204B
:1010A00084F84000082084F841002068016821F499
:1010B000F811016020680168490711D5016821F025
:1010C00004010160E16B0D480865E06BFFF76FFDFF
:1010D00090B1012084F841002046FFF7D7FF0BE0D4
:1010E0000221C1602068016841F40031016020687C
:1010F000016841F002010160284670BD192C00080A
:101100002DE9F84F17468B460446FFF7EFFE82465F
:1011100094F8400001280ED0012684F8406094F82D
:1011200041004FF00008012807D0022584F84080D4
:101130002846BDE8F88F0220FBE7C4F844804FF052
:10114000020984F84190534600222021204600974E
:1011500001F0E8FD0500E9D100225946204601F0E2
:10116000ACFCDBF8240058B953460122022120468A
:10117000009701F0D7FD0500D8D12168C1F80C9087
:1011800084F84160D2E77047F8B50446FFF7AEFE39
:1011900006465CB194F84000012809D0012784F884
:1011A000407094F84100002520B10BE00120F8BD0B
:1011B0000220F8BD84F84050204600F041F841F28A
:1011C0008830A06420680168A2686FF0FF0321F4F2
:1011D000F85103EB022211430160A06C00903346EA
:1011E00000222021204601F09DFD08BBE269E16854
:1011F00023791143226A42EA036211432268136889
:101200000D4E334019431160D4E905121143226891
:1012100053680A4E3340268A43EA06431943516015
:1012200021680A6842F001020A60656484F841702E
:1012300084F84050F8BD00002FFFFF00FEF8E0FFEB
:101240002DE9F04186B0064614216846FFF70EF8F6
:101250003049306888425AD12F480025016841F052
:101260000201016000682C4900F002000839059075
:10127000086840F004000860086800F00400059069
:10128000086840F008000860086800F00800059051
:10129000086840F0020008600868022400F00200BC
:1012A00005904FF4C06003274FF009088DE8B101A5
:1012B00069461A48FFF748FD08208DE8B1016946E4
:1012C0001748FFF741FD4FF040080A20CDF8008095
:1012D000CDE9037069461348CDE90145FFF734FDB8
:1012E000124C114820607806C4E901084FF4806070
:1012F000C4E903506561A561E56125622046656228
:10130000FFF76AFC08B1FFF737FBF463A66306B08A
:10131000BDE8F081001000A038380240000802400B
:10132000000C024000040240B8640240600A002041
:101330002DE9F84F15460F460446FFF7D7FD8246C4
:101340002068816994F8402000F12009012A0DD01D
:10135000012684F8406094F841204FF00008012AEB
:1013600006D0022084F84080BDE8F88F0220FBE719
:10137000C4F84480B7B3222284F841200269521C89
:10138000A2630269521C62632763426922F04062D1
:1013900042F080624261206881610DE006212046B2
:1013A00001F0C0FCD8B999F80020206B411C2163E2
:1013B0000270A06B401EA063A06B53464FF0010269
:1013C00000950028EAD14FF00201204601F0AAFC66
:1013D00028B921680220C8602046FFF719FE84F86A
:1013E0004160BFE7FFE7606C40F0080060640120E7
:1013F000B8E700002DE9F84F15460F460446FFF701
:1014000075FD8246206894F8401000F120090129FA
:101410000ED0012684F8406094F841104FF0000887
:10142000012907D05FF0020084F84080BDE8F88F02
:101430000220FBE7C4F8448097B3122184F84110DE
:101440000169491CE1620169491CA1626762416945
:1014500021F0406141610DE00421204601F062FC71
:10146000D8B9606A411C6162017889F80010E06AAD
:10147000401EE062E06A53464FF0010200950028EA
:10148000EAD14FF00201204601F04CFC28B9216856
:101490000220C8602046FFF7BBFD84F84160C3E727
:1014A000FFE7606C40F0080060640120BCE70000CA
:1014B00070B5036804460026186994F84020401C63
:1014C000012A09D0012284F8402094F84120002507
:1014D000012A03D002261EE0022070BD6564A9B176
:1014E000E26B5269DAB1B2F5006F03D0B2F5805FFA
:1014F00007D015E0C20709D1227AD20706D14008E9
:101500000DE0820702D1227A920707D0606C40F08A
:1015100008006064012684F8405036E08008E062EC
:10152000122084F841000320D860E06AA062616262
:101530002068426922F040624261E26B1448D06345
:10154000E26B14481064E26B1348D064E06B0565ED
:10155000E26B40209060E06B0068026822F0C002FD
:1015600042F040020260A36A2268E06B2032FFF77B
:101570009DFB84F840502068016841F4803101608F
:101580002068016841F004010160304670BD000030
:10159000832C0008952C0008532C0008704700008D
:1015A00001480068704700001800002010B5401E78
:1015B000B0F1807F01D3012010BD4FF0E0246061C5
:1015C0000F21601701F0D8FE0020A06107202061E4
:1015D000002010BDFEE7000030B5134C4B68002220
:1015E000A468124D04F00104AD6805F001052C4318
:1015F0000F4DAD6805F001052C4302D001221046C5
:1016000030BD0C4D53B10C681C43D1E902310B4382
:1016100041681C4329400C434460F0E74368096873
:101620002B400B434360EAE70020014000210140CA
:1016300000220140E010FCFF30B58368002213F067
:10164000010F02D00122104630BD8C680B68234385
:101650004468054D2C40234343608368496823F464
:1016600000630B438360EEE7FFFEFFFC30B54A6882
:101670008468002314F0010F02D00123184630BD06
:1016800032B18C682243446824F46844224302E067
:10169000426822F468424260D1E90324224384680C
:1016A000074D2C400D6805F070652C432243826085
:1016B0004968C26A22F470020A43C262DEE700008F
:1016C000FDFCFFC0044908B50A6802430A600968C6
:1016D0000140009108BD000030380240044908B5BF
:1016E0000A6802430A6009680140009108BD0000D1
:1016F00040380240044908B50A6802430A60096894
:101700000140009108BD000044380240034A1430F3
:10171000515C0A5822F004020A507047444C0008F9
:10172000034A515C425822F01002425070470000B8
:10173000BC4D0008034A515C425842F0010242503D
:1017400070470000BC4D0008034B595C435823F020
:101750006063134343507047444C0008044B001D22
:10176000595C0B586FF30F0313430B507047000085
:10177000BC4D0008034B595C435823F0C00313438E
:1017800043507047444C0008034B595C435823F4C2
:101790008063134343507047444C0008034B595C2B
:1017A000435823F4C043134343507047444C00084C
:1017B000034B595C435823F49073134343507047D1
:1017C000444C0008034B595C435823F40073134303
:1017D00043507047444C0008034B595C435823F472
:1017E000C053134343507047444C0008034B595CAB
:1017F000435823F44033134343507047444C00088C
:1018000030B5264A002405790168131F85B371B3EA
:1018100045798DB1012D17D0022D18D0012483797F
:101820002BB31E4908310A1F012B18D0022B20D0E0
:10183000032B22D0012428E015688D431560016830
:101840001A680A431A60EAE71D688D4301E01D68C3
:101850000D431D60016813680B431360DFE70368E5
:101860000D689D430D6000681168014311600CE034
:101870000DE0036815689D4302E0036815681D4389
:10188000156000680A6802430A60204630BD1D6882
:101890008D431D60006811688143E7E7043C014007
:1018A00003490968884301D0002070470120704730
:1018B000143C0140F0B50A68032492FAA2F2B2FA8D
:1018C00082F30F257EE0324601269E40324078D0DA
:1018D000D1F804E0066892FAA2F7B7FA87F74FEA60
:1018E000470C04FA0CF7BE4392FAA2F7B7FA87F74F
:1018F0007F000EFA07FE46EA0E0606604E68012ECD
:1019000001D0022E15D1D1F808E0866892FAA2F72C
:10191000B7FA87F74FEA470C04FA0CF7BE4392FA7E
:10192000A2F7B7FA87F77F000EFA07FE46EA0E061F
:101930008660D1F810C0C66892FAA2F7B7FA87F7A6
:101940007F0004FA07FE92FAA2F7B7FA87F77F0042
:1019500026EA0E060CFA07FC46EA0C06C6604E683C
:10196000022E2ED192FAA2F6B6FA86F6082E4E690B
:1019700013D2076A92FAA2FCBCFA8CFC4FEA8C0CD8
:1019800005FA0CFC92FAA2F2B2FA82F2920027EA6D
:101990000C0796403743076213E0476A120A92FA2F
:1019A000A2FCBCFA8CFC4FEA8C0C05FA0CFC92FAF7
:1019B000A2F2B2FA82F2920027EA0C07964037436D
:1019C00047625B1C0A681646DA407FF47CAF4A68BF
:1019D000012A01D0022A07D1CB68416832469143DF
:1019E00006FB03F2114341600020F0BD30B50368EF
:1019F00091FAA1F4B4FA84F465000324AC4091FA9E
:101A0000A1F1B1FA81F14900A3438A401343036075
:101A100030BD30B5C36891FAA1F4B4FA84F465001E
:101A20000324AC4091FAA1F1B1FA81F14900A3433A
:101A30008A401343C36030BD30B5214C4568B1FBCB
:101A4000F4F425F03F05254345601E4DAA4207D911
:101A50004FF4967504FB05F44FF47A75B4FBF5F476
:101A6000056A04F1010425F03F0544EA0504046217
:101A700013D96BB102EBC20404EB0212B1FBF2F416
:101A8000240508D0B1FBF2F1194341F400410FE005
:101A900002EB4202F2E70121F6E75200B1FBF2F35A
:101AA000C3F30B03042B01D2042101E0B1FBF2F1DB
:101AB000C2694CF6FF739A430A43C26130BD00000D
:101AC00040420F00A08601007FB5044600680D4625
:101AD00020F001002060684600F02AF8D5E90301F3
:101AE000626A084322F01F0202436262D5E90123C1
:101AF00020460299FFF7A0FFE9696869A26848F2E9
:101B0000FF339A4308430243A2602868216821F00A
:101B10001A0101432160206840F001002060A8699B
:101B2000216821F480610143216004B0002070BD70
:101B300010B5044601F044F9206001F017F9606027
:101B400001F022F9A060606801F02CF9E06010BD9E
:101B50000248006800F03F0070470000043802406F
:101B60000248006800F4800070470000043802401A
:101B700002480068C0F38810704700000438024033
:101B80000248006800F0E04070470000043802405E
:101B900010B54903029CDBB2E4B241EA044141EAD8
:101BA0000321D2B211434268024B1A400A434260F9
:101BB00010BD0000C00000FFF8B514460F00054638
:101BC0004FF0010606D16078C10603D520F0100061
:101BD0000A306070CA20686253206862284600F0AC
:101BE0003FF8012831D0E0781FB100906378A278E7
:101BF0001EE00A21B0FBF1F201FB1202B0FBF1F092
:101C000042EA00106278C0B2B2FBF1F301FB132389
:101C1000B2FBF1F243EA0212D3B2A2780090B2FB17
:101C2000F1F601FB1626B2FBF1F146EA0111CAB248
:101C300021782846FFF7ACFF08496FF08000C860A4
:101C4000A868C0F3401020B10026FF20686230462B
:101C5000F8BD284600F0B4F80646F6E70028004034
:101C600018B54FF47A710091C1680022C1F3801158
:101C7000A9B9511EC160C1684FF0E023C1F38011C2
:101C80000BE01969C1F3004111B10099491E00919F
:101C9000C168009CC1F380111CB10029F1D010462D
:101CA00018BD0122FBE770B504460126CA200D4687
:101CB0006062532060622046FFF7D2FF012816D0F1
:101CC0002868A16821F040010143A160A86821694A
:101CD0006FF30E0101432161A888216921F4FE01FF
:101CE00041EA004020616FF08000E0600026FF20A4
:101CF0006062304670BD000010B5D2B241EA0241C8
:101D0000DAB2029C41EA0221E2B211430268024BBC
:101D10001A400A43026010BD808080FFF8B5054676
:101D20000F460126A9681446002011F0400F00D18B
:101D30002060CA206862532068622846FFF790FF3F
:101D4000012832D027B1A0790090637922791FE071
:101D5000A1790A20B1FBF0F200FB1212B1FBF0F105
:101D600042EA01116279C9B2B2FBF0F300FB13231E
:101D7000B2FBF0F243EA0212D3B222790091B2FB35
:101D8000F0F600FB1626B2FBF0F046EA0010C2B2F5
:101D900028462168FFF7B0FF08496FF08000C8604F
:101DA000A868C0F3401020B10026FF2068623046CA
:101DB000F8BD284600F004F80646F6E70028004083
:101DC00038B54FF47A740094C268002102F08002A2
:101DD00062F0A002C260C2684FF0E023C2F340127A
:101DE0000BE01A69C2F3004212B1009A521E00922F
:101DF000C268009DC2F34012B5B1002AF1D189B981
:101E00000094C268C2F340120AE01A69C2F30042A9
:101E10000AB1621E0092C268009CC2F340121CB15B
:101E2000002AF2D0084638BD0121FBE710B503684F
:101E30000122C3F380132BBBD1E900231A43D1E95C
:101E4000023423431A430B691A434B691A438B69C3
:101E50001A43CB691A430B6A1A4303684FF6BF74DF
:101E6000A3431A43026042684B6922F0040242EA2B
:101E7000134242600A6AB2F5005F02D1898C89B2CE
:101E800001610022C16921F40061C161104610BDE9
:101E90000A06930D074A1A44D2F8083823EA114378
:101EA000090C91FAA1F1B1FA81F188400343C2F81B
:101EB0000838704700300140014908607047000051
:101EC00018000020F0B50268254B264D264E274FFE
:101ED000274C4FF0804C984209D0604507D0A8426B
:101EE00005D0B04203D0B84201D0A04205D1D1F80C
:101EF00004E022F0700242EA0E0298421BD06045D4
:101F000019D0A84217D0B04215D0B84213D0A04281
:101F100011D0184DA8420ED0174DA8420BD0174D26
:101F2000A84208D0164DA84205D0164DA84202D0AE
:101F3000154DA84203D1CD6822F440722A430260B5
:101F40008A68C2620A888262984201D0A04201D1A6
:101F5000097C0163416941F0010141610020F0BD4C
:101F6000000001400004004000080040000C004058
:101F7000000401400040014000440140004801408D
:101F800000180040001C004000200040012919D02A
:101F9000042919D0102919D0402919D0B1F5807F12
:101FA00018D0B1F5806F17D006210C4A1830525C5A
:101FB00010440268094BDB1D5B5C042199408A4395
:101FC000026070470021F0E70121EEE70221ECE713
:101FD0000321EAE70421E8E70521E6E7364C00089B
:101FE000F0B5012600236E4C6E4D012908D0102952
:101FF0003BD0B1F5807F73D0B1F5805F6ED1A6E0A4
:10200000016A21F001010162016A46688769D2F81C
:1020100000C027F0730747EA0C07D2F810C021F080
:10202000020141EA0C01D2F804C021F0010141EAA9
:102030000C01A04201D0A84212D1546921F008013C
:1020400041EA8401946821F0040141EA8401956920
:1020500026F480742C43D56924F4007444EA4506C0
:1020600046608761D26842636FE0016A21F0100127
:102070000162066A41688769D2F800C027F4E64722
:1020800047EA0C27D2F810C026F0200646EA0C16C4
:10209000D2F804C026F0100646EA0C16A04201D081
:1020A000A84213D1556926F0800444EA8514956846
:1020B00024F0400444EA8516946921F4806141EAE1
:1020C0008401D46921F4006141EAC401416087615F
:1020D000D168816361E003E000E01E463046F0BD58
:1020E000016A21F480710162016A4668C769D2F809
:1020F00000C027F0730747EA0C07D2F810C021F49C
:10210000007141EA0C21D2F804C021F4807141EA47
:102110000C21A04201D0A84213D1546921F40061DE
:1021200041EA8421946821F4806141EA842195691F
:1021300026F4805444EA0514D56924F4005444EA92
:1021400045164660C761D268C2630162C5E7016A8D
:1021500021F480510162066A4168C769D2F800C063
:1021600027F4E64747EA0C27D2F810C026F40056B9
:1021700046EA0C36D2F804C026F4805646EA0C36FD
:10218000A04201D0A84204D1946921F4804141EADF
:1021900084114160C761D168016406629DE7000057
:1021A00000000140000401407FB50446C0680D46B0
:1021B0000126C0F34030C0BBE9686868AA690843DB
:1021C000296911430843E16849F20C6291430843CD
:1021D000E060A868216921F44051014321616869E8
:1021E000616921F44071014361616846FFF7A0FC19
:1021F0000F48844208D00F4884420DD00E488442D4
:102200000AD00E48844201D1039906E00C4884426A
:1022100002D00C48844208D1029931B12B6823B115
:1022200000262046AA6900F00FF804B0304670BDC1
:1022300000100140004400400048004000140140EC
:10224000004C004000500040F0B56424322501EB02
:10225000C10606EB0111B2F5004F2AD09A00B1FB7E
:10226000F2F3B3FBF4F3B1FBF2F66FF018077B4324
:1022700006EB8303B1FBF2F605EB0313B3FBF4F3B8
:10228000B6FBF4F603F0F00303EB0613B1FBF2F632
:10229000B1FBF2F1B1FBF4F1794306EB810105EBFF
:1022A0000111B1FBF4F101F00F01194489B2816011
:1022B000F0BD5A00B1FBF2F6B6FBF4F6B1FBF2F753
:1022C000B1FBF2F36FF0180C06FB0CF607EB860679
:1022D00005EBC606B3FBF4F3B6FBF4F61B0106F000
:1022E000F80603EB4603B1FBF2F6B1FBF2F1B1FBEA
:1022F000F4F101FB0CF106EB810105EBC101B1FB2F
:10230000F4F101F00701D0E730B593B000240F9449
:102310001094142168461194FDF7A8FF0B940C94B7
:102320000D94182105A80E94FDF7A0FF4FF48070BE
:10233000FFF7E0F90120FFF7C5F901200590032020
:10234000069005A909942648FFF7B4FA254D0F9485
:1023500010940FA928461194FFF76EF90094019488
:1023600002940394694628460494FFF77FF9A8680D
:1023700040F48060A8604FF48030CDE90B040BA9D5
:102380001948FFF729F94FF44072681592FAA2F242
:102390000104B2FA82F2D04005EB8000C26A22F05A
:1023A0001F02C26291FAA1F0B0FA80F0C14005EBC1
:1023B0008100C1684FF0F87292FAA2F3B3FA83F386
:1023C00024FA03F307259D4092FAA2F2B2FA82F2B0
:1023D00024FA02F2A94394402143C16013B030BDF6
:1023E0000000024000200140002301400948084944
:1023F00001601021416000218160C1600161416183
:10240000017641768176C17601774177FEF7C4BACD
:1024100000640040640800202DE9F04F89B00024DA
:102420000694182168460794FDF720FF1020FFF757
:1024300049F90420FFF746F98020FFF743F901200E
:10244000FFF740F90220FFF73DF90820FFF73AF9BE
:10245000DFF8109248F27D000204C9F81820DFF876
:1024600008A24FF006524FF40658CAF81820DFF8B9
:10247000FCB14FF07062CBF818207D4E4FF0014157
:10248000B1617C4F4FF06071B96100900125CDE9D9
:1024900001540394694648460494FFF70BFACDF8BB
:1024A0000080CDE901540394694650460494FFF737
:1024B00001FA4FF08008CDE9008469463046049463
:1024C000FFF7F8F93020CDE900046946504604943E
:1024D000FFF7F0F90720CDE9000469463846049477
:1024E000FFF7E8F94FF4E340CDE9000469464846B8
:1024F0000494FFF7DFF94FF470600090CDE90154C8
:102500000394694658460494FFF7D4F94FF4014008
:102510000090CDE901540394694630460494FFF7D6
:10252000C9F94FF460700090CDE9015403946946F5
:1025300038460494FFF7BEF94F490220FFF7A8FC84
:102540004FF470210320FFF7A3FC4C490320FFF751
:102550009FFC4B490320FFF79BFC4FF470010420C4
:10256000FFF796FC40208DF81C5006908DF81D401A
:102570008DF81E5006A8FFF743F98DF81C508DF812
:102580001D40022606958DF81E6006A8FFF738F953
:1025900010208DF81C5006908DF81D408DF81E50AF
:1025A00006A8FFF72DF98DF81C508DF81D40CDF8C9
:1025B00018808DF81E6006A8FFF722F98DF81C50D0
:1025C0008DF81D4006968DF81E5006A8FFF718F9E5
:1025D000002240215046FFF71CFA002201215846F4
:1025E000FFF717FA002210215846FFF712FA0022CF
:1025F00080215846FFF70DFA002202214846FFF7D6
:1026000008FA002240215046FFF7F0F9002201218C
:102610005846FFF7EBF9002210215846FFF7E6F97C
:10262000002280215846FFF7E1F9002202214846A6
:10263000FFF7DCF913480068C0F30220011D0729E9
:1026400001D2002000E0C01E0F498440200181F823
:1026500000044FF0E0214FF40000C1F8000109B080
:10266000BDE8F08F0010024000080240000C02405C
:1026700000000240000402400100000F01000F00B2
:10268000010000F00CED00E017E000E02DE9F04162
:102690008EB0202106A8FDF7E9FD18216846FDF758
:1026A000E5FD0220FFF70EF80420FFF70BF80124E8
:1026B0000427CDE904474FF4806802250326CDE9BD
:1026C0000264CDE9008569461848FFF7F3F8200356
:1026D000CDE90005CDE90264CDE904476946144817
:1026E000FFF7E8F8A005FEF7F9FF124CE06820F0CC
:1026F0000100E060206820F040002060206820F0A9
:102700008000206000200C490890CDE90601CDE949
:102710000B0820140D9006A92046FFF7D5F9E068B4
:1027200020F0FE00E0600EB0BDE8F0810004024041
:102730000008024000580040A0860100F0B587B0B4
:1027400000241F480094029401940594016841F408
:10275000004101607F2003901A4EFF20049002A9DF
:1027600035463046FFF79FFA286940F4FE0028619D
:1027700028696FF30E0040F0FF002861114D5035BD
:10278000286843F2F227B84217D08DF804408DF83C
:1027900005408DF806406A4601213046FFF7BEFA33
:1027A00001208DF814008DF8150001468DF81740B2
:1027B00005AA3046FFF700FA2F6007B0F0BD000011
:1027C000703802400028004070B590B0282168465B
:1027D000FDF74CFD18210AA8FDF748FD4FF4805085
:1027E000FEF788FF0220FEF76DFF38200A900220D6
:1027F0000B9003200024CDE90C040520CDE90E4008
:102800000AA93C48FFF756F83B4E4FF0C0652A46F0
:1028100003213046FEF798FF402203213046FEF7A1
:10282000A9FF002203213046FEF7E0FF002203212A
:102830003046FEF7BDFF002203213046FEF7C2FFFF
:10284000002203213046FEF79FFF0022032130467D
:10285000FEF7C2FF002203213046FEF79FFF03214F
:102860003046FEF753FF2A4600213046FEF76CFF44
:10287000002211463046FEF77DFF6A1200213046E5
:10288000FEF7B4FF002211463046FEF791FF00220A
:1028900011463046FEF796FF321500213046FEF70E
:1028A00073FF002211463046FEF796FF00221146C4
:1028B0003046FEF773FF00213046FEF727FF4FF446
:1028C0008270CDE9004001200294CDE9034040022E
:1028D00005900820CDE906040A20CDE90840074C00
:1028E00069462046FFF7A2FA606820F01000606099
:1028F00010B070BD0004024000640240003001408E
:1029000010B590B028216846FDF7B0FC18210AA840
:10291000FDF7ACFC4FF48040FEF7E0FE0220FEF72E
:10292000D1FE4FF460400A9002200B900320002457
:10293000CDE90C040520CDE90E400AA90E48FEF7AA
:10294000B9FF4FF48270CDE9004001200294CDE937
:1029500003404002CDE905040A20CDE90840079470
:10296000064C69462046FFF761FA606820F01000C7
:10297000606010B010BD000000040240003800404C
:1029800070B594B014210EA8FDF770FC20216846A4
:10299000FDF76CFC182108A8FDF768FC0120FEF784
:1029A0009DFE0024ADF83840601ECDE90F404FF089
:1029B00080450EA928461194FFF784FA286820F074
:1029C0008000286000940194029403946A460121D7
:1029D00028460494FFF704FB01212846FFF7D6FAA6
:1029E000AE1401946A46314628460294FFF7F8FA7D
:1029F00031462846FFF7CAFA686820F07000686020
:102A0000A86820F08000A8600120FEF75BFE282067
:102A100008900220CDE909040120CDE90C4008A965
:102A20000B940248FEF746FF14B070BD0000024050
:102A300010B58EB01C216846FDF718FC182107A8B8
:102A4000FDF714FC1020FEF755FE0120FEF73AFEBC
:102A50004FF4C06007900220089003200024CDE9C5
:102A600009040720CDE90B4007A91048FEF722FF13
:102A70004FF4E130CDE900040C200294CDE903408D
:102A8000059406940A4C69462046FFF78DFB2069A1
:102A900020F490402061606920F02A006061E068C5
:102AA00040F40050E0600EB010BD00000000024095
:102AB00000100140FEE770477047F0B54B6A4FF0D9
:102AC00040652BB1AA4203D08B6A04685B1E236168
:102AD0008C690B6A002C57D05BB304688B68E36188
:102AE000CC69B4B1D1E90B3633434F6A4E6B3E43E8
:102AF00033438E8A43EA86430E6933430E6A334377
:102B0000CE68334323438C6924E0006849688161BF
:102B1000F0BDD1E90B3423434D6A4C6B2C43234366
:102B20008C8A43EA84430C6923430C6A23438C69EF
:102B300023E0CE69BEB1D1E90B373B43D1F824C0C5
:102B40004F6B47EA0C073B438F8A43EA8743CF68C2
:102B50003B43334323430C682343046813436361BB
:102B6000AA42D2D1F0BDD1E90B352B434E6A4D6B51
:102B700035432B438D8A43EA854309682343006824
:102B80000B4313434361F0BD3BB304688B68E361BF
:102B9000CC6994B1D1E90B3633434F6A4E6B3E4357
:102BA00033438E8A43EA86430E6933430E6A3343C6
:102BB000CE68334323438C69CEE7D1E90B342343FA
:102BC0004D6A4C6B2C4323438C8A43EA84430C6943
:102BD00023430C6A89692343D1E7CC6964B1D1E905
:102BE0000B3633434F6A4E6B3E4333438E8A43EA80
:102BF0008643CE683343AFE74B6A002BC3D0D1E99D
:102C00000B452C434D6B898A1D432C43006844EAD5
:102C1000814111434161F0BD10B5806B002181639A
:102C2000C16290F84110082905D0012180F84110B7
:102C3000FEF7A9FA10BD02680221D16001680A6896
:102C400042F400320A600068016841F0020101604C
:102C500010BD10B5846BFDF7BCFF022810D000201A
:102C6000A063E062606C40F004006064206801686A
:102C700021F0040101602046BDE81040FEF708BACB
:102C800010BD806B0021C1620068016841F4003111
:102C90000160704710B5806BFEF780FC10BD00002E
:102CA000074A10B51268491E1161014641F2883287
:102CB0000348FEF73DFB002800D0012010BD0000B6
:102CC0008C08002010B58EB0002401904FF4805085
:102CD000039002918010CDE90640CDE90442000145
:102CE0000D94CDE908030B940C9441F288326946A7
:102CF0000248FEF705FA0EB010BD00008C08002057
:102D0000074A10B51268491E1161014641F2883226
:102D10000348FEF76FFB002800D0012010BD000023
:102D20008C0800202DE9F041984616460F460446CF
:102D3000069D12E0681C10D02DB1FEF7D7F8A0EB6D
:102D40000800A84209D9042084F84100606C40F0D2
:102D5000010060640120BDE8F0812068806838408F
:102D600000D00120B042E5D10020F4E70449096811
:102D7000044A01F0F0010909515CC84070470000A5
:102D800008380240504D000804490968044A01F41B
:102D9000E05102EB91210978C840704708380240A1
:102DA000604D000804490968044A01F4604102EBDF
:102DB00051310978C840704708380240604D00081A
:102DC0000948006810F00C0108480BD0042909D00C
:102DD000082905D00C2905D15FF00C0000F008B8D7
:102DE0000820FBE770470000083802400024F40088
:102DF00070B50546FEF7B4FE104C082D0DD0FEF759
:102E0000A7FEB4FBF0F4FEF7B3FE4443FEF7B8FEB2
:102E10005FEA1070B4FBF0F070BDFEF799FEB4FBF2
:102E2000F0F4FEF7A5FE444305480068012100F4D4
:102E3000403001EB10404000ECE700000024F400BB
:102E4000043802407047000005490A68C2F3401286
:102E50001AB149680170002070474FF0FF30704789
:102E60000010014003490A68C2F3C012002AFAD0D8
:102E70004860704700100140FEF73EB8414810B569
:102E8000016821F00F0141F005010160016801F0C6
:102E90000F010529FAD13C48016841F44041016025
:102EA000016821F48031016038490A6842F48032B7
:102EB0000A600A68C2F34042002AFAD0026842F46B
:102EC0008072026031487030026842F480320260E1
:102ED000026822F480320260026842F0010202605D
:102EE0000268C2F34002002AFAD0026822F440725B
:102EF00042F480720260026842F400420260234899
:102F0000234A001D0368234C23401A4302600268D1
:102F100022F440320260026822F0E0420260086857
:102F200040F0807008600868C0F340600028FAD064
:102F300016480830016821F0F0010160016821F4B1
:102F4000E05141F4A0510160016821F4604141F475
:102F500000410160016821F0030141F002010160BC
:102F6000016801F00C010829FAD10B48FEF7A4FF13
:102F70000020FDF7E3FF05488C30016821F08071E7
:102F8000016010BD003C024000700040003802406B
:102F9000105040000080BFFF006889091048016898
:102FA00041F4700101600F48016841F001010160C6
:102FB0000C4A00210832116002680B4B1A40026073
:102FC000031D0A4A1A60026822F480220260054842
:102FD0000C300160024958068039086070470000D3
:102FE00088ED00E000380240FFFFF6FE10300024BC
:102FF000FEE7000010B58021002000F0F4F80A2060
:10300000FDF790FE174C04229001216800F0FCF8B7
:10301000216804224FF4A060091D00F0F5F8216832
:1030200006224FF410600C3100F0EEF82168042203
:103030004FF47060083100F0E7F807214FF4C850F2
:1030400000F0D1F8D021480100F0CDF808214FF46C
:10305000D85000F0C8F8BDE8104000214FF4B0503F
:1030600000F0C1B800000020094810B50749016010
:1030700012314160FFF7BEFFFDF708FC002000F0B1
:1030800051F8BDE81040012000F04CB8300000209D
:103090000000002030B51648C022A82302704370FB
:1030A00001218170C170FF24047144718471002476
:1030B000C4710C25057329254573AB2585737C25C3
:1030C000C573047441740272437281720A24C4721B
:1030D000123041F28834048041F2B3540482827683
:1030E000C37601776521417741F27071018330BD6C
:1030F0003000002070B50A4C4FF400452804A06150
:103100003220FDF70FFEA5616420FDF70BFE4FF4A2
:103110003854204600F044F8C007FAD070BD0000D3
:103120000000024070B5054601214FF4C05000F088
:103130005AF81A4C022D2FD2DFE805F0011B0521A9
:1031400041F2082000F04FF8B42141F2083000F0BD
:103150004AF86068002301210288184601F0A2FCA9
:103160000028F6D1BDE87040022142F6087000F058
:103170003AB8052141F2282000F035F8B42141F297
:10318000283000F030F8606800230221028A012014
:1031900001F088FC0128F6D170BD0000000000207D
:1031A00038B5C0F30F24C1B24FF08073002220461F
:1031B000FFF788FD01216846FFF772FD9DF80000CA
:1031C00038BD70B50E461546C0F30F24C1B24FF09E
:1031D000807300222046FFF775FD29463046BDE882
:1031E0007040FFF75DBD13B5C0F30F24C0B240F0CF
:1031F00004014FF0807300222046FFF763FD012198
:1032000001A8FFF77DFD1CBD70B5C0F30F240E466D
:10321000C0B2154640F004014FF0807300222046F2
:10322000FFF750FD29463046BDE87040FFF768BD06
:1032300070B54FF0E0250646AC69FEF7B1F90849D4
:10324000B0FBF1F1714320398C4203DA6869204404
:10325000401A00E0601AA9698142FCD870BD0000E4
:1032600040420F002DE9F047074642F2085000EBBC
:103270004710914688460546FFF792FF064642F200
:10328000084000EB47100446FFF78AFF06EB0020DA
:1032900086B2300200EB47111031C1F30F20C9B2E2
:1032A00041F004014FF080730022FFF70BFD264927
:1032B000A9F101000968086141462348FEF7F8F8C2
:1032C0002449DFF888A0224F2148DFF880C0AAF106
:1032D000540A1F4B603F0968AAF10408B8386145D9
:1032E00002D9DAF8002009E0994202D9D8F8002082
:1032F00004E0B94201D9426800E0026812F0006FB0
:10330000EDD04FF00062614502D910484C3803E01F
:10331000994203D90D485038026004E0B94201D9FE
:10332000C26000E082600848FDF772FE06EB09000B
:1033300086B2310A2046FFF756FFF1B22846FFF762
:1033400052FF3046BDE8F0878C08002058640240E8
:10335000B8600240600A00200FB4054B10B503A905
:10336000044A029800F028F810BC5DF814FB000035
:10337000253700082C0000200907090E002804DB6F
:1033800000F1E02080F80014704700F00F0000F119
:10339000E02080F8141D704702E008C8121F08C121
:1033A000002AFAD170477047002001E001C1121FC6
:1033B000002AFBD1704700002DE9FF4F8DB09B46DE
:1033C0000F460446002606E025280BD05A460F99E2
:1033D0009047641C761C20780028F5D111B0304647
:1033E000BDE8F08F0025A8460122984900E005437A
:1033F00014F8013F203B02FA03F00842F7D120788D
:103400002E2817D114F8010F45F004052A280ED0F4
:103410006FF02F022078A0F1300109290AD808EBBB
:10342000880102EB410100EB0108641CF2E757F848
:10343000048B641C20786C280DD004DC4C2812D03E
:103440006A2811D104E074280DD07A280CD10AE042
:1034500045F4001507E0617845F48015814202D1FA
:10346000641C05F58015641C2278692A45D008DCA7
:10347000002AB3D0582A69D0632A10D0642A08D110
:103480003BE0702A67D0732A13D0752A5CD0782A63
:103490005CD010465A460F999047761CD3E017F837
:1034A000040B8DF8000000208DF80100E946012092
:1034B00003E057F8049B4FF0FF3069074FF0000519
:1034C00001D40AE06D1C45450DDA8542FADB19F896
:1034D00005100029F6D106E06D1C8542FCDB19F8C9
:1034E00005100029F8D12E4404E019F8010B5A46C2
:1034F0000F9990476D1EF8D2A5E00A200021CDE972
:103500000801C5F3025002280DD001CFC117031ED8
:1035100071F100030DDA4FF0000CD0EB0C006CEBF6
:1035200001012D2308E0FF1D27F00707F7E802013E
:10353000EDE72B0504D52B238DF8283001233BE044
:10354000EB0739D02023F7E70A2000E01020002104
:10355000CDE9080107E01020002145F00405CDE980
:1035600008014FF00808C5F3025002280FD001CF20
:1035700000214FF0000A2B071FD5702A0DD0DDE97E
:1035800008C38CF0100C5CEA030C0CD015E0FF1D96
:1035900027F00707F7E80201EBE740228DF8282023
:1035A0004FF0010A0BE050EA010306D030238DF8FA
:1035B00028308DF8292002239A46582A04D024A2C4
:1035C0000DF120090B9209E026A2F9E7DDE90823B5
:1035D000FCF714FE0B9B9B5C09F8013D50EA0102CD
:1035E000F4D1ADEB090020300890680701D44FF00A
:1035F00001080899884502DDA8EB010000E00020E1
:103600008046002506E00AA85A46405D0F9990477B
:103610006D1C761C5545F6DB04E030205A460F99A8
:103620009047761CB8F10001A8F10108F5DC05E02F
:1036300019F8010B5A460F999047761C0899481EB5
:1036400008900029F4DC641CC5E60000092801008C
:103650003031323334353637383961626364656608
:1036600000000000303132333435363738394142CA
:1036700043444546000000003EB5074C2118CA7877
:103680004D790B798DE82C008B784A78215C03A06A
:10369000FFF762FE3EBD0000440A00202578202589
:1036A000782025782025782025782025780D0A0097
:1036B00070B50446082802D94FF0FF3070BD4FF4B2
:1036C000847000EB441005461021FFF78CFD28465E
:1036D000FFF766FD0028FAD14FF4027000EB4410AA
:1036E0001F21FFF780FD0D490120A0404A88824339
:1036F0004A808A8882438A800949002021F8140080
:103700000649891D08554FF4427000EB44142046C9
:10371000FFF746FD0028FAD1012070BD1C000020F3
:10372000D40A002004490A68C2F3C012002AFAD061
:10373000C2B24A6070470000001001402DE9F0411C
:1037400042F2086101EB401542F20871002601EBDC
:1037500040142846FFF724FD07462046FFF720FDCA
:1037600000EB072007043F0C09D02846FFF718FD9F
:1037700006462046FFF714FD00EB062086B2BE4247
:10378000E7D13046BDE8F0812DE9F04142F2080171
:1037900001EB401542F20811002601EB40142846C7
:1037A000FFF7FEFC07462046FFF7FAFC00EB072078
:1037B00007043F0C09D02846FFF7F2FC06462046D6
:1037C000FFF7EEFC00EB062086B2BE42E7D13046A2
:1037D000BDE8F08170B500210846FCF7EFFD394CDB
:1037E0000146207038A0FFF7B7FD01210020FCF74B
:1037F000E5FD2070014637A0FFF7AEFD0221002055
:10380000FCF7DCFD2070014635A0FFF7A5FD032184
:103810000020FCF7D3FD2070014634A0FFF79CFD8B
:103820000025681DC1B20020FCF7C8FD20700246CB
:10383000294631A0FFF790FD6D1CEDB2082DF0D3A5
:103840000D210020FCF7BAFD207001462DA0FFF7E6
:1038500083FD0E210020FCF7B1FD207001462DA054
:10386000FFF77AFD0F210020FCF7A8FD207001462C
:103870002CA0FFF771FD10210020FCF79FFD2070A8
:1038800001462CA0FFF768FD11210020FCF796FDF2
:10389000207001462BA0FFF75FFD15210020FCF7EB
:1038A0008DFD207001462BA0FFF756FD172100204B
:1038B000FCF784FD2070BDE87040014628A0FFF7AA
:1038C0004BBD00000800002044455649443D2523D7
:1038D000780D0A00434F4E46313D2523780D0A00EE
:1038E000434F4E46323D2523780D0A00434F4E4646
:1038F000333D2523780D0A00434825643D25237870
:103900000D0A00004249415353454E53503D252373
:10391000780D0A004249415353454E534E3D2523ED
:10392000780D0A004C4F464653454E53503D2523D3
:10393000780D0A004C4F464653454E534E3D2523C5
:10394000780D0A004C4F4646464C49503D25237899
:103950000D0A00004D495343313D2523780D0A00DF
:10396000434F4E46343D2523780D0A0070B504467A
:10397000082802D94FF0FF3070BD60010830FFF712
:103980000FFC00F00F00012802D06FF0040070BDA2
:103990004FF4427000EB44100546FFF701FC13287A
:1039A00002D06FF0020070BD4FF4847000EB441041
:1039B00006460221FFF717FC3046FFF7F1FB00280F
:1039C000FAD12846FFF7ECFB142805D02046FFF774
:1039D0006FFE6FF0030070BD012070BDFDF794FA1B
:1039E0003748016821F0800101600115FF22354848
:1039F000FCF735FC33480024012104704170102588
:103A0000857220260675DD2180F8D613AA2180F85C
:103A1000D713BB2180F8E713CC2180F8FF13FFF701
:103A20002DFAFEF7F9FC4FF480084046FDF74AFEF8
:103A3000FEF76AFCFEF7DAFCFEF728FE234822496F
:103A4000082701600321C0E901170F21C0E90341E4
:103A50004FF44071C0E90514C4610462FDF794FBA2
:103A6000FEF7B2FEFEF74CFFFEF78AFFFEF7E0FF1F
:103A7000FEF764FE154816494C30C0F8641115492C
:103A8000C0F8681100F01CFE1348C0F81880134AF3
:103A90006902916186618561876104218161FFF717
:103AA000F9FAFFF727FBFFF7DFFA08484C3000F080
:103AB000D3FF0020FCF772FE0120FCF7B9FEF4E70B
:103AC000003C014062040020001000A08C0800208F
:103AD000492E0008652E0008001002400008024030
:103AE0002DE9F74F14460546082803D94FF0FF305B
:103AF000BDE8FE8F680101260830FFF751FB00F09A
:103B00000F00012801D0B01FF2E724B341F608608E
:103B100000EB4510FFF744FB4FF6FF7101EA8020F0
:103B2000A04200D204464FF4427000EB451841F623
:103B30000870DFF88CA000EB451B06FA05F9284653
:103B4000FFF7FCFD06464046FFF72AFB172816D074
:103B50001C2803D00DE06FF00D00C9E7CEB9284650
:103B6000FFF712FE07465846FFF71AFBB7EB802F08
:103B700005D12846FFF79CFD6FF00600B8E7BAF8BC
:103B8000021019EA010F02D01EB90020B0E7002E82
:103B9000D5D0A64200D2344622462846019901F0EB
:103BA0000FF84FF4847000EB451005464021FFF7F5
:103BB0001AFB2846FFF7F4FA0028FAD1204697E7C7
:103BC0001C0000202DE9F0471E46DDF82080154638
:103BD0008A460446082803D94FF0FF30BDE8F08735
:103BE000670108374FF001093846FFF7D9FA00F0AE
:103BF0000F00022806D0032804D0042802D06FF05A
:103C00000400EBE75DB13078717801EB0020B1780A
:103C100001EB0020F17811EB002003D00AE06FF0F7
:103C20000D00DBE73846FFF7BBFA400702D46FF020
:103C30000B00D3E7B8F1000F07D13846FFF7B0FA11
:103C4000400702D46FF00A00C8E74FF4427000EB5F
:103C500044100746FFF7A4FA422806D0222804D0D1
:103C6000322802D06FF00600B8E740F6084000EBBB
:103C7000441004223146FFF7C7FA41F208004FEA28
:103C8000182100EB4410FFF7AEFA41F2081008F0DB
:103C9000FF0100EB4410FFF7A6FA41F6087000EBB5
:103CA0004410FFF77DFA4FF6FF7101EA802085424C
:103CB00000D90546DFF8888009FA04F62046FFF7A8
:103CC00063FD81463846FFF76BFA38B1B8F8020059
:103CD000064206D04D4504D900207FE76FF003006F
:103CE0007CE74D45EAD82A4651462046FFF7BAFA06
:103CF0004FF4847000EB441006462021FFF773FA5E
:103D00004FF4027000EB44143046FFF749FA0028E4
:103D1000FAD12046FFF744FA00F01F00C10605D58E
:103D200020461021FFF75FFA284657E70007F0D535
:103D300020460821FFF757FA6FF00C004EE700000D
:103D40001C00002070B5044690F86201002501288F
:103D500029D0022826D1412906D0422906D043295C
:103D600009D044291CD112E0002100E001212046A5
:103D700000F058FC14E0208FE18E884210D2211D03
:103D8000415C204600F0B2F8208F401C07E0208FF5
:103D900030B10821204600F0A9F8208F401E20876E
:103DA00084F8625170BD5B29FAD1022084F8620167
:103DB00070BD70B50446C08E00284BD0228F002302
:103DC000211D82420BD1401E80B2E086521E228706
:103DD00043542046BDE87040012100F065B8002A38
:103DE00038D0002006E02244051D565DC51C401C4D
:103DF000565500B2E58E228FAD1A8542F3DCE08E77
:103E0000401E80B2E086228F521E22874354082132
:103E1000204600F06BF8B4F9385006E060190179DB
:103E2000204600F063F86D1C2DB2E08EA842F5DC50
:103E30002021204600F05AF8E08E218F401A401CC5
:103E400005B205E00821204600F050F86D1E2DB2A5
:103E5000002DF7DC70BD000010B500F03BFB002822
:103E600004D0BDE8104002A100F02CB810BD000045
:103E70001B5B324A1B5B31480000000070B50546F1
:103E8000C08E298F401A04B205E02021284600F098
:103E90002DF8641E24B2002CF7DCE98E2846BDE81C
:103EA000704000F001B8000070B50C46054603E014
:103EB00003A1284600F006F8641EA4B2F8D270BD33
:103EC0000820080070B50646D0F8680100240D46A9
:103ED00000280AD005E0D6F868116D1C8847641CDC
:103EE000A4B228780028F6D1204670BDD0F8682109
:103EF000002A01D0084610477047000070B50646FA
:103F0000D0F85C0100EB011530462968FFF7DAFFB5
:103F1000C0F116000404240C00D104240AA1304688
:103F2000FFF7D0FF641E2404240CF7D107A130460C
:103F3000FFF7C8FF3046A968FFF7C4FF3046BDE869
:103F4000704003A1FFF7BEBF200000002D2D000030
:103F50000D0A00002DE9FE430C4625A2804607CA43
:103F60008DE8070025460A2724A14046FFF7AAFF4F
:103F70006E46002C04DA24A14046FFF7A3FF6D42F1
:103F80000A2055B1B5FBF0F100FB1151B5FBF0F57E
:103F90007F1EFFB23031F155F3E7F0194CB100212B
:103FA000411A4046FFF78EFF082100208DF80800D7
:103FB0000DE00121F4E700BF04F00F00092801D94A
:103FC000573000E03030491EC9B224097054002C2B
:103FD000F2D10EA14046FFF775FF69464046FFF754
:103FE00071FF0CA14046FFF76DFFBDE8FE830000A6
:103FF0003030303030303030303000005265747541
:10400000726E3A20000000002D0000002C20307855
:10401000000000000D0A00002DE9F84F04460025BD
:10402000C08EA8464FF001092F4600287ED0221DE1
:10403000411C0026E1868654B4F9580100EBC0010A
:1040400001EB001004EB400011462A30FCF719F98F
:1040500020B3B4F9580100EBC00101EB001104EBEF
:104060004100211D5C3000F077FC20B1B4F858010C
:10407000401CA4F85801B4F85601401C81B2A4F8C1
:104080005611052902D90521A4F85611B4F9580191
:10409000052801DBA4F85861A4F85A6100202EE03D
:1040A000B8F1000F07D121180979202921D0092959
:1040B0001FD02C291DD021180A79D2B1222A04D16F
:1040C000B8F1000F05D000229046B9F1010F02D0DF
:1040D00009E00122F8E70A1D04EB85036D1CEDB22F
:1040E0004FF00009DA6309795C2906D1401C80B2DF
:1040F00003E021184FF001090E71401C80B2E18EDF
:104100008142CDD8E686B04626877DB122A12046E1
:10411000FFF7D8FE21A1D4F85CA1E06BFCF7B1F861
:1041200001004FF0010B04F13C0900E02EE001D04A
:10413000002622E084F863B14946284600F0FEF9E3
:1041400084F8638122E000BF0AEB0610009001684A
:10415000E06BFCF796F870B984F863B1009801271A
:104160004A464068294600F005F9014684F8638113
:104170002046FFF7EFFE761CF6B2B4F86001B042BD
:10418000E2D81FB907A12046FFF79CFE2046216810
:10419000BDE8F84FFFF796BE0D0A000068656C7029
:1041A00000000000436F6D6D616E64206E6F7420BF
:1041B000666F756E640D0A00411C00200A785C2A47
:1041C00001D01046704749786E290FD004DC3029A1
:1041D000F8D0622904D105E0722905D0742907D0EE
:1041E00008467047082070470D2070470A20704726
:1041F00009207047F0B50746002539780A260123C3
:1042000028462C462D2908D00021CA19002192F8F1
:1042100000C0BCF1300F04D01EE04FF0FF3301218D
:10422000F3E75178782907D0582905D0622905D0BD
:10423000422903D002210FE003210DE001210BE010
:1042400092F800C0BCF12E0F06D192F801C0BCF16B
:10425000000F01D0042111E012F801CBBCF1000FD6
:10426000EED1012908D0022903D0032906D1102656
:1042700003E00826012501E0022602253D445A1CE0
:1042800002D0002215441FE00122FBE72E2A05D0B0
:10429000A2F13007092F03D8FAB20FE0012412E08F
:1042A000A2F16107052F01D8573A04E0A2F14107B6
:1042B000052F02D8373AD2B200E0002200FB0620D8
:1042C00004EB840254006D1C2A78002ADED10429F4
:1042D00013D194B100EE100AB8EE401A00EE104A65
:1042E000B8EE400AC1EE000A00EE103AB8EEC00A7D
:1042F00020EE800A10EE100AF0BD5843F0BD000019
:104300002DE9F041017827290AD02D2904D000BFDA
:10431000A1F13002092A0AD8BDE8F041FFF76ABFCF
:104320004278002AF4D0BDE8F041FFF745BFF9B16B
:10433000002605460446374622290AD16C1C25462C
:1043400007E05C280CD0222810D0A855761CB6B205
:10435000641C20780028F4D1AF552846BDE8F081D0
:10436000601EFFF729FFA855641CEFE7AF55EDE786
:104370000020F3E72DE9FE4F1446054609297DD2BA
:10438000DFE801F0A4050A121F314862820003B081
:10439000AC46BDE8F04F60475068FFF7B1FF03B08F
:1043A000AC46BDE8F04F6047A068FFF7A9FF06469E
:1043B0006068FFF7A5FF03B03146AC46BDE8F04F9B
:1043C0006047E068FFF79CFF0746A068FFF798FF8B
:1043D00006466068FFF794FF03B03A463146AC46A4
:1043E000BDE8F04F60472069FFF78AFF0746E068A5
:1043F000FFF786FF8046A068FFF782FF06466068E9
:10440000FFF77EFF03B03B4642463146AC46BDE86F
:10441000F04F60476069FFF773FF07462069FFF7B9
:104420006FFF0646E068FFF76BFF8146A068FFF765
:1044300067FF80466068FFF763FF33464A464146A0
:104440000097A847BDE8FE8FA069FFF759FF824695
:104450006069FFF755FF81462069FFF751FF074666
:10446000E068FFF74DFF0646A068FFF749FF80466A
:104470006068FFF745FF3B46324600E026E0CDE9A5
:10448000009A4146A847DDE7E069FFF739FF834618
:10449000A069FFF735FF82466069FFF731FF81466B
:1044A0002069FFF72DFF8046E068FFF729FF0746E8
:1044B000A068FFF725FF06466068FFF721FF8DE83B
:1044C000000E43463A463146A847BBE74FF0FF305F
:1044D000B8E700000849002051F820201AB192F8EE
:1044E0006321012A05D0401C00B20528F4DB00201E
:1044F000704751F820007047C00A002090F86221F0
:104500000AB1FFF71FBC0D290DD006DC08290CD01D
:1045100009290CD00A2904D105E01B2909D07F29DB
:1045200003D000F0A1B9FFF777BDFFF742BC00F060
:104530001FBA012180F86211704700002DE9F04197
:104540000F460346FFF7C6FF050016D0012B05D026
:10455000022B12D10024D5F85C611AE021A1FFF7EB
:10456000B1FC002405E021462846FFF7C7FC641C87
:10457000A4B2B5F86001A042F5D8BDE8F08100BF53
:1045800006EB041001687868FBF77BFE38B1641C09
:10459000E4B2B5F86001A042F2D817A11CE01BA15B
:1045A0002846FFF78FFC06EB041428462168FFF726
:1045B00089FC1AA12846FFF785FC2846A168FFF769
:1045C00081FC17A12846FFF77DFCE1680029D4D0C3
:1045D0002846FFF777FC12A12846BDE8F041FFF717
:1045E00071BC00000D0A434F4D4D414E44204C49D3
:1045F00053543A0D0A0D0A00636F6D6D616E6420AD
:104600006E6F7420666F756E640D0A00636F6D6D5A
:10461000616E642068656C70202D2D003A0D0A00D3
:104620000D0A000070B50446002561B1012909D1C9
:10463000B4F85A01401C00B2A4F85A01002819DD50
:10464000A4F85A5170BDB4F95A21501EA4F85A0169
:10465000B4F85611B4F95801814201DD0B4600E06F
:1046600003465B429A4205DC814200DD0846404237
:10467000A4F85A012046FFF701FCB4F95A01E0B151
:10468000B4F9581108440521401D90FBF1F201FBDB
:10469000120000EBC00101EB001004EB4001201DF3
:1046A0005C3100F059F9E0860028CBD02087211D2D
:1046B0002046BDE87040FFF705BCE586258770BD44
:1046C00010B504461FA1FFF7FDFB20A12046FFF710
:1046D000F9FB2EA12046FFF7F5FB3CA12046FFF792
:1046E000F1FB4AA12046FFF7EDFB18A12046FFF79A
:1046F000E9FB0020E0862087A4F85601A4F85801C1
:10470000A4F85A0184F8620150A12160534984F849
:10471000630100BF51F8202082B1401C00B205287F
:10472000F8DB20462168FFF7CDFB4D484D49C4F822
:104730005C01081A0009A4F8600110BD41F820408E
:10474000EFE700000D0A0D0A000000002B3D3D3D83
:104750003D3D3D3D3D3D3D3D3D3D3D3D3D3D3D3D89
:104760003D3D3D3D3D3D3D3D3D3D3D3D3D3D3D3D79
:104770003D3D3D3D3D3D3D3D3D3D3D3D3D3D3D3D69
:104780003D3D3D3D3D3D2B0D0A0000007C2020209D
:1047900020202020202020202020202020284329E5
:1047A00020434F5059524947485420323031382025
:1047B0004C65747465722020202020202020202049
:1047C0002020202020207C0D0A0000007C202020BA
:1047D00020202020202020202020202020202020D9
:1047E0004C6574746572207368656C6C2076322E2B
:1047F000302E322020202020202020202020202089
:104800002020202020207C0D0A0000007C20202079
:104810002020202020202020202020204275696C8C
:10482000643A2041756720323920323032302031ED
:10483000363A31343A3232202020202020202020E5
:104840002020202020207C0D0A0000000D0A4D6948
:1048500063726F4545473E3E00000000C00A0020DD
:10486000E44D0008744E000870B50446C08E31282F
:1048700041D2238F221D98420AD1431CE3868154E2
:10488000208F401C20872046BDE87040FFF72EBBDC
:10489000C01A06E0238FC51C23445E5D051D401E23
:1048A0005E5500B20028F5DC208F431C238781541D
:1048B000E08E0021401C80B2E08620440171208FF0
:1048C000401E05B206E0601901792046FFF70EFB95
:1048D0006D1C2DB2E08EA842F5DC218F80B2401A0B
:1048E00005B205E008212046FFF700FB6D1E2DB242
:1048F000002DF7DC70BD07A12046FFF7E3FA204644
:104900002168FFF7DFFA211D2046FFF7DBFAE08E72
:10491000208770BD0D0A5761726E69673A20436F38
:104920006D6D616E6420697320746F6F206C6F6EA3
:10493000670D0A0030B504460020024605E0AB4290
:1049400009D1401C521C80B292B2A35C002B02D051
:104950008D5C002DF3D130BD0246002002E01354DF
:10496000401C80B20B5C002BF9D100211154704720
:104970002DE9F84F4FF00008C18ED0F85C71044665
:104980004FF0320945464646002957D004F1040A43
:10499000B34601F80A60002627E000BF07EB0610C7
:1049A00000900168201DFFF7C5FFE18E88421AD1F3
:1049B000ADB1012D03D127A12046FFF783FA41466F
:1049C0002046FFF79BFA0098016807EB0810006883
:1049D000FFF7B0FF4946814500D8084681466D1C67
:1049E0001FFA86F8ADB2761C36B2B4F86001B04258
:1049F000D4DC002D2CD0012D02D12046FFF73EFA49
:104A000007EB08100168201DFFF7A6FFE086012DC7
:104A100009D941462046FFF771FA20462168FFF781
:104A200051FAA4F83690E28E211D02F80AB0E08E09
:104A300020872046BDE8F84FFFF744BA012084F8EC
:104A400063010021FFF77AFD84F863612168F0E7D4
:104A5000BDE8F88F0D0A000038B5D0F8641104469F
:104A600049B168468847002804D19DF800102046C7
:104A7000FFF744FD38BD02A1FFF724FAFEE700006E
:104A80006572726F723A207368656C6C2E72656124
:104A900064206D75737420626520646566696E6557
:104AA000640D0A002DE9F8431D4617460E460446DC
:104AB000082803D94FF0FF30BDE8F883012E08D055
:104AC000022E0ED0032E0CD0042E0AD06FF004005C
:104AD000F2E7042269464FF47060FEF772FB00981B
:104AE00048B169076FF00500E6D49DB1012E05D0ED
:104AF000022E0FD106E06FF00200DDE715F0210F66
:104B0000DAD007E0A90601D52906D5D5E90601D5F1
:104B10002906D1D52046FEF7CBFD600105F0F00156
:104B20004FF0010831430830FEF75DFB224E57B9C4
:104B30003788781C80B2A0F57F413080F03902D1EF
:104B40004FF4404030804FF48160390A00EB44104C
:104B5000FEF749FB4FF4A160F9B200EB4410FEF7F9
:104B600042FB4FF4847000EB441007460121FEF72E
:104B70003AFB3846FEF714FB0028FAD108FA04F095
:104B8000718805F001028143A2400A437280B18816
:104B90008143B1800949002021F814000649891D8C
:104BA00008554FF4427000EB44152846FEF7F8FA1A
:104BB0000028FAD060B27FE71C000020D40A002051
:104BC0002DE9F0475FEA02088946044631D042F6F3
:104BD000081000EB44163046FEF7E2FA074642F6AC
:104BE000080000EB44152846FEF7DAFA07EB002030
:104BF00087B2380200EB4410424649461830FEF7AF
:104C0000E0FA07EB080087B2390A2846FEF7EBFA0C
:104C1000F9B23046FEF7E7FA4FF4847000EB441027
:104C200004464021FEF7DFFA2046FEF7B9FA0028D5
:104C3000FAD1BDE8F0870000000004040400000879
:104C400000000008102840587088A0B84144435F15
:104C50005374617274416371006E44524459204927
:104C60006E7465727275707420456E61626C650059
:104C70004144435F53746F70416371006E4452440A
:104C80005920496E7465727275707420446973613D
:104C9000626C65004144435F53656E64436F6D6DA4
:104CA000616E640053656E6420494D4420496E7303
:104CB0007472756374696F6E004144435F57726923
:104CC00074655265670057726974652041445331B9
:104CD000323939205265676973746572006C61649A
:104CE0007265670052656164264C697374204144A3
:104CF00053313239392052656769737465720063C4
:104D00006865636B627566666572364200507269EB
:104D10006E7420627566666572203662797465000D
:104D20004765745F5453475F434E54004765742092
:104D300074696D657374616D702067656E6572610D
:104D4000746F7220636E7400000610160006101651
:104D5000000000000000000001020304060708092B
:104D6000000000000102030468656C7000636F6D51
:104D70006D616E642068656C700068656C70205BA6
:104D8000636F6D6D616E645D202D2D73686F77208C
:104D900068656C7020696E666F206F6620636F6D4A
:104DA0006D616E6400636C7300636C656172206397
:104DB0006F6D6D616E64206C696E650010284058DF
:104DC0007088A0B8744E0008000000203000000079
:104DD00098330008A44E000830000020B80E0000F0
:104DE000A83300084C4C000829030008594C00085F
:104DF00000000000704C00085D0300087C4C0008B7
:104E000000000000944C000801030008A44C0008B6
:104E100000000000B94C000885030008C64C0008DB
:104E200000000000DD4C0008D5370008E44C000805
:104E300000000000FF4C0008793600080D4D000806
:104E400000000000204D00087D0900082C4D0008DE
:104E500000000000684D00083D4500086D4D000849
:104E60007A4D0008A54D0008593E0008A94D0008DC
:104E70000000000000000000000000000000000032
:104E80000100000010000000000000000024F400F9
:104E900000C0000000000000000000000000000052
:044EA000000000000E
:04000005080001C529
:00000001FF
