:020000040800F2
:10000000701D0020DD010008DB32000841200008DF
:10001000D9320008050D00080D400008000000005E
:10002000000000000000000000000000E9370008A8
:1000300055110008000000000F3300088138000847
:10004000F7010008F7010008F7010008F7010008B0
:10005000F7010008F7010008091200084112000822
:10006000F7010008F7010008F7010008F701000890
:10007000F7010008F7010008F7010008F701000880
:10008000F7010008F7010008F7010008F701000870
:10009000F7010008F7010008F7010008F701000860
:1000A000F7010008F7010008F7010008F701000850
:1000B000F7010008F7010008F7010008F701000840
:1000C000F7010008F7010008F7010008F701000830
:1000D000F7010008F7010008F7010008F701000820
:1000E000F7010008F7010008F7010008F701000810
:1000F000F7010008F7010008F7010008F701000800
:10010000F7010008F7010008F7010008F7010008EF
:10011000F7010008F7010008F7010008F7010008DF
:10012000F7010008F7010008F7010008F7010008CF
:10013000F70100080000000000000000F7010008BF
:10014000F7010008F7010008F7010008F7010008AF
:10015000F7010008F7010008F7010008F70100089F
:10016000F7010008F7010008F7010008F70100088F
:10017000F7010008F7010008F7010008000000007F
:1001800000000000F701000800000000000000006F
:10019000F70100080000000000000000F70100085F
:1001A000000000000000000000000000F70100084F
:1001B000F7010008F7010008F7010008F70100083F
:1001C000F7010008DFF810D000F09CF80048004765
:1001D000ED4B0008AFF30080701D002006488047FB
:1001E00006480047FEE7FEE7FEE7FEE7FEE7FEE71C
:1001F000FEE7FEE7FEE7FEE7293B0008C501000831
:100200002DE9F05F0546002092469B46884606464B
:10021000814640241BE0284641464746224600F0DE
:1002200061F853465A46C01A914110D311461846F8
:10023000224600F048F82D1A67EB01084F46224687
:100240000120002100F03FF817EB00094E41201E6D
:10025000A4F10104DFDC484631462A464346BDE8A6
:10026000F09F40EA01039B0703D009E008C9121F71
:1002700008C0042AFAD203E011F8013B00F8013B60
:10028000521EF9D27047D2B201E000F8012B491E8C
:10029000FBD270470022F6E710B513460A46044623
:1002A0001946FFF7F0FF204610BD10B5002200E010
:1002B000521C835C8C5CA34201D1002BF8D1D8B2D4
:1002C000E1B2401A10BD202A04DB203A00FA02F104
:1002D000002070479140C2F1200320FA03F3194334
:1002E00090407047202A04DB203A21FA02F00021D6
:1002F000704721FA02F3D040C2F120029140084336
:1003000019467047064C074D06E0E06840F00103CF
:1003100094E8070098471034AC42F6D3FFF756FF35
:10032000A8630008C86300082DE9F04190460C4618
:100330000646012811D0651DE9B2012000F084F9BC
:10034000074642462146304600F08EF83A46E9B26A
:10035000BDE8F041012000F0E7BABDE8F04100F04F
:1003600083B8000010B5044600F050FA2146BDE8FD
:10037000104001A004F06AB8436F6D6D616E642097
:1003800025782053454E44210D0A000010B504463F
:1003900000F0E6F82146BDE8104001A004F056B890
:1003A000414443204D6F64652025642069732073A8
:1003B0006574210D0A000000084810B5016841F07D
:1003C00002010160082000F021FA102000F01EFA5E
:1003D000BDE8104002A004F039B80000003C014024
:1003E000537461727420416371756973696F6E2112
:1003F0000D0A0000084810B5016821F002010160F3
:100400000A2000F003FA112000F000FABDE81040C5
:1004100002A004F01BB80000003C014053746F7050
:1004200020416371756973696F6E210D0A000000C8
:100430002DE9F04116460D46044601280BD0012057
:1004400000F002F9074632462946204600F06CFAD1
:100450003A4629460120BDE8F04100F065BA491D41
:10046000D2B2C9B200F060BA70B50546012088402A
:10047000C4B232B12846BDE8704003F07802FFF7FD
:10048000EEBF23F00700401CC0B240F080022846B7
:10049000FFF7E5FFE043C2B22846BDE870400D21FA
:1004A00000F042BA70B50E4C0E4D78B101280CD157
:1004B000082000F0ABF9122000F0A8F9206840F005
:1004C000020020604FF4CC00A86170BD0A2000F04B
:1004D0009DF9206820F0020020606620F4E700000B
:1004E000003C0140000C024070B51648016841F024
:1004F0004001016014491348144A0B780C3098509D
:10050000C97888501248016821F002010160114940
:1005100001208861104C4502A561C82001F0A2F8B5
:10052000E003A061062003F0B7FEA5610B49662039
:100530008861282003F0B0FEBDE87040112000F073
:1005400065B9000000300140806300080864024083
:10055000003C01400010024000040240000C024038
:1005600070B5012829D0022826D1092204210020B3
:1005700000F0DAF9FF221021002000F0D5F9FF2267
:100580000F21002000F0D0F900220E21104600F0CB
:10059000CBF900220D21104600F0C6F90024601DA1
:1005A000C1B20022104600F0BFF90A2003F074FE29
:1005B000641CE4B2082CF2D370BD96220121002005
:1005C00000F0B2F9C0220221002000F0ADF9EC22C7
:1005D0000321002000F0A8F900220421104600F0B9
:1005E000A3F900221021104600F09EF900220F21ED
:1005F000104600F099F900220E21104600F094F9FF
:10060000FF220D21002000F08FF92022152100206B
:1006100000F08AF90024651DE9B26022002000F094
:1006200083F9022003F038FEE9B2002000F00CF854
:1006300005460A2003F030FE602DECD1641CE4B2C4
:10064000082CE8D370BD000070B52031CEB272B670
:10065000294D012808D0022809D0032845D00428B4
:1006600046D04FF4CC0004E04FF4003001E04FF4EA
:100670008020A861052003F00FFE204CE068A068F0
:10068000C0F340000028FAD0E660A06810F0010F27
:10069000FBD0E068042003F0FFFDA068C0F3400039
:1006A0000028FAD00026E660A06810F0010FFBD009
:1006B000E068042003F0F0FDA068C0F340000028CB
:1006C000FAD0E660A06810F0010FFBD0A068C0F37C
:1006D000C0100028FAD1E068C4B2052003F0DCFDA8
:1006E0006620A86162B6204670BD4FF40010C0E7D6
:1006F0004FF48000BDE70000000C024000300140D4
:1007000010B5104904464FF4CC008861042003F072
:10071000C3FD6C21204600F01BF80B490868C0F3AC
:1007200040100028FAD00948426822F002024260D4
:10073000426822F0010242604FF000608860202091
:10074000886010BD000C024000640240003001408F
:100750002DE9F041174F044688460A4600213846E5
:1007600001F058FD144E134D30780C3544510021E2
:10077000384601F03BFD0021384601F02DFD0F4CBD
:10078000606840F00100606042460321384601F095
:1007900041FDF1780A4848510321384601F026FD11
:1007A0000321384601F018FD606840F002006060E7
:1007B000BDE8F08100640240806300080030014021
:1007C0009600002070B50F4C0F4D78B101280CD168
:1007D000082000F01BF8102000F018F8206840F006
:1007E000020020604FF4CC00A86170BD0A2000F028
:1007F0000DF8112000F00AF8206820F002002060B7
:100800006620F1E7003C0140000C024070B505464F
:1008100072B6114C4FF4CC00A061042003F03CFDF3
:100820000E498868C0F340000028FAD0CD6088687F
:1008300010F0010FFBD0C8688868C0F3C010002812
:10084000FAD1042003F028FD6620A061042003F003
:1008500023FD62B670BD0000000C02400030014074
:1008600070B50646062921D006DC012913D00229DD
:1008700014D0042904D115E008291BD00C291DD05F
:1008800002F08F0460340025224629463046FFF7E7
:10089000E6FDBEB120E002F08F04F4E702F08F0421
:1008A0001034F0E702F08F042034ECE702F08F04FC
:1008B0003034E8E702F08F044034E4E702F08F04BC
:1008C0005034E0E7681DC1B23046FFF7BDFEE1B22B
:1008D000814201D0012070BD6D1CEDB2082DD3D333
:1008E000002070BD70B50025FA290AD0B1F5FA7F55
:1008F00009D0B1F57A7F02D0B1F5FA6F05D0942412
:1009000004E0962402E0952400E09324224601218D
:10091000002000F009F801210020FFF795FEA04219
:1009200000D00125284670BD2DE9F0414031164622
:10093000CFB272B6284D012808D0022809D003286A
:1009400043D0042844D04FF4CC0004E04FF40030EE
:1009500001E04FF48020A861042003F09DFC1F4CAF
:10096000A068C0F340000028FAD0E760A06810F04B
:10097000010FFBD0E068042003F08EFCA068C0F3F8
:1009800040000028FAD00020E060A06810F0010FBD
:10099000FBD0E068042003F07FFCA068C0F34000B7
:1009A0000028FAD0E660A06810F0010FFBD0E068E4
:1009B000A068C0F3C0100028FAD1052003F06CFC39
:1009C0006620A86162B6BDE8F0814FF40010C2E76E
:1009D0004FF48000BFE70000000C024000300140EF
:1009E00010B500241346FF2919D1821E0D480A2A8A
:1009F00015D2DFE802F005141414140714090C0FC3
:100A0000007805E0406800E08068186007E0407802
:100A1000187004E0802204491846FFF722FC2046A3
:100A200010BD00004C000020741000200023FF299E
:100A300004D0012814D009281CD118E00E4902283E
:100A400004D007280AD0092814D105E012F0FF00CD
:100A500000D0012008700DE08A600BE04A6009E0D8
:100A600012F0FF0000D00120044A505402E0044874
:100A700040F82120184670474C000020540F0020F9
:100A80007410002010B50146044800F019FC044819
:100A9000816841F00101816010BD0000300100203B
:100AA0000000002070B5524C504D0228226813D02F
:100AB000072838D009285ED00A280CD1FF21FFF77B
:100AC0008FFF20680078012871D0002803D12868A2
:100AD00020F08000286070BDFF210220FFF780FF1A
:100AE0002068444C00780128286810D040F4005059
:100AF00028600020FFF766FE206820F001002060DB
:100B00003C49002024310860014602205FE040F4A7
:100B100080602860206840F0010020600120FFF71D
:100B200051FE0121F1E7FF210220FFF759FF206864
:100B30000078012802D10020FFF744FEFF210720A2
:100B40002268FFF74DFF20680268FA2A0BD04FF4A5
:100B5000FA718A4208D049008A4205D04800824290
:100B600002D1014600E0FA210020FFF7BBFE206819
:100B7000016804202BE0FF210220FFF731FF2068ED
:100B80000078012802D10020FFF71CFEFF21092078
:100B90002268FFF725FF2068006806281CD007DCC4
:100BA00001280BD002280BD0042805D112E019E04F
:100BB000082813D00C2813D0182102E0012100E0EE
:100BC00002210020FFF74CFE20680168032000F09E
:100BD00093F870BD0421F4E70621F2E70821F0E75D
:100BE0000C21EEE7286840F0800073E70800002041
:100BF00040000020000C004010B50F4804F08EF8B3
:100C000000F082F80E480D490160891D41601231E3
:100C100081601831C160891D016112314161891DF6
:100C20008161891DC161891D0162891D416242394D
:100C300081620C31C16210BD5C0000201A630008A3
:100C4000B409002018B10349C86000207047FF2094
:100C5000704700004C000020014951F82000704707
:100C60005028004010B50220FFF7F6FF012815D0EC
:100C70000021084600F040F80021012000F03CF877
:100C80000021022000F038F80021032000F034F8A1
:100C90000021BDE81040042000F02EB8074C4FF4AE
:100CA000004020604FF4427003F0ACFA172803D0E4
:100CB000206840F40030206010BD000008000020D3
:100CC00010B50420FFF7C8FF020006D0FF2107205F
:100CD000FFF7ACFE0720FFF7E5FE0220FFF7BCFFA1
:100CE000020008D0FF210220FFF7A0FEBDE810405F
:100CF0000220FFF7D7BE10BD014A42F8201070470E
:100D000050280040FEE700002DE9F04FDFF810B159
:100D100000210BF120070B464FF0040E012207F1D2
:100D2000200A07F1A00907F1C00C00BF3D48C1EB44
:100D300001153D4E00F8253000EB8500384D80F858
:100D400001E0C0F802608271203DC27105EB01082C
:100D5000C0F80880037380F80DE0C0F80E6083745B
:100D600080F813E0361F4661027642760BEB0106EF
:100D7000C0F81A6002268677C27707EB0108C0F830
:100D80002080744680F8242080F825400AEB8108F2
:100D9000C0F8268080F82A2080F82B2009EB010873
:100DA000C0F82C8080F8302080F831200CEB01084E
:100DB000C0F8328080F8366080F8374005F59074CE
:100DC00004EB810686636A540BF801307B544AF8C1
:100DD000213009F801300CF801304FF47A7544F8ED
:100DE000215001EB8106A4F5C464851D44F836004A
:100DF00004EBC6046560AD1DA560AD1DE560AD1DCD
:100E00002561AD1D6561AD1DA561AD1DE561AD1D22
:100E10003630C4E90850491C202987DBBDE8F08F33
:100E2000740F0020F41000205400002001681823E3
:100E3000CAB2103AB2FBF3F2054B6FF30901032A71
:100E40009B5CC36500D9091D816508467047000099
:100E5000A063000810B5014600208B698A6A4FF034
:100E6000C07453B1B3F5005F15D072B1012A0CD034
:100E7000022A0AD0032A09D104E01AB1012A06D0B5
:100E8000022A03D1C96AC90100D5012010BDC96A6F
:100E9000A142FAD010BD002AF7D0012AF2D0022ACE
:100EA000F3D0032AF3D010BD30B50468256825F4CB
:100EB00080252560046863608368402B036803D045
:100EC00099600068C26030BD9A600068C16030BD42
:100ED0002DE9F74F144605464FF6FF77082802D94B
:100EE0003846BDE8FE8F68010126083003F08AF914
:100EF00000F00F00012802D04FF6FB70F1E714B3A9
:100F000041F6086000EB451003F07CF907EA802009
:100F1000A04200D204464FF4427000EB451841F65F
:100F20000870DFF890A000EB451B06FA05F928468B
:100F300003F09EFC0646404603F064F9172816D0DD
:100F40001C2803D00DE04FF6F270CAE7CEB9284650
:100F500003F0B4FC0746584603F054F9B7EB802F72
:100F600005D1284603F03EFC4FF6F970B9E7BAF810
:100F7000021019EA010F02D01EB90020B1E7002EBD
:100F8000D5D0A64200D2344622462846019902F026
:100F9000B7FB06464FF4847000EB45100446402131
:100FA00003F053F9204603F02DF90028FAD130461A
:100FB00097E70000980000202DE9F0471E46DDF875
:100FC000208015468A460446082803D94FF0FF3092
:100FD000BDE8F087670108374FF00109384603F094
:100FE00011F900F00F00022806D0032804D00428CD
:100FF00002D06FF00400EBE75DB13078717801EB5F
:101000000020B17801EB0020F17811EB002003D033
:101010000AE06FF00D00DBE7384603F0F3F8400715
:1010200002D46FF00B00D3E7B8F1000F07D13846B8
:1010300003F0E8F8400702D46FF00A00C8E74FF465
:10104000427000EB4410074603F0DCF8422806D05B
:10105000222804D0322802D06FF00600B8E740F60C
:10106000084000EB44100422314603F001F941F23C
:1010700008004FEA182100EB441003F0E6F841F2B3
:10108000081008F0FF0100EB441003F0DEF841F611
:10109000087000EB441003F0B5F84FF6FF7101EA59
:1010A0008020854200D90546DFF8888009FA04F6D9
:1010B000204603F003FC8146384603F0A3F838B11C
:1010C000B8F80200064206D04D4504D900207FE75B
:1010D0006FF003007CE74D45EAD82A46514620468A
:1010E00003F03AF94FF4847000EB441006462021D7
:1010F00003F0ABF84FF4027000EB4414304603F0F9
:1011000081F80028FAD1204603F07CF800F01F0097
:10111000C10605D52046102103F097F8284657E769
:101120000007F0D52046082103F08FF86FF00C007F
:101130004EE700009800002090F8001190F801217F
:10114000914201D1FF207047425C491C80F8001198
:101150001046704770470000F8B52A4804224068DE
:10116000017A491C8DF80010417A491C8DF8011054
:10117000817A491C8DF80210C07A6946401C8DF8AE
:10118000030040F6084003F073F80121082003F043
:101190005CF84FF484760121304603F056F80520C0
:1011A00000F060FA4FF4427003F02CF8132804D0DA
:1011B0001021304603F049F816E00421304603F0D0
:1011C00044F84FF402754FF4C167284603F01AF84B
:1011D00010F01F0403D02146284603F036F80520FE
:1011E00000F040FA200701D5FF20F8BD384603F093
:1011F00009F8FF28E9D01021304603F026F8002036
:10120000F8BD000030000020094810B50068094909
:1012100008600948016841F480410160012001F043
:101220009BF8002802D005490120086010BD00008D
:10123000240C00400C00002008000020143C014059
:1012400070B51A4D2968080602D541F400701FE0F8
:10125000174C48054FF0000600D526701548026867
:10126000154B207821F4044141F4006143F820201B
:10127000296002F0F3FD10B92078401C207020781E
:101280000A2806D12670286820F4006040F48050B7
:101290002860288880B200F0D5FE022001F05CF8BA
:1012A000002802D005490220086070BD0800002017
:1012B00010000020240C00408C090020143C014048
:1012C00010B590F8012190F80041531CA34205D0BD
:1012D000815490F80111491C80F8011110BD70472C
:1012E00070B5040003D094F8200010B104E0012090
:1012F00070BD204600F082F82068016821F00201EC
:10130000016000F095FA0546052604E000F090FA29
:10131000401B0A2811D8206840688007F6D420684E
:10132000016841F00101016000F082FA05460BE01E
:1013300000F07EFA401B0A2806D9606A40F40030AB
:10134000606284F82060D2E720684068C007EFD070
:10135000207E0128206801683DD021F080010160D5
:10136000607E01282068016838D021F040010160CA
:10137000A07E01282068016833D021F0200101609F
:10138000E07E0128206801682ED041F01001016044
:10139000207F01282068016829D021F00801016020
:1013A000607F01282068016824D021F004010160D9
:1013B000D4E902010843D4E90412114308436168E7
:1013C000491E08432168C86100206062012084F83A
:1013D0002000002070BD41F08001C0E741F04001D5
:1013E000C5E741F02001CAE721F01001CFE741F045
:1013F0000801D4E741F00401D9E7000010B586B038
:10140000044614216846FEF745FF144920688842C7
:1014100021D113480021026842F000720260006886
:1014200000F0007005900E481038026842F001028A
:101430000260006800F0010005904FF4C050009079
:101440000220CDE9010103200390092004906946A0
:10145000044800F019F906B010BD00000064004017
:1014600040380240000002402DE9F0410446876DFB
:1014700000F0DEF9064694F835000025022806D073
:101480008020606584F834500120BDE8F081206838
:10149000016821F0160101602068416921F0800196
:1014A0004161206C08B9A06C20B12068016821F06E
:1014B000080101602068016821F0010101600BE072
:1014C00000F0B6F9801B052806D92020606504F8D5
:1014D000345F03206070D8E720680068C007EFD150
:1014E00094F85C103F208840B86004F8345F012015
:1014F00060700020C9E790F83510022903D08021E0
:10150000416501207047052180F8351000680168A9
:1015100021F00101016000207047406D704700001C
:101520002DE9F041044600F083F906465CB1002540
:1015300084F83450022084F835002068016821F0D6
:10154000010101600DE00120BDE8F08100F070F9BB
:10155000801B052805D920206065032084F835000C
:10156000F2E720680068C007F0D1226811682048BF
:101570000140D4E901031843D4E903363343184347
:1015800063691843A3691843E3691843236A18433E
:101590000843616A042903D1D4E90B1319430843B2
:1015A000106020684069666A20F0070130460E43EB
:1015B000012704280CD1A06A0643E06A40B1204606
:1015C000FFF748FC20B14020606584F83570BAE729
:1015D000206846612046FFF729FC94F85C203F21F3
:1015E00091408160656584F835700020ACE70000AB
:1015F0003F8010F02DE9F0410446866D90F83400EC
:10160000002501280DD0012084F8340094F83570AD
:101610000020012F07D084F8340002252846BDE8B9
:10162000F0810220FBE7022784F8357060652046D0
:10163000FFF73AFC94F85C103F208840B0602068C7
:10164000016841F016010160206C20B1206801683A
:1016500041F0080101602068016841F0010101606A
:10166000DCE7000070B5044600F0E2F80546601CB7
:1016700002D004480078044400F0DAF8401BA0428D
:10168000FAD370BDAC0000202DE9F84F00224FF0D6
:10169000010803254FF00F0E0B6808FA02F42340EF
:1016A000A3426ED14E68012E05D0022E03D0112E1A
:1016B00001D0122E12D186684FEA420C05FA0CF7BF
:1016C000BE43CF6807FA0CF7374387604668A643E6
:1016D0000C79C4F30014944034434460C668570046
:1016E00005FA07FC8C6826EA0C06BC403443C4604B
:1016F0004C68022C01D0122C13D1D40800EB8404C6
:10170000A346D4F8209054074FEAD46A0EFA0AF69A
:1017100029EA06090E6906FA0AF646EA0906CBF82E
:10172000206006680C7926EA0C0604F00304BC402D
:10173000344304604C68E40060D5334C266846F4BA
:1017400080462660246822F0030604F48044009456
:101750002E4C3444A446D4F808489607370F0EFAA6
:1017600007F6B4432A4EB04201D100261FE0294EAD
:10177000B04201D101261AE0274EB04202D1022622
:1017800015E03BE0254EB04201D103260FE0244E88
:10179000B04201D104260AE0224EB04201D1052612
:1017A00005E0214EB04201D1062600E00726BE40EA
:1017B0002643CCF808681D4E34684F689C43FF03ED
:1017C00000D51C433460194E361D34684F689C4365
:1017D000BF0300D51C433460144E083634684F688C
:1017E0009C43FF0200D51C433460104E0C36346815
:1017F0004F689C43BF0200D51C433460521C102A22
:10180000FFF44AAFBDE8F88F443802400030014091
:10181000000002400004024000080240000C0240A8
:10182000001002400014024000180240003C014039
:101830000148806870470000AC00002002488168C1
:101840000278114481607047AC0000200B4810B54D
:10185000016841F400710160016841F48061016038
:10186000016841F480710160032000F061F80020FC
:1018700000F006F800F024F8002010BD003C024003
:1018800070B50D4D04464FF47A712878B1FBF0F035
:101890000A490968B1FBF0F000F0BEFB48B9102C12
:1018A00007D200222146501E00F022F800206C6072
:1018B00070BD012070BD0000AC000020A800002019
:1018C0000A4808B5016841F480410160006800F4ED
:1018D000804000900548001F016841F08051016080
:1018E000006800F08050009008BD000044380240BD
:1018F000F0B40E4B1B680C46C3F30223C3F107057B
:10190000042D00D90425191D072901D2002300E068
:10191000DB1E012606FA05F1491E214099409E4032
:10192000761E16403143F0BC02F0BDBD0CED00E068
:10193000064900F0070208684FF6FF03184040EA26
:101940000220034A10430860704700000CED00E0DD
:101950000000FA05F8B504460025FFF769FF0646C2
:1019600094F84100800736D5002084F840002068B4
:10197000016849070BD5016821F004010160E06BA3
:10198000FFF772FD18B1606C40F0040060642068DD
:10199000016841F002010160A06C00903346012211
:1019A0000221204601F0F6FD050014D12168022035
:1019B000C860A06C0090334600222021204601F030
:1019C000E9FD050007D12068416921F040614161CE
:1019D000012084F841002846F8BD704770B50446E0
:1019E00090F84100002580072CD5002084F84000A5
:1019F000082084F841002068016821F4F811016092
:101A000020680168490711D5016821F004010160CF
:101A1000E16B0D480865E06BFFF76DFD90B10120AB
:101A200084F841002046FFF7D8FF0BE00221C16097
:101A30002068016841F4003101602068016841F0CC
:101A400002010160284670BD6F3400082DE9F84F8F
:101A500017468B460446FFF7EBFE824694F840009B
:101A600001280ED0012684F8406094F841004FF020
:101A70000008012807D0022584F840802846BDE8E8
:101A8000F88F0220FBE7C4F844804FF0020984F885
:101A900041905346002220212046009701F07AFD14
:101AA0000500E9D100225946204601F031FCDBF85F
:101AB000240058B95346012202212046009701F024
:101AC00069FD0500D8D12168C1F80C9084F8416007
:101AD000D2E77047F8B50446FFF7AAFE064624B1E0
:101AE00094F84100002510B109E00120F8BD84F808
:101AF0004050204600F042F841F28830A06420684F
:101B00000168A2686FF0FF0321F4F85103EB022291
:101B100011430160A06C0090334600222021204632
:101B200001F038FD10BBE269E16823791143226AB4
:101B300042EA03621143226813680E4E3340194390
:101B40001160D4E905121143226853680A4E3340EC
:101B5000268A43EA06431943516021680A6842F025
:101B600001020A606564012184F8411084F8405044
:101B7000F8BD00002FFFFF00FEF8E0FF2DE9F04167
:101B800086B0064614216846FEF784FB304930686B
:101B900088425AD12F480025016841F002010160B6
:101BA00000682C4900F0020008390590086840F0F0
:101BB00004000860086800F004000590086840F020
:101BC00008000860086800F008000590086840F008
:101BD000020008600868022400F0020005904FF43B
:101BE000C06003274FF009088DE8B10169461A4823
:101BF000FFF74AFD08208DE8B10169461748FFF755
:101C000043FD4FF040080A20CDF80080CDE9037075
:101C100069461348CDE90145FFF736FD124C1148DE
:101C200020607806C4E901084FF48060C4E90350DD
:101C30006561A561E561256220466562FFF770FC7C
:101C400008B1FFF74CFBF463A66306B0BDE8F08172
:101C5000001000A03838024000080240000C02408A
:101C600000040240B8640240A00300202DE9F84FB0
:101C700015460F460446FFF7DBFD82462068816962
:101C800094F8402000F12009012A0DD0012684F8A3
:101C9000406094F841204FF00008012A06D002204D
:101CA00084F84080BDE8F88F0220FBE7C4F8448048
:101CB000BFB3222284F841200269521CA263026948
:101CC000521C62632763426922F0406242F08062E4
:101CD0004261206881610EE00621204601F05AFC35
:101CE000E0B999F80000216B0870206B401C20635C
:101CF000A06B401EA063A06B53464FF001020095FD
:101D00000028E9D14FF00201204601F043FC28B938
:101D100021680220C8602046FFF71CFE84F841605D
:101D2000BEE7FFE7606C40F0080060640120B7E7A1
:101D30002DE9F0410368044600269F69186994F86C
:101D40004020401C012A0AD04FF0010884F840804E
:101D500094F841200025012A04D002261FE0022029
:101D6000BDE8F0816564A9B1E26B5269DAB1B2F500
:101D7000006F03D0B2F5805F07D015E0C20709D12C
:101D8000227AD20706D140080DE0820702D1227ADA
:101D9000920707D0606C40F008006064012684F868
:101DA000405047E08008A063222084F841000320CF
:101DB000D860A06B60632163E26B1F48D063E26B65
:101DC0001E481064E26B1E48D064E06B0565E06B52
:101DD0008560E06B0068026822F0C0020260636BFD
:101DE00020680A46D4F83CC000F120016046FFF7A5
:101DF00001FC50B154F8440F012640F0040044F8AF
:101E0000040984F80180257014E02068416921F0FC
:101E1000406141F0806141612068876184F84050F1
:101E20002068016841F4803101602068016841F058
:101E300004010160304693E7D9340008EB34000810
:101E4000A9340008704700002DE9F84F15460F46E9
:101E50000446FFF7EDFC8246206894F8401000F13C
:101E6000200901290ED0012684F8406094F8411021
:101E70004FF00008012907D05FF0020084F840808D
:101E8000BDE8F88F0220FBE7C4F844809FB312211D
:101E900084F841100169491CE1620169491CA16291
:101EA0006762416921F0406141610EE004212046F2
:101EB00001F070FBE0B9606A017889F80010606A8F
:101EC000401C6062E06A401EE062E06A53464FF0E8
:101ED000010200950028E9D14FF00201204601F0EF
:101EE00059FB28B921680220C8602046FFF732FD5F
:101EF00084F84160C2E7FFE7606C40F0080060646E
:101F00000120BBE72DE9F04103680446002618696B
:101F100094F84020401C012A09D0012784F8407021
:101F200094F841200025012A04D002261FE0022057
:101F3000BDE8F0816564A9B1E26B5269DAB1B2F52E
:101F4000006F03D0B2F5805F07D015E0C20709D15A
:101F5000227AD20706D140080DE0820702D1227A08
:101F6000920707D0606C40F008006064012684F896
:101F7000405041E08008E062122084F841000320D4
:101F8000D860E06AA06261622068426922F0406223
:101F90004261E26B1948D063E26B19481064E26B4E
:101FA0001848D064E06B0565E26B40209060E06B00
:101FB0000068026822F0C00242F040020260A36A98
:101FC0002268E06B2032FFF715FB48B154F8440F4C
:101FD000012640F0040044F80409677025700BE006
:101FE00084F840502068016841F480310160206825
:101FF000016841F004010160304699E7F5340008BA
:1020000007350008A934000870470000014800683F
:1020100070470000A800002010B5401EB0F1807F7E
:1020200001D3012010BD4FF0E02460610F21601743
:1020300002F039FA0020A06107202061002010BDC5
:10204000FEE700000949C20405D54A6982F0200272
:102050004A61042202E0820401D520228A61000440
:1020600002D54FF4802088617047000000100240C4
:1020700007484FF480018161064A4912916120218D
:102080008161102181610821816104218161704792
:10209000001002400008024030B5134C4B6800228B
:1020A000A468124D04F00104AD6805F001052C434D
:1020B0000F4DAD6805F001052C4302D001221046FA
:1020C00030BD0C4D53B10C681C43D1E902310B43B8
:1020D00041681C4329400C434460F0E743680968A9
:1020E0002B400B434360EAE7002001400021014000
:1020F00000220140E010FCFF30B58368002213F09D
:10210000010F02D00122104630BD8C680B682343BA
:102110004468054D2C40234343608368496823F499
:1021200000630B438360EEE7FFFEFFFC30B54B68B6
:102130008468002214F0010F02D00122104630BD45
:10214000002B436823F4684301D08C682343436029
:10215000D1E9033423438468074D2C400D6805F012
:1021600070652C43234383604968C36A23F470037A
:102170000B43C362E2E70000FDFCFFC0044908B561
:102180000A6802430A6009680140009108BD000026
:1021900030380240044908B50A6802430A600968F9
:1021A0000140009108BD000040380240044908B5D4
:1021B0000A6802430A6009680140009108BD0000F6
:1021C00044380240034A1430515C0A5822F0040299
:1021D0000A50704782610008034A515C425822F05D
:1021E000100242507047000080630008034A515CAF
:1021F000425842F0010242507047000080630008DC
:10220000034B595C435823F06063134343507047BA
:1022100082610008044B001D595C0B586FF30F03DB
:1022200013430B507047000080630008034B595C58
:10223000435823F0C00313434350704782610008A2
:10224000034B595C435823F4806313434350704756
:1022500082610008034B595C435823F4C043134385
:102260004350704782610008034B595C435823F484
:10227000907313434350704782610008034B595CCD
:10228000435823F40073134343507047826100089E
:10229000034B595C435823F4C053134343507047D6
:1022A00082610008034B595C435823F440331343C5
:1022B000435070478261000830B5264A00240579F2
:1022C0000168131F85B371B345798DB1012D17D006
:1022D000022D18D0012483792BB31E4908310A1F1F
:1022E000012B18D0022B20D0032B22D0012428E070
:1022F00015688D43156001681A680A431A60EAE799
:102300001D688D4301E01D680D431D600168136861
:102310000B431360DFE703680D689D430D600068A1
:102320001168014311600CE00DE0036815689D43DE
:1023300002E0036815681D43156000680A680243DF
:102340000A60204630BD1D688D431D60006811681D
:102350008143E7E7043C014003490968884301D011
:102360000020704701207047143C0140F0B50A6816
:102370000F2692FAA2F2B2FA82F303248AE001272E
:102380009F4015EA07027DD04D68012D01D0022D36
:102390001BD18D68876892FAA2FCBCFA8CFC4FEACC
:1023A0004C0C04FA0CFC27EA0C0792FAA2FCBCFACB
:1023B0008CFC4FEA4C0C05FA0CF52F438760CD6876
:1023C0004768554397432F4347600F69D0F80CC0C7
:1023D00092FAA2F5B5FA85F54FEA450E04FA0EF524
:1023E0002CEA050C92FAA2F5B5FA85F56D00AF401E
:1023F0004CEA070CC0F80CC04D68022D33D192FA9C
:10240000A2F5B5FA85F5082D15D2D1F814C0056AE4
:1024100092FAA2F7B7FA87F7BF0006FA07F7BD43AB
:1024200092FAA2F7B7FA87F7BF000CFA07FC45EA61
:102430000C05056217E0D1F814E0476A150A95FA11
:10244000A5FCBCFA8CFC4FEA8C0C06FA0CFC95FA45
:10245000A5F5B5FA85F5AD0027EA0C070EFA05FEDD
:1024600047EA0E0747624D68076892FAA2FCBCFA79
:102470008CFC4FEA4C0C04FA0CFE27EA0E0792FA89
:10248000A2F200E005E0B2FA82F2520095402F433A
:1024900007605B1C0A681546DA407FF470AF0020C5
:1024A000F0BD30B5036891FAA1F4B4FA84F4650084
:1024B0000324AC4091FAA1F1B1FA81F14900A343A0
:1024C0008A401343036030BD30B5C36891FAA1F46C
:1024D000B4FA84F465000324AC4091FAA1F1B1FA96
:1024E00081F14900A3438A401343C36030BD00001B
:1024F00030B5214C4568B1FBF4F425F03F05254388
:1025000045601E4DAA4207D94FF4967504FB05F4A9
:102510004FF47A75B4FBF5F4056A04F1010425F073
:102520003F0544EA0504046213D96BB102EBC2040F
:1025300004EB0212B1FBF2F4240508D0B1FBF2F176
:10254000194341F400410FE002EB4202F2E701219E
:10255000F6E75200B1FBF2F3C3F30B03042B01D2F5
:10256000042101E0B1FBF2F1C2694CF6FF739A431A
:102570000A43C26130BD000040420F00A086010046
:102580007FB5044600680D4620F0010020606846D3
:1025900000F02AF8D5E90301626A084322F01F021D
:1025A00002436262D5E9012320460299FFF7A0FFAA
:1025B000E9696869A26848F2FF339A430843024315
:1025C000A2602868216821F01A0101432160206877
:1025D00040F001002060A869216821F48061014376
:1025E000216004B0002070BD10B5044601F020F851
:1025F000206000F0F3FF606000F0FEFFA060606804
:1026000001F008F8E06010BD0248006800F03F00EB
:1026100070470000043802400248006800F480005F
:10262000704700000438024002480068C0F3881078
:1026300070470000043802400248006800F0E040A3
:10264000704700000438024018B54FF47A710091C9
:10265000C1680022C1F38011A9B9511EC160C168CF
:102660004FF0E023C1F380110BE01969C1F3004181
:1026700011B10099491E0091C168009CC1F38011FD
:102680001CB10029F1D0104618BD0122FBE770B53E
:1026900004460126CA200D4660625320606220462F
:1026A000FFF7D2FF012816D02868A16821F0400169
:1026B0000143A160A86821696FF30E010143216104
:1026C000A888216921F4FE0141EA004020616FF0F1
:1026D0008000E0600026FF206062304670BD10B5CB
:1026E00003680122C3F380132BBBD1E900231A43F3
:1026F000D1E9023423431A430B691A434B691A4345
:102700008B691A43CB691A430B6A1A4303684FF665
:10271000BF74A3431A43026042684B6922F004026B
:1027200042EA134242600A6AB2F5005F02D1898C24
:1027300089B201610022C16921F40061C1611046C2
:1027400010BD00000A06930D074A1A44D2F8083853
:1027500023EA1143090C91FAA1F1B1FA81F1884001
:102760000343C2F80838704700300140014908604F
:1027700070470000A8000020F0B50268254B264DE8
:10278000264E274F274C4FF0804C984209D0604589
:1027900007D0A84205D0B04203D0B84201D0A04231
:1027A00005D1D1F804E022F0700242EA0E0298420C
:1027B0001BD0604519D0A84217D0B04215D0B842FE
:1027C00013D0A04211D0184DA8420ED0174DA842E8
:1027D0000BD0174DA84208D0164DA84205D0164D73
:1027E000A84202D0154DA84203D1CD6822F4407210
:1027F0002A4302608A68C2620A888262984201D0D3
:10280000A04201D1097C0163416941F001014161AC
:102810000020F0BD0000014000040040000800401E
:10282000000C004000040140004001400044014011
:102830000048014000180040001C004000200040FB
:10284000012919D0042919D0102919D0402919D0EB
:10285000B1F5807F18D0B1F5806F17D006210C4AF2
:102860001830525C10440268094BDB1D5B5C04218C
:1028700099408A43026070470021F0E70121EEE7AA
:102880000221ECE70321EAE70421E8E70521E6E776
:1028900074610008F0B5012600236E4C6E4D0129CD
:1028A00008D010293BD0B1F5807F73D0B1F5805F9F
:1028B0006ED1A6E0016A21F001010162016A466859
:1028C0008769D2F800C027F0730747EA0C07D2F8EF
:1028D00010C021F0020141EA0C01D2F804C021F03D
:1028E000010141EA0C01A04201D0A84212D1546971
:1028F00021F0080141EA8401946821F0040141EAD1
:102900008401956926F480742C43D56924F40074FD
:1029100044EA450646608761D26842636FE0016A17
:1029200021F010010162066A41688769D2F800C08F
:1029300027F4E64747EA0C27D2F810C026F0200615
:1029400046EA0C16D2F804C026F0100646EA0C1629
:10295000A04201D0A84213D1556926F0800444EA70
:102960008514956824F0400444EA8516946921F49E
:10297000806141EA8401D46921F4006141EAC40123
:1029800041608761D168816361E003E000E01E4639
:102990003046F0BD016A21F480710162016A466827
:1029A000C769D2F800C027F0730747EA0C07D2F8CE
:1029B00010C021F4007141EA0C21D2F804C021F4C6
:1029C000807141EA0C21A04201D0A84213D1546980
:1029D00021F4006141EA8421946821F4806141EA94
:1029E0008421956926F4805444EA0514D56924F4B9
:1029F000005444EA45164660C761D268C26301626A
:102A0000C5E7016A21F480510162066A4168C7691D
:102A1000D2F800C027F4E64747EA0C27D2F810C0E6
:102A200026F4005646EA0C36D2F804C026F4805646
:102A300046EA0C36A04201D0A84204D1946921F4A0
:102A4000804141EA84114160C761D1680164066236
:102A50009DE7000000000140000401407FB50446EE
:102A6000C0680D460126C0F34030C0BBE968686805
:102A7000AA690843296911430843E16849F20C62D5
:102A800091430843E060A868216921F44051014363
:102A900021616869616921F440710143616168469F
:102AA000FFF7A2FD0F48844208D00F4884420DD0A2
:102AB0000E4884420AD00E48844201D1039906E0B0
:102AC0000C48844202D00C48844208D1029931B1AA
:102AD0002B6823B100262046AA6900F00FF804B045
:102AE000304670BD001001400044004000480040E6
:102AF00000140140004C0040005000402DE9F0411E
:102B000006461920A1FB00011F460023642432253C
:102B1000B2F5004F27D0BB0FBA00FDF771FB01469D
:102B2000B0FBF4F06FF01802504301EB800005EBAE
:102B30000010B0FBF4F000F0F002B1FBF4F002EB97
:102B40000012B1FBF4F06FF01803584301EB800062
:102B500005EB0010B0FBF4F000F00F00104480B261
:102B6000B060BDE8F081FA195B41FDF749FB014611
:102B7000B0FBF4F00201B1FBF4F06FF0180358431E
:102B800001EB800005EBC000B0FBF4F000F0F800B2
:102B900002EB4002B1FBF4F0584301EB800005EB7F
:102BA000C000B0FBF4F000F00700D7E730B593B0F9
:102BB00000240F941094142168461194FDF76AFBC9
:102BC0000B940C940D94182105A80E94FDF762FB4C
:102BD0004FF48070FFF7EAFA0120FFF7CFFA0120E7
:102BE00005900320069005A909942648FFF7BEFB2F
:102BF000254D0F9410940FA928461194FFF77CFAE5
:102C00000094019402940394694628460494FFF7C3
:102C10008DFAA86840F48060A8604FF48030CDE958
:102C20000B040BA91948FFF737FA4FF440726815E7
:102C300092FAA2F20104B2FA82F2D04005EB8000CF
:102C4000C26A22F01F02C26291FAA1F0B0FA80F0CB
:102C5000C14005EB8100C1684FF0F87292FAA2F30F
:102C6000B3FA83F324FA03F307259D4092FAA2F204
:102C7000B2FA82F224FA02F2A94394402143C160DD
:102C800013B030BD0000024000200140002301408D
:102C90000948084901601021416000218160C1603C
:102CA00001614161017641768176C1760177417794
:102CB000FEF716BB00640040BC0000202DE9F04F79
:102CC00089B000240694182168460794FDF7E2FABB
:102CD0001020FFF753FA0420FFF750FA8020FFF787
:102CE0004DFA0120FFF74AFA0220FFF747FA0820C1
:102CF000FFF744FADFF820A248F27D010A04CAF87F
:102D00001820864E42F2901B4FEA0B40B061844F70
:102D10004FF07060B861DFF80C824FF08072C8F835
:102D20001820DFF804924FF04072C9F818204FF4D1
:102D30000040C8F818006620B86100910125CDE96F
:102D400001540394694650460494FFF70FFBCDF8F5
:102D500000B0CDE901540394694630460494FFF76E
:102D600005FB2020CDE90004694630460494FFF7B6
:102D7000FDFA4FF4E340CDE900046946504604945F
:102D8000FFF7F4FA4FF470600090CDE9015403941A
:102D9000694638460494FFF7E9FA4FF40140009081
:102DA000CDE901540394694640460494FFF7DEFAE6
:102DB00066200090CDE9015469463846CDE90345C7
:102DC000FFF7D4FA4FF440700090CDE9015403941A
:102DD000694648460494FFF7C9FA54490020FFF7B2
:102DE000B1FC4FF470210320FFF7ACFC50490320E5
:102DF000FFF7A8FC4F490320FFF7A4FC4FF4700134
:102E00000420FFF79FFC40208DF81C5006908DF8A1
:102E10001D408DF81E5006A8FFF74EFA8DF81C5085
:102E20008DF81D40022606958DF81E6006A8FFF756
:102E300043FA10208DF81C5006908DF81D408DF837
:102E40001E5006A8FFF738FA80208DF81C50069017
:102E50008DF81D408DF81E6006A8FFF72DFA8DF83D
:102E60001C508DF81D4006968DF81E6006A8FFF7D1
:102E700023FA002240214046FFF726FB00220121D1
:102E80003846FFF721FB002210213846FFF71CFBD4
:102E9000002280213846FFF717FB0022022150460E
:102EA000FFF712FB002240214046FFF7FAFA00220A
:102EB00001213846FFF7F5FA002210213846FFF7C6
:102EC000F0FA002280213846FFF7EBFA00220221B7
:102ED0005046FFF7E6FA184C20680022C0F30220A3
:102EE000114600F0FBF90146062001F0CCFA06205D
:102EF00001F0BCFA20680022C0F30220012100F09A
:102F0000EDF90146072001F0BEFA072001F0AEFA04
:102F100009B0BDE8F08F0000001002400008024038
:102F2000000C024000000240000402400100000FBB
:102F300001000F00010000F00CED00E02DE9F04170
:102F40008EB0202106A8FDF7A5F918216846FDF7E7
:102F5000A1F90220FFF712F90420FFF70FF901246D
:102F60000427CDE904474FF4806802250326CDE904
:102F70000264CDE9008569461848FFF7F7F9200398
:102F8000CDE90005CDE90264CDE90447694614485E
:102F9000FFF7ECF9A005FFF7FDF8124CE06820F010
:102FA0000100E060206820F040002060206820F0F0
:102FB0008000206000200C490890CDE90601CDE991
:102FC0000B0820140D9006A92046FFF7D9FAE068F7
:102FD00020F0FE00E0600EB0BDE8F0810004024089
:102FE0000008024000580040A086010070B590B073
:102FF00028216846FDF74EF918210AA8FDF74AF97D
:103000004FF48050FFF7D2F80220FFF7B7F83820CE
:103010000A9002200B9003200024CDE90C04052027
:10302000CDE90E400AA93C48FFF7A0F93B4E4FF00E
:10303000C0652A4603213046FFF7E2F8402203210B
:103040003046FFF7F3F8002203213046FFF72AF954
:10305000002203213046FFF707F900220321304602
:10306000FFF70CF9002203213046FFF7E9F80022B0
:1030700003213046FFF70CF9002203213046FFF709
:10308000E9F803213046FFF79DF82A460021304633
:10309000FFF7B6F8002211463046FFF7C7F86A126C
:1030A00000213046FFF7FEF8002211463046FFF7B8
:1030B000DBF8002211463046FFF7E0F83215002118
:1030C0003046FFF7BDF8002211463046FFF7E0F822
:1030D000002211463046FFF7BDF800213046FFF7C9
:1030E00071F84FF48270CDE9004001200294CDE9DF
:1030F0000340400205901020CDE906040A20CDE9E6
:103100000840074C69462046FFF7E9FA606820F05E
:103110001000606010B070BD000402400064024006
:103120000030014010B590B028216846FDF7B2F894
:1031300018210AA8FDF7AEF84FF48040FFF72AF8EF
:103140000220FFF71BF84FF460400A9002200B901A
:1031500003200024CDE90C040520CDE90E400AA986
:103160000E48FFF703F94FF48270CDE900400120CB
:103170000294CDE903404002CDE905040A20CDE9DF
:1031800008400794064C69462046FFF7A8FA606895
:1031900020F01000606010B010BD0000000402407C
:1031A0000038004070B594B014210EA8FDF772F8F5
:1031B00020216846FDF76EF8182108A8FDF76AF887
:1031C0000120FEF7E7FF0024ADF83840601ECDE98E
:1031D0000F404FF080450EA928461194FFF7CCFA16
:1031E000286820F0800028600094019402940394E1
:1031F0006A46012128460494FFF74CFB012128462A
:10320000FFF71EFBAE1401946A463146284602942D
:10321000FFF740FB31462846FFF712FB686820F0B5
:1032200070006860A86820F08000A8600120FEF7A8
:10323000A5FF282008900220CDE909040120CDE94E
:103240000C4008A90B940248FFF790F814B070BD29
:103250000000024010B58EB01C216846FDF71AF838
:10326000182107A8FDF716F81020FEF79FFF012090
:10327000FEF784FF4FF4C0600790022008900320FF
:103280000024CDE909040720CDE90B4007A9104827
:10329000FFF76CF84FF4E130CDE900040C20029404
:1032A000CDE90340059406940A4C69462046FFF791
:1032B000D5FB206920F490402061606920F02A004D
:1032C0006061E06840F40050E0600EB010BD0000A6
:1032D0000000024000100140FEE7704730B500F0EA
:1032E0000703C3F10704042C00D90424181D072880
:1032F00001D2002300E0DB1E012505FA04F0401E88
:10330000084098409D406D1E1540284330BD7047D1
:10331000F0B54B6A4FF040652BB1AA4203D08B6ADF
:1033200004685B1E23618C690B6A002C57D05BB369
:1033300004688B68E361CC69B4B1D1E90B363343DF
:103340004F6A4E6B3E4333438E8A43EA86430E698F
:1033500033430E6A3343CE68334323438C6924E0FE
:10336000006849688161F0BDD1E90B3423434D6A9F
:103370004C6B2C4323438C8A43EA84430C692343DC
:103380000C6A23438C6923E0CE69BEB1D1E90B37C7
:103390003B43D1F824C04F6B47EA0C073B438F8A6D
:1033A00043EA8743CF683B43334323430C682343BB
:1033B000046813436361AA42D2D1F0BDD1E90B3551
:1033C0002B434E6A4D6B35432B438D8A43EA85432D
:1033D0000968234300680B4313434361F0BD3BB3CB
:1033E00004688B68E361CC6994B1D1E90B3633434F
:1033F0004F6A4E6B3E4333438E8A43EA86430E69DF
:1034000033430E6A3343CE68334323438C69CEE79C
:10341000D1E90B3423434D6A4C6B2C4323438C8AF4
:1034200043EA84430C6923430C6A89692343D1E747
:10343000CC6964B1D1E90B3633434F6A4E6B3E43DE
:1034400033438E8A43EA8643CE683343AFE74B6A01
:10345000002BC3D0D1E90B452C434D6B898A1D430A
:103460002C43006844EA814111434161F0BD10B52D
:10347000806B00218163C16290F84110082905D05A
:10348000012180F84110FEF724FB10BD02680221E3
:10349000D16001680A6842F400320A60006801687D
:1034A00041F00201016010BD10B5846BFEF735F8E4
:1034B000022810D00020A063E062606C40F004009D
:1034C00060642068016821F0040101602046BDE8C5
:1034D0001040FEF783BA10BD806B00218163006845
:1034E000016841F400310160704710B5806BFEF750
:1034F000A9FC10BD806B0021C1620068016841F425
:1035000000310160704710B5806BFEF77DFD10BD86
:10351000074A10B51268491E1161014641F288320E
:103520000348FEF7A3FB002800D0012010BD0000D7
:10353000E400002010B58EB0002401904FF48050BC
:10354000039002918010CDE90640CDE904420001CC
:103550000D94CDE908030B940C9441F2883269462E
:103560000248FEF773FA0EB010BD0000E400002020
:10357000074A10B51268491E1161014641F28832AE
:103580000348FEF761FC002800D0012010BD0000B8
:10359000E40000202DE9F041984616460F46044607
:1035A000069D08E0681C06D0FEF742F9A0EB080073
:1035B000A8420AD84DB120688068384000D0012068
:1035C000B042EFD10020BDE8F081042084F8410032
:1035D000606C40F0010060640120F4E70449096870
:1035E000044A01F0F0010909515CC840704700002D
:1035F000083802408863000804490968044A01F455
:10360000E05102EB91210978C84070470838024028
:103610009863000804490968044A01F4604102EB18
:1036200051310978C8407047083802409863000853
:103630000948006810F00C0108480BD0042909D093
:10364000082905D00C2905D15FF00C0000F008B85E
:103650000820FBE770470000083802400024F4000F
:1036600070B50546FEF7D8FF104C082D0DD0FEF7BB
:10367000CBFFB4FBF0F4FEF7D7FF4443FEF7DCFFCB
:103680005FEA1070B4FBF0F070BDFEF7BDFFB4FB55
:10369000F0F4FEF7C9FF444305480068012100F437
:1036A000403001EB10404000ECE700000024F40043
:1036B0000438024070B500241546202801D9FF299E
:1036C00003D1282803D9FF2903D10A2410E0FF29B8
:1036D00010D001EB8102094901EBC20151F8200031
:1036E000D0F8021040781870C2B22846FCF7B9FD35
:1036F000204670BD0149A039F0E70000540A0020BF
:103700002DE9F047074642F6081000EB47109246B5
:103710008846054600F076FD064642F6080000EBB6
:103720004710044600F06EFD06EB002086B2300222
:1037300000EB47111831C1F30F20C9B24FF080736D
:103740000022FFF7F7FE41462348FEF7F1FA25492C
:10375000DFF88880224F2248DFF880C0A8F15408A3
:103760001F4B603F0968A8F10409B838614502D9C8
:10377000D8F8002009E0994202D9D9F8002004E0E5
:10378000B94201D9426800E0026812F0006FEDD042
:103790004FF00062614502D910484C3803E099426D
:1037A00003D90E485038026004E0B94201D9C26022
:1037B00000E082600848FEF7CDF806EB0A0086B20A
:1037C000310A204600F041FDF1B2284600F03DFDEF
:1037D0003046BDE8F0870000E40000205864024055
:1037E000B8600240A00300207047000030B51549C2
:1037F00087B0134848601448016841F0080101602F
:103800000068002500F0080005904FF44870ADF8FE
:103810000000681ECDE901500C4C69462046039516
:10382000FEF7AAFFA06820F08000A06007482430BF
:103830000560206840F00100206007B030BD000046
:103840008C0900204000002040380240000C00405D
:1038500005490A68C2F340121AB149680170002094
:1038600070474FF0FF3070470010014003490A686D
:10387000C2F3C012002AFAD048607047001001401D
:10388000FDF7DCBF70B55A4C208981B2002000F0F2
:1038900075F9032804D0042806D002280BD012E0C2
:1038A000A06840F0020004E0A06820F0040040F0AE
:1038B0000800A06007E00022FF210220FDF7B6F813
:1038C0000220FDF7EFF8207A800708D500F08CFA87
:1038D00028B9A06820F0020040F00400A060A068B1
:1038E00001070CD5C10707D04248FDF725FCFDF7BD
:1038F000D9F8A06820F0010020F00800A060410481
:103900000BD581B2022000F0F9FA052805D1A06894
:1039100020F4804040F01000A060207AC00608D556
:1039200000F05CFB28B9A06820F0100040F04000D7
:10393000A060A068410609D581B2022000F0DEFA3D
:10394000062803D1A06820F04000A060A168C80448
:103950000AD5FF2000F082FA012805D1A06820F4E2
:10396000805040F02000A060A06881060ED581B292
:10397000012000F0C3FA062808D1A06820F020003A
:10398000A060810402D520F40050A060A168080660
:1039900027D56068401C6060B0F5FA5F21D1002532
:1039A00041F48070C4E90150207800F0ADFF012897
:1039B000FAD12078401CC0B22070082811D10E48DE
:1039C0002570AC21017003214170012181700B2110
:1039D000C170FF210171CC214171A06840F002004B
:1039E000A0602089BDE8704080B2FEF72BBB0000CC
:1039F000000000203001002030040020444810B5B1
:103A0000016821F00F0141F005010160016801F03A
:103A10000F010529FAD13F48016841F44041016096
:103A2000016821F4803101603B490A6842F4803228
:103A30000A600A68C2F34042002AFAD0026842F4DF
:103A40008072026034487030026842F00102026005
:103A50000268C2F34002002AFAD0026802F44072FF
:103A6000B2F5807F0DD0026842F4803202600268B5
:103A700022F480320260026822F4407242F48072C2
:103A80000260026842F4004202602348234A001D9B
:103A90000368234C23401A430260026822F4403238
:103AA0000260026822F0E0420260086840F0807024
:103AB00008600868C0F340600028FAD01648083053
:103AC000016821F0F0010160016821F4E05141F446
:103AD000A0510160016821F4604141F4004101609E
:103AE000016821F0030141F002010160016801F069
:103AF0000C010829FAD10B48FEF738FE0020FDF72B
:103B0000BFFE05488C30016821F08071016010BD56
:103B1000003C02400070004000380240105040005D
:103B20000080BFFF006889091048016841F47001F6
:103B300001600F48016841F0010101600C4A002159
:103B40000832116002680B4B1A400260031D0A4ADA
:103B50001A60026822F48022026005480C3001607D
:103B600002495806803908607047000088ED00E07F
:103B700000380240FFFFF6FE103000242DE9F04728
:103B800005464FF44270894600EB451000F03AFBC1
:103B9000DFF8B08005EB850730B113280FD0172868
:103BA00012D01C284AD145E0D8F808000023012192
:103BB00030F81720284602F0C3F900243EE02846DA
:103BC00000F0DCFF012439E04FF4027000EB4510F7
:103BD000064600F017FBC00703D03046012100F075
:103BE00034FB284600F044FE060011D0D8F8080047
:103BF000042200EB470140F6084000EB4510091D88
:103C000000F011FB324610492846FDF761F9032404
:103C10005FEA497012D50C481030014642782846B8
:103C2000D21C01F08FF9FF2210210748FCF72BFB73
:103C3000042403E0284600F0D5FD02242046BDE818
:103C4000F087000030000020300400202DE9F04112
:103C500004004FF0FF306FD02368022701264C4943
:103C60004C4A4D4D062B67D2DFE803F00305151EC5
:103C7000457C26605FE008782071117888425AD12F
:103C8000FF206071A071E07120726072A072A01DAF
:103C9000E06042A04CE048786071FF284BD042A021
:103CA00000F0D4FB03201CE0394863798078032BB3
:103CB00019D0012B0AD0E0716079C01EA071C878BC
:103CC0002072087960723248401D20613048617965
:103CD000801C085C517888420BD135A000F0B6FBFF
:103CE0000420206027E0E071C878207208796072B3
:103CF000ECE731A008E02748E17905278068012931
:103D00000AD010291AD031A000F0A0FBFF22042114
:103D10001F48FCF7B8FAACE7267AD0F800C0617A01
:103D2000E3682A1D3046E047A072E068007815E09D
:103D300000F08CFB27600120BDE8F081267AD0F8E6
:103D400004C0A379617A22693046E047A07238B98D
:103D5000A279281D2169FCF784FAA079801C607182
:103D60001DA0E5E790782870A07A00B167716079AE
:103D70006870A07AA870207AE870D17806486279D5
:103D8000801C115416A000F061FB00202060D3E7D6
:103D9000300400201400002040040020533A4C4519
:103DA0004E4754480D0A0000533A43484B0D0A0051
:103DB000533A494E530D0A00533A4552522D43543B
:103DC0004661696C65640D0A0000000057726F6EF1
:103DD00067494E530D0A0000533A5250590D0A00DC
:103DE000533A454E440D0A0010B50448FFF72EFF24
:103DF000002801D10249487110BD000014040020C0
:103E000014000020014800F003B800001404002052
:103E1000002801D0002202607047000070B50E4BF0
:103E2000FF21A3F11B04DA1F2361A06805680020AD
:103E3000A847A06804F114052A1D0668FF21052083
:103E40002369B047A068AA1D23690668FF21B4460C
:103E5000BDE87040012060472F0000202DE9F041AF
:103E60000546234F234C08054FF000061FD5FF2DB4
:103E70001BD0732015FB00F0074407F11E00FCF770
:103E80003FFC2079F8751C483D767E76016811F874
:103E9000250001EB8501B8764878F8768878387780
:103EA000C87878770020BDE8F0810120FBE7C804DE
:103EB000F9D5880401D4E06810B9FFF7AFFFE660D8
:103EC00060693860E0683871010A7971010CB97174
:103ED000010EF971401CE060208B3881A07EB87221
:103EE0000348FF2204211330FCF7CDF9DDE7000081
:103EF000A404002014000020440000202DE9F84311
:103F000004464FF442700F4600EB441000F07AF97B
:103F1000DFF8BC8004EB840520B102281CD02228E5
:103F200053D109E0D8F808000023022130F8152009
:103F3000204602F005F848E0012C0DD1B8060BD55B
:103F4000D8F8083040F295422249988900902046DE
:103F50001B1DFDF731F80626780426D5204600F013
:103F600087FC02000AD0D8F808001B4900EB450383
:103F7000981C009020461B1D00F0DAFE4FF4B85547
:103F8000284600F03FF90146284600F05EF94FF45C
:103F9000027000EB4414204600F034F900F01F01D9
:103FA000204600F052F905260FE078060DD5D8F826
:103FB0000800094900EB4503102258880090103191
:103FC00020461B1D01F04CF806263046BDE8F8835C
:103FD00030000020A40400203909002008490948C5
:103FE0000A7842724A7882728A78C272C9780173FA
:103FF00005494A7842738978817300207047000030
:104000000C0000204909002039090020FEE70000CB
:1040100010B58021002000F018F90A20FDF722FBDE
:10402000174C04229001616800F022F961680422B3
:104030004FF4A060091D00F01BF9616806224FF4DF
:1040400010600C3100F014F9616804224FF47060C4
:10405000083100F00DF907214FF4C85000F0F5F8D1
:10406000D021480100F0F1F808214FF4D85000F0B9
:10407000ECF8BDE8104000214FF4B05000F0E5B876
:104080003000002070B500F031F8144C4FF40045BA
:104090002804A0613220FDF7E5FAA5616420FDF750
:1040A000E1FA4FF43854204600F0ACF8C007FAD0DB
:1040B000FFF7AEFFFDF750F8002000F049F80120AF
:1040C00000F046F8022000F043F806490448086072
:1040D0000548016821F40031016070BD0000024014
:1040E000A4040020300000200800002070B516480D
:1040F000164A00F11301C024C2E901010470A82589
:10410000457001218170C170FF2303714371837178
:104110000023C3710C26067329264673AB268673CB
:104120007C26C673037441740472457281720A213D
:10413000C172906841F659310180491C41818181E9
:10414000491C8182C18270BD5909002030000020C5
:1041500010B52B4C03281BD2DFE800F0021B340003
:10416000052141F2082000F070F8B42141F2083036
:1041700000F06BF8E02142F6084000F066F8A06815
:10418000002301210288184601F0DAFE0028F6D14A
:1041900010BD052141F2282000F057F8B42141F26A
:1041A000283000F052F8002142F6284000F04DF887
:1041B000A068002302214289012001F0C1FE0128EC
:1041C000F6D110BD052141F2482000F03EF8B4219F
:1041D00041F2483000F039F804214FF4C05000F0AB
:1041E00034F8E42142F6484000F02FF8A06802219C
:1041F0000023828A084601F0A3FE0228F6D110BDF2
:104200003000002038B5C0F30F24C1B24FF08073E6
:1042100000222046FFF78EF901216846FFF778F962
:104220009DF8000038BD70B50E461546C0F30F244A
:10423000C1B24FF0807300222046FFF77BF9294678
:104240003046BDE87040FFF763B938B5C0F30F24BE
:104250008DF80010C0B240F004014FF080730022CE
:104260002046FFF767F901216846FFF781F938BD5D
:1042700070B5C0F30F240E46C0B2154640F00401DD
:104280004FF0807300222046FFF754F9294630464C
:10429000BDE87040FFF76CB970B54FF0E0250646F9
:1042A000AC69FDF7B3FE0849B0FBF1F17143203969
:1042B0008C4203DA68692044401A00E0601AA96958
:1042C0008142FCD270BD000040420F002DE9F04158
:1042D0001F4F1646044607F1A00001EB810200EBD8
:1042E000C202FF2908D052F82450202C28786D787B
:1042F00005D9FF290ED102E057F82450F5E7282C04
:1043000001D9FF2906D038B1032805D0AB4205D02A
:10431000022516E00A2514E0012512E00025FF29F8
:1043200012D052F8240000BFD0F802001A463146DD
:10433000FBF797FF2046FF2C03D00649C96801B15F
:1043400088472846BDE8F08157F82400ECE70000D4
:10435000B40900204C0000202DE9F047074642F246
:10436000085000EB4710914688460546FFF74AFF84
:10437000064642F2084000EB47100446FFF742FFB2
:1043800006EB002086B2300200EB47111031C1F37A
:104390000F20C9B241F004014FF080730022FFF7F3
:1043A000C9F8264909F11100096808614146234806
:1043B000FDF7A8FD2449DFF888A0224F2148DFF847
:1043C00080C0AAF1540A1F4B603F0968AAF1040893
:1043D000B838614502D9DAF8002009E0994202D9DB
:1043E000D8F8002004E0B94201D9426800E0026830
:1043F00012F0006FEDD04FF00062614502D9104815
:104400004C3803E0994203D90D485038026004E06B
:10441000B94201D9C26000E082600848FDF79AFA0B
:1044200006EB090086B2310A2046FFF70EFFF1B213
:104430002846FFF70AFF3046BDE8F087E400002079
:1044400058640240B8600240A00300200FB4054B3E
:1044500010B503A9044A029800F044F810BC5DF8B6
:1044600014FB000059480008B8000020002809DBB0
:1044700000F01F02012191404009800000F1E0207E
:10448000C0F8001170470907090E002804DB00F18D
:10449000E02080F80014704700F00F0000F1E020E9
:1044A00080F8141D70470907090E002804DB00F18D
:1044B000E02080F80014704700F00F0000F1E020C9
:1044C00080F8141D704702E008C8121F08C1002AB6
:1044D000FAD170477047002001E001C1121F002A85
:1044E000FBD170472DE9FF4F8DB09B460F46044628
:1044F000002606E025280BD05A460F999047641CE9
:10450000761C20780028F5D111B03046BDE8F08F38
:104510000025A8460122984900E0054314F8013F10
:10452000203B02FA03F00842F7D120782E2817D159
:1045300014F8010F45F004052A280ED06FF02F0261
:104540002078A0F1300109290AD808EB880102EB94
:10455000410100EB0108641CF2E757F8048B641C6E
:1045600020786C280DD004DC4C2812D06A2811D198
:1045700004E074280DD07A280CD10AE045F4001527
:1045800007E0617845F48015814202D1641C05F58D
:104590008015641C2078692844D008DC0028B3D03A
:1045A000582867D063280FD0642808D13AE07028D3
:1045B00065D0732812D075285AD078285AD05A4618
:1045C0000F999047761CD5E017F8040B8DF8000082
:1045D00000208DF80100E946012003E057F8049B14
:1045E0004FF0FF3069074FF0000501D40AE06D1C61
:1045F00045450DDA8542FADB19F805100029F6D198
:1046000006E06D1C8542FCDB19F805100029F8D185
:104610002E4404E019F8010B5A460F9990476D1E7D
:10462000F8D2A7E00A200021CDE90801C5F3025025
:1046300002280CD001CFC117021E71F100020CDA62
:104640000023D0EB030063EB01012D2208E0FF1DE6
:1046500027F00707F7E80201EEE72A0504D52B2229
:104660008DF8282001223CE0EA073AD02022F7E723
:104670000A2000E010200021CDE9080107E0102009
:10468000002145F00405CDE908014FF00808C5F305
:104690000250022810D001CF00214FF0000A2A0753
:1046A00020D52278702A0DD0DDE908C38CF0100CDB
:1046B0005CEA030C0CD015E0FF1D27F00707F7E8B4
:1046C0000201EAE740228DF828204FF0010A0CE0B1
:1046D00050EA010306D030238DF828308DF82920C8
:1046E000022292462278582A04D024A20DF12009F1
:1046F0000B9209E026A2F9E7DDE90823FBF780FD2C
:104700000B9B9B5C09F8013D50EA0102F4D1ADEB33
:10471000090020300890680701D44FF0010808997B
:10472000884503DD0898A8EB000000E000208046E3
:10473000002506E00AA85A46405D0F9990476D1C77
:10474000761C5545F6DB04E030205A460F99904719
:10475000761CB8F10001A8F10108F5DC05E019F8B4
:10476000010B5A460F999047761C0899481E0890ED
:104770000029F4DC641CC4E609280100303132331E
:10478000343536373839616263646566000000008D
:104790003031323334353637383941424344454677
:1047A000000000002DE9F04104270B4E00250024F5
:1047B0003019817F09A0FFF749FE641C1B2CF7DB31
:1047C00007A0FFF743FE6D1CBD42F0DBBDE8F041E2
:1047D00003A0FFF73BBE0000A404002025782000C2
:1047E0000D0A000070B50446082802D94FF0FF30CA
:1047F00070BD4FF4847000EB441005461021FFF7A4
:1048000024FD2846FFF7FEFC0028FAD14FF4027081
:1048100000EB44101F21FFF718FD0D490120A040B7
:104820004A8882434A808A8882438A8009490020D4
:1048300021F814000649891D08554FF4427000EB19
:1048400044142046FFF7DEFC0028FAD1012070BD99
:10485000980000206019002004490A68C2F3C012C1
:10486000002AFAD0C2B24A6070470000001001402E
:104870002DE9F04142F2086101EB401542F2087166
:10488000002601EB40142846FFF7BCFC07462046F3
:10489000FFF7B8FC00EB072007043F0C09D02846BF
:1048A000FFF7B0FC06462046FFF7ACFC00EB062005
:1048B00086B2BE42E7D13046BDE8F0812DE9F04135
:1048C00042F2080101EB401542F20811002601EB0B
:1048D00040142846FFF796FC07462046FFF792FC57
:1048E00000EB072007043F0C09D02846FFF78AFC9D
:1048F00006462046FFF786FC00EB062086B2BE4245
:10490000E7D13046BDE8F081F8B5334E0446306853
:10491000C10527D525460220401C0828FCDB0622BD
:1049200004210020FCF700F80124AC40E2B2102181
:104930000020FBF7F9FFE2B20F210020FBF7F4FFA4
:1049400000220E211046FBF7EFFF00220D2110463A
:10495000FBF7EAFF0120FBF7A5FD306820F480702B
:10496000306036E0800534D51C48FBF7C9FE0020D6
:10497000FBF798FD194A002004EB440102F16C0793
:1049800000EBC00303EB43030B441344B3F80350A1
:10499000ADF800505B7907EB40158DF80230009BB5
:1049A000401C45F824300428EADB002507EB4511BC
:1049B00004EBC50051F82420C1B20920FCF736F8F9
:1049C0006D1C042DF2DB306820F400703060012093
:1049D000F8BD0020F8BD0000080000207418002079
:1049E00070B5054635A0FFF731FD00212846FBF7DD
:1049F0002BFE014638A0FFF729FD01212846FBF7D1
:104A000023FE014637A0FFF721FD02212846FBF7D0
:104A10001BFE014636A0FFF719FD03212846FBF7D0
:104A200013FE014635A0FFF711FD0024601DC1B241
:104A30002846FBF709FE0246214633A0FFF706FD94
:104A4000641CE4B2082CF1D30D212846FBF7FCFDD1
:104A5000014630A0FFF7FAFC0E212846FBF7F4FDD3
:104A6000014630A0FFF7F2FC0F212846FBF7ECFDD2
:104A7000014630A0FFF7EAFC10212846FBF7E4FDD1
:104A8000014630A0FFF7E2FC11212846FBF7DCFDD0
:104A9000014630A0FFF7DAFC15212846FBF7D4FDCC
:104AA000014630A0FFF7D2FC17212846FBF7CCFDCA
:104AB000BDE8704001462EA0FFF7C8BC313239393D
:104AC0002773205265676973746572732056616C31
:104AD0007565733A0D0A000044455649443D252347
:104AE000780D0A00434F4E46313D2523780D0A00CC
:104AF000434F4E46323D2523780D0A00434F4E4624
:104B0000333D2523780D0A00434825643D2523784D
:104B10000D0A00004249415353454E53503D252351
:104B2000780D0A004249415353454E534E3D2523CB
:104B3000780D0A004C4F464653454E53503D2523B1
:104B4000780D0A004C4F464653454E534E3D2523A3
:104B5000780D0A004C4F4646464C49503D25237877
:104B60000D0A00004D495343313D2523780D0A00BD
:104B7000434F4E46343D2523780D0A0070B5044658
:104B8000082802D94FF0FF3070BD60010830FFF7F0
:104B900039FB00F00F00012802D06FF0040070BD57
:104BA0004FF4427000EB44100546FFF72BFB13282F
:104BB00002D06FF0020070BD4FF4847000EB44101F
:104BC00006460221FFF741FB3046FFF71BFB00289A
:104BD000FAD12846FFF716FB142805D02046FFF728
:104BE00001FE6FF0030070BD012070BD0EB5FCF733
:104BF0002DFEFEF703FFFEF761F84FF48000FDF78E
:104C0000BDFAFDF7D3FFFEF743F8FEF797F93848F2
:104C1000364900240160032141600921C0E90214E2
:104C2000102101614FF44071C0E90514C4610462B0
:104C3000FCF750FFFEF7DAF9FEF774FAFEF7B2FA66
:104C4000FEF708FB2B480094016841F40041016025
:104C50007F200190FF20284C029069462046FDF7F6
:104C600016FD206940F4FE00206120696FF30E00FC
:104C700040F0FF002061FBF7F5FFFDF7F9F9204850
:104C80001E49C0F864111F49C0F8681100F066FFA2
:104C90001D48016841F0400101601C491A481C4A46
:104CA0000B780C309850C97888500020FBF71CFC1A
:104CB0000120FBF755FCFEF799FDFFF7A3F8FBF782
:104CC0009BFF1448FBF7BEFF134C2089000404D55A
:104CD000FBF7F6FFA068800301D5FFF7D3F908487A
:104CE00001F008F9FEF7CEFDF9E70000001000A082
:104CF000E4000020703802400028004051380008CD
:104D0000340200206D380008003001408261000844
:104D100008640240850A00080000002018B1034919
:104D200088600020704701207047000014000020B8
:104D30002DE9FF4F002583B01F4690460446082802
:104D400003D9681E07B0BDE8F08F60014FF0010A7B
:104D50000830FFF757FA834600F00F00022806D00C
:104D6000032804D0042802D06FF00400EAE7B8F169
:104D7000000F05D0DFF8C49139F8140018B11EE017
:104D80006FF00D00DEE74FF4427000EB44160AFAB4
:104D900004FA2046FFF76CFD05463046FFF732FA6D
:104DA00030B1674949881AEA010F06D01DB106E003
:104DB0006FF00300C6E70020C4E7002DE9D00BF038
:104DC0000701DFF87CA14FF484704FF0800B0AF1EB
:104DD000060A00EB4416022922D003297CD00429BC
:104DE00052D02946204601F074F929F81450304673
:104DF0004021FFF72AFA3046FFF704FA0028FAD1DB
:104E000039F81410491B0904090C29F8141003D0AF
:104E10001AF8041041F001010AF80410284691E73D
:104E200039F814004D4670BB08226946204601F04F
:104E300015F930464021FFF708FA3046FFF7E2F94E
:104E40000028FAD19DF8000038709DF801007870B4
:104E50009DF80200B8709DF80300F87010999DF855
:104E6000040008809DF8051001EB002010990880CF
:104E70009DF806009DF807105BE02A46204604993D
:104E800001F0ECF8B3E72AE039F814004D4630BBE6
:104E900002226946204601F0E1F830464021FFF742
:104EA000D4F93046FFF7AEF90028FAD19DF800009A
:104EB0009DF801106FF0010202EB0020084480B25F
:104EC00040F2EA5125F81400884206D92046FFF73F
:104ED00089FC6FF47A7035E702E00AF804B003E069
:104EE00039F814004D4630B135F814504046454568
:104EF000C3D90546C1E706226946204601F0AEF84F
:104F000030464021FFF7A1F93046FFF77BF9002832
:104F1000FAD19DF8000038709DF8010078709DF876
:104F20000200B8709DF80300F8709DF804009DF829
:104F3000051001EB002025F81400CEE760190020D1
:104F4000980000202DE9F05F15468B46064608289C
:104F500003D94FF0FF30BDE8F09F70010124083005
:104F6000FFF750F900F00F00012801D0A01FF2E771
:104F700075B14FF4427000EB46100746FFF742F957
:104F80006FF0060A172806D01C2804D05046E2E726
:104F90006FF00D00DFE7DFF8C480B440B8F804001C
:104FA000044213D04FF4027000EB46108146FFF725
:104FB00029F900F01F00C10624D548461021FFF74B
:104FC00044F9B8F80410A143A8F8041041F6087099
:104FD00000EB4610FFF716F94FF6FF7101EA80204B
:104FE000854200D905463046FFF768FC81463846C1
:104FF000FFF708F917280DD01C280BD03046FFF713
:10500000F1FBC3E700070BD53046FFF7EBFB6FF072
:105010000C00A0E7B8F80200044203D04D4501D9C6
:10502000002098E74D45DED82A465946304601F023
:1050300071F84FF4847000EB461006462021FFF70C
:1050400004F93046FFF7DEF80028FAD1B8F804106A
:1050500028460C43A8F804407DE700009800002093
:105060002DE9F0471E46DDF8208015468A460446A5
:10507000082803D94FF0FF30BDE8F08767010837F3
:105080004FF001093846FFF7BDF800F00F00022885
:1050900006D0032804D0042802D06FF00400EBE708
:1050A0005DB13078717801EB0020B17801EB002020
:1050B000F17811EB002003D00AE06FF00D00DBE780
:1050C0003846FFF79FF8400702D46FF00B00D3E794
:1050D000B8F1000F07D13846FFF794F8400702D423
:1050E0006FF00A00C8E74FF4427000EB4410074627
:1050F000FFF788F8422806D0222804D0322802D0B0
:105100006FF00600B8E740F6084000EB44100422B8
:105110003146FFF7ADF841F208004FEA182100EBE5
:105120004410FFF792F841F2081008F0FF0100EB7D
:105130004410FFF78AF841F6087000EB4410FFF7BF
:1051400061F84FF6FF7101EA8020854200D90546DB
:10515000DFF8888009FA04F62046FFF7AFFB8146A6
:105160003846FFF74FF838B1B8F80200064206D0CB
:105170004D4504D900207FE76FF003007CE74D45E3
:10518000EAD82A465146204600F0C4FF4FF4847006
:1051900000EB441006462021FFF757F84FF4027049
:1051A00000EB44143046FFF72DF80028FAD12046D2
:1051B000FFF728F800F01F00C10605D52046102192
:1051C000FFF743F8284657E70007F0D520460821A7
:1051D000FFF73BF86FF00C004EE70000980000204E
:1051E00070B5044690F862010025012829D00228F4
:1051F00026D1412906D0422906D0432909D0442985
:105200001CD112E0002100E00121204600F058FCF2
:1052100014E0208FE18E884210D2211D415C20468F
:1052200000F0B2F8208F401C07E0208F30B1082139
:10523000204600F0A9F8208F401E208784F8625194
:1052400070BD5B29FAD1022084F8620170BD70B58F
:105250000446C08E00284BD0228F0023211D82429D
:105260000BD1401E80B2E086521E22874354204656
:10527000BDE87040012100F065B8002A38D0002058
:1052800006E02244051D565DC51C401C565500B263
:10529000E58E228FAD1A8542F3DCE08E401E80B28F
:1052A000E086228F521E228743540821204600F0B8
:1052B0006BF8B4F9385006E060190179204600F027
:1052C00063F86D1C2DB2E08EA842F5DC202120464B
:1052D00000F05AF8E08E218F401A401C05B205E01C
:1052E0000821204600F050F86D1E2DB2002DF7DC8D
:1052F00070BD000010B500F03BFB002804D0BDE8F5
:10530000104002A100F02CB810BD00001B5B324A17
:105310001B5B31480000000070B50546C08E298F28
:10532000401A04B205E02021284600F02DF8641E42
:1053300024B2002CF7DCE98E2846BDE8704000F06E
:1053400001B8000070B50C46054603E003A12846ED
:1053500000F006F8641EA4B2F8D270BD0820080060
:1053600070B50646D0F8680100240D4600280AD022
:1053700005E0D6F868116D1C8847641CA4B2287833
:105380000028F6D1204670BDD0F86821002A01D04F
:10539000084610477047000070B50646D0F85C011B
:1053A00000EB011530462968FFF7DAFFC0F116005F
:1053B0000404240C00D104240AA13046FFF7D0FFD6
:1053C000641E2404240CF7D107A13046FFF7C8FF60
:1053D0003046A968FFF7C4FF3046BDE8704003A11E
:1053E000FFF7BEBF200000002D2D00000D0A0000B9
:1053F0002DE9FE430C4625A2804607CA8DE807002A
:1054000025460A2724A14046FFF7AAFF6E46002C36
:1054100004DA24A14046FFF7A3FF6D420A2055B1EC
:10542000B5FBF0F100FB1151B5FBF0F57F1EFFB2AB
:105430003031F155F3E7F0194CB10021411A4046E3
:10544000FFF78EFF082100208DF808000DE00121F4
:10545000F4E700BF04F00F00092801D9573000E03D
:105460003030491EC9B224097054002CF2D10EA16B
:105470004046FFF775FF69464046FFF771FF0CA1F4
:105480004046FFF76DFFBDE8FE830000303030304E
:10549000303030303030000052657475726E3A2012
:1054A000000000002D0000002C20307800000000DB
:1054B0000D0A00002DE9F84F04460025C08EA846CD
:1054C0004FF001092F4600287ED0221D411C0026E6
:1054D000E1868654B4F9580100EBC00101EB0010DD
:1054E00004EB400011462A30FAF7DFFE20B3B4F98E
:1054F000580100EBC00101EB001104EB4100211D3C
:105500005C3000F077FC20B1B4F85801401CA4F8DE
:105510005801B4F85601401C81B2A4F8561105296F
:1055200002D90521A4F85611B4F95801052801DB68
:10553000A4F85861A4F85A6100202EE0B8F1000FD9
:1055400007D121180979202921D009291FD02C2918
:105550001DD021180A79D2B1222A04D1B8F1000F46
:1055600005D000229046B9F1010F02D009E00122D6
:10557000F8E70A1D04EB85036D1CEDB24FF000093E
:10558000DA6309795C2906D1401C80B203E0211856
:105590004FF001090E71401C80B2E18E8142CDD8DE
:1055A000E686B04626877DB122A12046FFF7D8FEC9
:1055B00021A1D4F85CA1E06BFAF777FE01004FF06F
:1055C000010B04F13C0900E02EE001D0002622E0AE
:1055D00084F863B14946284600F0FEF984F86381F7
:1055E00022E000BF0AEB061000900168E06BFAF7BA
:1055F0005CFE70B984F863B1009801274A464068A0
:10560000294600F005F9014684F863812046FFF73A
:10561000EFFE761CF6B2B4F86001B042E2D81FB9D2
:1056200007A12046FFF79CFE20462168BDE8F84F01
:10563000FFF796BE0D0A000068656C700000000060
:10564000436F6D6D616E64206E6F7420666F756E52
:10565000640D0A00411C00200A785C2A01D0104623
:10566000704749786E290FD004DC3029F8D06229C0
:1056700004D105E0722905D0742907D00846704787
:10568000082070470D2070470A2070470920704796
:10569000F0B50746002539780A26012328462C460E
:1056A0002D2908D00021CA19002192F800C0BCF1B0
:1056B000300F04D01EE04FF0FF330121F3E75178A3
:1056C000782907D0582905D0622905D0422903D06E
:1056D00002210FE003210DE001210BE092F800C050
:1056E000BCF12E0F06D192F801C0BCF1000F01D021
:1056F000042111E012F801CBBCF1000FEED1012919
:1057000008D0022903D0032906D1102603E0082679
:10571000012501E0022602253D445A1C02D0002248
:1057200015441FE00122FBE72E2A05D0A2F1300725
:10573000092F03D8FAB20FE0012412E0A2F16107A9
:10574000052F01D8573A04E0A2F14107052F02D8EE
:10575000373AD2B200E0002200FB062004EB8402BC
:1057600054006D1C2A78002ADED1042913D194B18B
:1057700000EE100AB8EE401A00EE104AB8EE400AE9
:10578000C1EE000A00EE103AB8EEC00A20EE800A20
:1057900010EE100AF0BD5843F0BD00002DE9F041B5
:1057A000017827290AD02D2904D000BFA1F13002A9
:1057B000092A0AD8BDE8F041FFF76ABF4278002AFB
:1057C000F4D0BDE8F041FFF745BFF9B1002605462A
:1057D0000446374622290AD16C1C254607E05C287E
:1057E0000CD0222810D0A855761CB6B2641C2078A4
:1057F0000028F4D1AF552846BDE8F081601EFFF7C0
:1058000029FFA855641CEFE7AF55EDE70020F3E74B
:105810002DE9FE4F1446054609297DD2DFE801F047
:10582000A4050A121F314862820003B0AC46BDE8ED
:10583000F04F60475068FFF7B1FF03B0AC46BDE8DA
:10584000F04F6047A068FFF7A9FF06466068FFF7C2
:10585000A5FF03B03146AC46BDE8F04F6047E068B5
:10586000FFF79CFF0746A068FFF798FF06466068B1
:10587000FFF794FF03B03A463146AC46BDE8F04F1F
:1058800060472069FFF78AFF0746E068FFF786FF59
:105890008046A068FFF782FF06466068FFF77EFF3C
:1058A00003B03B4642463146AC46BDE8F04F604748
:1058B0006069FFF773FF07462069FFF76FFF064631
:1058C000E068FFF76BFF8146A068FFF767FF80463F
:1058D0006068FFF763FF33464A4641460097A84792
:1058E000BDE8FE8FA069FFF759FF82466069FFF7A8
:1058F00055FF81462069FFF751FF0746E068FFF733
:105900004DFF0646A068FFF749FF80466068FFF735
:1059100045FF3B46324600E026E0CDE9009A41468D
:10592000A847DDE7E069FFF739FF8346A069FFF785
:1059300035FF82466069FFF731FF81462069FFF736
:105940002DFF8046E068FFF729FF0746A068FFF7B4
:1059500025FF06466068FFF721FF8DE8000E4346ED
:105960003A463146A847BBE74FF0FF30B8E70000A2
:105970000849002051F820201AB192F86321012A29
:1059800005D0401C00B20528F4DB0020704751F818
:10599000200070470004002090F862210AB1FFF750
:1059A0001FBC0D290DD006DC08290CD009290CD00C
:1059B0000A2904D105E01B2909D07F2903D000F072
:1059C000A1B9FFF777BDFFF742BC00F01FBA012174
:1059D00080F86211704700002DE9F0410F46034640
:1059E000FFF7C6FF050016D0012B05D0022B12D100
:1059F0000024D5F85C611AE021A1FFF7B1FC002476
:105A000005E021462846FFF7C7FC641CA4B2B5F8A0
:105A10006001A042F5D8BDE8F08100BF06EB04109C
:105A200001687868FAF741FC38B1641CE4B2B5F853
:105A30006001A042F2D817A11CE01BA12846FFF785
:105A40008FFC06EB041428462168FFF789FC1AA195
:105A50002846FFF785FC2846A168FFF781FC17A1BF
:105A60002846FFF77DFCE1680029D4D02846FFF7DF
:105A700077FC12A12846BDE8F041FFF771BC000099
:105A80000D0A434F4D4D414E44204C4953543A0D5D
:105A90000A0D0A00636F6D6D616E64206E6F742075
:105AA000666F756E640D0A00636F6D6D616E6420C4
:105AB00068656C70202D2D003A0D0A000D0A00005B
:105AC00070B50446002561B1012909D1B4F85A0125
:105AD000401C00B2A4F85A01002819DDA4F85A515C
