:020000040800F2
:1000000088060020D9010008DB220008F50D000851
:10001000D92200081D060008AD25000800000000D8
:1000200000000000000000000000000001240008A3
:100030009D06000800000000DD22000835240008AD
:10004000F3010008F3010008F3010008F3010008C0
:10005000F3010008F3010008F3010008F3010008B0
:10006000F3010008F3010008F3010008F3010008A0
:10007000F3010008F3010008F3010008F301000890
:10008000F3010008F3010008F3010008F301000880
:10009000F3010008F3010008F3010008A1060008BD
:1000A000F3010008F3010008F3010008F301000860
:1000B000F3010008F3010008F3010008F301000850
:1000C000F3010008F3010008F3010008F301000840
:1000D000F3010008F3010008F3010008F301000830
:1000E000F3010008F3010008F3010008F301000820
:1000F000F3010008F3010008F3010008F301000810
:10010000F3010008F3010008F3010008F3010008FF
:10011000F3010008F3010008F3010008F3010008EF
:10012000F3010008F3010008F3010008F3010008DF
:10013000F30100080000000000000000F3010008C7
:10014000F3010008F3010008F3010008F3010008BF
:10015000F3010008F3010008F3010008F3010008AF
:10016000F3010008F3010008F3010008F30100089F
:10017000F3010008F3010008F3010008000000008B
:1001800000000000F3010008000000000000000073
:10019000F30100080000000000000000F301000867
:1001A000000000000000000000000000F301000853
:1001B000F3010008F3010008F3010008F30100084F
:1001C000F3010008DFF80CD000F088F80048004781
:1001D000F52A0008880600200648804706480047A0
:1001E000FEE7FEE7FEE7FEE7FEE7FEE7FEE7FEE7E7
:1001F000FEE7FEE759250008C50100082DE9F05F7C
:100200000546002092469B46884606468146402485
:100210001BE0284641464746224600F04FF8534629
:100220005A46C01A914110D311461846224600F092
:1002300036F82D1A67EB01084F46224601200021AF
:1002400000F02DF817EB00094E41201EA4F1010427
:10025000DFDC484631462A464346BDE8F09FD2B22D
:1002600001E000F8012B491EFBD270470022F6E79F
:1002700010B513460A4604461946FFF7F0FF20461C
:1002800010BD10B5002200E0521C835C8C5CA342C0
:1002900001D1002BF8D1D8B2E1B2401A10BD202A0A
:1002A00004DB203A00FA02F1002070479140C2F1CD
:1002B000200320FA03F3194390407047202A04DBFF
:1002C000203A21FA02F00021704721FA02F3D040CF
:1002D000C2F120029140084319467047064C074D71
:1002E00006E0E06840F0010394E807009847103406
:1002F000AC42F6D3FFF76AFFDC3A0008FC3A00088C
:1003000010B5044600F022F92146BDE8104001A0D6
:1003100002F068B9436F6D6D616E642025782053DB
:10032000454E44210D0A0000064810B5016841F011
:1003300080010160102000F009F9BDE8104002A022
:1003400002F050B9003C0140537461727420416363
:1003500071756973696F6E210D0A000003480168A9
:1003600021F08001016002A002F03CB9003C014094
:1003700053746F7020416371756973696F6E210DDD
:100380000A0000000A4610B50146002000F004F9FA
:10039000BDE8104001A002F025B900003132393922
:1003A00027732052656720686173206265656E203F
:1003B0007772697474656E210D0A0000044901208A
:1003C00088610449400288614FF47A6002F0F0B815
:1003D000001002400004024070B52031C8B272B66D
:1003E0001D4D4FF40001A9611C4CE168A168C1F3E7
:1003F00040010029FAD0E060A06810F0010FFBD0A6
:10040000E068042002F0D4F8A068C0F3400000289F
:10041000FAD00026E660A06810F0010FFBD0E0687B
:10042000042002F0C5F8A068C0F340000028FAD00C
:10043000E660A06810F0010FFBD0A068C0F3C01008
:100440000028FAD1E068C4B2022002F0B1F880209E
:10045000A86162B6204670BD000402400030014031
:1004600010B5104904464FF400008861022002F0E4
:100470009FF81B21204600F01BF80B490868C0F3C9
:1004800040100028FAD00948426822F00202426077
:10049000426822F0010242604FF000608860202034
:1004A000886010BD0004024000640240003001403A
:1004B0002DE9F041174F044688460A460021384688
:1004C00000F05CFD144E134D30780C354451002182
:1004D000384600F03FFD0021384600F031FD0F4C5A
:1004E000606840F00100606042460321384600F039
:1004F00045FDF1780A4848510321384600F02AFDAD
:100500000321384600F01CFD606840F00200606086
:10051000BDE8F081006402404C3900080030014021
:100520000100002070B5084C4FF400752804A0614C
:10053000282002F03DF8A5618020A061BDE8704050
:10054000282002F035B800000004024070B50546CE
:1005500072B60F4C4FF40000A061022002F028F8A0
:100560000C498868C0F340000028FAD0CD60886844
:1005700010F0010FFBD0C868022002F019F88020AB
:10058000A06162B60220BDE8704002F011B8000020
:10059000000402400030014070B540311646C8B238
:1005A00072B61C4D4FF40001A9611B4CA168C1F348
:1005B00040010029FAD0E060A06810F0010FFBD0E4
:1005C000E068042001F0F4FFA068C0F340000028B8
:1005D000FAD00020E060A06810F0010FFBD0E068C6
:1005E000042001F0E5FFA068C0F340000028FAD025
:1005F000E660A06810F0010FFBD0A068C0F3C01047
:100600000028FAD1022001F0D3FF8020A86162B651
:1006100070BD00000004024000300140FEE7000011
:1006200001681823CAB2103AB2FBF3F2054B6FF31C
:100630000901032A9B5CC36500D9091D8165084631
:1006400070470000663A000810B5014600208B692B
:100650008A6A4FF0C07453B1B3F5005F15D072B120
:10066000012A0CD0022A0AD0032A09D104E01AB1C7
:10067000012A06D0022A03D1C96AC90100D5012086
:1006800010BDC96AA142FAD010BD002AF7D0012AD4
:10069000F2D0022AF3D0032AF3D010BD7047000035
:1006A00010B5402000F00CFD084C08B1402020603F
:1006B000802000F005FD002806D080202060BDE8E5
:1006C00010400348FFF7CCBE10BD0000143C0140B1
:1006D000F8010020704700000248016802A001F004
:1006E00081BF0000240C0040434E543D25640D0A98
:1006F0000000000070B5040003D094F8200010B191
:1007000004E0012070BD204600F082F820680168F6
:1007100021F00201016000F0EDF90546052604E034
:1007200000F0E8F9401B0A2811D8206840688007CB
:10073000F6D42068016841F00101016000F0DAF9A7
:1007400005460BE000F0D6F9401B0A2806D9606A7E
:1007500040F40030606284F82060D2E7206840688E
:10076000C007EFD0207E0128206801683DD021F02D
:1007700080010160607E01282068016838D021F086
:1007800040010160A07E01282068016833D021F07B
:1007900020010160E07E0128206801682ED041F030
:1007A00010010160207F01282068016829D021F014
:1007B00008010160607F01282068016824D021F0D1
:1007C00004010160D4E902010843D4E90412114391
:1007D00008436168491E08432168C86100206062BF
:1007E000012084F82000002070BD41F08001C0E7A6
:1007F00041F04001C5E741F02001CAE721F01001B6
:10080000CFE741F00801D4E741F00401D9E7000047
:1008100010B586B0044614216846FFF727FD144939
:100820002068884221D113480021026842F00072FA
:100830000260006800F0007005900E4810380268F1
:1008400042F001020260006800F0010005904FF4E0
:10085000C05000900220CDE901010320039009203F
:1008600004906946044800F073F806B010BD00001B
:100870000064004040380240000002402DE9F04191
:10088000044600F037F906465CB1002584F8345080
:10089000022084F835002068016821F00101016020
:1008A0000DE00120BDE8F08100F024F9801B05284F
:1008B00005D920206065032084F83500F2E7206820
:1008C0000068C007F0D12268116820480140D4E9CF
:1008D00001031843D4E903363343184363691843CB
:1008E000A3691843E3691843236A18430843616AFC
:1008F000042903D1D4E90B1319430843106020687D
:100900004069666A20F0070130460E43012704283B
:100910000CD1A06A0643E06A40B12046FFF794FE7E
:1009200020B14020606584F83570BAE720684661E0
:100930002046FFF775FE94F85C203F2191408160CE
:10094000656584F835700020ACE700003F8010F04A
:100950002DE9F84FDFF874B100224FF001084FF095
:10096000030A4FF00F090BF1040E00BF0B6808FAE1
:1009700002F42340A3426ED14D68022D01D0122D06
:100980000ED1D50800EB850CDCF820505607F70E89
:1009900009FA07F6B5430E69BE402E43CCF8206035
:1009A000066855000F790AFA05FC07F0030726EAE6
:1009B0000C06AF40374307604E68012E05D0022E6B
:1009C00003D0112E01D0122E0ED18668CF6826EAF0
:1009D0000C06AF40374387604668A6430C79C4F3E2
:1009E0000014944034434460C4688E6824EA0C04C4
:1009F000AE402643C6604C68E40060D5344C2568A0
:100A000045F480452560246822F0030504F4804401
:100A10000094304C2E19D6F8084895072F0F09FA84
:100A200007F5AC432C4DA84201D100251FE02B4D0A
:100A3000A84201D101251AE0294DA84201D1022581
:100A400015E0284DA84201D1032510E0264DA8420B
:100A500002D104250BE032E0244DA84201D1052546
:100A600005E0234DA84201D1062500E00725BD4041
:100A70002543C6F80858DBF800405D464E689C43A5
:100A8000F60300D51C432C60DEF8004075464E6826
:100A90009C43B60300D51C432C600C4D08352C68D4
:100AA0004E689C43F60200D51C432C60074D0C3564
:100AB0002C684E689C43B60200D51C432C60521C27
:100AC000102AFFF453AFBDE8F88F0000003C01404E
:100AD000443802400030014000000240000402405F
:100AE00000080240000C02400010024000140240C6
:100AF0000018024001488068704700000400002090
:100B00000248816802781144816070470400002027
:100B10000B4810B5016841F400710160016841F4AF
:100B200080610160016841F480710160032000F080
:100B300061F8002000F006F800F024F8002010BD55
:100B4000003C024070B50D4D04464FF47A71287890
:100B5000B1FBF0F00A490968B1FBF0F000F036F99A
:100B600048B9102C07D200222146501E00F022F86E
:100B700000206C6070BD012070BD000004000020EA
:100B8000100000200A4808B5016841F48041016066
:100B9000006800F4804000900548001F016841F0A3
:100BA00080510160006800F08050009008BD000096
:100BB00044380240F0B40E4B1B680C46C3F30223CA
:100BC000C3F10705042D00D90425191D072901D2F9
:100BD000002300E0DB1E012606FA05F1491E214034
:100BE00099409E40761E16403143F0BC01F00ABD8C
:100BF0000CED00E0064900F0070208684FF6FF031D
:100C0000184040EA0220034A104308607047000081
:100C10000CED00E00000FA05F8B50446FFF76AFFA6
:100C200006465CB194F84000012809D0012784F8F9
:100C3000407094F84100002520B10BE00120F8BD80
:100C40000220F8BD84F84050204600F041F841F2FF
:100C50008830A06420680168A2686FF0FF0321F467
:100C6000F85103EB022211430160A06C009033465F
:100C700000222021204601F032FB08BBE269E16836
:100C800023791143226A42EA0362114322681368FE
:100C90000D4E334019431160D4E905121143226807
:100CA00053680A4E3340268A43EA0643194351608B
:100CB00021680A6842F001020A60656484F84170A4
:100CC00084F84050F8BD00002FFFFF00FEF8E0FF61
:100CD0002DE9F04186B0064614216846FFF7C6FAB2
:100CE0003049306888425AD12F480025016841F0C8
:100CF0000201016000682C4900F0020008390590EB
:100D0000086840F004000860086800F004000590DE
:100D1000086840F008000860086800F008000590C6
:100D2000086840F0020008600868022400F0020031
:100D300005904FF4C06003274FF009088DE8B1011A
:100D400069461A48FFF704FE08208DE8B10169469C
:100D50001748FFF7FDFD4FF040080A20CDF800804E
:100D6000CDE9037069461348CDE90145FFF7F0FD71
:100D7000124C114820607806C4E901084FF48060E5
:100D8000C4E903506561A561E5612562204665629D
:100D9000FFF774FD08B1FFF79DFCF463A66306B08E
:100DA000BDE8F081001000A0383802400008024081
:100DB000000C024000040240B8640240140200200B
:100DC00001480068704700001000002010B5401E68
:100DD000B0F1807F01D3012010BD4FF0E0246061AD
:100DE0000F21601701F00EFC0020A0610720206198
:100DF000002010BDFEE7000030B5134C4B68002208
:100E0000A468124D04F00104AD6805F001052C43FF
:100E10000F4DAD6805F001052C4302D001221046AC
:100E200030BD0C4D53B10C681C43D1E902310B436A
:100E300041681C4329400C434460F0E7436809685B
:100E40002B400B434360EAE70020014000210140B2
:100E500000220140E010FCFF30B58368002213F04F
:100E6000010F02D00122104630BD8C680B6823436D
:100E70004468054D2C40234343608368496823F44C
:100E800000630B438360EEE7FFFEFFFC30B54A686A
:100E90008468002314F0010F02D00123184630BDEE
:100EA00032B18C682243446824F46844224302E04F
:100EB000426822F468424260D1E9032422438468F4
:100EC000074D2C400D6805F070652C43224382606D
:100ED0004968C26A22F470020A43C262DEE7000077
:100EE000FDFCFFC0044908B50A6802430A600968AE
:100EF0000140009108BD000030380240044908B5A7
:100F00000A6802430A6009680140009108BD0000B8
:100F100040380240044908B50A6802430A6009687B
:100F20000140009108BD000044380240034A1430DB
:100F3000515C0A5822F004020A50704762390008D6
:100F4000034A515C425822F01002425070470000A0
:100F50004C390008034A515C425842F001024250A9
:100F6000704700004C390008034B595C435823F08C
:100F7000606313434350704762390008044B001DFF
:100F8000595C0B586FF30F0313430B50704700006D
:100F90004C390008034B595C435823F0C0031343FA
:100FA0004350704762390008034B595C435823F49F
:100FB000806313434350704762390008034B595C08
:100FC000435823F4C0431343435070476239000829
:100FD000034B595C435823F49073134343507047B9
:100FE00062390008034B595C435823F400731343E0
:100FF0004350704762390008034B595C435823F44F
:10100000C05313434350704762390008034B595C87
:10101000435823F440331343435070476239000868
:1010200030B5264A002405790168131F85B371B3D2
:1010300045798DB1012D17D0022D18D00124837967
:101040002BB31E4908310A1F012B18D0022B20D0C8
:10105000032B22D0012428E015688D431560016818
:101060001A680A431A60EAE71D688D4301E01D68AB
:101070000D431D60016813680B431360DFE70368CD
:101080000D689D430D6000681168014311600CE01C
:101090000DE0036815689D4302E0036815681D4371
:1010A000156000680A6802430A60204630BD1D686A
:1010B0008D431D60006811688143E7E7043C0140EF
:1010C00003490968884301D0002070470120704718
:1010D000143C0140F0B50A68032492FAA2F2B2FA75
:1010E00082F30F257EE0324601269E40324078D0C2
:1010F000D1F804E0066892FAA2F7B7FA87F74FEA48
:10110000470C04FA0CF7BE4392FAA2F7B7FA87F736
:101110007F000EFA07FE46EA0E0606604E68012EB4
:1011200001D0022E15D1D1F808E0866892FAA2F714
:10113000B7FA87F74FEA470C04FA0CF7BE4392FA66
:10114000A2F7B7FA87F77F000EFA07FE46EA0E0607
:101150008660D1F810C0C66892FAA2F7B7FA87F78E
:101160007F0004FA07FE92FAA2F7B7FA87F77F002A
:1011700026EA0E060CFA07FC46EA0C06C6604E6824
:10118000022E2ED192FAA2F6B6FA86F6082E4E69F3
:1011900013D2076A92FAA2FCBCFA8CFC4FEA8C0CC0
:1011A00005FA0CFC92FAA2F2B2FA82F2920027EA55
:1011B0000C0796403743076213E0476A120A92FA17
:1011C000A2FCBCFA8CFC4FEA8C0C05FA0CFC92FADF
:1011D000A2F2B2FA82F2920027EA0C079640374355
:1011E00047625B1C0A681646DA407FF47CAF4A68A7
:1011F000012A01D0022A07D1CB68416832469143C7
:1012000006FB03F2114341600020F0BD30B50368D6
:1012100091FAA1F4B4FA84F465000324AC4091FA85
:10122000A1F1B1FA81F14900A3438A40134303605D
:1012300030BD30B5C36891FAA1F4B4FA84F4650006
:101240000324AC4091FAA1F1B1FA81F14900A34322
:101250008A401343C36030BD30B5214C4568B1FBB3
:10126000F4F425F03F05254345601E4DAA4207D9F9
:101270004FF4967504FB05F44FF47A75B4FBF5F45E
:10128000056A04F1010425F03F0544EA05040462FF
:1012900013D96BB102EBC20404EB0212B1FBF2F4FE
:1012A000240508D0B1FBF2F1194341F400410FE0ED
:1012B00002EB4202F2E70121F6E75200B1FBF2F342
:1012C000C3F30B03042B01D2042101E0B1FBF2F1C3
:1012D000C2694CF6FF739A430A43C26130BD0000F5
:1012E00040420F00A08601007FB5044600680D460D
:1012F00020F001002060684600F02AF8D5E90301DB
:10130000626A084322F01F0202436262D5E90123A8
:1013100020460299FFF7A0FFE9696869A26848F2D0
:10132000FF339A4308430243A2602868216821F0F2
:101330001A0101432160206840F001002060A86983
:10134000216821F480610143216004B0002070BD58
:1013500010B5044601F012F8206000F0E5FF60606F
:1013600000F0F0FFA060606800F0FAFFE06010BDE0
:101370000248006800F03F00704700000438024057
:101380000248006800F48000704700000438024002
:1013900002480068C0F3881070470000043802401B
:1013A0000248006800F0E040704700000438024046
:1013B00010B54903029CDBB2E4B241EA044141EAC0
:1013C0000321D2B211434268024B1A400A434260E1
:1013D00010BD0000C00000FFF8B514460F00054620
:1013E0004FF0010606D16078C10603D520F0100049
:1013F0000A306070CA20686253206862284600F094
:101400003FF8012831D0E0781FB100906378A278CE
:101410001EE00A21B0FBF1F201FB1202B0FBF1F079
:1014200042EA00106278C0B2B2FBF1F301FB132371
:10143000B2FBF1F243EA0212D3B2A2780090B2FBFF
:10144000F1F601FB1626B2FBF1F146EA0111CAB230
:1014500021782846FFF7ACFF08496FF08000C8608C
:10146000A868C0F3401020B10026FF206862304613
:10147000F8BD284600F0B4F80646F6E7002800401C
:1014800018B54FF47A710091C1680022C1F3801140
:10149000A9B9511EC160C1684FF0E023C1F38011AA
:1014A0000BE01969C1F3004111B10099491E009187
:1014B000C168009CC1F380111CB10029F1D0104615
:1014C00018BD0122FBE770B504460126CA200D466F
:1014D0006062532060622046FFF7D2FF012816D0D9
:1014E0002868A16821F040010143A160A868216932
:1014F0006FF30E0101432161A888216921F4FE01E7
:1015000041EA004020616FF08000E0600026FF208B
:101510006062304670BD000010B5D2B241EA0241AF
:10152000DAB2029C41EA0221E2B211430268024BA4
:101530001A400A43026010BD808080FFF8B505465E
:101540000F460126A9681446002011F0400F00D173
:101550002060CA206862532068622846FFF790FF27
:10156000012832D027B1A0790090637922791FE059
:10157000A1790A20B1FBF0F200FB1212B1FBF0F1ED
:1015800042EA01116279C9B2B2FBF0F300FB132306
:10159000B2FBF0F243EA0212D3B222790091B2FB1D
:1015A000F0F600FB1626B2FBF0F046EA0010C2B2DD
:1015B00028462168FFF7B0FF08496FF08000C86037
:1015C000A868C0F3401020B10026FF2068623046B2
:1015D000F8BD284600F004F80646F6E7002800406B
:1015E00038B54FF47A740094C268002102F080028A
:1015F00062F0A002C260C2684FF0E023C2F3401262
:101600000BE01A69C2F3004212B1009A521E009216
:10161000C268009DC2F34012B5B1002AF1D189B968
:101620000094C268C2F340120AE01A69C2F3004291
:101630000AB1621E0092C268009CC2F340121CB143
:10164000002AF2D0084638BD0121FBE710B5036837
:101650000122C3F380132BBBD1E900231A43D1E944
:10166000023423431A430B691A434B691A438B69AB
:101670001A43CB691A430B6A1A4303684FF6BF74C7
:10168000A3431A43026042684B6922F0040242EA13
:10169000134242600A6AB2F5005F02D1898C89B2B6
:1016A00001610022C16921F40061C161104610BDD1
:1016B0000A06930D074A1A44D2F8083823EA114360
:1016C000090C91FAA1F1B1FA81F188400343C2F803
:1016D0000838704700300140014908607047000039
:1016E00010000020F0B50268254B264D264E274FEE
:1016F000274C4FF0804C984209D0604507D0A84253
:1017000005D0B04203D0B84201D0A04205D1D1F8F3
:1017100004E022F0700242EA0E0298421BD06045BB
:1017200019D0A84217D0B04215D0B84213D0A04269
:1017300011D0184DA8420ED0174DA8420BD0174D0E
:10174000A84208D0164DA84205D0164DA84202D096
:10175000154DA84203D1CD6822F440722A4302609D
:101760008A68C2620A888262984201D0A04201D18E
:10177000097C0163416941F0010141610020F0BD34
:10178000000001400004004000080040000C004040
:101790000004014000400140004401400048014075
:1017A00000180040001C004000200040012919D012
:1017B000042919D0102919D0402919D0B1F5807FFA
:1017C00018D0B1F5806F17D006210C4A1830525C42
:1017D00010440268094BDB1D5B5C042199408A437D
:1017E000026070470021F0E70121EEE70221ECE7FB
:1017F0000321EAE70421E8E70521E6E75439000878
:10180000F0B5012600236E4C6E4D012908D0102939
:101810003BD0B1F5807F73D0B1F5805F6ED1A6E08B
:10182000016A21F001010162016A46688769D2F804
:1018300000C027F0730747EA0C07D2F810C021F068
:10184000020141EA0C01D2F804C021F0010141EA91
:101850000C01A04201D0A84212D1546921F0080124
:1018600041EA8401946821F0040141EA8401956908
:1018700026F480742C43D56924F4007444EA4506A8
:1018800046608761D26842636FE0016A21F010010F
:101890000162066A41688769D2F800C027F4E6470A
:1018A00047EA0C27D2F810C026F0200646EA0C16AC
:1018B000D2F804C026F0100646EA0C16A04201D069
:1018C000A84213D1556926F0800444EA851495682E
:1018D00024F0400444EA8516946921F4806141EAC9
:1018E0008401D46921F4006141EAC4014160876147
:1018F000D168816361E003E000E01E463046F0BD40
:10190000016A21F480710162016A4668C769D2F8F0
:1019100000C027F0730747EA0C07D2F810C021F483
:10192000007141EA0C21D2F804C021F4807141EA2F
:101930000C21A04201D0A84213D1546921F40061C6
:1019400041EA8421946821F4806141EA8421956907
:1019500026F4805444EA0514D56924F4005444EA7A
:1019600045164660C761D268C2630162C5E7016A75
:1019700021F480510162066A4168C769D2F800C04B
:1019800027F4E64747EA0C27D2F810C026F40056A1
:1019900046EA0C36D2F804C026F4805646EA0C36E5
:1019A000A04201D0A84204D1946921F4804141EAC7
:1019B00084114160C761D168016406629DE700003F
:1019C00000000140000401407FB50446C0680D4698
:1019D0000126C0F34030C0BBE9686868AA690843C3
:1019E000296911430843E16849F20C6291430843B5
:1019F000E060A868216921F44051014321616869D0
:101A0000616921F44071014361616846FFF7A0FC00
:101A10000F48844208D00F4884420DD00E488442BB
:101A20000AD00E48844201D1039906E00C48844252
:101A300002D00C48844208D1029931B12B6823B1FD
:101A400000262046AA6900F00FF804B0304670BDA9
:101A500000100140004400400048004000140140D4
:101A6000004C004000500040F0B56424322501EBEA
:101A7000C10606EB0111B2F5004F2AD09A00B1FB66
:101A8000F2F3B3FBF4F3B1FBF2F66FF018077B430C
:101A900006EB8303B1FBF2F605EB0313B3FBF4F3A0
:101AA000B6FBF4F603F0F00303EB0613B1FBF2F61A
:101AB000B1FBF2F1B1FBF4F1794306EB810105EBE7
:101AC0000111B1FBF4F101F00F01194489B28160F9
:101AD000F0BD5A00B1FBF2F6B6FBF4F6B1FBF2F73B
:101AE000B1FBF2F36FF0180C06FB0CF607EB860661
:101AF00005EBC606B3FBF4F3B6FBF4F61B0106F0E8
:101B0000F80603EB4603B1FBF2F6B1FBF2F1B1FBD1
:101B1000F4F101FB0CF106EB810105EBC101B1FB16
:101B2000F4F101F00701D0E730B593B000240F9431
:101B30001094142168461194FEF798FB0B940C94B2
:101B40000D94182105A80E94FEF790FB4FF48070B9
:101B5000FFF7E0F90120FFF7C5F901200590032008
:101B6000069005A909942648FFF7B4FA254D0F946D
:101B700010940FA928461194FFF76EF90094019470
:101B800002940394694628460494FFF77FF9A868F5
:101B900040F48060A8604FF48030CDE90B040BA9BD
:101BA0001948FFF729F94FF44072681592FAA2F22A
:101BB0000104B2FA82F2D04005EB8000C26A22F042
:101BC0001F02C26291FAA1F0B0FA80F0C14005EBA9
:101BD0008100C1684FF0F87292FAA2F3B3FA83F36E
:101BE00024FA03F307259D4092FAA2F2B2FA82F298
:101BF00024FA02F2A94394402143C16013B030BDDE
:101C0000000002400020014000230140094808492B
:101C100001601021416000218160C160016141616A
:101C2000017641768176C17601774177FEF762BD14
:101C300000640040180000202DE9F04F89B0002416
:101C40000694182168460794FEF710FB1020FFF752
:101C500049F90420FFF746F98020FFF743F90120F6
:101C6000FFF740F90220FFF73DF90820FFF73AF9A6
:101C7000DFF8109248F27D000204C9F81820DFF85E
:101C800008A24FF006524FF40658CAF81820DFF8A1
:101C9000FCB14FF07062CBF818207D4E4FF001413F
:101CA000B1617C4F4FF06071B96100900125CDE9C1
:101CB00001540394694648460494FFF70BFACDF8A3
:101CC0000080CDE901540394694650460494FFF71F
:101CD00001FA4FF08008CDE900846946304604944B
:101CE000FFF7F8F93020CDE9000469465046049426
:101CF000FFF7F0F90720CDE900046946384604945F
:101D0000FFF7E8F94FF4E340CDE90004694648469F
:101D10000494FFF7DFF94FF470600090CDE90154AF
:101D20000394694658460494FFF7D4F94FF40140F0
:101D30000090CDE901540394694630460494FFF7BE
:101D4000C9F94FF460700090CDE9015403946946DD
:101D500038460494FFF7BEF94F490220FFF7A8FC6C
:101D60004FF470210320FFF7A3FC4C490320FFF739
:101D70009FFC4B490320FFF79BFC4FF470010420AC
:101D8000FFF796FC40208DF81C5006908DF81D4002
:101D90008DF81E5006A8FFF743F98DF81C508DF8FA
:101DA0001D4006958DF81E5006A8FFF739F9102042
:101DB0008DF81C5006908DF81D408DF81E5006A819
:101DC000FFF72EF98DF81C508DF81D400226CDF836
:101DD00018808DF81E6006A8FFF722F98DF81C50B8
:101DE0008DF81D4006968DF81E5006A8FFF718F9CD
:101DF000002240215046FFF71CFA002201215846DC
:101E0000FFF717FA002210215846FFF712FA0022B6
:101E100080215846FFF70DFA002202214846FFF7BD
:101E200008FA002240215046FFF7F0F90022012174
:101E30005846FFF7EBF9002210215846FFF7E6F964
:101E4000002280215846FFF7E1F90022022148468E
:101E5000FFF7DCF913480068C0F30220011D0729D1
:101E600001D2002000E0C01E0F498440200181F80B
:101E700000044FF0E0214FF40000C1F8000109B068
:101E8000BDE8F08F0010024000080240000C024044
:101E900000000240000402400100000F01000F009A
:101EA000010000F00CED00E017E000E02DE9F0414A
:101EB0008EB0202106A8FEF7D9F918216846FEF752
:101EC000D5F90220FFF70EF80420FFF70BF80124E4
:101ED0000427CDE904474FF4806802250326CDE9A5
:101EE0000264CDE9008569461848FFF7F3F820033E
:101EF000CDE90005CDE90264CDE9044769461448FF
:101F0000FFF7E8F8A005FEF7F9FF124CE06820F0B3
:101F10000100E060206820F040002060206820F090
:101F20008000206000200C490890CDE90601CDE931
:101F30000B0820140D9006A92046FFF7D5F9E0689C
:101F400020F0FE00E0600EB0BDE8F0810004024029
:101F50000008024000580040A0860100F0B587B09C
:101F600000241F480094029401940594016841F4F0
:101F7000004101607F2003901A4EFF20049002A9C7
:101F800035463046FFF79FFA286940F4FE00286185
:101F900028696FF30E0040F0FF002861114D5035A5
:101FA000286843F2F227B84217D08DF804408DF824
:101FB00005408DF806406A4601213046FFF7BEFA1B
:101FC00001208DF814008DF8150001468DF817409A
:101FD00005AA3046FFF700FA2F6007B0F0BD0000F9
:101FE0007038024000280040F0B591B028216846C2
:101FF000FEF73CF918210AA8FEF738F94FF4805093
:10200000FEF788FF0220FEF76DFF38200A900220BD
:102010000B9003200024CDE90C040520CDE90E40EF
:102020000AA93D48FFF756F83C4E4FF0C0652A46D6
:1020300003213046FEF798FF402203213046FEF789
:10204000A9FF4FF400373A4603213046FEF7DEFF82
:10205000002203213046FEF7BBFF00220321304659
:10206000FEF7C0FF002203213046FEF79DFF00224D
:1020700003213046FEF7C0FF002203213046FEF761
:102080009DFF03213046FEF751FF2A4600213046CE
:10209000FEF76AFF002211463046FEF77BFF3A4604
:1020A00000213046FEF7B2FF002211463046FEF70F
:1020B0008FFF002211463046FEF794FF32150021B3
:1020C0003046FEF771FF002211463046FEF794FFBE
:1020D000002211463046FEF771FF00213046FEF720
:1020E00025FF4FF48270CDE9004001200294CDE934
:1020F0000340400205900820CDE906040A20CDE9FE
:102100000840074C69462046FFF7A0FA606820F0B7
:102110001000606011B0F0BD000402400064024095
:102120000030014010B590B028216846FEF79EF8B7
:1021300018210AA8FEF79AF84FF48040FEF7DEFE59
:102140000220FEF7CFFE4FF460400A9002200B9071
:1021500003200024CDE90C040520CDE90E400AA996
:102160000E48FEF7B7FF4FF48270CDE90040012022
:102170000294CDE903404002CDE905040A20CDE9EF
:1021800008400794064C69462046FFF75FFA6068EE
:1021900020F01000606010B010BD0000000402408C
:1021A0000038004070B594B014210EA8FEF75EF818
:1021B00020216846FEF75AF8182108A8FEF756F8BD
:1021C0000120FEF79BFE0024ADF83840601ECDE9EB
:1021D0000F404FF080450EA928461194FFF782FA70
:1021E000286820F0800028600094019402940394F1
:1021F0006A46012128460494FFF702FB0121284684
:10220000FFF7D4FAAE1401946A4631462846029488
:10221000FFF7F6FA31462846FFF7C8FA686820F05B
:1022200070006860A86820F08000A8600120FEF7B8
:1022300059FE282008900220CDE909040120CDE9AB
:102240000C4008A90B940248FEF744FF14B070BD7F
:102250000000024010B58EB01C216846FEF706F85B
:10226000182107A8FEF702F81020FEF753FE012000
:10227000FEF738FE4FF4C06007900220089003205C
:102280000024CDE909040720CDE90B4007A9104837
:10229000FEF720FF4FF4E130CDE900040C2002945A
:1022A000CDE90340059406940A4C69462046FFF7A1
:1022B0008BFB206920F490402061606920F02A00A7
:1022C0006061E06840F40050E0600EB010BD0000B6
:1022D0000000024000100140FEE7704770472DE902
:1022E000F041984616460F460446069D12E0681CCB
:1022F00010D02DB1FEF7FEFBA0EB0800A84209D9D3
:10230000042084F84100606C40F00100606401200A
:10231000BDE8F08120688068384000D00120B042DC
:10232000E5D10020F4E7000004490968044A01F0FF
:10233000F0010909515CC8407047000008380240AC
:102340006E3A000804490968044A01F4E05102EBBE
:1023500091210978C8407047083802407E3A000849
:1023600004490968044A01F4604102EB51310978DB
:10237000C8407047083802407E3A000809480068A3
:1023800010F00C0108480BD0042909D0082905D009
:102390000C2905D15FF00C0000F008B80820FBE71D
:1023A00070470000083802400024F40070B505466C
:1023B000FEF7E6FF104C082D0DD0FEF7D9FFB4FB59
:1023C000F0F4FEF7E5FF4443FEF7EAFF5FEA107022
:1023D000B4FBF0F070BDFEF7CBFFB4FBF0F4FEF7FA
:1023E000D7FF444305480068012100F4403001EB69
:1023F00010404000ECE700000024F40004380240E4
:102400007047000005490A68C2F340121AB14968D2
:102410000170002070474FF0FF30704700100140FE
:1024200003490A68C2F3C012002AFAD04860704714
:1024300000100140FEF764BB414810B5016821F06F
:102440000F0141F005010160016801F00F0105294C
:10245000FAD13C48016841F440410160016821F42F
:102460008031016038490A6842F480320A600A68A3
:10247000C2F34042002AFAD0026842F4807202603D
:1024800031487030026842F480320260026822F4FF
:1024900080320260026842F0010202600268C2F308
:1024A0004002002AFAD0026822F4407242F480729C
:1024B0000260026842F4004202602348234A001D81
:1024C0000368234C23401A430260026822F440321E
:1024D0000260026822F0E0420260086840F080700A
:1024E00008600868C0F340600028FAD01648083039
:1024F000016821F0F0010160016821F4E05141F42C
:10250000A0510160016821F4604141F40041016083
:10251000016821F0030141F002010160016801F04E
:102520000C010829FAD10B48FFF7D6F80020FEF776
:1025300009FB05488C30016821F08071016010BDF5
:10254000003C024000700040003802401050400043
:102550000080BFFF006889091048016841F47001DC
:1025600001600F48016841F0010101600C4A00213F
:102570000832116002680B4B1A400260031D0A4AC0
:102580001A60026822F48022026005480C30016063
:1025900002495806803908607047000088ED00E065
:1025A00000380240FFFFF6FE10300024FEE7000076
:1025B00070B54FF0E0250646AC69FEF701FC08490E
:1025C000B0FBF1F1714320398C4203DA6869204491
:1025D000401A00E0601AA9698142FCD870BD000071
:1025E00040420F000FB4054B10B503A9044A0298EE
:1025F00000F028F810BC5DF814FB00003D2900082D
:10260000140000200907090E002804DB00F1E02077
:1026100080F80014704700F00F0000F1E02080F80F
:10262000141D704702E008C8121F08C1002AFAD121
:1026300070477047002001E001C1121F002AFBD142
:10264000704700002DE9FF4F8DB09B460F460446B2
:10265000002606E025280BD05A460F999047641CA7
:10266000761C20780028F5D111B03046BDE8F08FF7
:102670000025A8460122984900E0054314F8013FCF
:10268000203B02FA03F00842F7D120782E2817D118
:1026900014F8010F45F004052A280ED06FF02F0220
:1026A0002078A0F1300109290AD808EB880102EB53
:1026B000410100EB0108641CF2E757F8048B641C2D
:1026C00020786C280DD004DC4C2812D06A2811D157
:1026D00004E074280DD07A280CD10AE045F40015E6
:1026E00007E0617845F48015814202D1641C05F54C
:1026F0008015641C2278692A45D008DC002AB3D0F2
:10270000582A69D0632A10D0642A08D13BE0702A85
:1027100067D0732A13D0752A5CD0782A5CD0104613
:102720005A460F999047761CD3E017F8040B8DF8A2
:10273000000000208DF80100E946012003E057F871
:10274000049B4FF0FF3069074FF0000501D40AE009
:102750006D1C45450DDA8542FADB19F80510002994
:10276000F6D106E06D1C8542FCDB19F80510002946
:10277000F8D12E4404E019F8010B5A460F999047FE
:102780006D1EF8D2A5E00A200021CDE90801C5F3AD
:10279000025002280DD001CFC117031E71F10003B2
:1027A0000DDA4FF0000CD0EB0C006CEB01012D2387
:1027B00008E0FF1D27F00707F7E80201EDE72B050A
:1027C00004D52B238DF8283001233BE0EB0739D0CB
:1027D0002023F7E70A2000E010200021CDE90801BE
:1027E00007E01020002145F00405CDE908014FF075
:1027F0000808C5F3025002280FD001CF00214FF086
:10280000000A2B071FD5702A0DD0DDE908C38CF014
:10281000100C5CEA030C0CD015E0FF1D27F0070735
:10282000F7E80201EBE740228DF828204FF0010A7B
:102830000BE050EA010306D030238DF828308DF8E4
:10284000292002239A46582A04D024A20DF12009F7
:102850000B9209E026A2F9E7DDE90823FDF7CEFC9B
:102860000B9B9B5C09F8013D50EA0102F4D1ADEBF2
:10287000090020300890680701D44FF0010808993A
:10288000884502DDA8EB010000E00020804600251D
:1028900006E00AA85A46405D0F9990476D1C761CC9
:1028A0005545F6DB04E030205A460F999047761CD8
:1028B000B8F10001A8F10108F5DC05E019F8010BF9
:1028C0005A460F999047761C0899481E089000298F
:1028D000F4DC641CC5E60000092801003031323305
:1028E000343536373839616263646566000000004C
:1028F0003031323334353637383941424344454636
:10290000000000003EB5074C2118CA784D790B79BC
:102910008DE82C008B784A78215C03A0FFF762FEDB
:102920003EBD0000F801002025782025782025787C
:102930002025782025782025780D0A0004490A688A
:10294000C2F3C012002AFAD0C2B24A607047000037
:102950000010014010B500210846FDF73DFD3B4C3D
:10296000014620703AA0FFF73DFE01210020FDF74F
:1029700033FD2070014639A0FFF734FE022100200C
:10298000FDF72AFD2070014637A0FFF72BFE03213B
:102990000020FDF721FD2070014636A0FFF722FE42
:1029A00000206070C0B2401DC1B20020FDF714FDD0
:1029B00020700246617832A0FFF714FE6078401C58
:1029C000C0B260700828EDD30D210020FDF704FD92
:1029D000207001462DA0FFF705FE0E210020FDF717
:1029E000FBFC207001462DA0FFF7FCFD0F2100200D
:1029F000FDF7F2FC207001462CA0FFF7F3FD10213B
:102A00000020FDF7E9FC207001462CA0FFF7EAFD4D
:102A100011210020FDF7E0FC207001462BA0FFF7FC
:102A2000E1FD15210020FDF7D7FC207001462BA009
:102A3000FFF7D8FD17210020FDF7CEFC20700146DE
:102A4000BDE8104028A0FFF7CDBD00000200002027
:102A500044455649443D2523780D0A00434F4E46D0
:102A6000313D2523780D0A00434F4E46323D252344
:102A7000780D0A00434F4E46333D2523780D0A005A
:102A8000434825643D2523780D0A000042494153FF
:102A900053454E53503D2523780D0A00424941537A
:102AA00053454E534E3D2523780D0A004C4F464664
:102AB00053454E53503D2523780D0A004C4F464652
:102AC00053454E534E3D2523780D0A004C4F464644
:102AD000464C49503D2523780D0A00004D4953438B
:102AE000313D2523780D0A00434F4E46343D2523C2
:102AF000780D0A00FEF70CF8324C206820F08000B8
:102B00002060FFF799FCFFF797F84FF480052846FF
:102B1000FEF7E8F9FFF708F8FFF778F8FFF7C6F9CE
:102B20002A49294800220860FF2048600120C1E9A5
:102B30000202C1E904028A61CA6108460A62FEF71C
:102B40006BF8FFF751FAFFF7EDFAFFF72BFBFFF7F2
:102B500081FBFFF703FA1D481D494C30C0F8641192
:102B60001C49C0F8681100F0FFFC1B4885611B4A36
:102B700061149161202181611021816108218161AD
:102B8000042181611749184A15480B789850C97873
:102B9000885013480C38016841F040010160002062
:102BA000FDF70CFC0020FDF7BDFC1120FDF7CEFC6D
:102BB000206840F08000206004484C3000F0A0FE07
:102BC000FAE70000003C0140001000A04000002097
:102BD00005240008212400080010024000080240DB
:102BE0000C300140623900080864024070B50446A8
:102BF00090F862010025012829D0022826D1412918
:102C000006D0422906D0432909D044291CD112E01C
:102C1000002100E00121204600F058FC14E0208F44
:102C2000E18E884210D2211D415C204600F0B2F8AE
:102C3000208F401C07E0208F30B10821204600F093
:102C4000A9F8208F401E208784F8625170BD5B294F
:102C5000FAD1022084F8620170BD70B50446C08EBE
:102C600000284BD0228F0023211D82420BD1401E11
:102C700080B2E086521E228743542046BDE8704051
:102C8000012100F065B8002A38D0002006E0224477
:102C9000051D565DC51C401C565500B2E58E228FA1
:102CA000AD1A8542F3DCE08E401E80B2E086228FB2
:102CB000521E228743540821204600F06BF8B4F9D5
:102CC000385006E060190179204600F063F86D1C69
:102CD0002DB2E08EA842F5DC2021204600F05AF803
:102CE000E08E218F401A401C05B205E008212046E5
:102CF00000F050F86D1E2DB2002DF7DC70BD000005
:102D000010B500F03BFB002804D0BDE8104002A144
:102D100000F02CB810BD00001B5B324A1B5B314831
:102D20000000000070B50546C08E298F401A04B21D
:102D300005E02021284600F02DF8641E24B2002C66
:102D4000F7DCE98E2846BDE8704000F001B80000CD
:102D500070B50C46054603E003A1284600F006F8CE
:102D6000641EA4B2F8D270BD0820080070B50646F3
:102D7000D0F8680100240D4600280AD005E0D6F8F6
:102D800068116D1C8847641CA4B228780028F6D10D
:102D9000204670BDD0F86821002A01D008461047AF
:102DA0007047000070B50646D0F85C0100EB0115D5
:102DB00030462968FFF7DAFFC0F116000404240C3E
:102DC00000D104240AA13046FFF7D0FF641E24047A
:102DD000240CF7D107A13046FFF7C8FF3046A96899
:102DE000FFF7C4FF3046BDE8704003A1FFF7BEBF48
:102DF000200000002D2D00000D0A00002DE9FE43EB
:102E00000C4625A2804607CA8DE8070025460A27FA
:102E100024A14046FFF7AAFF6E46002C04DA24A145
:102E20004046FFF7A3FF6D420A2055B1B5FBF0F114
:102E300000FB1151B5FBF0F57F1EFFB23031F155AB
:102E4000F3E7F0194CB10021411A4046FFF78EFF1D
:102E5000082100208DF808000DE00121F4E700BFF3
:102E600004F00F00092801D9573000E03030491E26
:102E7000C9B224097054002CF2D10EA14046FFF7CC
:102E800075FF69464046FFF771FF0CA14046FFF70A
:102E90006DFFBDE8FE830000303030303030303020
:102EA0003030000052657475726E3A2000000000E8
:102EB0002D0000002C203078000000000D0A0000DA
:102EC0002DE9F84F04460025C08EA8464FF00109B1
:102ED0002F4600287ED0221D411C0026E186865404
:102EE000B4F9580100EBC00101EB001004EB400005
:102EF00011462A30FDF7C5F920B3B4F9580100EBAB
:102F0000C00101EB001104EB4100211D5C3000F019
:102F100077FC20B1B4F85801401CA4F85801B4F86B
:102F20005601401C81B2A4F85611052902D9052189
:102F3000A4F85611B4F95801052801DBA4F858612A
:102F4000A4F85A6100202EE0B8F1000F07D1211833
:102F50000979202921D009291FD02C291DD0211819
:102F60000A79D2B1222A04D1B8F1000F05D000228B
:102F70009046B9F1010F02D009E00122F8E70A1DDD
:102F800004EB85036D1CEDB24FF00009DA6309799B
:102F90005C2906D1401C80B203E021184FF00109E2
:102FA0000E71401C80B2E18E8142CDD8E686B046DB
:102FB00026877DB122A12046FFF7D8FE21A1D4F8B3
:102FC0005CA1E06BFDF75DF901004FF0010B04F12E
:102FD0003C0900E02EE001D0002622E084F863B135
:102FE0004946284600F0FEF984F8638122E000BFDC
:102FF0000AEB061000900168E06BFDF742F970B92A
:1030000084F863B1009801274A464068294600F0D9
:1030100005F9014684F863812046FFF7EFFE761C30
:10302000F6B2B4F86001B042E2D81FB907A1204659
:10303000FFF79CFE20462168BDE8F84FFFF796BEDB
:103040000D0A000068656C7000000000436F6D6D34
:10305000616E64206E6F7420666F756E640D0A0079
:10306000411C00200A785C2A01D01046704749783C
:103070006E290FD004DC3029F8D0622904D105E094
:10308000722905D0742907D0084670470820704778
:103090000D2070470A20704709207047F0B5074699
:1030A000002539780A26012328462C462D2908D0E8
:1030B0000021CA19002192F800C0BCF1300F04D0E1
:1030C0001EE04FF0FF330121F3E75178782907D054
:1030D000582905D0622905D0422903D002210FE0EA
:1030E00003210DE001210BE092F800C0BCF12E0F8E
:1030F00006D192F801C0BCF1000F01D0042111E00B
:1031000012F801CBBCF1000FEED1012908D0022941
:1031100003D0032906D1102603E00826012501E08B
:10312000022602253D445A1C02D0002215441FE00D
:103130000122FBE72E2A05D0A2F13007092F03D880
:10314000FAB20FE0012412E0A2F16107052F01D8C5
:10315000573A04E0A2F14107052F02D8373AD2B21C
:1031600000E0002200FB062004EB840254006D1CEA
:103170002A78002ADED1042913D194B100EE100A76
:10318000B8EE401A00EE104AB8EE400AC1EE000A4E
:1031900000EE103AB8EEC00A20EE800A10EE100AD7
:1031A000F0BD5843F0BD00002DE9F041017827291A
:1031B0000AD02D2904D000BFA1F13002092A0AD873
:1031C000BDE8F041FFF76ABF4278002AF4D0BDE8BD
:1031D000F041FFF745BFF9B10026054604463746E2
:1031E00022290AD16C1C254607E05C280CD0222835
:1031F00010D0A855761CB6B2641C20780028F4D1F3
:10320000AF552846BDE8F081601EFFF729FFA8559D
:10321000641CEFE7AF55EDE70020F3E72DE9FE4F23
:103220001446054609297DD2DFE801F0A4050A12FB
:103230001F314862820003B0AC46BDE8F04F6047E2
:103240005068FFF7B1FF03B0AC46BDE8F04F6047F0
:10325000A068FFF7A9FF06466068FFF7A5FF03B067
:103260003146AC46BDE8F04F6047E068FFF79CFF91
:103270000746A068FFF798FF06466068FFF794FFCF
:1032800003B03A463146AC46BDE8F04F604720698E
:10329000FFF78AFF0746E068FFF786FF8046A068D1
:1032A000FFF782FF06466068FFF77EFF03B03B46EC
:1032B00042463146AC46BDE8F04F60476069FFF7D3
:1032C00073FF07462069FFF76FFF0646E068FFF7C8
:1032D0006BFF8146A068FFF767FF80466068FFF7D5
:1032E00063FF33464A4641460097A847BDE8FE8F34
:1032F000A069FFF759FF82466069FFF755FF8146D5
:103300002069FFF751FF0746E068FFF74DFF0646CB
:10331000A068FFF749FF80466068FFF745FF3B461E
:10332000324600E026E0CDE9009A4146A847DDE7B5
:10333000E069FFF739FF8346A069FFF735FF824652
:103340006069FFF731FF81462069FFF72DFF804656
:10335000E068FFF729FF0746A068FFF725FF06464C
:103360006068FFF721FF8DE8000E43463A4631467C
:10337000A847BBE74FF0FF30B8E70000084900203E
:1033800051F820201AB192F86321012A05D0401C7F
:1033900000B20528F4DB0020704751F82000704788
:1033A0007402002090F862210AB1FFF71FBC0D29BA
:1033B0000DD006DC08290CD009290CD00A2904D12B
:1033C00005E01B2909D07F2903D000F0A1B9FFF740
:1033D00077BDFFF742BC00F01FBA012180F86211EF
:1033E000704700002DE9F0410F460346FFF7C6FF86
:1033F000050016D0012B05D0022B12D10024D5F8E0
:103400005C611AE021A1FFF7B1FC002405E0214630
:103410002846FFF7C7FC641CA4B2B5F86001A042BF
:10342000F5D8BDE8F08100BF06EB041001687868AC
:10343000FCF727FF38B1641CE4B2B5F86001A04284
:10344000F2D817A11CE01BA12846FFF78FFC06EB62
:10345000041428462168FFF789FC1AA12846FFF7C3
:1034600085FC2846A168FFF781FC17A12846FFF7D5
:103470007DFCE1680029D4D02846FFF777FC12A133
:103480002846BDE8F041FFF771BC00000D0A434F2C
:103490004D4D414E44204C4953543A0D0A0D0A00FB
:1034A000636F6D6D616E64206E6F7420666F756EF4
:1034B000640D0A00636F6D6D616E642068656C70E9
:1034C000202D2D003A0D0A000D0A000070B50446AB
:1034D000002561B1012909D1B4F85A01401C00B29C
:1034E000A4F85A01002819DDA4F85A5170BDB4F9A6
:1034F0005A21501EA4F85A01B4F85611B4F95801D3
:10350000814201DD0B4600E003465B429A4205DC46
:10351000814200DD08464042A4F85A012046FFF7E8
:1035200001FCB4F95A01E0B1B4F95811084405217D
:10353000401D90FBF1F201FB120000EBC00101EB1A
:10354000001004EB4001201D5C3100F059F9E086C9
:103550000028CBD02087211D2046BDE87040FFF712
:1035600005BCE586258770BD10B504461FA1FFF791
:10357000FDFB20A12046FFF7F9FB2EA12046FFF717
:10358000F5FB3CA12046FFF7F1FB4AA12046FFF7DF
:10359000EDFB18A12046FFF7E9FB0020E08620871D
:1035A000A4F85601A4F85801A4F85A0184F862015D
:1035B00050A12160534984F8630100BF51F82020D5
:1035C00082B1401C00B20528F8DB20462168FFF7D5
:1035D000CDFB4D484D49C4F85C01081A0009A4F818
:1035E000600110BD41F82040EFE700000D0A0D0A10
:1035F000000000002B3D3D3D3D3D3D3D3D3D3D3D01
:103600003D3D3D3D3D3D3D3D3D3D3D3D3D3D3D3DEA
:103610003D3D3D3D3D3D3D3D3D3D3D3D3D3D3D3DDA
:103620003D3D3D3D3D3D3D3D3D3D3D3D3D3D2B0D0C
:103630000A0000007C2020202020202020202020A4
:10364000202020202028432920434F505952494709
:1036500048542032303138204C6574746572202013
:1036600020202020202020202020202020207C0D11
:103670000A0000007C202020202020202020202064
:1036800020202020202020204C6574746572207337
:1036900068656C6C2076322E302E3220202020205F
:1036A00020202020202020202020202020207C0DD1
:1036B0000A0000007C202020202020202020202024
:1036C000202020204275696C643A204175672032C1
:1036D0003420323032302031363A34363A353720E1
:1036E00020202020202020202020202020207C0D91
:1036F0000A0000000D0A4D6963726F4545473E3E62
:103700000000000074020020FC3A00088C3B000816
:1037100070B50446C08E312841D2238F221D9842B5
:103720000AD1431CE3868154208F401C2087204609
:10373000BDE87040FFF72EBBC01A06E0238FC51C02
:1037400023445E5D051D401E5E5500B20028F5DC79
:10375000208F431C23878154E08E0021401C80B2BF
:10376000E08620440171208F401E05B206E06019FA
:1037700001792046FFF70EFB6D1C2DB2E08EA842AA
:10378000F5DC218F80B2401A05B205E00821204601
:10379000FFF700FB6D1E2DB2002DF7DC70BD07A1F9
:1037A0002046FFF7E3FA20462168FFF7DFFA211DE4
:1037B0002046FFF7DBFAE08E208770BD0D0A5761C7
:1037C000726E69673A20436F6D6D616E6420697334
:1037D00020746F6F206C6F6E670D0A0030B5044661
:1037E0000020024605E0AB4209D1401C521C80B2C9
:1037F00092B2A35C002B02D08D5C002DF3D130BDC2
:103800000246002002E01354401C80B20B5C002BE7
:10381000F9D10021115470472DE9F84F4FF00008FD
:10382000C18ED0F85C7104464FF0320945464646D9
:10383000002957D004F1040AB34601F80A600026B3
:1038400027E000BF07EB061000900168201DFFF77E
:10385000C5FFE18E88421AD1ADB1012D03D127A158
:103860002046FFF783FA41462046FFF79BFA00986F
:10387000016807EB08100068FFF7B0FF4946814573
:1038800000D8084681466D1C1FFA86F8ADB2761C3A
:1038900036B2B4F86001B042D4DC002D2CD0012D3A
:1038A00002D12046FFF73EFA07EB08100168201D01
:1038B000FFF7A6FFE086012D09D941462046FFF714
:1038C00071FA20462168FFF751FAA4F83690E28E8B
:1038D000211D02F80AB0E08E20872046BDE8F84F8F
:1038E000FFF744BA012084F863010021FFF77AFD55
:1038F00084F863612168F0E7BDE8F88F0D0A0000E5
:1039000038B5D0F86411044649B1684688470028A4
:1039100004D19DF800102046FFF744FD38BD02A1F8
:10392000FFF724FAFEE700006572726F723A2073A7
:1039300068656C6C2E72656164206D7573742062AD
:103940006520646566696E65640D0A00102840583C
:103950007088A0B800000000040404000008000003
:103960000008102840587088A0B84144435F537441
:10397000617274416371006E4452445920496E74FF
:1039800065727275707420456E61626C65004144A9
:10399000435F53746F70416371006E445244592009
:1039A000496E746572727570742044697361626CDB
:1039B00065004144435F53656E64436F6D6D616E96
:1039C000640053656E6420494D4420496E737472DF
:1039D000756374696F6E004144435F577269746523
:1039E000526567005772697465204144533132391A
:1039F00039205265676973746572006C6164726521
:103A0000670052656164264C6973742041445331E8
:103A1000323939205265676973746572006368656D
:103A2000636B6275666665723642005072696E74C9
:103A30002062756666657220366279746500476536
:103A4000745F5453475F434E540047657420746954
:103A50006D657374616D702067656E657261746FFA
:103A60007220636E74000006101600061016000027
:103A7000000000000000010203040607080900001E
:103A800000000102030468656C7000636F6D6D6176
:103A90006E642068656C700068656C70205B636F95
:103AA0006D6D616E645D202D2D73686F7720686584
:103AB0006C7020696E666F206F6620636F6D6D613C
:103AC0006E6400636C7300636C65617220636F6D7C
:103AD0006D616E64206C696E650000008C3B0008AF
:103AE000000000201800000024260008A43B000865
:103AF0001800002070060000342600086A3900080B
:103B00002903000877390008000000008E390008FA
:103B10005D0300089A39000800000000B23900086F
:103B200001030008C239000800000000D73900086E
:103B300085030008E439000800000000FB39000894
:103B400055290008023A0008000000001D3A00084C
:103B5000052900082B3A0008000000003E3A000842
:103B6000D90600084A3A000800000000863A00081A
:103B7000E53300088B3A0008983A0008C33A000879
:103B8000012D0008C73A00080000000000000000F6
:103B90000100000010000000000000000024F400FC
:043BA0000000000021
:04000005080001C529
:00000001FF
