:020000040800F2
:10000000280B0020DD01000887310008671F000869
:1000100085310008F9090008D13E00080000000001
:10002000000000000000000000000000DD360008B5
:10003000250D000800000000BB31000875370008DE
:10004000F7010008F7010008F7010008F7010008B0
:10005000F7010008F7010008D90D0008110E00088B
:10006000F7010008F7010008F7010008F701000890
:10007000F7010008F7010008F7010008F701000880
:10008000F7010008F7010008F7010008F701000870
:10009000F7010008F7010008F7010008F701000860
:1000A000F7010008F7010008F7010008F701000850
:1000B000F7010008F7010008F7010008F701000840
:1000C000F7010008F7010008F7010008F701000830
:1000D000F7010008F7010008F7010008F701000820
:1000E000F7010008F7010008F7010008F701000810
:1000F000F7010008F7010008F7010008F701000800
:10010000F7010008F7010008F7010008F7010008EF
:10011000F7010008F7010008F7010008F7010008DF
:10012000F7010008F7010008F7010008F7010008CF
:10013000F70100080000000000000000F7010008BF
:10014000F7010008F7010008F7010008F7010008AF
:10015000F7010008F7010008F7010008F70100089F
:10016000F7010008F7010008F7010008F70100088F
:10017000F7010008F7010008F7010008000000007F
:1001800000000000F701000800000000000000006F
:10019000F70100080000000000000000F70100085F
:1001A000000000000000000000000000F70100084F
:1001B000F7010008F7010008F7010008F70100083F
:1001C000F7010008DFF810D000F038F900480047C8
:1001D000A5490008AFF30080280B0020064880479F
:1001E00006480047FEE7FEE7FEE7FEE7FEE7FEE71C
:1001F000FEE7FEE7FEE7FEE7B1390008C5010008AB
:100200002DE9F05F0546002092469B46884606464B
:10021000814640241BE0284641464746224600F0DE
:10022000B6F853465A46C01A914110D311461846A3
:10023000224600F09DF82D1A67EB01084F46224632
:100240000120002100F094F817EB00094E41201E18
:10025000A4F10104DFDC484631462A464346BDE8A6
:10026000F09F000038B5D0E90221491E01EB4101A1
:1002700002EBC1014268C1EB011102EB810102688E
:10028000C1EB011102EB8102D0E9043101EB410124
:1002900003EB81013023A1F5527191FBF3F4174D6B
:1002A0006C4302EBC41291FBF3F403FB14110092B4
:1002B0001A2902DB124B1A4400920C2291FBF2F332
:1002C000104C6343009C04EBC313009391FBF2F3C7
:1002D00002FB13110C4A08E0491E40F2A324535CB0
:1002E0006343009C04EBC31300930029F4DC014634
:1002F000684600F05DF8009838BD00003F0C0F0024
:100300008051010067C203000861000840EA010350
:100310009B0703D009E008C9121F08C0042AFAD2BB
:1003200003E011F8013B00F8013B521EF9D270477F
:10033000D2B201E000F8012B491EFBD27047002227
:10034000F6E710B513460A4604461946FFF7F0FFD4
:10035000204610BD10B5002200E0521C835C8C5C6E
:10036000A34201D1002BF8D1D8B2E1B2401A10BD9E
:10037000202A04DB203A00FA02F100207047914065
:10038000C2F1200320FA03F3194390407047202A5A
:1003900004DB203A21FA02F00021704721FA02F32F
:1003A000D040C2F120029140084319467047000036
:1003B00010B500683C22B0FBF2F302FB1303B0FB64
:1003C000F2F00B60B0FBF2F302FB1303B0FBF2F0B0
:1003D00018224B60B0FBF2F302FB1303B0FBF2F008
:1003E000021D8B600723B2FBF3F403FB1422800091
:1003F00040F2B55300F66C308A61B0FBF3F2B0FB0B
:10040000F3F403FB1400443280084A61C8613B28BE
:1004100002D3920700D0401C0022074C13460A6109
:10042000E25C824203D8801A5B1C0B61F8E7401C37
:10043000C860084610BD000014610008064C074D56
:1004400006E0E06840F0010394E8070098471034A4
:10045000AC42F6D3FFF7BAFE206100084061000805
:1004600010B5044600F068F92146BDE8104001A02F
:1004700003F03ABF436F6D6D616E642025782053A1
:10048000454E44210D0A00000A4810B5016841F0AC
:100490000201016008494FF400008861082000F063
:1004A0004BF9102000F048F9BDE8104003A003F01C
:1004B0001BBF0000003C0140000402405374617205
:1004C0007420416371756973696F6E210D0A0000B4
:1004D000094810B5016821F0020101600749802038
:1004E00088610A2000F028F9112000F025F9BDE804
:1004F000104003A003F0F8BE003C0140000402409D
:1005000053746F7020416371756973696F6E210D4B
:100510000A0000000A4610B50146002000F036F936
:10052000BDE8104001A003F0DFBE000031323939D0
:1005300027732052656720686173206265656E20AD
:100540007772697474656E210D0A0000091DD2B2BC
:10055000C9B2002000F01AB910B513490446086862
:1005600020F002000860204600F024F8204600F049
:10057000CFF80E494FF4807088610D4A022013694C
:100580009843FBD04FF080708861002000F0C0F8E5
:10059000062000F0D1F80A2003F0E6FDBDE8104087
:1005A000112000F0C9B80000003C014000040240E6
:1005B000001002400449012088610449400288611A
:1005C000C82000F03DBE00000010024000040240C0
:1005D00070B52031CEB272B61F4D4FF40000A86145
:1005E000052003F0C1FD1D4CE068A068C0F3400089
:1005F0000028FAD0E660A06810F0010FFBD0E06898
:10060000042003F0B1FDA068C0F340000028FAD038
:100610000026E660A06810F0010FFBD0E06804201F
:1006200003F0A2FDA068C0F340000028FAD0E66005
:10063000A06810F0010FFBD0A068C0F3C010002824
:10064000FAD1E068C4B2052003F08EFD8020A861D5
:1006500062B6204670BD0000000402400030014038
:1006600010B51C2100F01AF80A490868C0F34010C0
:100670000028FAD00848426822F00202426042682C
:1006800022F0010242604FF0006088602020886004
:1006900010BD000000640240003001402DE9F0412F
:1006A000174F044688460A460021384601F01AFDD5
:1006B000144E134D30780C3544510021384601F06A
:1006C000FDFC0021384601F0EFFC0F4C606840F063
:1006D0000100606042460321384601F003FDF178D5
:1006E0000A4848510321384601F0E8FC0321384606
:1006F00001F0DAFC606840F002006060BDE8F08163
:10070000006402409E600008003001402B00002081
:1007100070B5084C4FF400752804A061062003F062
:1007200023FDA5618020A061BDE87040C82003F0D2
:100730001BBD00000004024070B5054672B6114CA6
:100740004FF40000A061042003F00EFD0E498868FC
:10075000C0F340000028FAD0CD60886810F0010F87
:10076000FBD0C8688868C0F3C0100028FAD1042004
:1007700003F0FAFC8020A06162B60420BDE870405E
:1007800003F0F2BC00040240003001402DE9F041CA
:1007900040311646CFB272B61D4D4FF40000A8612D
:1007A000042003F0E1FC1B4CA068C0F340000028CB
:1007B000FAD0E760A06810F0010FFBD0E0680420D9
:1007C00003F0D2FCA068C0F340000028FAD000205B
:1007D000E060A06810F0010FFBD0E068042003F097
:1007E000C3FCA068C0F340000028FAD0E660A0680F
:1007F00010F0010FFBD0A068C0F3C0100028FAD1A0
:10080000052003F0B1FC8020A86162B6BDE8F0814C
:10081000000402400030014003460020074A022B3A
:1008200006D0072B07D0092B01D192680A607047C8
:1008300012780A7070475268F8E700003000002014
:100840000022022805D109B1012000E00020024960
:1008500008701046704700003000002010B50146B7
:10086000044800F00DFB0448418841F0010141803B
:1008700010BD0000440100200000002070B5444C71
:100880000228216812D0072849D0092831D1FFF762
:10089000C3FF20680078012805D002285BD0042817
:1008A0005DD006285FD005F08F005FE00220FFF7E3
:1008B000B3FF2068384C394D017836480129384E4D
:1008C000018817D041F4006101800A20FFF734FF4E
:1008D0001120FFF731FF286820F0020028608020F7
:1008E000B061206820F0010020602B4900202431F5
:1008F000086070BD41F480710180206840F0010003
:1009000020600820FFF718FF1020FFF715FF286868
:1009100040F0020028604FF40000B06170BD072075
:10092000FFF77AFF20680068FA280AD0B0F5FA7F4E
:1009300009D0B0F57A7F02D0B0F5FA6F09D09422D1
:1009400002E0962200E0952201210020FFF71EFF21
:1009500070BD9322F8E705F08F00103006E005F037
:100960008F00203002E005F08F00303000F0780575
:100970000024601DC1B22A460020FFF7E7FD0220D7
:1009800003F0F2FB641CE4B2082CF2D370BD00004B
:100990009800002002000020000C0040003C0140B4
:1009A0000004024010B50C4804F08AF80C480B49CA
:1009B0000160891D4160123181601231C160891D61
:1009C000016112314161891D8161891DC161891DEA
:1009D0000162891D416210BD40000020A86000082E
:1009E0005404002018B10349C86000207047FF205C
:1009F0007047000030000020FEE700000168182367
:100A0000CAB2103AB2FBF3F2054B6FF30901032AA5
:100A10009B5CC36500D9091D8165084670470000CD
:100A20002A60000810B5014600208B698A6A4FF0E1
:100A3000C07453B1B3F5005F15D072B1012A0CD068
:100A4000022A0AD0032A09D104E01AB1012A06D0E9
:100A5000022A03D1C96AC90100D5012010BDC96AA3
:100A6000A142FAD010BD002AF7D0012AF2D0022A02
:100A7000F3D0032AF3D010BD30B50468256825F4FF
:100A800080252560046863608368402B036803D079
:100A900099600068C26030BD9A600068C16030BD76
:100AA0002DE9F74F144605464FF6FF77082802D97F
:100AB0003846BDE8FE8F68010126083003F00AFBC6
:100AC00000F00F00012802D04FF6FB70F1E714B3DD
:100AD00041F6086000EB451003F0FCFA07EA8020BD
:100AE000A04200D204464FF4427000EB451841F694
:100AF0000870DFF890A000EB451B06FA05F92846C0
:100B000003F000FE0646404603F0E4FA172816D02C
:100B10001C2803D00DE04FF6F270CAE7CEB9284684
:100B200003F016FE0746584603F0D4FAB7EB802FC1
:100B300005D1284603F0A0FD4FF6F970B9E7BAF8E1
:100B4000021019EA010F02D01EB90020B1E7002EF1
:100B5000D5D0A64200D2344622462846019902F05A
:100B600049FD06464FF4847000EB451004464021D1
:100B700003F0D3FA204603F0ADFA0028FAD130464C
:100B800097E700001C0000202DE9F0471E46DDF825
:100B9000208015468A460446082803D94FF0FF30C6
:100BA000BDE8F087670108374FF00109384603F0C8
:100BB00091FA00F00F00022806D0032804D0042880
:100BC00002D06FF00400EBE75DB13078717801EB93
:100BD0000020B17801EB0020F17811EB002003D068
:100BE0000AE06FF00D00DBE7384603F073FA4007C8
:100BF00002D46FF00B00D3E7B8F1000F07D13846ED
:100C000003F068FA400702D46FF00A00C8E74FF417
:100C1000427000EB4410074603F05CFA422806D00D
:100C2000222804D0322802D06FF00600B8E740F640
:100C3000084000EB44100422314603F081FA41F2EF
:100C400008004FEA182100EB441003F066FA41F265
:100C5000081008F0FF0100EB441003F05EFA41F6C3
:100C6000087000EB441003F035FA4FF6FF7101EA0B
:100C70008020854200D90546DFF8888009FA04F60D
:100C8000204603F065FD8146384603F023FA38B16B
:100C9000B8F80200064206D04D4504D900207FE78F
:100CA0006FF003007CE74D45EAD82A4651462046BE
:100CB00003F0A0FA4FF4847000EB441006462021A4
:100CC00003F02BFA4FF4027000EB4414304603F0AB
:100CD00001FA0028FAD1204603F0FCF900F01F00C9
:100CE000C10605D52046102103F017FA284657E71C
:100CF0000007F0D52046082103F00FFA6FF00C0032
:100D00004EE700001C00002090F8001190F801212F
:100D1000914201D1FF207047425C491C80F80011CC
:100D20001046704770470000F8B52A480422406812
:100D3000017A491C8DF80010417A491C8DF8011088
:100D4000817A491C8DF80210C07A6946401C8DF8E2
:100D5000030040F6084003F0F3F90121082003F0F6
:100D6000DCF94FF484760121304603F0D6F90520F2
:100D700000F066FA4FF4427003F0ACF9132804D087
:100D80001021304603F0C9F916E00421304603F083
:100D9000C4F94FF402754FF4C167284603F09AF97D
:100DA00010F01F0403D02146284603F0B6F90520B1
:100DB00000F046FA200701D5FF20F8BD384603F0C1
:100DC00089F9FF28E9D01021304603F0A6F9002068
:100DD000F8BD0000A0000020094810B500680949CE
:100DE00008600948018841F480510180012001F028
:100DF0001BFA002802D005490120086010BD000040
:100E0000240C00400400002002000020143C01409B
:100E100070B5164D164C4FF000062988C80500D550
:100E2000267014480268144B207821F4807141F434
:100E3000007143F82020298002F042FF10B9207889
:100E4000401C207020780A2806D12670288820F4BB
:100E5000007040F480602880022001F0E5F900284D
:100E600002D006490220086070BD00000200002088
:100E700008000020240C004010050020143C014014
:100E800010B590F8012190F80041531CA34205D001
:100E9000815490F80111491C80F8011110BD704770
:100EA0000248016802A003F01FBA0000240C0040B1
:100EB000434E543D25640D0A0000000070B5040047
:100EC00003D094F8200010B104E0012070BD20464A
:100ED00000F082F82068016821F00201016000F052
:100EE00095FA0546052604E000F090FA401B0A2812
:100EF00011D8206840688007F6D42068016841F066
:100F00000101016000F082FA05460BE000F07EFA74
:100F1000401B0A2806D9606A40F40030606284F8F9
:100F20002060D2E720684068C007EFD0207E01280B
:100F3000206801683DD021F080010160607E0128B9
:100F40002068016838D021F040010160A07E0128AE
:100F50002068016833D021F020010160E07E012883
:100F6000206801682ED041F010010160207F012827
:100F70002068016829D021F008010160607F012804
:100F80002068016824D021F004010160D4E9020145
:100F90000843D4E90412114308436168491E084319
:100FA0002168C86100206062012084F820000020D0
:100FB00070BD41F08001C0E741F04001C5E741F05C
:100FC0002001CAE721F01001CFE741F00801D4E782
:100FD00041F00401D9E7000010B586B004461421A1
:100FE0006846FFF7ACF914492068884221D11348BC
:100FF0000021026842F000720260006800F0007098
:1010000005900E481038026842F001020260006844
:1010100000F0010005904FF4C05000900220CDE98F
:10102000010103200390092004906946044800F060
:1010300019F906B010BD00000064004040380240BD
:10104000000002402DE9F0410446876D00F0DEF912
:10105000064694F835000025022806D080206065F9
:1010600084F834500120BDE8F0812068016821F047
:10107000160101602068416921F080014161206C06
:1010800008B9A06C20B12068016821F00801016056
:101090002068016821F0010101600BE000F0B6F961
:1010A000801B052806D92020606504F8345F0320E2
:1010B0006070D8E720680068C007EFD194F85C1032
:1010C0003F208840B86004F8345F01206070002041
:1010D000C9E790F83510022903D08021416501202D
:1010E0007047052180F835100068016821F0010182
:1010F000016000207047406D704700002DE9F0410D
:10110000044600F083F906465CB1002584F83450AB
:10111000022084F835002068016821F00101016097
:101120000DE00120BDE8F08100F070F9801B05287A
:1011300005D920206065032084F83500F2E7206897
:101140000068C007F0D12268116820480140D4E946
:1011500001031843D4E90336334318436369184342
:10116000A3691843E3691843236A18430843616A73
:10117000042903D1D4E90B131943084310602068F4
:101180004069666A20F0070130460E4301270428B3
:101190000CD1A06A0643E06A40B12046FFF742FC4A
:1011A00020B14020606584F83570BAE72068466158
:1011B0002046FFF723FC94F85C203F21914081609A
:1011C000656584F835700020ACE700003F8010F0C2
:1011D0002DE9F0410446866D90F834000025012881
:1011E0000DD0012084F8340094F835700020012FD0
:1011F00007D084F8340002252846BDE8F08102209B
:10120000FBE7022784F8357060652046FFF734FC61
:1012100094F85C103F208840B0602068016841F07D
:1012200016010160206C20B12068016841F00801BE
:1012300001602068016841F001010160DCE7000005
:1012400070B5044600F0E2F80546601C02D0044880
:101250000078044400F0DAF8401BA042FAD370BDD5
:101260000C0000202DE9F84F00224FF00108032563
:101270004FF00F0E0B6808FA02F42340A3426ED120
:101280004E68012E05D0022E03D0112E01D0122E51
:1012900012D186684FEA420C05FA0CF7BE43CF68BC
:1012A00007FA0CF7374387604668A6430C79C4F306
:1012B0000014944034434460C668570005FA07FCA4
:1012C0008C6826EA0C06BC403443C4604C68022C8F
:1012D00001D0122C13D1D40800EB8404A346D4F817
:1012E000209054074FEAD46A0EFA0AF629EA060952
:1012F0000E6906FA0AF646EA0906CBF82060066887
:101300000C7926EA0C0604F00304BC403443046064
:101310004C68E40060D5334C266846F4804626606D
:10132000246822F0030604F4804400942E4C3444D4
:10133000A446D4F808489607370F0EFA07F6B443C8
:101340002A4EB04201D100261FE0294EB04201D101
:1013500001261AE0274EB04202D1022615E03BE0FA
:10136000254EB04201D103260FE0244EB04201D1F8
:1013700004260AE0224EB04201D1052605E0214EA6
:10138000B04201D1062600E00726BE402643CCF835
:1013900008681D4E34684F689C43FF0300D51C430A
:1013A0003460194E361D34684F689C43BF0300D526
:1013B0001C433460144E083634684F689C43FF0267
:1013C00000D51C433460104E0C3634684F689C4383
:1013D000BF0200D51C433460521C102AFFF44AAFF0
:1013E000BDE8F88F44380240003001400000024060
:1013F0000004024000080240000C024000100240BD
:101400000014024000180240003C0140014880687E
:10141000704700000C0000200248816802781144E7
:10142000816070470C0000200B4810B5016841F442
:1014300000710160016841F480610160016841F45C
:1014400080710160032000F061F8002000F006F8D0
:1014500000F024F8002010BD003C024070B50D4D96
:1014600004464FF47A712878B1FBF0F00A49096814
:10147000B1FBF0F000F063FD48B9102C07D2002258
:101480002146501E00F022F800206C6070BD012043
:1014900070BD00000C000020180000200A4808B5AC
:1014A000016841F480410160006800F480400090D0
:1014B0000548001F016841F080510160006800F09C
:1014C0008050009008BD000044380240F0B40E4B3C
:1014D0001B680C46C3F30223C3F10705042D00D992
:1014E0000425191D072901D2002300E0DB1E012677
:1014F00006FA05F1491E214099409E40761E16408D
:101500003143F0BC02F01DBF0CED00E0064900F0D5
:10151000070208684FF6FF03184040EA0220034A1A
:1015200010430860704700000CED00E00000FA0571
:10153000F8B504460025FFF769FF064694F8410018
:10154000800736D5002084F84000206801684907EC
:101550000BD5016821F004010160E06BFFF772FD1B
:1015600018B1606C40F0040060642068016841F0CC
:1015700002010160A06C0090334601220221204646
:1015800001F05EFF050014D121680220C860A06C44
:101590000090334600222021204601F051FF050033
:1015A00007D12068416921F040614161012084F840
:1015B00041002846F8BD704770B5044690F84100D8
:1015C000002580072CD5002084F84000082084F8EE
:1015D00041002068016821F4F81101602068016869
:1015E000490711D5016821F004010160E16B0D4844
:1015F0000865E06BFFF76DFD90B1012084F84100B4
:101600002046FFF7D8FF0BE00221C1602068016887
:1016100041F4003101602068016841F0020101607D
:10162000284670BD1B3300082DE9F84F17468B463E
:101630000446FFF7EBFE824694F8400001280ED0E6
:10164000012684F8406094F841004FF0000801281A
:1016500007D0022584F840802846BDE8F88F022094
:10166000FBE7C4F844804FF0020984F841905346E8
:10167000002220212046009701F0E2FE0500E9D17A
:1016800000225946204601F099FDDBF8240058B9A4
:101690005346012202212046009701F0D1FE0500A9
:1016A000D8D12168C1F80C9084F84160D2E7704726
:1016B000F8B50446FFF7AAFE064624B194F84100A7
:1016C000002510B109E00120F8BD84F84050204603
:1016D00000F042F841F28830A06420680168A268F6
:1016E0006FF0FF0321F4F85103EB02221143016074
:1016F000A06C0090334600222021204601F0A0FE7D
:1017000010BBE269E16823791143226A42EA03626D
:101710001143226813680E4E334019431160D4E917
:1017200005121143226853680A4E3340268A43EA61
:1017300006431943516021680A6842F001020A60B9
:101740006564012184F8411084F84050F8BD000020
:101750002FFFFF00FEF8E0FF2DE9F04186B00646BE
:1017600014216846FEF7EBFD3049306888425AD1B3
:101770002F480025016841F00201016000682C49F2
:1017800000F0020008390590086840F00400086085
:10179000086800F004000590086840F00800086040
:1017A000086800F008000590086840F00200086032
:1017B0000868022400F0020005904FF4C06003277F
:1017C0004FF009088DE8B10169461A48FFF74AFD54
:1017D00008208DE8B10169461748FFF743FD4FF037
:1017E00040080A20CDF80080CDE90370694613480F
:1017F000CDE90145FFF736FD124C1148206078060F
:10180000C4E901084FF48060C4E903506561A56133
:10181000E561256220466562FFF770FC08B1FFF7BD
:101820003EFBF463A66306B0BDE8F081001000A0A3
:101830003838024000080240000C02400004024018
:10184000B8640240D00300202DE9F84F15460F463A
:101850000446FFF7DBFD82462068816994F840204A
:1018600000F12009012A0DD0012684F8406094F887
:1018700041204FF00008012A06D0022084F8408061
:10188000BDE8F88F0220FBE7C4F84480BFB32222F2
:1018900084F841200269521CA2630269521C6263EF
:1018A0002763426922F0406242F080624261206810
:1018B00081610EE00621204601F0C2FDE0B999F8F1
:1018C0000000216B0870206B401C2063A06B401E41
:1018D000A063A06B53464FF0010200950028E9D1A8
:1018E0004FF00201204601F0ABFD28B9216802202B
:1018F000C8602046FFF71CFE84F84160BEE7FFE7A2
:10190000606C40F0080060640120B7E72DE9F04109
:101910000368044600269F69186994F84020401C1B
:10192000012A0AD04FF0010884F8408094F8412041
:101930000025012A04D002261FE00220BDE8F08124
:101940006564A9B1E26B5269DAB1B2F5006F03D0F8
:10195000B2F5805F07D015E0C20709D1227AD2071D
:1019600006D140080DE0820702D1227A920707D003
:10197000606C40F008006064012684F8405047E045
:101980008008A063222084F841000320D860A06B67
:1019900060632163E26B1F48D063E26B1E481064F2
:1019A000E26B1E48D064E06B0565E06B8560E06B20
:1019B0000068026822F0C0020260636B20680A4679
:1019C000D4F83CC000F120016046FFF701FC50B1A3
:1019D00054F8440F012640F0040044F8040984F848
:1019E0000180257014E02068416921F0406141F0D8
:1019F000806141612068876184F8405020680168F7
:101A000041F4803101602068016841F00401016007
:101A1000304693E7853300089733000855330008B4
:101A2000704700002DE9F84F15460F460446FFF7B2
:101A3000EDFC8246206894F8401000F1200901294D
:101A40000ED0012684F8406094F841104FF0000851
:101A5000012907D05FF0020084F84080BDE8F88FCC
:101A60000220FBE7C4F844809FB3122184F84110A0
:101A70000169491CE1620169491CA162676241690F
:101A800021F0406141610EE00421204601F0D8FCC4
:101A9000E0B9606A017889F80010606A401C6062F1
:101AA000E06A401EE062E06A53464FF00102009592
:101AB0000028E9D14FF00201204601F0C1FC28B90D
:101AC00021680220C8602046FFF732FD84F841609B
:101AD000C2E7FFE7606C40F0080060640120BBE7EC
:101AE0002DE9F041036804460026186994F8402067
:101AF000401C012A09D0012784F8407094F8412045
:101B00000025012A04D002261FE00220BDE8F08152
:101B10006564A9B1E26B5269DAB1B2F5006F03D026
:101B2000B2F5805F07D015E0C20709D1227AD2074B
:101B300006D140080DE0820702D1227A920707D031
:101B4000606C40F008006064012684F8405041E079
:101B50008008E062122084F841000320D860E06A27
:101B6000A06261622068426922F040624261E26BD9
:101B70001948D063E26B19481064E26B1848D064CE
:101B8000E06B0565E26B40209060E06B00680268E6
:101B900022F0C00242F040020260A36A2268E06BB9
:101BA0002032FFF715FB48B154F8440F012640F0EE
:101BB000040044F80409677025700BE084F8405075
:101BC0002068016841F4803101602068016841F0BB
:101BD00004010160304699E7A1330008B3330008DF
:101BE0005533000870470000014800687047000046
:101BF0001800002010B500680B4641680D480140F0
:101C0000080CD870C1F304245C7001F03F049C7090
:101C1000C1F34231197052B901F0A2FCD870587862
:101C200001F09EFC5870987801F09AFC98700020A2
:101C300010BD00003FFFFF0010B50B460168896A28
:101C4000596001680969C1F30E0199600068016873
:101C50000E480140C1F305401870C1F306245C70C2
:101C600001F07F049C70402404EA1141D97052B9FC
:101C700001F076FC1870587801F072FC5870987872
:101C800001F06EFC9870002010BD00007F7F7F0087
:101C900070B5040002D0607F10B106E0012070BD75
:101CA00000202077204600F049F802206077216864
:101CB000CA204862216853204862204601F064FC33
:101CC000FF25042618BB206881681B4A11408160EB
:101CD0002168886862681043D4E904231A431043DA
:101CE00088602168E068086120680169228941EA0A
:101CF000024101612068C16821F08001C160206853
:101D00008068800607D4204600F0FEF818B12068ED
:101D100045626677C2E72068016C21F48021016486
:101D20002068016CA26911430164206845620120AA
:101D30006077002070BD0000BFFF8FFF006803497F
:101D4000884202D102490120086070470028004003
:101D50003C0E47422DE9F0470446007F0B46012820
:101D60001FD04FF0010984F81C9002206077DAB18F
:101D70009878D97840EA014558781978000240EA05
:101D8000413005432168CA204862216853204862D7
:101D9000204601F0F9FB0026FF274FF0040860BB46
:101DA0001AE00220BDE8F0875878C10603D500F09C
:101DB000EF000A305870D87801F0DBFB0204587845
:101DC00001F0D7FB42EA0022987801F0D2FB0243EF
:101DD000187842EA4035D5E70F480540206845604D
:101DE0002068C16821F08001C16020688068800699
:101DF0000AD4204600F088F830B12068476284F8A1
:101E00001D8026770120CDE72068476284F81D9069
:101E100026770020C6E700003FFFFF002DE9F047CE
:101E20000446007F0D46012827D04FF0010A84F8B0
:101E30001CA0022060772068002680684FEA40607E
:101E4000F2B1002800DBEE70A878297840EA01475B
:101E50006878E978000240EA014007432168CA2017
:101E60004862216853204862204601F08DFB4FF004
:101E7000FF084FF00409A0BB16E00220BDE8F08780
:101E8000002800DBEE70287801F073FB020468780C
:101E900001F06FFB42EA0022A87801F06AFB0243DE
:101EA000E87842EA0047D9E716480740206807600B
:101EB0002068816821F480218160D5E9030108430D
:101EC00021688A68104388602068C16821F0800119
:101ED000C1602068806880060BD4204600F014F8AA
:101EE00038B12168C1F8248084F81D90267701203C
:101EF000C4E72168C1F8248084F81DA0267700205B
:101F0000BCE700007F7F7F0070B504460068C168B1
:101F100021F0A001C160FFF779FA05464FF47A7607
:101F200007E000BFFFF772FA401BB04201D903205F
:101F300070BD2068C0688006F4D5002070BD10B563
:101F4000401EB0F1807F01D3012010BD4FF0E0248E
:101F500060610F21601702F0F4F90020A0610720F2
:101F60002061002010BDFEE730B5134C4B68002205
:101F7000A468124D04F00104AD6805F001052C437E
:101F80000F4DAD6805F001052C4302D0012210462B
:101F900030BD0C4D53B10C681C43D1E902310B43E9
:101FA00041681C4329400C434460F0E743680968DA
:101FB0002B400B434360EAE7002001400021014031
:101FC00000220140E010FCFF30B58368002213F0CE
:101FD000010F02D00122104630BD8C680B682343EC
:101FE0004468054D2C40234343608368496823F4CB
:101FF00000630B438360EEE7FFFEFFFC30B54B68E8
:102000008468002214F0010F02D00122104630BD76
:10201000002B436823F4684301D08C68234343605A
:10202000D1E9033423438468074D2C400D6805F043
:1020300070652C43234383604968C36A23F47003AB
:102040000B43C362E2E70000FDFCFFC0044908B592
:102050000A6802430A6009680140009108BD000057
:1020600030380240044908B50A6802430A6009682A
:102070000140009108BD000040380240044908B505
:102080000A6802430A6009680140009108BD000027
:1020900044380240034A1430515C0A5822F00402CA
:1020A0000A507047265F0008034A515C425822F0EC
:1020B00010024250704700009E600008034A515CC5
:1020C000425842F001024250704700009E600008F2
:1020D000034B595C435823F06063134343507047EC
:1020E000265F0008044B001D595C0B586FF30F036B
:1020F00013430B50704700009E600008034B595C6F
:10210000435823F0C003134343507047265F000831
:10211000034B595C435823F4806313434350704787
:10212000265F0008034B595C435823F4C043134314
:1021300043507047265F0008034B595C435823F413
:102140009073134343507047265F0008034B595C5C
:10215000435823F40073134343507047265F00082D
:10216000034B595C435823F4C05313434350704707
:10217000265F0008034B595C435823F44033134354
:1021800043507047265F000830B5264A0024057981
:102190000168131F85B371B345798DB1012D17D037
:1021A000022D18D0012483792BB31E4908310A1F50
:1021B000012B18D0022B20D0032B22D0012428E0A1
:1021C00015688D43156001681A680A431A60EAE7CA
:1021D0001D688D4301E01D680D431D600168136893
:1021E0000B431360DFE703680D689D430D600068D3
:1021F0001168014311600CE00DE0036815689D4310
:1022000002E0036815681D43156000680A68024310
:102210000A60204630BD1D688D431D60006811684E
:102220008143E7E7043C014003490968884301D042
:102230000020704701207047143C0140F0B50A6847
:102240000F2692FAA2F2B2FA82F303248AE001275F
:102250009F4015EA07027DD04D68012D01D0022D67
:102260001BD18D68876892FAA2FCBCFA8CFC4FEAFD
:102270004C0C04FA0CFC27EA0C0792FAA2FCBCFAFC
:102280008CFC4FEA4C0C05FA0CF52F438760CD68A7
:102290004768554397432F4347600F69D0F80CC0F8
:1022A00092FAA2F5B5FA85F54FEA450E04FA0EF555
:1022B0002CEA050C92FAA2F5B5FA85F56D00AF404F
:1022C0004CEA070CC0F80CC04D68022D33D192FACD
:1022D000A2F5B5FA85F5082D15D2D1F814C0056A16
:1022E00092FAA2F7B7FA87F7BF0006FA07F7BD43DD
:1022F00092FAA2F7B7FA87F7BF000CFA07FC45EA93
:102300000C05056217E0D1F814E0476A150A95FA42
:10231000A5FCBCFA8CFC4FEA8C0C06FA0CFC95FA76
:10232000A5F5B5FA85F5AD0027EA0C070EFA05FE0E
:1023300047EA0E0747624D68076892FAA2FCBCFAAA
:102340008CFC4FEA4C0C04FA0CFE27EA0E0792FABA
:10235000A2F200E005E0B2FA82F2520095402F436B
:1023600007605B1C0A681546DA407FF470AF0020F6
:10237000F0BD30B5036891FAA1F4B4FA84F46500B5
:102380000324AC4091FAA1F1B1FA81F14900A343D1
:102390008A401343036030BD30B5C36891FAA1F49D
:1023A000B4FA84F465000324AC4091FAA1F1B1FAC7
:1023B00081F14900A3438A401343C36030BD00004C
:1023C00030B5214C4568B1FBF4F425F03F052543B9
:1023D00045601E4DAA4207D94FF4967504FB05F4DB
:1023E0004FF47A75B4FBF5F4056A04F1010425F0A5
:1023F0003F0544EA0504046213D96BB102EBC20441
:1024000004EB0212B1FBF2F4240508D0B1FBF2F1A7
:10241000194341F400410FE002EB4202F2E70121CF
:10242000F6E75200B1FBF2F3C3F30B03042B01D226
:10243000042101E0B1FBF2F1C2694CF6FF739A434B
:102440000A43C26130BD000040420F00A086010077
:102450007FB5044600680D4620F001002060684604
:1024600000F02AF8D5E90301626A084322F01F024E
:1024700002436262D5E9012320460299FFF7A0FFDB
:10248000E9696869A26848F2FF339A430843024346
:10249000A2602868216821F01A01014321602068A8
:1024A00040F001002060A869216821F480610143A7
:1024B000216004B0002070BD10B5044601F00EF894
:1024C000206000F0E1FF606000F0ECFFA060606859
:1024D00000F0F6FFE06010BD0248006800F03F0029
:1024E00070470000043802400248006800F4800091
:1024F000704700000438024002480068C0F38810AA
:1025000070470000043802400248006800F0E040D4
:10251000704700000438024010B503680122C3F37D
:1025200080132BBBD1E900231A43D1E902342343A2
:102530001A430B691A434B691A438B691A43CB69D7
:102540001A430B6A1A4303684FF6BF74A3431A4336
:10255000026042684B6922F0040242EA1342426080
:102560000A6AB2F5005F02D1898C89B2016100224A
:10257000C16921F40061C161104610BD0A06930DC6
:10258000074A1A44D2F8083823EA1143090C91FA91
:10259000A1F1B1FA81F188400343C2F808387047CD
:1025A0000030014001490860704700001800002019
:1025B000F0B50268254B264D264E274F274C4FF08D
:1025C000804C984209D0604507D0A84205D0B0425F
:1025D00003D0B84201D0A04205D1D1F804E022F0E6
:1025E000700242EA0E0298421BD0604519D0A84200
:1025F00017D0B04215D0B84213D0A04211D0184D18
:10260000A8420ED0174DA8420BD0174DA84208D0B3
:10261000164DA84205D0164DA84202D0154DA8422D
:1026200003D1CD6822F440722A4302608A68C262F4
:102630000A888262984201D0A04201D1097C0163DC
:10264000416941F0010141610020F0BD00000140FD
:102650000004004000080040000C0040000401405D
:102660000040014000440140004801400018004083
:10267000001C004000200040012919D0042919D075
:10268000102919D0402919D0B1F5807F18D0B1F5A3
:10269000806F17D006210C4A1830525C1044026833
:1026A000094BDB1D5B5C042199408A430260704743
:1026B0000021F0E70121EEE70221ECE70321EAE740
:1026C0000421E8E70521E6E7185F0008F0B50126D8
:1026D00000236E4C6E4D012908D010293BD0B1F576
:1026E000807F73D0B1F5805F6ED1A6E0016A21F0E2
:1026F00001010162016A46688769D2F800C027F0CB
:10270000730747EA0C07D2F810C021F0020141EA32
:102710000C01D2F804C021F0010141EA0C01A042F1
:1027200001D0A84212D1546921F0080141EA840184
:10273000946821F0040141EA8401956926F48074CB
:102740002C43D56924F4007444EA45064660876149
:10275000D26842636FE0016A21F010010162066AEB
:1027600041688769D2F800C027F4E64747EA0C279A
:10277000D2F810C026F0200646EA0C16D2F804C0A3
:1027800026F0100646EA0C16A04201D0A84213D14A
:10279000556926F0800444EA8514956824F04004C5
:1027A00044EA8516946921F4806141EA8401D46980
:1027B00021F4006141EAC40141608761D16881630D
:1027C00061E003E000E01E463046F0BD016A21F4FE
:1027D00080710162016A4668C769D2F800C027F0BB
:1027E000730747EA0C07D2F810C021F4007141EAE0
:1027F0000C21D2F804C021F4807141EA0C21A042DE
:1028000001D0A84213D1546921F4006141EA842126
:10281000946821F4806141EA8421956926F480540A
:1028200044EA0514D56924F4005444EA4516466088
:10283000C761D268C2630162C5E7016A21F48051B1
:102840000162066A4168C769D2F800C027F4E6470A
:1028500047EA0C27D2F810C026F4005646EA0C3698
:10286000D2F804C026F4805646EA0C36A04201D0C5
:10287000A84204D1946921F4804141EA8411416065
:10288000C761D168016406629DE700000000014055
:10289000000401407FB50446C0680D460126C0F320
:1028A0004030C0BBE9686868AA69084329691143D8
:1028B0000843E16849F20C6291430843E060A8686C
:1028C000216921F44051014321616869616921F462
:1028D0004071014361616846FFF7EEFD0F48844295
:1028E00008D00F4884420DD00E4884420AD00E48CA
:1028F000844201D1039906E00C48844202D00C487E
:10290000844208D1029931B12B6823B100262046B8
:10291000AA6900F00FF804B0304670BD0010014005
:10292000004400400048004000140140004C0040BA
:10293000005000402DE9F04106461920A1FB00019E
:102940001F46002364243225B2F5004F27D0BB0F69
:10295000BA00FDF755FC0146B0FBF4F06FF0180229
:10296000504301EB800005EB0010B0FBF4F000F0E9
:10297000F002B1FBF4F002EB0012B1FBF4F06FF0E7
:102980001803584301EB800005EB0010B0FBF4F096
:1029900000F00F00104480B2B060BDE8F081FA1979
:1029A0005B41FDF72DFC0146B0FBF4F00201B1FBE9
:1029B000F4F06FF01803584301EB800005EBC00002
:1029C000B0FBF4F000F0F80002EB4002B1FBF4F0D1
:1029D000584301EB800005EBC000B0FBF4F000F0C1
:1029E0000700D7E730B593B000240F94109414215A
:1029F00068461194FDF7A3FC0B940C940D941821D8
:102A000005A80E94FDF79BFC4FF48070FFF736FB92
:102A10000120FFF71BFB012005900320069005A96C
:102A200009942648FFF70AFC254D0F9410940FA92E
:102A300028461194FFF7C8FA009401940294039475
:102A4000694628460494FFF7D9FAA86840F48060E4
:102A5000A8604FF48030CDE90B040BA91948FFF7AB
:102A600083FA4FF44072681592FAA2F20104B2FAA6
:102A700082F2D04005EB8000C26A22F01F02C262DF
:102A800091FAA1F0B0FA80F0C14005EB8100C16875
:102A90004FF0F87292FAA2F3B3FA83F324FA03F335
:102AA00007259D4092FAA2F2B2FA82F224FA02F2CB
:102AB000A94394402143C16013B030BD00000240DF
:102AC000002001400023014009480849016010210D
:102AD000416000218160C160016141610176417600
:102AE0008176C17601774177FEF7E8B9006400404E
:102AF000B00000202DE9F04F89B000240694182181
:102B000068460794FDF71BFC1020FFF79FFA04208E
:102B1000FFF79CFA8020FFF799FA0120FFF796FA59
:102B20000220FFF793FA0820FFF790FADFF82082DF
:102B300048F27D000204C8F81820DFF818924FF020
:102B400006524FF4065AC9F81820DFF80CB24FF0BD
:102B50007062CBF81820814E4FF00141B161804F77
:102B60004FF06071B96100900125CDE901540394E3
:102B7000694640460494FFF761FBCDF800A0CDE91B
:102B800001540394694648460494FFF757FB4FF0FD
:102B9000800ACDE900A4694630460494FFF74EFB55
:102BA0003020CDE90004694648460494FFF746FB0F
:102BB0000720CDE90004694638460494FFF73EFB40
:102BC0004FF4E340CDE90004694640460494FFF722
:102BD00035FB4FF470600090CDE9015403946946D1
:102BE00058460494FFF72AFB4FF401400090CDE9CA
:102BF00001540394694630460494FFF71FFB4FF4D9
:102C000060700090CDE901540394694638460494FD
:102C1000FFF714FB53490220FFF7B0FC4FF470217B
:102C20000320FFF7ABFC50490320FFF7A7FC4F49F7
:102C30000320FFF7A3FC4FF470010420FFF79EFC74
:102C400040208DF81C5006908DF81D408DF81E50C8
:102C500006A8FFF799FA8DF81C508DF81D40022642
:102C600006958DF81E6006A8FFF78EFA10208DF8E5
:102C70001C5006908DF81D408DF81E5006A8FFF7D9
:102C800083FA8DF81C508DF81D40CDF818A08DF8F2
:102C90001E6006A8FFF778FA8DF81C508DF81D40CD
:102CA00006968DF81E6006A8FFF76EFA00224021F6
:102CB0004846FFF771FB002201215846FFF76CFBE5
:102CC000002210215846FFF767FB0022802158465A
:102CD000FFF762FB002202214046FFF75DFB002266
:102CE00040214846FFF745FB002201215846FFF7E7
:102CF00040FB002210215846FFF73BFB00228021B9
:102D00005846FFF736FB002202214046FFF731FB11
:102D1000174C20680022C0F30220114600F034FA5C
:102D20000146062001F0FDFA062001F0EDFA2068C8
:102D30000022C0F30220012100F026FA01460720FC
:102D400001F0EFFA072001F0DFFA09B0BDE8F08FDB
:102D50000010024000080240000C02400000024047
:102D6000000402400100000F01000F00010000F00C
:102D70000CED00E02DE9F0418EB0202106A8FDF712
:102D8000DEFA18216846FDF7DAFA0220FFF75EF94D
:102D90000420FFF75BF901240427CDE904474FF431
:102DA000806802250326CDE90264CDE900856946E5
:102DB0001848FFF743FA2003CDE90005CDE9026486
:102DC000CDE9044769461448FFF738FAA005FFF734
:102DD00049F9124CE06820F00100E060206820F022
:102DE00040002060206820F08000206000200C4916
:102DF0000890CDE90601CDE90B0820140D9006A935
:102E00002046FFF725FBE06820F0FE00E0600EB0F2
:102E1000BDE8F08100040240000802400058004074
:102E2000A086010030B587B014216846FDF787FA07
:102E30001848002416490594C0E900147F218160D8
:102E4000FF21C0E9031444618461FEF721FF1520CE
:102E50008DF8000014258DF801508DF80240039480
:102E6000002269460B480494FEF7D8FF06208DF82F
:102E7000140011208DF815001C208DF816008DF817
:102E80001750002205A90348FEF764FF07B030BDC4
:102E9000002800402401002070B590B02821684629
:102EA000FDF74DFA18210AA8FDF749FA4FF48050B2
:102EB000FFF7E4F80220FFF7C9F838200A90022053
:102EC0000B9003200024CDE90C040520CDE90E4031
:102ED0000AA93C48FFF7B2F93B4E4FF0C0652A46BD
:102EE00003213046FFF7F4F8402203213046FFF774
:102EF00005F9002203213046FFF73CF900220321A7
:102F00003046FFF719F9002203213046FFF71EF97A
:102F1000002203213046FFF7FBF800220321304650
:102F2000FFF71EF9002203213046FFF7FBF80321CB
:102F30003046FFF7AFF82A4600213046FFF7C8F8C1
:102F4000002211463046FFF7D9F86A1200213046B8
:102F5000FFF710F9002211463046FFF7EDF8002286
:102F600011463046FFF7F2F8321500213046FFF7E0
:102F7000CFF8002211463046FFF7F2F80022114642
:102F80003046FFF7CFF800213046FFF783F84FF4C3
:102F90008270CDE9004001200294CDE90340400257
:102FA00005900820CDE906040A20CDE90840074C29
:102FB00069462046FFF7B0FA606820F010006060B4
:102FC00010B070BD000402400064024000300140B7
:102FD00010B590B028216846FDF7B1F918210AA86C
:102FE000FDF7ADF94FF48040FFF73CF80220FFF702
:102FF0002DF84FF460400A9002200B90032000242B
:10300000CDE90C040520CDE90E400AA90E48FFF7D2
:1030100015F94FF48270CDE9004001200294CDE90A
:1030200003404002CDE905040A20CDE90840079499
:10303000064C69462046FFF76FFA606820F01000E2
:10304000606010B010BD0000000402400038004075
:1030500070B594B014210EA8FDF771F920216846CF
:10306000FDF76DF9182108A8FDF769F90120FEF7B1
:10307000F9FF0024ADF83840601ECDE90F404FF055
:1030800080450EA928461194FFF792FA286820F08F
:103090008000286000940194029403946A46012100
:1030A00028460494FFF712FB01212846FFF7E4FAB3
:1030B000AE1401946A46314628460294FFF706FB97
:1030C00031462846FFF7D8FA686820F0700068603B
:1030D000A86820F08000A8600120FEF7B7FF282034
:1030E00008900220CDE909040120CDE90C4008A98F
:1030F0000B940248FFF7A2F814B070BD0000024024
:1031000010B58EB01C216846FDF719F9182107A8E3
:10311000FDF715F91020FEF7B1FF0120FEF796FF2D
:103120004FF4C06007900220089003200024CDE9EE
:1031300009040720CDE90B4007A91048FFF77EF8E6
:103140004FF4E130CDE900040C200294CDE90340B6
:10315000059406940A4C69462046FFF79BFB2069BC
:1031600020F490402061606920F02A006061E068EE
:1031700040F40050E0600EB010BD000000000240BE
:1031800000100140FEE7704730B500F00703C3F1BF
:103190000704042C00D90424181D072801D2002399
:1031A00000E0DB1E012505FA04F0401E08409840AF
:1031B0009D406D1E1540284330BD7047F0B54B6AE9
:1031C0004FF040652BB1AA4203D08B6A04685B1EA6
:1031D00023618C690B6A002C57D05BB304688B6841
:1031E000E361CC69B4B1D1E90B3633434F6A4E6B1E
:1031F0003E4333438E8A43EA86430E6933430E6A65
:103200003343CE68334323438C6924E00068496824
:103210008161F0BDD1E90B3423434D6A4C6B2C43E3
:1032200023438C8A43EA84430C6923430C6A234377
:103230008C6923E0CE69BEB1D1E90B373B43D1F8AD
:1032400024C04F6B47EA0C073B438F8A43EA87430E
:10325000CF683B43334323430C6823430468134341
:103260006361AA42D2D1F0BDD1E90B352B434E6A3E
:103270004D6B35432B438D8A43EA854309682343CD
:1032800000680B4313434361F0BD3BB304688B6894
:10329000E361CC6994B1D1E90B3633434F6A4E6B8D
:1032A0003E4333438E8A43EA86430E6933430E6AB4
:1032B0003343CE68334323438C69CEE7D1E90B34E3
:1032C00023434D6A4C6B2C4323438C8A43EA84434B
:1032D0000C6923430C6A89692343D1E7CC6964B143
:1032E000D1E90B3633434F6A4E6B3E4333438E8AEC
:1032F00043EA8643CE683343AFE74B6A002BC3D023
:10330000D1E90B452C434D6B898A1D432C43006842
:1033100044EA814111434161F0BD10B5806B002149
:103320008163C16290F84110082905D0012180F81D
:103330004110FEF7BCF910BD02680221D16001689E
:103340000A6842F400320A600068016841F0020134
:10335000016010BD10B5846BFDF7CDFE022810D0C2
:103360000020A063E062606C40F0040060642068AC
:10337000016821F0040101602046BDE81040FEF71D
:103380001BB910BD806B002181630068016841F4A6
:1033900000310160704710B5806BFEF741FB10BD36
:1033A000806B0021C1620068016841F40031016056
:1033B000704710B5806BFEF715FC10BD074A10B5BD
:1033C0001268491E1161014641F288320348FEF736
:1033D0003BFA002800D0012010BD0000D8000020DA
:1033E00010B58EB0002401904FF4805003900291EC
:1033F0008010CDE90640CDE9044200010D94CDE9ED
:1034000008030B940C9441F2883269460248FEF797
:103410000BF90EB010BD0000D8000020074A10B50F
:103420001268491E1161014641F288320348FEF7D5
:10343000F9FA002800D0012010BD0000D8000020BB
:103440002DE9F041984616460F460446069D08E0D1
:10345000681C06D0FDF7DAFFA0EB0800A8420AD8E6
:103460004DB120688068384000D00120B042EFD1D3
:103470000020BDE8F081042084F84100606C40F039
:10348000010060640120F4E704490968044A01F07E
:10349000F0010909515CC84070470000083802403B
:1034A0003260000804490968044A01F4E05102EB63
:1034B00091210978C84070470838024042600008EE
:1034C00004490968044A01F4604102EB513109786A
:1034D000C840704708380240426000080948006848
:1034E00010F00C0108480BD0042909D0082905D098
:1034F0000C2905D15FF00C0000F008B80820FBE7AC
:1035000070470000083802400024F40070B50546FA
:10351000FEF7EAFF104C082D0DD0FEF7DDFFB4FBDF
:10352000F0F4FEF7E9FF4443FEF7EEFF5FEA1070A8
:10353000B4FBF0F070BDFEF7CFFFB4FBF0F4FEF784
:10354000DBFF444305480068012100F4403001EBF3
:1035500010404000ECE700000024F4000438024072
:10356000010901EB810100F00F0000EB4100C0B246
:103570007047002102E00A38C0B2491C0A28FAD27A
:10358000090740EA1160704770B504460068C168D9
:10359000490614D44FF0FF31C160FDF737FF0546EF
:1035A0004FF47A7607E000BFFDF730FF401BB042D2
:1035B00001D9032070BD2068C0684006F4D5002002
:1035C00070BD000070B500241546282801D9FF29D8
:1035D0000BD0074951F82000D0F8021042781A7039
:1035E0002846FCF793FE204670BD0A24FBE7000046
:1035F000540400202DE9F047074642F6081000EB7E
:10360000471092468846054600F064FD064642F69D
:10361000080000EB4710044600F05CFD06EB0020BC
:1036200086B2300200EB47111831C1F30F20C9B246
:103630004FF080730022FFF7D3FE41462348FEF788
:1036400065F92549DFF88880224F2248DFF880C0DD
:10365000A8F154081F4B603F0968A8F10409B83865
:10366000614502D9D8F8002009E0994202D9D9F879
:10367000002004E0B94201D9426800E0026812F07B
:10368000006FEDD04FF00062614502D910484C3810
:1036900003E0994203D90E485038026004E0B94271
:1036A00001D9C26000E082600848FDF741FF06EBE7
:1036B0000A0086B2310A204600F02FFDF1B22846FA
:1036C00000F02BFD3046BDE8F0870000D800002058
:1036D00058640240B8600240D003002070470000E8
:1036E00030B5154987B0134848601448016841F067
:1036F000080101600068002500F0080005904FF403
:103700004870ADF80000681ECDE901500C4C6946C8
:1037100020460395FEF74CFFA06820F08000A060D3
:10372000074824300560206840F00100206007B0A1
:1037300030BD0000100500209800002040380240F5
:10374000000C004005490A68C2F340121AB14968EA
:103750000170002070474FF0FF30704700100140AB
:1037600003490A68C2F3C012002AFAD048607047C1
:1037700000100140FDF750BE10B5404C002061889C
:1037800000F040F9032804D0042806D002280BD00A
:1037900011E0608840F0020004E0608820F004003E
:1037A00040F00800608006E000210220FDF748F8A4
:1037B0000220FDF763F8A078800708D500F046FAEC
:1037C00028B9608820F0020040F004006080608822
:1037D00001070CD5C10707D02948FDF795FAFDF779
:1037E0004DF8608820F0010020F00800608081B270
:1037F000C8040AD5022000F0BDFA052805D160886A
:1038000020F4805040F010006080A078C00608D5F9
:1038100000F01AFB28B9608820F0100040F040004A
:1038200060806188480608D5022000F0A3FA0628C7
:1038300003D1608820F040006080618848050AD587
:10384000FF2000F03DFA012805D1608820F4806057
:1038500040F020006080618888060DD5012000F0CE
:1038600089FA062808D1608820F0200060800105D0
:1038700002D520F40060608010BD00000000002030
:1038800044010020444810B5016821F00F0141F0C7
:1038900005010160016801F00F010529FAD13F48D7
:1038A000016841F440410160016821F48031016008
:1038B0003B490A6842F480320A600A68C2F3404217
:1038C000002AFAD0026842F48072026034487030F4
:1038D000026842F0010202600268C2F34002002A5C
:1038E000FAD0026802F44072B2F5807F0DD002680F
:1038F00042F480320260026822F480320260026880
:1039000022F4407242F480720260026842F4004283
:1039100002602348234A001D0368234C23401A43B6
:103920000260026822F440320260026822F0E04243
:103930000260086840F0807008600868C0F340606A
:103940000028FAD016480830016821F0F001016023
:10395000016821F4E05141F4A0510160016821F4B3
:10396000604141F400410160016821F0030141F030
:1039700002010160016801F00C010829FAD10B482D
:10398000FEF710FE0020FDF769FD05488C30016848
:1039900021F08071016010BD003C024000700040C9
:1039A00000380240105040000080BFFF00688909C5
:1039B0001048016841F4700101600F48016841F04E
:1039C000010101600C4A00210832116002680B4BB2
:1039D0001A400260031D0A4A1A60026822F480221B
:1039E000026005480C3001600249580680390860C1
:1039F0007047000088ED00E000380240FFFFF6FE4F
:103A0000103000242DE9F04106464FF442700F4675
:103A100000EB461000F05EFB30B1132810D01728E1
:103A200013D01C283DD138E01F48002301218068B5
:103A300000EB06100288304602F054F9002430E012
:103A4000304600F077FF01242BE04FF4027000EBCA
:103A50004610054600F03EFBC00703D02846012172
:103A600000F05BFB304600F04DFE020004D00F4931
:103A70003046FDF715F80324780712D50B481030AF
:103A8000014642783046D21C01F02EF9FF22102167
:103A90000648FCF74DFC042403E0304600F0ECFD42
:103AA00002242046BDE8F081A00000203805002057
:103AB0002DE9F04104004FF0FF306FD0236802275A
:103AC00001264C494C4A4D4D062B67D2DFE803F0E6
:103AD0000305151E457C26605FE00878207111788B
:103AE00088425AD1FF206071A071E071207260722B
:103AF000A072A01DE06042A04CE048786071FF28F1
:103B00004BD042A000F0F0FB03201CE03948637961
:103B10008078032B19D0012B0AD0E0716079C01E88
:103B2000A071C8782072087960723248401D206107
:103B300030486179801C085C517888420BD135A0EF
:103B400000F0D2FB0420206027E0E071C8782072EA
:103B500008796072ECE731A008E02748E179052791
:103B6000806801290AD010291AD031A000F0BCFBCE
:103B7000FF2204211F48FCF7DBFBACE7267AD0F8D4
:103B800000C0617AE3682A1D3046E047A072E06811
:103B9000007815E000F0A8FB27600120BDE8F08167
:103BA000267AD0F804C0A379617A22693046E047CA
:103BB000A07238B9A279281D2169FCF7A7FBA0796A
:103BC000801C60711DA0E5E790782870A07A00B194
:103BD000677160796870A07AA870207AE870D178EF
:103BE00006486279801C115416A000F07DFB00206D
:103BF0002060D3E738050020780000204805002029
:103C0000533A4C454E4754480D0A0000533A434836
:103C10004B0D0A00533A494E530D0A00533A455290
:103C2000522D43544661696C65640D0A0000000022
:103C300057726F6E67494E530D0A0000533A525047
:103C4000590D0A00533A454E440D0A0010B5044878
:103C5000FFF72EFF002801D10249487110BD000076
:103C6000F404002078000020014800F003B80000B0
:103C7000F4040020002801D00022026070470000F8
:103C800070B50E4BFF21A3F11B04DA1F2361A0685E
:103C900005680020A847A06804F114052A1D0668DD
:103CA000FF2105202369B047A068AA1D2369066883
:103CB000FF21B446BDE8704001206047930000201A
:103CC0002DE9F0410646274C274D88054FF00008A6
:103CD00023D5FF2E1FD0254806EB0617006800EB02
:103CE00047001D30FCF7BCFC04EB47012879C87580
:103CF0001F480E7681F81980006810F8262000EB26
:103D000086008A764278CA7682780A77C0784877C1
:103D10000020BDE8F0810120FBE74805F9D5080542
:103D200001D4E86818B9FFF7ABFFC5F80C806869E3
:103D30002060E8682071010A6171010CA171010E17
:103D4000E171401CE860288B2081A87EA0720548A4
:103D50000B3000F091F80348FF2204211330FCF7E8
:103D6000E7FAD8E75805002078000020A0000020DE
:103D70009C000020F8B504464FF442700E4600EB5C
:103D8000441000F0A7F92D4D20B102281CD02228A4
:103D900052D109E0A868002300EB041002214288F8
:103DA000204601F09FFF47E0012C0DD1B0060BD556
:103DB000A86840F26B1200F11A03008B00902049B2
:103DC0002046FCF7E1FE0627F00426D5204600F049
:103DD00099FC02000AD0A8681A4900EB041303F109
:103DE0000800009020460A3300F074FE4FF4B855E6
:103DF000284600F06FF90146284600F08EF94FF48E
:103E0000027000EB4414204600F064F900F01F013A
:103E1000204600F082F905270EE070060CD5A86850
:103E2000084900EB0413062218890090103120463F
:103E30000A3300F0E7FF06273846F8BDA00000204F
:103E400058050020C3060020084909480A78027076
:103E50004A7842708A788270C978C17005490A78B8
:103E60000271497841710020704700000400002071
:103E7000D3060020C306002010B592B004460022ED
:103E800069461248FDF7D8FE002205A90F48FDF744
:103E9000B1FE9DF8170064300B909DF81500401E90
:103EA0000A909DF8160009909DF8000008380890C7
:103EB0009DF8010007909DF80200069006A8FCF707
:103EC000D1F9411C00D0206012B010BD24010020A7
:103ED000FEE7000010B58021002000F01EF90A2046
:103EE000FDF7AEF9174C04229001616800F028F943
:103EF000616804224FF4A060091D00F021F9616897
:103F000006224FF410600C3100F01AF961680422A7
:103F10004FF47060083100F013F907214FF4C850D6
:103F200000F0FBF8D021480100F0F7F808214FF429
:103F3000D85000F0F2F8BDE8104000214FF4B05026
:103F400000F0EBB8A000002070B500F02BF8124C88
:103F50004FF400452804A0613220FDF771F9A561F6
:103F60006420FDF76DF94FF43854204600F0B2F8A4
:103F7000C007FAD0FFF7AEFFFCF7D6FE002000F036
:103F80004FF8012000F04CF8022000F049F80449F5
:103F90000248086070BD0000000002405805002083
:103FA000A000002070B51C481C4C00F11301C02279
:103FB000C4E901010270A823437001218170C1701E
:103FC000FF250571457185710025C5710C260673A5
:103FD00029264673AB2686737C26C6730574417406
:103FE0000272437281720A25C572A06841F6593582
:103FF000652420F8105B6D1C20F80259027343738E
:104000008173C47345816D1C458202774377817744
:10401000C477458370BD0000E3060020A0000020A7
:1040200010B52B4C03281BD2DFE800F0021B340034
:10403000052141F2082000F070F8B42141F2083067
:1040400000F06BF8E02142F6084000F066F8A06846
:10405000002301210288184601F044FE0028F6D111
:1040600010BD052141F2282000F057F8B42141F29B
:10407000283000F052F8002142F6284000F04DF8B8
:10408000A06800230221028A012001F02BFE0128F2
:10409000F6D110BD052141F2482000F03EF8B421D0
:1040A00041F2483000F039F804214FF4C05000F0DC
:1040B00034F8E42142F6484000F02FF8A0680221CD
:1040C0000023028C084601F00DFE0228F6D110BD37
:1040D000A000002038B5C0F30F24C1B24FF08073A8
:1040E00000222046FFF77CF901216846FFF766F9B8
:1040F0009DF8000038BD70B50E461546C0F30F247C
:10410000C1B24FF0807300222046FFF769F92946BB
:104110003046BDE87040FFF751B938B5C0F30F2401
:104120008DF80010C0B240F004014FF080730022FF
:104130002046FFF755F901216846FFF76FF938BDB2
:1041400070B5C0F30F240E46C0B2154640F004010E
:104150004FF0807300222046FFF742F9294630468F
:10416000BDE87040FFF75AB970B54FF0E02506463C
:10417000AC69FDF739FD0849B0FBF1F17143203915
:104180008C4203DA68692044401A00E0601AA96989
:104190008142FCD270BD000040420F0070B5044661
:1041A00012481646282C50F824000278457801D988
:1041B000FF2906D03AB1032A05D0AB4205D002252B
:1041C00011E00A250FE001250DE00025D0F80200DE
:1041D0001A463146FCF79AF82046FF2C03D00449D2
:1041E000C96801B18847284670BD0000540400200A
:1041F000300000202DE9F047074642F2085000EB5E
:104200004710914688460546FFF764FF064642F28E
:10421000084000EB47100446FFF75CFF06EB002068
:1042200086B2300200EB47111031C1F30F20C9B242
:1042300041F004014FF080730022FFF7D1F82649C6
:1042400009F111000968086141462348FDF748FC5F
:104250002449DFF888A0224F2148DFF880C0AAF166
:10426000540A1F4B603F0968AAF10408B838614539
:1042700002D9DAF8002009E0994202D9D8F80020E2
:1042800004E0B94201D9426800E0026812F0006F10
:10429000EDD04FF00062614502D910484C3803E080
:1042A000994203D90D485038026004E0B94201D95F
:1042B000C26000E082600848FDF73AF906EB0900A9
:1042C00086B2310A2046FFF728FFF1B22846FFF7F1
:1042D00024FF3046BDE8F087D80000205864024033
:1042E000B8600240D00300200FB4054B10B503A9FD
:1042F000044A029800F044F810BC5DF814FB00007A
:10430000ED460008AC000020002809DB00F01F0289
:10431000012191404009800000F1E020C0F8001127
:1043200070470907090E002804DB00F1E02080F83F
:104330000014704700F00F0000F1E02080F8141D19
:1043400070470907090E002804DB00F1E02080F81F
:104350000014704700F00F0000F1E02080F8141DF9
:10436000704702E008C8121F08C1002AFAD170473E
:104370007047002001E001C1121F002AFBD17047E5
:104380002DE9FF4F8DB09B460F460446002606E000
:1043900025280BD05A460F999047641C761C20782C
:1043A0000028F5D111B03046BDE8F08F0025A846B1
:1043B0000122984900E0054314F8013F203B02FA2E
:1043C00003F00842F7D120782E2817D114F8010FF6
:1043D00045F004052A280ED06FF02F022078A0F1B6
:1043E000300109290AD808EB880102EB410100EBF2
:1043F0000108641CF2E757F8048B641C20786C28D1
:104400000DD004DC4C2812D06A2811D104E07428A5
:104410000DD07A280CD10AE045F4001507E0617848
:1044200045F48015814202D1641C05F58015641C99
:104430002078692844D008DC0028B3D0582867D0F9
:1044400063280FD0642808D13AE0702865D073281B
:1044500012D075285AD078285AD05A460F999047CA
:10446000761CD5E017F8040B8DF8000000208DF8BD
:104470000100E946012003E057F8049B4FF0FF30AC
:1044800069074FF0000501D40AE06D1C45450DDABF
:104490008542FADB19F805100029F6D106E06D1CFB
:1044A0008542FCDB19F805100029F8D12E4404E000
:1044B00019F8010B5A460F9990476D1EF8D2A7E0E4
:1044C0000A200021CDE90801C5F3025002280CD0D2
:1044D00001CFC117021E71F100020CDA0023D0EBEC
:1044E000030063EB01012D2208E0FF1D27F0070701
:1044F000F7E80201EEE72A0504D52B228DF82820E3
:1045000001223CE0EA073AD02022F7E70A2000E047
:1045100010200021CDE9080107E01020002145F01E
:104520000405CDE908014FF00808C5F30250022840
:1045300010D001CF00214FF0000A2A0720D52278A1
:10454000702A0DD0DDE908C38CF0100C5CEA030C76
:104550000CD015E0FF1D27F00707F7E80201EAE796
:1045600040228DF828204FF0010A0CE050EA0103A8
:1045700006D030238DF828308DF82920022292466B
:104580002278582A04D024A20DF120090B9209E0C8
:1045900026A2F9E7DDE90823FBF732FE0B9B9B5CC3
:1045A00009F8013D50EA0102F4D1ADEB09002030D9
:1045B0000890680701D44FF001080899884503DD89
:1045C0000898A8EB000000E000208046002506E0E7
:1045D0000AA85A46405D0F9990476D1C761C5545B8
:1045E000F6DB04E030205A460F999047761CB8F16C
:1045F0000001A8F10108F5DC05E019F8010B5A46A5
:104600000F999047761C0899481E08900029F4DC01
:10461000641CC4E6092801003031323334353637A2
:1046200038396162636465660000000030313233FE
:10463000343536373839414243444546000000009E
:104640003EB5074C2118CA784D790B798DE82C00BE
:104650008B784A78215C03A0FFF746FE3EBD000040
:10466000B40300202578202578202578202578207F
:1046700025782025780D0A0070B50446082802D94F
:104680004FF0FF3070BD4FF4847000EB44100546CE
:104690001021FFF742FD2846FFF71CFD0028FAD144
:1046A0004FF4027000EB44101F21FFF736FD0D4957
:1046B0000120A0404A8882434A808A8882438A80B7
:1046C0000949002021F814000649891D08554FF4B6
:1046D000427000EB44142046FFF7FCFC0028FAD19E
:1046E000012070BD1C0000204404002004490A6819
:1046F000C2F3C012002AFAD0C2B24A60704700006A
:10470000001001402DE9F04142F2086101EB401533
:1047100042F20871002601EB40142846FFF7DAFC4C
:1047200007462046FFF7D6FC00EB072007043F0CA6
:1047300009D02846FFF7CEFC06462046FFF7CAFC04
:1047400000EB062086B2BE42E7D13046BDE8F081DC
:104750002DE9F04142F2080101EB401542F2081147
:10476000002601EB40142846FFF7B4FC074620461C
:10477000FFF7B0FC00EB072007043F0C09D02846E8
:10478000FFF7A8FC06462046FFF7A4FC00EB062036
:1047900086B2BE42E7D13046BDE8F08170B5002157
:1047A0000846FBF715FF394C0146207038A0FFF78B
:1047B0009BFD01210020FBF70BFF2070014637A075
:1047C000FFF792FD02210020FBF702FF2070014657
:1047D00035A0FFF789FD03210020FBF7F9FE2070CB
:1047E000014634A0FFF780FD0025681DC1B20020FE
:1047F000FBF7EEFE20700246294631A0FFF774FD5C
:104800006D1CEDB2082DF0D30D210020FBF7E0FE6A
:10481000207001462DA0FFF767FD0E210020FBF759
:10482000D7FE207001462DA0FFF75EFD0F2100206E
:10483000FBF7CEFE207001462CA0FFF755FD10219E
:104840000020FBF7C5FE207001462CA0FFF74CFDB1
:1048500011210020FBF7BCFE207001462BA0FFF7C2
:1048600043FD15210020FBF7B3FE207001462BA06D
:10487000FFF73AFD17210020FBF7AAFE2070BDE8E4
:104880007040014628A0FFF72FBD00000000002067
:1048900044455649443D2523780D0A00434F4E4672
:1048A000313D2523780D0A00434F4E46323D2523E6
:1048B000780D0A00434F4E46333D2523780D0A00FC
:1048C000434825643D2523780D0A000042494153A1
:1048D00053454E53503D2523780D0A00424941531C
:1048E00053454E534E3D2523780D0A004C4F464606
:1048F00053454E53503D2523780D0A004C4F4646F4
:1049000053454E534E3D2523780D0A004C4F4646E5
:10491000464C49503D2523780D0A00004D4953432C
:10492000313D2523780D0A00434F4E46343D252363
:10493000780D0A0070B50446082802D94FF0FF3000
:1049400070BD60010830FFF7C5FB00F00F000128C3
:1049500002D06FF0040070BD4FF4427000EB4410C1
:104960000546FFF7B7FB132802D06FF0020070BDB9
:104970004FF4847000EB441006460221FFF7CDFB94
:104980003046FFF7A7FB0028FAD12846FFF7A2FB25
:10499000142805D02046FFF76FFE6FF0030070BDAE
:1049A000012070BDFCF740FDFEF76CFFFEF7A2F89A
:1049B0004FF480052846FDF749FBFEF713F8FEF794
:1049C00083F8FEF7D7F934493248102408600320F1
:1049D0004860092088600020C1E903044FF4407258
:1049E000C1E90520C86108620846FCF761FEFEF7D0
:1049F00053FAFEF7EDFAFEF72BFBFEF781FBFEF70D
:104A000011FA26498D61264A600290612020886152
:104A10008C61082088610420886123482149C0F8FE
:104A200064112249C0F8681100F06AFFFFF78CFAA0
:104A30001F48016841F0400101601E491C481E4AA0
:104A40000B780C309850C97888500020FBF784FD13
:104A5000E02203210020FBF799FE3220FCF7F0FB57
:104A6000962201210020FBF791FEC02202210020A6
:104A7000FBF78CFEFEF734FEFFF7F6F8FBF792FF2C
:104A80000E48FBF7AFFF084801F006F9FEF774FE89
:104A9000F9E70000001000A0D8000020001002403C
:104AA000000802404537000848020020613700082E
:104AB00000300140265F0008086402405D080008DD
:104AC00018B103498860002070470120704700003A
:104AD000780000202DE9FF4F002583B01F46904647
:104AE0000446082803D9681E07B0BDE8F08F6001AE
:104AF0004FF0010A0830FFF7EDFA834600F00F008F
:104B0000022806D0032804D0042802D06FF0040045
:104B1000EAE7B8F1000F05D0DFF8C49139F81400C6
:104B200018B11EE06FF00D00DEE74FF4427000EBAD
:104B300044160AFA04FA2046FFF7E4FD054630461B
:104B4000FFF7C8FA30B1674949881AEA010F06D061
:104B50001DB106E06FF00300C6E70020C4E7002D9A
:104B6000E9D00BF00701DFF87CA14FF484704FF01F
:104B7000800B0AF1060A00EB4416022922D0032911
:104B80007CD0042952D02946204601F074F929F836
:104B9000145030464021FFF7C0FA3046FFF79AFA2A
:104BA0000028FAD139F81410491B0904090C29F816
:104BB000141003D01AF8041041F001010AF804108F
:104BC000284691E739F814004D4670BB0822694623
:104BD000204601F015F930464021FFF79EFA304695
:104BE000FFF778FA0028FAD19DF8000038709DF898
:104BF000010078709DF80200B8709DF80300F8700D
:104C000010999DF8040008809DF8051001EB002024
:104C1000109908809DF806009DF807105BE02A4671
:104C20002046049901F0ECF8B3E72AE039F81400C3
:104C30004D4630BB02226946204601F0E1F830467D
:104C40004021FFF76AFA3046FFF744FA0028FAD10C
:104C50009DF800009DF801106FF0010202EB0020AA
:104C6000084480B240F2EA5125F81400884206D97F
:104C70002046FFF701FD6FF47A7035E702E00AF88D
:104C800004B003E039F814004D4630B135F8145043
:104C900040464545C3D90546C1E706226946204638
:104CA00001F0AEF830464021FFF737FA3046FFF703
:104CB00011FA0028FAD19DF8000038709DF8010023
:104CC00078709DF80200B8709DF80300F8709DF8A8
:104CD00004009DF8051001EB002025F81400CEE734
:104CE000440400201C0000202DE9F05F15468B468F
:104CF0000646082803D94FF0FF30BDE8F09F700149
:104D000001240830FFF7E6F900F00F00012801D078
:104D1000A01FF2E775B14FF4427000EB4610074652
:104D2000FFF7D8F96FF0060A172806D01C2804D020
:104D30005046E2E76FF00D00DFE7DFF8C480B440D3
:104D4000B8F80400044213D04FF4027000EB461090
:104D50008146FFF7BFF900F01F00C10624D5484681
:104D60001021FFF7DAF9B8F80410A143A8F80410ED
:104D700041F6087000EB4610FFF7ACF94FF6FF71F3
:104D800001EA8020854200D905463046FFF7E0FC65
:104D900081463846FFF79EF917280DD01C280BD006
:104DA0003046FFF769FCC3E700070BD53046FFF735
:104DB00063FC6FF00C00A0E7B8F80200044203D0D7
:104DC0004D4501D9002098E74D45DED82A46594681
:104DD000304601F071F84FF4847000EB461006463F
:104DE0002021FFF79AF93046FFF774F90028FAD12D
:104DF000B8F8041028460C43A8F804407DE70000EA
:104E00001C0000202DE9F0471E46DDF820801546E5
:104E10008A460446082803D94FF0FF30BDE8F087E2
:104E2000670108374FF001093846FFF753F900F0E2
:104E30000F00022806D0032804D0042802D06FF007
:104E40000400EBE75DB13078717801EB0020B178B8
:104E500001EB0020F17811EB002003D00AE06FF0A5
:104E60000D00DBE73846FFF735F9400702D46FF055
:104E70000B00D3E7B8F1000F07D13846FFF72AF946
:104E8000400702D46FF00A00C8E74FF4427000EB0D
:104E900044100746FFF71EF9422806D0222804D006
:104EA000322802D06FF00600B8E740F6084000EB69
:104EB000441004223146FFF743F941F208004FEA5B
:104EC000182100EB4410FFF728F941F2081008F010
:104ED000FF0100EB4410FFF720F941F6087000EBEA
:104EE0004410FFF7F7F84FF6FF7101EA8020854282
:104EF00000D90546DFF8888009FA04F62046FFF756
:104F000027FC81463846FFF7E5F838B1B8F80200CB
:104F1000064206D04D4504D900207FE76FF003001C
:104F20007CE74D45EAD82A465146204600F0C4FFAA
:104F30004FF4847000EB441006462021FFF7EDF893
:104F40004FF4027000EB44143046FFF7C3F800281A
:104F5000FAD12046FFF7BEF800F01F00C10605D5C4
:104F600020461021FFF7D9F8284657E70007F0D56B
:104F700020460821FFF7D1F86FF00C004EE7000043
:104F80001C00002070B5044690F86201002501283D
:104F900029D0022826D1412906D0422906D043290A
:104FA00009D044291CD112E0002100E00121204653
:104FB00000F058FC14E0208FE18E884210D2211DB1
:104FC000415C204600F0B2F8208F401C07E0208FA3
:104FD00030B10821204600F0A9F8208F401E20871C
:104FE00084F8625170BD5B29FAD1022084F8620115
:104FF00070BD70B50446C08E00284BD0228F0023B0
:10500000211D82420BD1401E80B2E086521E2287B3
:1050100043542046BDE87040012100F065B8002AE5
:1050200038D0002006E02244051D565DC51C401CFA
:10503000565500B2E58E228FAD1A8542F3DCE08E24
:10504000401E80B2E086228F521E228743540821E0
:10505000204600F06BF8B4F9385006E06019017989
:10506000204600F063F86D1C2DB2E08EA842F5DCFE
:105070002021204600F05AF8E08E218F401A401C73
:1050800005B205E00821204600F050F86D1E2DB253
:10509000002DF7DC70BD000010B500F03BFB0028D0
:1050A00004D0BDE8104002A100F02CB810BD0000F3
:1050B0001B5B324A1B5B31480000000070B505469F
:1050C000C08E298F401A04B205E02021284600F046
:1050D0002DF8641E24B2002CF7DCE98E2846BDE8CA
:1050E000704000F001B8000070B50C46054603E0C2
:1050F00003A1284600F006F8641EA4B2F8D270BDE1
:105100000820080070B50646D0F8680100240D4656
:1051100000280AD005E0D6F868116D1C8847641C89
:10512000A4B228780028F6D1204670BDD0F86821B6
:10513000002A01D0084610477047000070B50646A7
:10514000D0F85C0100EB011530462968FFF7DAFF63
:10515000C0F116000404240C00D104240AA1304636
:10516000FFF7D0FF641E2404240CF7D107A13046BA
:10517000FFF7C8FF3046A968FFF7C4FF3046BDE817
:10518000704003A1FFF7BEBF200000002D2D0000DE
:105190000D0A00002DE9FE430C4625A2804607CAF1
:1051A0008DE8070025460A2724A14046FFF7AAFFFD
:1051B0006E46002C04DA24A14046FFF7A3FF6D429F
:1051C0000A2055B1B5FBF0F100FB1151B5FBF0F52C
:1051D0007F1EFFB23031F155F3E7F0194CB10021D9
:1051E000411A4046FFF78EFF082100208DF8080085
:1051F0000DE00121F4E700BF04F00F00092801D9F8
:10520000573000E03030491EC9B224097054002CD8
:10521000F2D10EA14046FFF775FF69464046FFF701
:1052200071FF0CA14046FFF76DFFBDE8FE83000053
:1052300030303030303030303030000052657475EE
:10524000726E3A20000000002D0000002C20307803
:10525000000000000D0A00002DE9F84F044600256B
:10526000C08EA8464FF001092F4600287ED0221D8F
:10527000411C0026E1868654B4F9580100EBC001B8
:1052800001EB001004EB400011462A30FBF762F8F6
:1052900020B3B4F9580100EBC00101EB001104EB9D
:1052A0004100211D5C3000F077FC20B1B4F85801BA
:1052B000401CA4F85801B4F85601401C81B2A4F86F
:1052C0005611052902D90521A4F85611B4F958013F
:1052D000052801DBA4F85861A4F85A6100202EE0EB
:1052E000B8F1000F07D121180979202921D0092907
:1052F0001FD02C291DD021180A79D2B1222A04D11D
:10530000B8F1000F05D000229046B9F1010F02D08C
:1053100009E00122F8E70A1D04EB85036D1CEDB2DC
:105320004FF00009DA6309795C2906D1401C80B28C
:1053300003E021184FF001090E71401C80B2E18E8C
:105340008142CDD8E686B04626877DB122A120468F
:10535000FFF7D8FE21A1D4F85CA1E06BFAF7FAFFC1
:1053600001004FF0010B04F13C0900E02EE001D0F8
:10537000002622E084F863B14946284600F0FEF991
:1053800084F8638122E000BF0AEB061000900168F8
:10539000E06BFAF7DFFF70B984F863B1009801277A
:1053A0004A464068294600F005F9014684F86381C1
:1053B0002046FFF7EFFE761CF6B2B4F86001B0426B
:1053C000E2D81FB907A12046FFF79CFE20462168BE
:1053D000BDE8F84FFFF796BE0D0A000068656C70D7
:1053E00000000000436F6D6D616E64206E6F74206D
:1053F000666F756E640D0A00411C00200A785C2AF5
:1054000001D01046704749786E290FD004DC30294E
:10541000F8D0622904D105E0722905D0742907D09B
:1054200008467047082070470D2070470A207047D3
:1054300009207047F0B50746002539780A26012370
:1054400028462C462D2908D00021CA19002192F89F
:1054500000C0BCF1300F04D01EE04FF0FF3301213B
:10546000F3E75178782907D0582905D0622905D06B
:10547000422903D002210FE003210DE001210BE0BE
:1054800092F800C0BCF12E0F06D192F801C0BCF119
:10549000000F01D0042111E012F801CBBCF1000F84
:1054A000EED1012908D0022903D0032906D1102604
:1054B00003E00826012501E0022602253D445A1C8E
:1054C00002D0002215441FE00122FBE72E2A05D05E
:1054D000A2F13007092F03D8FAB20FE0012412E03D
:1054E000A2F16107052F01D8573A04E0A2F1410764
:1054F000052F02D8373AD2B200E0002200FB062086
:1055000004EB840254006D1C2A78002ADED10429A1
:1055100013D194B100EE100AB8EE401A00EE104A12
:10552000B8EE400AC1EE000A00EE103AB8EEC00A2A
:1055300020EE800A10EE100AF0BD5843F0BD0000C6
:105540002DE9F041017827290AD02D2904D000BF88
:10555000A1F13002092A0AD8BDE8F041FFF76ABF7D
:105560004278002AF4D0BDE8F041FFF745BFF9B119
:10557000002605460446374622290AD16C1C2546DA
:1055800007E05C280CD0222810D0A855761CB6B2B3
:10559000641C20780028F4D1AF552846BDE8F0817E
:1055A000601EFFF729FFA855641CEFE7AF55EDE734
:1055B0000020F3E72DE9FE4F1446054609297DD268
:1055C000DFE801F0A4050A121F314862820003B02F
:1055D000AC46BDE8F04F60475068FFF7B1FF03B03D
:1055E000AC46BDE8F04F6047A068FFF7A9FF06464C
:1055F0006068FFF7A5FF03B03146AC46BDE8F04F49
:105600006047E068FFF79CFF0746A068FFF798FF38
:1056100006466068FFF794FF03B03A463146AC4651
:10562000BDE8F04F60472069FFF78AFF0746E06852
:10563000FFF786FF8046A068FFF782FF0646606896
:10564000FFF77EFF03B03B4642463146AC46BDE81D
:10565000F04F60476069FFF773FF07462069FFF767
:105660006FFF0646E068FFF76BFF8146A068FFF713
:1056700067FF80466068FFF763FF33464A4641464E
:105680000097A847BDE8FE8FA069FFF759FF824643
:105690006069FFF755FF81462069FFF751FF074614
:1056A000E068FFF74DFF0646A068FFF749FF804618
:1056B0006068FFF745FF3B46324600E026E0CDE953
:1056C000009A4146A847DDE7E069FFF739FF8346C6
:1056D000A069FFF735FF82466069FFF731FF814619
:1056E0002069FFF72DFF8046E068FFF729FF074696
:1056F000A068FFF725FF06466068FFF721FF8DE8E9
:10570000000E43463A463146A847BBE74FF0FF300C
:10571000B8E700000849002051F820201AB192F89B
:105720006321012A05D0401C00B20528F4DB0020CB
:10573000704751F8200070473004002090F8622133
:105740000AB1FFF71FBC0D290DD006DC08290CD0CB
:1057500009290CD00A2904D105E01B2909D07F2989
:1057600003D000F0A1B9FFF777BDFFF742BC00F00E
:105770001FBA012180F86211704700002DE9F04145
:105780000F460346FFF7C6FF050016D0012B05D0D4
:10579000022B12D10024D5F85C611AE021A1FFF799
:1057A000B1FC002405E021462846FFF7C7FC641C35
:1057B000A4B2B5F86001A042F5D8BDE8F08100BF01
:1057C00006EB041001687868FAF7C4FD38B1641C70
:1057D000E4B2B5F86001A042F2D817A11CE01BA109
:1057E0002846FFF78FFC06EB041428462168FFF7D4
:1057F00089FC1AA12846FFF785FC2846A168FFF717
:1058000081FC17A12846FFF77DFCE1680029D4D070
:105810002846FFF777FC12A12846BDE8F041FFF7C4
:1058200071BC00000D0A434F4D4D414E44204C4980
:1058300053543A0D0A0D0A00636F6D6D616E64205A
:105840006E6F7420666F756E640D0A00636F6D6D08
:10585000616E642068656C70202D2D003A0D0A0081
:105860000D0A000070B50446002561B1012909D177
:10587000B4F85A01401C00B2A4F85A01002819DDFE
:10588000A4F85A5170BDB4F95A21501EA4F85A0117
:10589000B4F85611B4F95801814201DD0B4600E01D
:1058A00003465B429A4205DC814200DD08464042E5
:1058B000A4F85A012046FFF701FCB4F95A01E0B1FF
:1058C000B4F9581108440521401D90FBF1F201FB89
:1058D000120000EBC00101EB001004EB4001201DA1
:1058E0005C3100F059F9E0860028CBD02087211DDB
:1058F0002046BDE87040FFF705BCE586258770BDF2
:1059000010B504461FA1FFF7FDFB20A12046FFF7BD
:10591000F9FB2EA12046FFF7F5FB3CA12046FFF73F
:10592000F1FB4AA12046FFF7EDFB18A12046FFF747
:10593000E9FB0020E0862087A4F85601A4F858016E
:10594000A4F85A0184F8620150A12160534984F8F7
:10595000630100BF51F8202082B1401C00B205282D
:10596000F8DB20462168FFF7CDFB4D484D49C4F8D0
:105970005C01081A0009A4F8600110BD41F820403C
:10598000EFE700000D0A0D0A000000002B3D3D3D31
:105990003D3D3D3D3D3D3D3D3D3D3D3D3D3D3D3D37
:1059A0003D3D3D3D3D3D3D3D3D3D3D3D3D3D3D3D27
:1059B0003D3D3D3D3D3D3D3D3D3D3D3D3D3D3D3D17
:1059C0003D3D3D3D3D3D2B0D0A0000007C2020204B
:1059D0002020202020202020202020202028432993
:1059E00020434F50595249474854203230313820D3
:1059F0004C657474657220202020202020202020F7
:105A00002020202020207C0D0A0000007C20202067
:105A10002020202020202020202020202020202086
:105A20004C6574746572207368656C6C2076322ED8
:105A3000302E322020202020202020202020202036
:105A40002020202020207C0D0A0000007C20202027
:105A50002020202020202020202020204275696C3A
:105A6000643A204E6F76203330203230323020328C
:105A7000333A33323A333320202020202020202094
:105A80002020202020207C0D0A0000000D0A4D69F6
:105A900063726F4545473E3E000000003004002021
:105AA00040610008D061000870B50446C08E3128FE
:105AB00041D2238F221D98420AD1431CE386815490
:105AC000208F401C20872046BDE87040FFF72EBB8A
:105AD000C01A06E0238FC51C23445E5D051D401ED1
