:020000040800F2
:10000000080A0020D9010008132C00083117000845
:10001000112C0008F1060008353600080000000029
:10002000000000000000000000000000E1300008B7
:100030009D08000800000000152C0008153100087C
:10004000F3010008F3010008F3010008F3010008C0
:10005000F3010008F3010008F3010008F3010008B0
:10006000F3010008F3010008F3010008F3010008A0
:10007000F3010008F3010008F3010008F301000890
:10008000F3010008F3010008F3010008F301000880
:10009000F3010008F3010008F30100085909000802
:1000A000F3010008F3010008F3010008F301000860
:1000B000F3010008F3010008F3010008F301000850
:1000C000F3010008F3010008F3010008F301000840
:1000D000F3010008F3010008F3010008F301000830
:1000E000F3010008F3010008F3010008F301000820
:1000F000F3010008F3010008F3010008F301000810
:10010000F3010008F3010008F3010008F3010008FF
:10011000F3010008F3010008F3010008F3010008EF
:10012000F3010008F3010008F3010008F3010008DF
:10013000F30100080000000000000000F3010008C7
:10014000F3010008F3010008F3010008F3010008BF
:10015000F3010008F3010008F3010008F3010008AF
:10016000F3010008F3010008F3010008F30100089F
:10017000F3010008F3010008F3010008000000008B
:1001800000000000F3010008000000000000000073
:10019000F30100080000000000000000F301000867
:1001A000000000000000000000000000F301000853
:1001B000F3010008F3010008F3010008F30100084F
:1001C000F3010008DFF80CD000F09AF8004800476F
:1001D0008D400008080A002006488047064800476E
:1001E000FEE7FEE7FEE7FEE7FEE7FEE7FEE7FEE7E7
:1001F000FEE7FEE7D5320008C50100082DE9F05FF3
:100200000546002092469B46884606468146402485
:100210001BE0284641464746224600F061F8534617
:100220005A46C01A914110D311461846224600F092
:1002300048F82D1A67EB01084F462246012000219D
:1002400000F03FF817EB00094E41201EA4F1010415
:10025000DFDC484631462A464346BDE8F09F40EA87
:1002600001039B0703D009E008C9121F08C0042A34
:10027000FAD203E011F8013B00F8013B521EF9D21B
:100280007047D2B201E000F8012B491EFBD2704743
:100290000022F6E710B513460A4604461946FFF752
:1002A000F0FF204610BD10B5002200E0521C835C18
:1002B0008C5CA34201D1002BF8D1D8B2E1B2401A34
:1002C00010BD202A04DB203A00FA02F1002070471A
:1002D0009140C2F1200320FA03F319439040704784
:1002E000202A04DB203A21FA02F00021704721FA8B
:1002F00002F3D040C2F120029140084319467047F2
:10030000064C074D06E0E06840F0010394E8070062
:1003100098471034AC42F6D3FFF758FFF454000866
:100320001455000810B5044600F022F92146BDE836
:10033000104001A003F068BB436F6D6D616E6420D7
:1003400025782053454E44210D0A0000064810B57B
:10035000016841F080010160102000F009F9BDE85A
:10036000104002A003F050BB003C01405374617286
:100370007420416371756973696F6E210D0A000005
:100380000348016821F08001016002A003F03CBB3A
:10039000003C014053746F7020416371756973694B
:1003A0006F6E210D0A0000000A4610B501460020BC
:1003B00000F004F9BDE8104001A003F025BB0000E7
:1003C00031323939277320526567206861732062A2
:1003D00065656E207772697474656E210D0A000080
:1003E0000449012088610449400288614FF47A6021
:1003F00003F044BA001002400004024070B52031FE
:10040000C8B272B61D4D4FF40001A9611C4CE168E1
:10041000A168C1F340010029FAD0E060A06810F0A3
:10042000010FFBD0E068042003F028FAA068C0F3B5
:1004300040000028FAD00026E660A06810F0010F06
:10044000FBD0E068042003F019FAA068C0F3400074
:100450000028FAD0E660A06810F0010FFBD0A06879
:10046000C0F3C0100028FAD1E068C4B2022003F043
:1004700005FA8020A86162B6204670BD00040240E3
:100480000030014010B5104904464FF40000886167
:10049000022003F0F3F91B21204600F01BF80B4962
:1004A0000868C0F340100028FAD00948426822F0DA
:1004B00002024260426822F0010242604FF0006096
:1004C00088602020886010BD000402400064024063
:1004D000003001402DE9F041174F044688460A4696
:1004E0000021384601F0E8F9144E134D30780C35F0
:1004F00044510021384601F0CBF90021384601F083
:10050000BDF90F4C606840F0010060604246032175
:10051000384601F0D1F9F1780A48485103213846AC
:1005200001F0B6F90321384601F0A8F9606840F0FF
:1005300002006060BDE8F08100640240AE54000833
:10054000003001402300002070B5084C4FF40075C6
:100550002804A061282003F091F9A5618020A06102
:10056000BDE87040282003F089B900000004024073
:1005700070B5054672B60F4C4FF40000A061022022
:1005800003F07CF90C498868C0F340000028FAD0D9
:10059000CD60886810F0010FFBD0C868022003F01E
:1005A0006DF98020A06162B60220BDE8704003F0C2
:1005B00065B90000000402400030014070B54031D0
:1005C0001646C8B272B61C4D4FF40001A9611B4C0F
:1005D000A168C1F340010029FAD0E060A06810F0E2
:1005E000010FFBD0E068042003F048F9A068C0F3D5
:1005F00040000028FAD00020E060A06810F0010F51
:10060000FBD0E068042003F039F9A068C0F3400093
:100610000028FAD0E660A06810F0010FFBD0A068B7
:10062000C0F3C0100028FAD1022003F027F980207F
:10063000A86162B670BD00000004024000300140B5
:10064000002210B902480078087010467047000078
:100650002400002010B50146044800F0ADF904481C
:10066000017841F00101017010BD0000500200202E
:100670000000002010B5002808D12146FFF7E0FF58
:100680002078012803D00A20FFF772FF10BD102048
:10069000FFF76EFF0820F7E710B50D4803F080FD67
:1006A0000B490C480C3948600B480160491C4160FB
:1006B000491C81600749891FC160091F0161044904
:1006C0000939416103490E398161891CC16110BD3D
:1006D00030000020C4540008D803002018B103499A
:1006E000886000207047FF20704700002400002031
:1006F000FEE7000001681823CAB2103AB2FBF3F219
:10070000054B6FF30901032A9B5CC36500D9091DE2
:1007100081650846704700003A54000810B501464C
:1007200000208B698A6A4FF0C07453B1B3F5005F43
:1007300015D072B1012A0CD0022A0AD0032A09D19D
:1007400004E01AB1012A06D0022A03D1C96AC901FC
:1007500000D5012010BDC96AA142FAD010BD002AFF
:10076000F7D0012AF2D0022AF3D0032AF3D010BD29
:1007700030B50468256825F4802525600468636029
:100780008368402B036803D099600068C26030BD65
:100790009A600068C16030BD2DE9F74F14460546E8
:1007A0004FF6FF77082802D93846BDE8FE8F68016A
:1007B0000126083003F01AF800F00F00012802D0DB
:1007C0004FF6FB70F1E714B341F6086000EB4510FB
:1007D00003F00CF807EA8020A04200D204464FF450
:1007E000427000EB451841F60870DFF890A000EB6E
:1007F000451B06FA05F9284603F0F8FA0646404676
:1008000002F0F4FF172816D01C2803D00DE04FF695
:10081000F270CAE7CEB9284603F00EFB07465846E9
:1008200002F0E4FFB7EB802F05D1284603F098FAD9
:100830004FF6F970B9E7BAF8021019EA010F02D0C1
:100840001EB90020B1E7002ED5D0A64200D2344612
:1008500022462846019902F0CFFB06464FF48470E9
:1008600000EB45100446402102F0E3FF204602F071
:10087000BDFF0028FAD1304697E7000014000020A1
:1008800090F8001190F80121914201D1FF207047AA
:10089000425C491C80F80011104670477047000008
:1008A000F8B52C4804224068017A491C8DF80010E4
:1008B000417A491C8DF80110817A491C8DF802108B
:1008C000C07A6946401C8DF8030040F6084002F0EB
:1008D000C1FF0121082002F0ACFF01214FF4C050FC
:1008E00002F0A7FF4FF484760121304602F0A1FF09
:1008F000052000F045FA4FF4427002F077FF13280C
:1009000004D01021304602F094FF16E00421304656
:1009100002F08FFF4FF402754FF4C167284602F0D2
:1009200065FF10F01F0403D02146284602F081FF26
:10093000052000F025FA200701D5FF20F8BD384634
:1009400002F054FFFF28E9D01021304602F071FF79
:100950000020F8BD4400002070B5402001F04EF8A2
:10096000114D08B140202860802001F047F80F4C5D
:1009700070B1802028600E49207800EBC000096823
:1009800000EB40000844FFF77DFD2078401C2070FC
:1009900020780A2806D10748017841F0100101703B
:1009A0000020207070BD0000143C014002000020B7
:1009B000440000200000002010B590F8012190F8BC
:1009C0000041531CA34205D0815490F80111491CE9
:1009D00080F8011110BD70470248016802A003F0C1
:1009E00013B80000240C0040434E543D25640D0A0A
:1009F0000000000070B5040003D094F8200010B18E
:100A000004E0012070BD204600F082F820680168F3
:100A100021F00201016000F097FA0546052604E086
:100A200000F092FA401B0A2811D82068406880071D
:100A3000F6D42068016841F00101016000F084FAF9
:100A400005460BE000F080FA401B0A2806D9606AD0
:100A500040F40030606284F82060D2E7206840688B
:100A6000C007EFD0207E0128206801683DD021F02A
:100A700080010160607E01282068016838D021F083
:100A800040010160A07E01282068016833D021F078
:100A900020010160E07E0128206801682ED041F02D
:100AA00010010160207F01282068016829D021F011
:100AB00008010160607F01282068016824D021F0CE
:100AC00004010160D4E902010843D4E9041211438E
:100AD00008436168491E08432168C86100206062BC
:100AE000012084F82000002070BD41F08001C0E7A3
:100AF00041F04001C5E741F02001CAE721F01001B3
:100B0000CFE741F00801D4E741F00401D9E7000044
:100B100010B586B0044614216846FFF7B9FB1449A6
:100B20002068884221D113480021026842F00072F7
:100B30000260006800F0007005900E4810380268EE
:100B400042F001020260006800F0010005904FF4DD
:100B5000C05000900220CDE901010320039009203C
:100B600004906946044800F01DF906B010BD00006D
:100B70000064004040380240000002402DE9F0418E
:100B80000446876D00F0E0F9064694F8350000252C
:100B9000022806D08020606584F834500120BDE82A
:100BA000F0812068016821F0160101602068416928
:100BB00021F080014161206C08B9A06C20B120684F
:100BC000016821F0080101602068016821F001013D
:100BD00001600BE000F0B8F9801B052806D9202041
:100BE000606504F8345F03206070D8E7206800680F
:100BF000C007EFD194F85C103F208840B86004F83B
:100C0000345F012060700020C9E790F83510022998
:100C100003D08021416501207047052180F83510FF
:100C20000068016821F00101016000207047406DFB
:100C3000704700002DE9F041044600F085F90646B2
:100C40005CB1002584F83450022084F83500206817
:100C5000016821F0010101600DE00120BDE8F08193
:100C600000F072F9801B052805D92020606503205B
:100C700084F83500F2E720680068C007F0D12268E8
:100C8000116820480140D4E901031843D4E9033630
:100C90003343184363691843A3691843E36918434E
:100CA000236A18430843616A042903D1D4E90B136A
:100CB00019430843106020684069666A20F0070104
:100CC00030460E43012704280CD1A06A0643E06A8F
:100CD00040B12046FFF722FD20B14020606584F836
:100CE0003570BAE7206846612046FFF703FD94F8A7
:100CF0005C203F2191408160656584F8357000205B
:100D0000ACE700003F8010F02DE9F0410446866D0D
:100D100090F83400002501280DD0012084F834001B
:100D200094F835700020012F07D084F83400022594
:100D30002846BDE8F0810220FBE7022784F83570E1
:100D400060652046FFF714FD94F85C103F20884052
:100D5000B0602068016841F01601016020684169B7
:100D600041F080014161206C20B12068016841F0B0
:100D7000080101602068016841F001010160D7E7C6
:100D800070B5044600F0E0F80546601C02D0044847
:100D90000078044400F0D8F8401BA042FAD370BD9C
:100DA000040000202DE9F84FDFF874B100224FF065
:100DB00001084FF0030A4FF00F090BF1040E00BFBA
:100DC0000B6808FA02F42340A3426ED14D68022D4D
:100DD00001D0122D0ED1D50800EB850CDCF8205087
:100DE0005607F70E09FA07F6B5430E69BE402E43C3
:100DF000CCF82060066855000F790AFA05FC07F068
:100E0000030726EA0C06AF40374307604E68012E01
:100E100005D0022E03D0112E01D0122E0ED18668DD
:100E2000CF6826EA0C06AF40374387604668A64382
:100E30000C79C4F30014944034434460C4688E6851
:100E400024EA0C04AE402643C6604C68E40060D53A
:100E5000344C256845F480452560246822F003055C
:100E600004F480440094304C2E19D6F808489507B5
:100E70002F0F09FA07F5AC432C4DA84201D10025EC
:100E80001FE02B4DA84201D101251AE0294DA842AF
:100E900001D1022515E0284DA84201D1032510E01B
:100EA000264DA84202D104250BE032E0244DA84291
:100EB00001D1052505E0234DA84201D1062500E01A
:100EC0000725BD402543C6F80858DBF800405D46BD
:100ED0004E689C43F60300D51C432C60DEF80040AE
:100EE00075464E689C43B60300D51C432C600C4DE0
:100EF00008352C684E689C43F60200D51C432C60D4
:100F0000074D0C352C684E689C43B60200D51C4337
:100F10002C60521C102AFFF453AFBDE8F88F00007C
:100F2000003C0140443802400030014000000240D3
:100F30000004024000080240000C02400010024081
:100F40000014024000180240014880687047000009
:100F500004000020024881680278114481607047D3
:100F6000040000200B4810B5016841F400710160D5
:100F7000016841F480610160016841F480710160A1
:100F8000032000F061F8002000F006F800F024F8DB
:100F9000002010BD003C024070B50D4D04464FF4DA
:100FA0007A712878B1FBF0F00A490968B1FBF0F0DA
:100FB00000F0AAFB48B9102C07D200222146501E8F
:100FC00000F022F800206C6070BD012070BD0000B0
:100FD00004000020100000200A4808B5016841F410
:100FE00080410160006800F4804000900548001FC7
:100FF000016841F080510160006800F0805000906D
:1010000008BD000044380240F0B40E4B1B680C468B
:10101000C3F30223C3F10705042D00D90425191DCC
:10102000072901D2002300E0DB1E012606FA05F1A4
:10103000491E214099409E40761E16403143F0BC27
:1010400002F0F2BC0CED00E0064900F0070208686F
:101050004FF6FF03184040EA0220034A104308609D
:10106000704700000CED00E00000FA05F8B50446FA
:101070000025FFF769FF064694F84100800731D547
:10108000002084F840002068016849070BD50168FA
:1010900021F004010160E06BFFF770FD18B1606C96
:1010A00040F0040060642068016841F002010160C2
:1010B000A06C0090334601220221204601F0EEFE92
:1010C00005000FD121680220C860A06C0090334653
:1010D00000222021204601F0E1FE050002D101207E
:1010E00084F841002846F8BD7047000070B50446FA
:1010F00090F84100002580072CD5002084F840009E
:10110000082084F841002068016821F4F81101608A
:1011100020680168490711D5016821F004010160C8
:10112000E16B0D480865E06BFFF76FFD90B10120A2
:1011300084F841002046FFF7D7FF0BE00221C16091
:101140002068016841F4003101602068016841F0C5
:1011500002010160284670BD752D00082DE9F84F89
:1011600017468B460446FFF7EFFE824694F8400090
:1011700001280ED0012684F8406094F841004FF019
:101180000008012807D0022584F840802846BDE8E1
:10119000F88F0220FBE7C4F844804FF0020984F87E
:1011A00041905346002220212046009701F076FE10
:1011B0000500E9D100225946204601F02CFDDBF85C
:1011C000240058B95346012202212046009701F01D
:1011D00065FE0500D8D12168C1F80C9084F8416003
:1011E000D2E77047F8B50446FFF7AEFE06465CB19D
:1011F00094F84000012809D0012784F8407094F841
:101200004100002520B10BE00120F8BD0220F8BD0F
:1012100084F84050204600F041F841F28830A06444
:1012200020680168A2686FF0FF0321F4F85103EB16
:10123000022211430160A06C00903346002220215D
:10124000204601F02BFE08BBE269E16823791143D7
:10125000226A42EA03621143226813680D4E33404A
:1012600019431160D4E905121143226853680A4EEC
:101270003340268A43EA06431943516021680A68CD
:1012800042F001020A60656484F8417084F84050BD
:10129000F8BD00002FFFFF00FEF8E0FF2DE9F04150
:1012A00086B0064614216846FEF7F2FF30493068E2
:1012B00088425AD12F480025016841F0020101609F
:1012C00000682C4900F0020008390590086840F0D9
:1012D00004000860086800F004000590086840F009
:1012E00008000860086800F008000590086840F0F1
:1012F000020008600868022400F0020005904FF424
:10130000C06003274FF009088DE8B10169461A480B
:10131000FFF748FD08208DE8B10169461748FFF73F
:1013200041FD4FF040080A20CDF80080CDE9037060
:1013300069461348CDE90145FFF734FD124C1148C9
:1013400020607806C4E901084FF48060C4E90350C6
:101350006561A561E561256220466562FFF76AFC6B
:1013600008B1FFF738FBF463A66306B0BDE8F0816F
:10137000001000A03838024000080240000C024073
:1013800000040240B8640240540300202DE9F84FE5
:1013900015460F460446FFF7D7FD8246206881694F
:1013A00094F8402000F12009012A0DD0012684F88C
:1013B000406094F841204FF00008012A06D0022036
:1013C00084F84080BDE8F88F0220FBE7C4F8448031
:1013D000B7B3222284F841200269521CA263026939
:1013E000521C62632763426922F0406242F08062CD
:1013F0004261206881610DE00621204601F04EFD2A
:10140000D8B999F80020206B411C21630270A06BB1
:10141000401EA063A06B53464FF0010200950028C8
:10142000EAD14FF00201204601F038FD28B92168C9
:101430000220C8602046FFF719FE84F84160BFE72C
:10144000FFE7606C40F0080060640120B8E700002E
:101450002DE9F0410368044600269F69186994F855
:101460004020401C012A09D0012284F8402094F831
:1014700041200025012A04D002261FE00220BDE8F9
:10148000F0816564A9B1E26B5269DAB1B2F5006F1F
:1014900003D0B2F5805F07D015E0C20709D1227AE8
:1014A000D20706D140080DE0820702D1227A9207C6
:1014B00007D0606C40F008006064012684F840505A
:1014C0003BE08008A063222084F841000320D8601C
:1014D000A06B60632163E26B1948D063E26B19482B
:1014E0001064E26B1848D064E06B0565E06B8560C2
:1014F000E06B0068026822F0C0020260636B206843
:101500000A46D4F83CC000F120016046FFF7FCFB1E
:101510002068416921F0406141F0806141612068AB
:10152000876184F840502068016841F4803101608F
:101530002068016841F00401016030469FE7000027
:10154000DF2D0008F12D0008AF2D000870470000C6
:101550002DE9F84F15460F460446FFF7F5FC824685
:10156000206894F8401000F1200901290ED00126CE
:1015700084F8406094F841104FF00008012907D02A
:101580005FF0020084F84080BDE8F88F0220FBE79E
:10159000C4F8448097B3122184F841100169491CB2
:1015A000E1620169491CA1626762416921F0406101
:1015B00041610DE00421204601F070FCD8B9606A59
:1015C000411C6162017889F80010E06A401EE06207
:1015D000E06A53464FF0010200950028EAD14FF02F
:1015E0000201204601F05AFC28B921680220C86097
:1015F0002046FFF73BFD84F84160C3E7FFE7606CDE
:1016000040F0080060640120BCE7000070B503688A
:1016100004460026186994F84020401C012A09D08D
:10162000012284F8402094F841200025012A03D0AB
:1016300002261EE0022070BD6564A9B1E26B52690A
:10164000DAB1B2F5006F03D0B2F5805F07D015E0D4
:10165000C20709D1227AD20706D140080DE08207DD
:1016600002D1227A920707D0606C40F008006064D3
:10167000012684F8405036E08008E062122084F8A9
:1016800041000320D860E06AA0626162206842697C
:1016900022F040624261E26B1448D063E26B14486E
:1016A0001064E26B1348D064E06B0565E26B402088
:1016B0009060E06B0068026822F0C00242F04002D5
:1016C0000260A36A2268E06B2032FFF71DFB84F8FA
:1016D00040502068016841F4803101602068016851
:1016E00041F004010160304670BD0000FB2D000890
:1016F0000D2E0008AF2D000870470000014800685B
:10170000704700001000002010B5401EB0F1807F2F
:1017100001D3012010BD4FF0E02460610F2160175C
:1017200002F082F90020A06107202061002010BD96
:10173000FEE7000030B5134C4B680022A468124D40
:1017400004F00104AD6805F001052C430F4DAD68B0
:1017500005F001052C4302D00122104630BD0C4D8E
:1017600053B10C681C43D1E902310B4341681C435F
:1017700029400C434460F0E7436809682B400B4361
:101780004360EAE7002001400021014000220140BF
:10179000E010FCFF30B58368002213F0010F02D087
:1017A0000122104630BD8C680B6823434468054D08
:1017B0002C40234343608368496823F400630B4350
:1017C0008360EEE7FFFEFFFC30B54A6884680023C3
:1017D00014F0010F02D00123184630BD32B18C68DD
:1017E0002243446824F46844224302E0426822F41D
:1017F00068424260D1E9032422438468074D2C40AB
:101800000D6805F070652C43224382604968C26A06
:1018100022F470020A43C262DEE70000FDFCFFC052
:10182000044908B50A6802430A600968014000914A
:1018300008BD000030380240044908B50A68024378
:101840000A6009680140009108BD0000403802406C
:10185000044908B50A6802430A600968014000911A
:1018600008BD000044380240034A1430515C0A5855
:1018700022F004020A50704736530008034A515CB4
:10188000425822F01002425070470000AE54000847
:10189000034A515C425842F0010242507047000036
:1018A000AE540008034B595C435823F06063134364
:1018B0004350704736530008044B001D595C0B58C9
:1018C0006FF30F0313430B5070470000AE54000832
:1018D000034B595C435823F0C003134343507047F4
:1018E00036530008034B595C435823F48063134379
:1018F0004350704736530008034B595C435823F458
:10190000C04313434350704736530008034B595CA0
:10191000435823F4907313434350704736530008E1
:10192000034B595C435823F40073134343507047EF
:1019300036530008034B595C435823F4C0531343F8
:101940004350704736530008034B595C435823F407
:1019500040331343435070473653000830B5264A8E
:10196000002405790168131F85B371B345798DB1E2
:10197000012D17D0022D18D0012483792BB31E49D5
:1019800008310A1F012B18D0022B20D0032B22D0A4
:10199000012428E015688D43156001681A680A4320
:1019A0001A60EAE71D688D4301E01D680D431D6064
:1019B000016813680B431360DFE703680D689D43FC
:1019C0000D6000681168014311600CE00DE00368D0
:1019D00015689D4302E0036815681D4315600068A3
:1019E0000A6802430A60204630BD1D688D431D60B1
:1019F000006811688143E7E7043C01400349096836
:101A0000884301D00020704701207047143C0140FA
:101A1000F0B50A68032492FAA2F2B2FA82F30F2513
:101A20007EE0324601269E40324078D0D1F804E074
:101A3000066892FAA2F7B7FA87F74FEA470C04FA5A
:101A40000CF7BE4392FAA2F7B7FA87F77F000EFAB7
:101A500007FE46EA0E0606604E68012E01D0022EF1
:101A600015D1D1F808E0866892FAA2F7B7FA87F79D
:101A70004FEA470C04FA0CF7BE4392FAA2F7B7FA02
:101A800087F77F000EFA07FE46EA0E068660D1F859
:101A900010C0C66892FAA2F7B7FA87F77F0004FA77
:101AA00007FE92FAA2F7B7FA87F77F0026EA0E063A
:101AB0000CFA07FC46EA0C06C6604E68022E2ED1D0
:101AC00092FAA2F6B6FA86F6082E4E6913D2076A83
:101AD00092FAA2FCBCFA8CFC4FEA8C0C05FA0CFCC6
:101AE00092FAA2F2B2FA82F2920027EA0C0796402A
:101AF0003743076213E0476A120A92FAA2FCBCFA63
:101B00008CFC4FEA8C0C05FA0CFC92FAA2F2B2FAA9
:101B100082F2920027EA0C079640374347625B1C2B
:101B20000A681646DA407FF47CAF4A68012A01D081
:101B3000022A07D1CB6841683246914306FB03F283
:101B4000114341600020F0BD30B5036891FAA1F463
:101B5000B4FA84F465000324AC4091FAA1F1B1FA1F
:101B600081F14900A3438A401343036030BD30B57F
:101B7000C36891FAA1F4B4FA84F465000324AC407C
:101B800091FAA1F1B1FA81F14900A3438A401343CC
:101B9000C36030BD30B5214C4568B1FBF4F425F08D
:101BA0003F05254345601E4DAA4207D94FF496755F
:101BB00004FB05F44FF47A75B4FBF5F4056A04F1FF
:101BC000010425F03F0544EA0504046213D96BB112
:101BD00002EBC20404EB0212B1FBF2F4240508D0BC
:101BE000B1FBF2F1194341F400410FE002EB420274
:101BF000F2E70121F6E75200B1FBF2F3C3F30B0366
:101C0000042B01D2042101E0B1FBF2F1C2694CF6D0
:101C1000FF739A430A43C26130BD000040420F0087
:101C2000A08601007FB5044600680D4620F0010043
:101C30002060684600F02AF8D5E90301626A08438B
:101C400022F01F0202436262D5E901232046029975
:101C5000FFF7A0FFE9696869A26848F2FF339A4379
:101C600008430243A2602868216821F01A01014359
:101C70002160206840F001002060A869216821F4FB
:101C800080610143216004B0002070BD10B504469E
:101C900001F052F9206001F025F9606001F030F99F
:101CA000A060606801F03AF9E06010BD0248006889
:101CB00000F03F007047000004380240024800680E
:101CC00000F48000704700000438024002480068B9
:101CD000C0F38810704700000438024002480068D2
:101CE00000F0E040704700000438024010B549039E
:101CF000029CDBB2E4B241EA044141EA0321D2B2E0
:101D000011434268024B1A400A43426010BD000072
:101D1000C00000FFF8B514460F0005464FF001065D
:101D200006D16078C10603D520F010000A3060703B
:101D3000CA20686253206862284600F03FF80128F4
:101D400031D0E0781FB100906378A2781EE00A21BC
:101D5000B0FBF1F201FB1202B0FBF1F042EA00101D
:101D60006278C0B2B2FBF1F301FB1323B2FBF1F2D4
:101D700043EA0212D3B2A2780090B2FBF1F601FB63
:101D80001626B2FBF1F146EA0111CAB221782846C3
:101D9000FFF7ACFF08496FF08000C860A868C0F387
:101DA000401020B10026FF2068623046F8BD28466A
:101DB00000F0B4F80646F6E70028004018B54FF4E6
:101DC0007A710091C1680022C1F38011A9B9511E36
:101DD000C160C1684FF0E023C1F380110BE01969C5
:101DE000C1F3004111B10099491E0091C168009CE6
:101DF000C1F380111CB10029F1D0104618BD012299
:101E0000FBE770B504460126CA200D4660625320E8
:101E100060622046FFF7D2FF012816D02868A1682B
:101E200021F040010143A160A86821696FF30E0110
:101E300001432161A888216921F4FE0141EA0040A3
:101E400020616FF08000E0600026FF206062304675
:101E500070BD000010B5D2B241EA0241DAB2029C74
:101E600041EA0221E2B211430268024B1A400A43DE
:101E7000026010BD808080FFF8B505460F46012640
:101E8000A9681446002011F0400F00D12060CA203C
:101E90006862532068622846FFF790FF012832D01D
:101EA00027B1A0790090637922791FE0A1790A20F7
:101EB000B1FBF0F200FB1212B1FBF0F142EA0111AA
:101EC0006279C9B2B2FBF0F300FB1323B2FBF0F26C
:101ED00043EA0212D3B222790091B2FBF0F600FB82
:101EE0001626B2FBF0F046EA0010C2B2284621687E
:101EF000FFF7B0FF08496FF08000C860A868C0F322
:101F0000401020B10026FF2068623046F8BD284608
:101F100000F004F80646F6E70028004038B54FF414
:101F20007A740094C268002102F0800262F0A0027C
:101F3000C260C2684FF0E023C2F340120BE01A699E
:101F4000C2F3004212B1009A521E0092C268009D74
:101F5000C2F34012B5B1002AF1D189B90094C26828
:101F6000C2F340120AE01A69C2F300420AB1621ECB
:101F70000092C268009CC2F340121CB1002AF2D049
:101F8000084638BD0121FBE710B503680122C3F301
:101F900080132BBBD1E900231A43D1E90234234338
:101FA0001A430B691A434B691A438B691A43CB696D
:101FB0001A430B6A1A4303684FF6BF74A3431A43CC
:101FC000026042684B6922F0040242EA1342426016
:101FD0000A6AB2F5005F02D1898C89B201610022E0
:101FE000C16921F40061C161104610BD0A06930D5C
:101FF000074A1A44D2F8083823EA1143090C91FA27
:10200000A1F1B1FA81F188400343C2F80838704762
:1020100000300140014908607047000010000020B6
:10202000F0B50268254B264D264E274F274C4FF022
:10203000804C984209D0604507D0A84205D0B042F4
:1020400003D0B84201D0A04205D1D1F804E022F07B
:10205000700242EA0E0298421BD0604519D0A84295
:1020600017D0B04215D0B84213D0A04211D0184DAD
:10207000A8420ED0174DA8420BD0174DA84208D049
:10208000164DA84205D0164DA84202D0154DA842C3
:1020900003D1CD6822F440722A4302608A68C2628A
:1020A0000A888262984201D0A04201D1097C016372
:1020B000416941F0010141610020F0BD0000014093
:1020C0000004004000080040000C004000040140F3
:1020D0000040014000440140004801400018004019
:1020E000001C004000200040012919D0042919D00B
:1020F000102919D0402919D0B1F5807F18D0B1F539
:10210000806F17D006210C4A1830525C10440268C8
:10211000094BDB1D5B5C042199408A4302607047D8
:102120000021F0E70121EEE70221ECE70321EAE7D5
:102130000421E8E70521E6E728530008F0B5012669
:1021400000236E4C6E4D012908D010293BD0B1F50B
:10215000807F73D0B1F5805F6ED1A6E0016A21F077
:1021600001010162016A46688769D2F800C027F060
:10217000730747EA0C07D2F810C021F0020141EAC8
:102180000C01D2F804C021F0010141EA0C01A04287
:1021900001D0A84212D1546921F0080141EA84011A
:1021A000946821F0040141EA8401956926F4807461
:1021B0002C43D56924F4007444EA450646608761DF
:1021C000D26842636FE0016A21F010010162066A81
:1021D00041688769D2F800C027F4E64747EA0C2730
:1021E000D2F810C026F0200646EA0C16D2F804C039
:1021F00026F0100646EA0C16A04201D0A84213D1E0
:10220000556926F0800444EA8514956824F040045A
:1022100044EA8516946921F4806141EA8401D46915
:1022200021F4006141EAC40141608761D1688163A2
:1022300061E003E000E01E463046F0BD016A21F493
:1022400080710162016A4668C769D2F800C027F050
:10225000730747EA0C07D2F810C021F4007141EA75
:102260000C21D2F804C021F4807141EA0C21A04273
:1022700001D0A84213D1546921F4006141EA8421BC
:10228000946821F4806141EA8421956926F48054A0
:1022900044EA0514D56924F4005444EA451646601E
:1022A000C761D268C2630162C5E7016A21F4805147
:1022B0000162066A4168C769D2F800C027F4E647A0
:1022C00047EA0C27D2F810C026F4005646EA0C362E
:1022D000D2F804C026F4805646EA0C36A04201D05B
:1022E000A84204D1946921F4804141EA84114160FB
:1022F000C761D168016406629DE7000000000140EB
:10230000000401407FB50446C0680D460126C0F3B5
:102310004030C0BBE9686868AA690843296911436D
:102320000843E16849F20C6291430843E060A86801
:10233000216921F44051014321616869616921F4F7
:102340004071014361616846FFF7A0FC0F48844279
:1023500008D00F4884420DD00E4884420AD00E485F
:10236000844201D1039906E00C48844202D00C4813
:10237000844208D1029931B12B6823B1002620464E
:10238000AA6900F00FF804B0304670BD001001409B
:10239000004400400048004000140140004C004050
:1023A00000500040F0B56424322501EBC10606EB75
:1023B0000111B2F5004F2AD09A00B1FBF2F3B3FB42
:1023C000F4F3B1FBF2F66FF018077B4306EB8303DF
:1023D000B1FBF2F605EB0313B3FBF4F3B6FBF4F633
:1023E00003F0F00303EB0613B1FBF2F6B1FBF2F1DD
:1023F000B1FBF4F1794306EB810105EB0111B1FB6F
:10240000F4F101F00F01194489B28160F0BD5A0066
:10241000B1FBF2F6B6FBF4F6B1FBF2F7B1FBF2F367
:102420006FF0180C06FB0CF607EB860605EBC606EC
:10243000B3FBF4F3B6FBF4F61B0106F0F80603EB6E
:102440004603B1FBF2F6B1FBF2F1B1FBF4F101FB93
:102450000CF106EB810105EBC101B1FBF4F101F0D8
:102460000701D0E730B593B000240F9410941421E5
:1024700068461194FDF70CFF0B940C940D941821F1
:1024800005A80E94FDF704FF4FF48070FFF7E0F904
:102490000120FFF7C5F9012005900320069005A94A
:1024A00009942648FFF7B4FA254D0F9410940FA90C
:1024B00028461194FFF76EF9009401940294039456
:1024C000694628460494FFF77FF9A86840F48060C5
:1024D000A8604FF48030CDE90B040BA91948FFF731
:1024E00029F94FF44072681592FAA2F20104B2FA87
:1024F00082F2D04005EB8000C26A22F01F02C26265
:1025000091FAA1F0B0FA80F0C14005EB8100C168FA
:102510004FF0F87292FAA2F3B3FA83F324FA03F3BA
:1025200007259D4092FAA2F2B2FA82F224FA02F250
:10253000A94394402143C16013B030BD0000024064
:102540000020014000230140094808490160102192
:10255000416000218160C160016141610176417685
:102560008176C17601774177FEF744BA0064004076
:10257000540000202DE9F04F89B000240694182162
:1025800068460794FDF784FE1020FFF749F9042000
:10259000FFF746F98020FFF743F90120FFF740F9E4
:1025A0000220FFF73DF90820FFF73AF9DFF8109213
:1025B00048F27D000204C9F81820DFF808A24FF0A5
:1025C00006524FF40658CAF81820DFF8FCB14FF055
:1025D0007062CBF818207D4E4FF00141B1617C4F05
:1025E0004FF06071B96100900125CDE90154039469
:1025F000694648460494FFF70BFACDF80080CDE910
:1026000001540394694650460494FFF701FA4FF0D1
:102610008008CDE90084694630460494FFF7F8F954
:102620003020CDE90004694650460494FFF7F0F9E4
:102630000720CDE90004694638460494FFF7E8F91D
:102640004FF4E340CDE90004694648460494FFF79F
:10265000DFF94FF470600090CDE9015403946946AE
:1026600058460494FFF7D4F94FF401400090CDE9A7
:1026700001540394694630460494FFF7C9F94FF4B6
:1026800060700090CDE90154039469463846049483
:10269000FFF7BEF94F490220FFF7A8FC4FF4702165
:1026A0000320FFF7A3FC4C490320FFF79FFC4B4995
:1026B0000320FFF79BFC4FF470010420FFF796FC0A
:1026C00040208DF81C5006908DF81D408DF81E504E
:1026D00006A8FFF743F98DF81C508DF81D4002261F
:1026E00006958DF81E6006A8FFF738F910208DF8C2
:1026F0001C5006908DF81D408DF81E5006A8FFF75F
:102700002DF98DF81C508DF81D40CDF818808DF8EE
:102710001E6006A8FFF722F98DF81C508DF81D40A9
:1027200006968DF81E5006A8FFF718F900224021E2
:102730005046FFF71CFA002201215846FFF717FA0E
:10274000002210215846FFF712FA00228021584635
:10275000FFF70DFA002202214846FFF708FA00228F
:1027600040215046FFF7F0F9002201215846FFF7BB
:10277000EBF9002210215846FFF7E6F900228021EC
:102780005846FFF7E1F9002202214846FFF7DCF93D
:1027900013480068C0F30220011D072901D2002060
:1027A00000E0C01E0F498440200181F800044FF072
:1027B000E0214FF40000C1F8000109B0BDE8F08F3E
:1027C0000010024000080240000C024000000240DD
:1027D000000402400100000F01000F00010000F0A2
:1027E0000CED00E017E000E02DE9F0418EB0202173
:1027F00006A8FDF74DFD18216846FDF749FD0220AA
:10280000FFF70EF80420FFF70BF801240427CDE9A9
:1028100004474FF4806802250326CDE90264CDE920
:10282000008569461848FFF7F3F82003CDE9000555
:10283000CDE90264CDE9044769461448FFF7E8F89A
:10284000A005FEF7F9FF124CE06820F00100E060FF
:10285000206820F040002060206820F08000206088
:1028600000200C490890CDE90601CDE90B082014A1
:102870000D9006A92046FFF7D5F9E06820F0FE008C
:10288000E0600EB0BDE8F0810004024000080240A4
:1028900000580040A0860100F0B587B000241F4812
:1028A0000094029401940594016841F40041016090
:1028B0007F2003901A4EFF20049002A9354630462F
:1028C000FFF79FFA286940F4FE00286128696FF33A
:1028D0000E0040F0FF002861114D5035286843F28A
:1028E000F227B84217D08DF804408DF805408DF8D6
:1028F00006406A4601213046FFF7BEFA01208DF8F6
:1029000014008DF8150001468DF8174005AA3046D1
:10291000FFF700FA2F6007B0F0BD000070380240EA
:102920000028004070B590B028216846FDF7B0FC43
:1029300018210AA8FDF7ACFC4FF48050FEF788FF81
:102940000220FEF76DFF38200A9002200B90032032
:102950000024CDE90C040520CDE90E400AA93C482D
:10296000FFF756F83B4E4FF0C0652A46032130462C
:10297000FEF798FF402203213046FEF7A9FF002210
:1029800003213046FEF7E0FF002203213046FEF728
:10299000BDFF002203213046FEF7C2FF00220321C3
:1029A0003046FEF79FFF002203213046FEF7C2FFAC
:1029B000002203213046FEF79FFF03213046FEF739
:1029C00053FF2A4600213046FEF76CFF00221146D5
:1029D0003046FEF77DFF6A1200213046FEF7B4FF55
:1029E000002211463046FEF791FF00221146304684
:1029F000FEF796FF321500213046FEF773FF0022E6
:102A000011463046FEF796FF002211463046FEF78B
:102A100073FF00213046FEF727FF4FF48270CDE9A7
:102A2000004001200294CDE90340400205900820B7
:102A3000CDE906040A20CDE90840074C6946204646
:102A4000FFF7A2FA606820F01000606010B070BD5F
:102A500000040240006402400030014010B590B014
:102A600028216846FDF714FC18210AA8FDF710FC80
:102A70004FF48040FEF7E0FE0220FEF7D1FE4FF457
:102A800060400A9002200B9003200024CDE90C0442
:102A90000520CDE90E400AA90E48FEF7B9FF4FF414
:102AA0008270CDE9004001200294CDE9034040024C
:102AB000CDE905040A20CDE908400794064C694693
:102AC0002046FFF761FA606820F01000606010B0E7
:102AD00010BD0000000402400038004070B594B002
:102AE00014210EA8FDF7D4FB20216846FDF7D0FB8A
:102AF000182108A8FDF7CCFB0120FEF79DFE00245D
:102B0000ADF83840601ECDE90F404FF080450EA96A
:102B100028461194FFF784FA286820F08000286086
:102B200000940194029403946A4601212846049477
:102B3000FFF704FB01212846FFF7D6FAAE140194F3
:102B40006A46314628460294FFF7F8FA314628468D
:102B5000FFF7CAFA686820F070006860A86820F083
:102B60008000A8600120FEF75BFE2820089002206C
:102B7000CDE909040120CDE90C4008A90B940248D5
:102B8000FEF746FF14B070BD0000024010B58EB0D5
:102B90001C216846FDF77CFB182107A8FDF778FB90
:102BA0001020FEF755FE0120FEF73AFE4FF4C060FC
:102BB00007900220089003200024CDE90904072093
:102BC000CDE90B4007A91048FEF722FF4FF4E13092
:102BD000CDE900040C200294CDE90340059406944D
:102BE0000A4C69462046FFF78DFB206920F490408F
:102BF0002061606920F02A006061E06840F40050C4
:102C0000E0600EB010BD0000000002400010014066
:102C1000FEE770477047F0B54B6A4FF040652BB147
:102C2000AA4203D08B6A04685B1E23618C690B6A1D
:102C3000002C57D05BB304688B68E361CC69B4B1F6
:102C4000D1E90B3633434F6A4E6B3E4333438E8A92
:102C500043EA86430E6933430E6A3343CE683343F7
:102C600023438C6924E0006849688161F0BDD1E9A3
:102C70000B3423434D6A4C6B2C4323438C8A43EA29
:102C800084430C6923430C6A23438C6923E0CE6997
:102C9000BEB1D1E90B373B43D1F824C04F6B47EAB3
:102CA0000C073B438F8A43EA8743CF683B43334358
:102CB00023430C682343046813436361AA42D2D1BF
:102CC000F0BDD1E90B352B434E6A4D6B35432B4399
:102CD0008D8A43EA85430968234300680B43134305
:102CE0004361F0BD3BB304688B68E361CC6994B188
:102CF000D1E90B3633434F6A4E6B3E4333438E8AE2
:102D000043EA86430E6933430E6A3343CE68334346
:102D100023438C69CEE7D1E90B3423434D6A4C6BD6
:102D20002C4323438C8A43EA84430C6923430C6A73
:102D300089692343D1E7CC6964B1D1E90B363343C8
:102D40004F6A4E6B3E4333438E8A43EA8643CE68D6
:102D50003343AFE74B6A002BC3D0D1E90B452C437B
:102D60004D6B898A1D432C43006844EA814111431D
:102D70004161F0BD10B5806B00218163C16290F8A4
:102D80004110082905D0012180F84110FEF729FAE9
:102D900010BD02680221D16001680A6842F4003265
:102DA0000A600068016841F00201016010BD10B5C1
:102DB000846BFDF73CFF022810D00020A063E06286
:102DC000606C40F0040060642068016821F0040138
:102DD00001602046BDE81040FEF788B910BD806B49
:102DE000002181630068016841F40031016070478F
:102DF00010B5806BFEF7AAFB10BD806B0021C1628D
:102E00000068016841F400310160704710B5806BC3
:102E1000FEF772FC10BD0000074A10B51268491E8B
:102E20001161014641F288320348FEF7AFFA0028EB
:102E300000D0012010BD00007C00002010B58EB035
:102E4000002401904FF48050039002918010CDE94E
:102E50000640CDE9044200010D94CDE908030B942E
:102E60000C9441F2883269460248FEF777F90EB0B9
:102E700010BD00007C000020074A10B51268491EF2
:102E80001161014641F288320348FEF761FB0028D8
:102E900000D0012010BD00007C0000202DE9F04191
:102EA000984616460F460446069D12E0681C10D050
:102EB0002DB1FEF749F8A0EB0800A84209D904207B
:102EC00084F84100606C40F0010060640120BDE8BE
:102ED000F08120688068384000D00120B042E5D100
:102EE0000020F4E704490968044A01F0F0010909E7
:102EF000515CC84070470000083802404254000846
:102F000004490968044A01F4E05102EB912109786F
:102F1000C840704708380240525400080449096804
:102F2000044A01F4604102EB51310978C84070470E
:102F300008380240525400080948006810F00C019B
:102F400008480BD0042909D0082905D00C2905D13F
:102F50005FF00C0000F008B80820FBE770470000A5
:102F6000083802400024F40070B50546FEF7A6FEBE
:102F7000104C082D0DD0FEF799FEB4FBF0F4FEF7CF
:102F8000A5FE4443FEF7AAFE5FEA1070B4FBF0F022
:102F900070BDFEF78BFEB4FBF0F4FEF797FE4443E2
:102FA00005480068012100F4403001EB104040006A
:102FB000ECE700000024F4000438024070B500245F
:102FC0001546282801D9FF290FD00949094A51F887
:102FD0002010526800EB400002EB400042781A706B
:102FE0002846FDF73CF9204670BD0A24FBE70000A7
:102FF000D8030020240000202DE9F047074642F6C0
:10300000081000EB471092468846054600F0EEFB9C
:10301000064642F6080000EB4710044600F0E6FBC7
:1030200006EB002086B2300200EB47111831C1F3E5
:103030000F20C9B24FF080730022FFF7FFFE414618
:103040002348FEF705FA2549DFF88880224F2248F9
:10305000DFF880C0A8F154081F4B603F0968A8F151
:103060000409B838614502D9D8F8002009E099422E
:1030700002D9D9F8002004E0B94201D9426800E041
:10308000026812F0006FEDD04FF00062614502D986
:1030900010484C3803E0994203D90E48503802607A
:1030A00004E0B94201D9C26000E082600848FDF73F
:1030B000DDFF06EB0A0086B2310A204600F0B9FBBC
:1030C000F1B2284600F0B5FB3046BDE8F0870000BD
:1030D0007C00002058640240B86002405403002085
:1030E0007047000005490A68C2F340121AB14968E6
:1030F0000170002070474FF0FF3070470010014012
:1031000003490A68C2F3C012002AFAD04860704727
:1031100000100140FDF71EBF10B5244C002021789F
:1031200000F002F9032802D0042804D009E0207836
:1031300040F0020004E0207820F0080040F0040095
:1031400020702078800708D500F01AFA28B9207876
:1031500020F0020040F008002070207841070CD5D4
:10316000C10707D01248FDF78BFBFDF783FA2078E3
:1031700020F0010020F004002070C00608D500F007
:1031800019FA28B9207820F0100040F020002070B3
:103190002078800608D5012000F020FA002803D10D
:1031A000207820F02000207010BD000000000020DA
:1031B00050020020414810B5016821F00F0141F094
:1031C00005010160016801F00F010529FAD13C48B1
:1031D000016841F440410160016821F480310160DF
:1031E00038490A6842F480320A600A68C2F34042F1
:1031F000002AFAD0026842F48072026031487030CE
:10320000026842F480320260026822F48032026076
:10321000026842F0010202600268C2F34002002A22
:10322000FAD0026822F4407242F4807202600268AE
:1032300042F4004202602348234A001D0368234CE5
:1032400023401A430260026822F44032026002689E
:1032500022F0E0420260086840F080700860086870
:10326000C0F340600028FAD016480830016821F009
:10327000F0010160016821F4E05141F4A0510160C6
:10328000016821F4604141F400410160016821F0CE
:10329000030141F002010160016801F00C010829FD
:1032A000FAD10B48FEF7B6FE0020FDF775FE054883
:1032B0008C30016821F08071016010BD003C02403B
:1032C0000070004000380240105040000080BFFFF6
:1032D000006889091048016841F4700101600F48D5
:1032E000016841F0010101600C4A002108321160BF
:1032F00002680B4B1A400260031D0A4A1A600268FA
:1033000022F48022026005480C3001600249580610
:10331000803908607047000088ED00E00038024006
:10332000FFFFF6FE103000242DE9F04105464FF472
:1033300042700F4600EB451000F058FA30B11328E8
:1033400017D017281AD01C2844D13FE02348002367
:103350000121806800EB05100288284601F026FF55
:1033600042F6087000EB4510022100F062FA0024DA
:1033700030E0284600F052FE01242BE04FF40270AA
:1033800000EB4510064600F031FAC00703D0304686
:10339000012100F04EFA284600F028FD020004D07A
:1033A0000F492846FDF7F8F90324380712D50C48D1
:1033B0001030014642782846D21C00F0F9FEFF2268
:1033C00010210748FCF75DFF042403E0284600F0C5
:1033D000C7FC02242046BDE8F08100004400002024
:1033E000940400202DE9F04104004FF0FF306FD02D
:1033F0002368022701264C494C4A4D4D062B67D2C3
:10340000DFE803F00305151E457C26605FE00878C1
:103410002071117888425AD1FF206071A071E0714B
:1034200020726072A072A01DE06042A04CE048785B
:103430006071FF284BD042A000F0E6FA03201CE0A8
:10344000394863798078032B19D0012B0AD0E071B9
:103450006079C01EA071C878207208796072324805
:10346000401D206130486179801C085C5178884299
:103470000BD135A000F0C8FA0420206027E0E071ED
:10348000C878207208796072ECE731A008E027481C
:10349000E1790527806801290AD010291AD031A0C6
:1034A00000F0B2FAFF2204211F48FCF7EAFEACE765
:1034B000267AD0F800C0617AE3682A1D3046E047DA
:1034C000A072E068007815E000F09EFA2760012005
:1034D000BDE8F081267AD0F804C0A379617A226928
:1034E0003046E047A07238B9A279281D2169FCF75F
:1034F000B6FEA079801C60711DA0E5E79078287069
:10350000A07A00B1677160796870A07AA870207A9B
:10351000E870D17806486279801C115416A000F03A
:1035200073FA00202060D3E79404002038000020C4
:10353000A4040020533A4C454E4754480D0A00005D
:10354000533A43484B0D0A00533A494E530D0A0073
:10355000533A4552522D43544661696C65640D0AD5
:103560000000000057726F6E67494E530D0A00004D
:10357000533A5250590D0A00533A454E440D0A0031
:1035800010B50448FFF72EFF002801D10249087149
:1035900010BD00007804002038000020014800F031
:1035A00003B8000078040020002801D00022026047
:1035B0007047000010B5FF2278210748FCF761FE34
:1035C0000548012101710A21417208218172CC2133
:1035D00080F81D11002010BDB404002038B5044649
:1035E0004FF4427000EB441000F000F901000F4866
:1035F0000FD022290CD180684FF48F7200EB041396
:103600000B491889009020460A3300F05FFE002025
:1036100038BD8068002300EB04100221428801B00D
:103620002046BDE8304001F0C1BD0000440000204C
:10363000B4040020FEE7000010B58021002000F057
:10364000F8F80A20FDF79CFB184C042290016168F1
:1036500000F000F9616804224FF4A060091D00F039
:10366000F9F8616806224FF410600C3100F0F2F8AE
:10367000616804224FF47060083100F0EBF80F210C
:103680004FF4C85000F0D5F8A0214FF4D05000F00E
:10369000D0F808214FF4D85000F0CBF8BDE8104026
:1036A00000214FF4B05000F0C4B8000044000020E6
:1036B00070B500F027F8104C4FF400452804A061C5
:1036C0003220FDF75DFBA5616420FDF759FB4FF447
:1036D0003854204600F08AF8C007FAD0FFF7ACFF54
:1036E000FDF7DEF8002000F043F8012000F040F87C
:1036F00003490248086070BD00000240C304002076
:103700004400002070B51848184A00F11201C02387
:10371000C2E901010370A824447001228270C270C2
:10372000FF250571457185710025C5710C2606734D
:1037300029264673AB2686737C26C67305744274AD
:103740000372447282720A25C57241F659300880AC
:10375000401C08828B76CC760A776520487741F248
:10376000B350088370BD0000D20500204400002043
:1037700070B5054601214FF4C05000F05AF81A4CBC
:10378000022D2FD2DFE805F0011B052141F20820B0
:1037900000F04FF8B42141F2083000F04AF8A06878
:1037A000002301210288184601F000FD0028F6D10F
:1037B000BDE87040022142F6087000F03AB80521D9
:1037C00041F2282000F035F8B42141F2283000F011
:1037D00030F8A06800230221028A012001F0E6FCF3
:1037E0000128F6D170BD00004400002038B5C0F3B8
:1037F0000F24C1B24FF0807300222046FFF71EFB5A
:1038000001216846FFF708FB9DF8000038BD70B540
:103810000E461546C0F30F24C1B24FF0807300224C
:103820002046FFF70BFB29463046BDE87040FFF706
:10383000F3BA13B5C0F30F24C0B240F004014FF047
:10384000807300222046FFF7F9FA012101A8FFF753
:1038500013FB1CBD70B5C0F30F240E46C0B2154655
:1038600040F004014FF0807300222046FFF7E6FA93
:1038700029463046BDE87040FFF7FEBA70B54FF0FC
:10388000E0250646AC69FDF739FF0849B0FBF1F1C8
:10389000714320398C4203DA68692044401A00E001
:1038A000601AA9698142FCD870BD000040420F0037
:1038B0002DE9F041154E17460446726800EB4405A9
:1038C000282C12F8150002EB4502527801D9FF2985
:1038D00006D038B1032805D0934205D0022511E067
:1038E0000A250FE001250DE0094800251A4650F889
:1038F00024003946FCF7B3FC2046FF2C02D0B16807
:1039000001B188472846BDE8F0810000240000206E
:10391000D80300202DE9F047074642F2085000EB9B
:103920004710914688460546FFF760FF064642F27B
:10393000084000EB47100446FFF758FF06EB002055
:1039400086B2300200EB47111031C1F30F20C9B22B
:1039500041F004014FF080730022FFF76FFA26490F
:1039600009F111000968086141462348FDF74EFE40
:103970002449DFF888A0224F2148DFF880C0AAF14F
:10398000540A1F4B603F0968AAF10408B838614522
:1039900002D9DAF8002009E0994202D9D8F80020CB
:1039A00004E0B94201D9426800E0026812F0006FF9
:1039B000EDD04FF00062614502D910484C3803E069
:1039C000994203D90D485038026004E0B94201D948
:1039D000C26000E082600848FDF748FB06EB090082
:1039E00086B2310A2046FFF724FFF1B22846FFF7DE
:1039F00020FF3046BDE8F0877C000020586402407C
:103A0000B8600240540300200FB4054B10B503A961
:103A1000044A029800F028F810BC5DF814FB00007E
:103A2000D53D0008500000200907090E002804DBDE
:103A300000F1E02080F80014704700F00F0000F162
:103A4000E02080F8141D704702E008C8121F08C16A
:103A5000002AFAD170477047002001E001C1121F0F
:103A6000002AFBD1704700002DE9FF4F8DB09B4627
:103A70000F460446002606E025280BD05A460F992B
:103A80009047641C761C20780028F5D111B0304690
:103A9000BDE8F08F0025A8460122984900E00543C3
:103AA00014F8013F203B02FA03F00842F7D12078D6
:103AB0002E2817D114F8010F45F004052A280ED03E
:103AC0006FF02F022078A0F1300109290AD808EB05
:103AD000880102EB410100EB0108641CF2E757F892
:103AE000048B641C20786C280DD004DC4C2812D088
:103AF0006A2811D104E074280DD07A280CD10AE08C
:103B000045F4001507E0617845F48015814202D143
:103B1000641C05F58015641C2278692A45D008DCF0
:103B2000002AB3D0582A69D0632A10D0642A08D159
:103B30003BE0702A67D0732A13D0752A5CD0782AAC
:103B40005CD010465A460F999047761CD3E017F880
:103B5000040B8DF8000000208DF80100E9460120DB
:103B600003E057F8049B4FF0FF3069074FF0000562
:103B700001D40AE06D1C45450DDA8542FADB19F8DF
:103B800005100029F6D106E06D1C8542FCDB19F812
:103B900005100029F8D12E4404E019F8010B5A460B
:103BA0000F9990476D1EF8D2A5E00A200021CDE9BB
:103BB0000801C5F3025002280DD001CFC117031E22
:103BC00071F100030DDA4FF0000CD0EB0C006CEB40
:103BD00001012D2308E0FF1D27F00707F7E8020188
:103BE000EDE72B0504D52B238DF8283001233BE08E
:103BF000EB0739D02023F7E70A2000E0102000214E
:103C0000CDE9080107E01020002145F00405CDE9C9
:103C100008014FF00808C5F3025002280FD001CF69
:103C200000214FF0000A2B071FD5702A0DD0DDE9C7
:103C300008C38CF0100C5CEA030C0CD015E0FF1DDF
:103C400027F00707F7E80201EBE740228DF828206C
:103C50004FF0010A0BE050EA010306D030238DF843
:103C600028308DF8292002239A46582A04D024A20D
:103C70000DF120090B9209E026A2F9E7DDE90823FE
:103C8000FCF7BCFA0B9B9B5C09F8013D50EA010272
:103C9000F4D1ADEB090020300890680701D44FF053
:103CA00001080899884502DDA8EB010000E000202A
:103CB0008046002506E00AA85A46405D0F999047C5
:103CC0006D1C761C5545F6DB04E030205A460F99F2
:103CD0009047761CB8F10001A8F10108F5DC05E079
:103CE00019F8010B5A460F999047761C0899481EFF
:103CF00008900029F4DC641CC5E6000009280100D6
:103D00003031323334353637383961626364656651
:103D10000000000030313233343536373839414213
:103D200043444546000000003EB5074C2118CA78C0
:103D30004D790B798DE82C008B784A78215C03A0B3
:103D4000FFF762FE3EBD00003402002025782025EA
:103D5000782025782025782025782025780D0A00E0
:103D600070B50446082802D94FF0FF3070BD4FF4FB
:103D7000847000EB441005461021FFF75AFD2846D9
:103D8000FFF734FD0028FAD14FF4027000EB441025
:103D90001F21FFF74EFD0D490120A0404A888243B4
:103DA0004A808A8882438A800949002021F81400C9
:103DB0000649891D08554FF4427000EB4414204613
:103DC000FFF714FD0028FAD1012070BD1400002077
:103DD000C803002004490A68C2F3C012002AFAD0BE
:103DE000C2B24A6070470000001001402DE9F04166
:103DF00042F2086101EB401542F20871002601EB26
:103E000040142846FFF7F2FC07462046FFF7EEFC79
:103E100000EB072007043F0C09D02846FFF7E6FC1B
:103E200006462046FFF7E2FC00EB062086B2BE42C3
:103E3000E7D13046BDE8F0812DE9F04142F20801BA
:103E400001EB401542F20811002601EB4014284610
:103E5000FFF7CCFC07462046FFF7C8FC00EB072025
:103E600007043F0C09D02846FFF7C0FC0646204651
:103E7000FFF7BCFC00EB062086B2BE42E7D130461D
:103E8000BDE8F08170B500210846FCF7B7FA394C5F
:103E90000146607038A0FFF7B7FD01210020FCF754
:103EA000ADFA6070014637A0FFF7AEFD0221002099
:103EB000FCF7A4FA6070014635A0FFF7A5FD0321C9
:103EC0000020FCF79BFA6070014634A0FFF79CFDD0
:103ED0000025681DC1B20020FCF790FA6070024610
:103EE000294631A0FFF790FD6D1CEDB2082DF0D3EF
:103EF0000D210020FCF782FA607001462DA0FFF72B
:103F000083FD0E210020FCF779FA607001462DA098
:103F1000FFF77AFD0F210020FCF770FA6070014670
:103F20002CA0FFF771FD10210020FCF767FA6070EC
:103F300001462CA0FFF768FD11210020FCF75EFA76
:103F4000607001462BA0FFF75FFD15210020FCF7F4
:103F500055FA607001462BA0FFF756FD172100208F
:103F6000FCF74CFA6070BDE87040014628A0FFF7EE
:103F70004BBD00000000002044455649443D252328
:103F8000780D0A00434F4E46313D2523780D0A0037
:103F9000434F4E46323D2523780D0A00434F4E468F
:103FA000333D2523780D0A00434825643D252378B9
:103FB0000D0A00004249415353454E53503D2523BD
:103FC000780D0A004249415353454E534E3D252337
:103FD000780D0A004C4F464653454E53503D25231D
:103FE000780D0A004C4F464653454E534E3D25230F
:103FF000780D0A004C4F4646464C49503D252378E3
:104000000D0A00004D495343313D2523780D0A0028
:10401000434F4E46343D2523780D0A0070B50446C3
:10402000082802D94FF0FF3070BD60010830FFF75B
:10403000DDFB00F00F00012802D06FF0040070BD1E
:104040004FF4427000EB44100546FFF7CFFB1328F6
:1040500002D06FF0020070BD4FF4847000EB44108A
:1040600006460221FFF7E5FB3046FFF7BFFB0028BD
:10407000FAD12846FFF7BAFB142805D02046FFF7EF
:104080006FFE6FF0030070BD012070BDFCF76AFF8A
:10409000384C206820F080002060FFF78BF8FEF796
:1040A00069FA4FF480063046FDF7BAFBFEF7DAF9FD
:1040B000FEF74AFAFEF798FB30492F4808250860BA
:1040C0000320C1E9010500200F22C1E903024FF4DA
:1040D0004072C1E90520C86108620846FDF782F810
:1040E000FEF720FCFEF7BAFCFEF7F8FCFEF74EFDEB
:1040F000FEF7D2FB22488661224A61149161202199
:104100008161102181618561042181611B481E4903
:104110004C30C0F864111D49C0F8681100F054FE1D
:10412000FFF7C6FA1B491C4A19480B789850C97802
:10413000885017480C38016841F0400101600020A8
:10414000FCF74EF90020FCF7FFF91120FCF710FAFC
:10415000206840F080002060FFF720FAFCF79CFA0E
:104160000E48FCF7BBFA05484C3000F0F9FFFEF7AB
:10417000D3FFF8E7003C0140001000A07C000020C5
:104180000010024000080240E5300008013100083C
:104190000C30014036530008086402405506000800
:1041A000002802D0014988600020704738000020B4
:1041B0002DE9F05F15468B460646082803D94FF0D7
:1041C000FF30BDE8F09F700101240830FFF70EFBBF
:1041D00000F00F00012801D0A01FF2E775B14FF4E5
:1041E000427000EB46100746FFF700FB6FF0060A2F
:1041F000172806D01C2804D05046E2E76FF00D00C7
:10420000DFE7DFF8C480B440B8F80400044213D0FC
:104210004FF4027000EB46108146FFF7E7FA00F01A
:104220001F00C10624D548461021FFF702FBB8F84D
:104230000410A143A8F8041041F6087000EB4610E2
:10424000FFF7D4FA4FF6FF7101EA8020854200D9CA
:1042500005463046FFF7F0FD81463846FFF7C6FABF
:1042600017280DD01C280BD03046FFF779FDC3E787
:1042700000070BD53046FFF773FD6FF00C00A0E789
:10428000B8F80200044203D04D4501D9002098E758
:104290004D45DED82A465946304601F015F84FF410
:1042A000847000EB461006462021FFF7C2FA304624
:1042B000FFF79CFA0028FAD1B8F8041028460C43FE
:1042C000A8F804407DE70000140000202DE9F04725
:1042D0001E46DDF8208015468A460446082803D984
:1042E0004FF0FF30BDE8F087670108374FF0010954
:1042F0003846FFF77BFA00F00F00022806D00328AB
:1043000004D0042802D06FF00400EBE75DB13078F0
:10431000717801EB0020B17801EB0020F17811EB0E
:10432000002003D00AE06FF00D00DBE73846FFF70E
:104330005DFA400702D46FF00B00D3E7B8F1000F2D
:1043400007D13846FFF752FA400702D46FF00A004F
:10435000C8E74FF4427000EB44100746FFF746FAF7
:10436000422806D0222804D0322802D06FF006005E
:10437000B8E740F6084000EB441004223146FFF74E
:1043800069FA41F208004FEA182100EB4410FFF7E8
:1043900050FA41F2081008F0FF0100EB4410FFF75B
:1043A00048FA41F6087000EB4410FFF71FFA4FF689
:1043B000FF7101EA8020854200D90546DFF8888038
:1043C00009FA04F62046FFF737FD81463846FFF725
:1043D0000DFA38B1B8F80200064206D04D4504D9AE
:1043E00000207FE76FF003007CE74D45EAD82A46BE
:1043F00051462046FFF78EFA4FF4847000EB4410CC
:1044000006462021FFF715FA4FF4027000EB441422
:104410003046FFF7EBF90028FAD12046FFF7E6F91E
:1044200000F01F00C10605D520461021FFF701FA54
:10443000284657E70007F0D520460821FFF7F9F98D
:104440006FF00C004EE700001400002070B5044629
:1044500090F862010025012829D0022826D141299F
:1044600006D0422906D0432909D044291CD112E0A4
:10447000002100E00121204600F058FC14E0208FCC
:10448000E18E884210D2211D415C204600F0B2F836
:10449000208F401C07E0208F30B10821204600F01B
:1044A000A9F8208F401E208784F8625170BD5B29D7
:1044B000FAD1022084F8620170BD70B50446C08E46
:1044C00000284BD0228F0023211D82420BD1401E99
:1044D00080B2E086521E228743542046BDE87040D9
:1044E000012100F065B8002A38D0002006E02244FF
:1044F000051D565DC51C401C565500B2E58E228F29
:10450000AD1A8542F3DCE08E401E80B2E086228F39
:10451000521E228743540821204600F06BF8B4F95C
:10452000385006E060190179204600F063F86D1CF0
:104530002DB2E08EA842F5DC2021204600F05AF88A
:10454000E08E218F401A401C05B205E0082120466C
:1045500000F050F86D1E2DB2002DF7DC70BD00008C
:1045600010B500F03BFB002804D0BDE8104002A1CC
:1045700000F02CB810BD00001B5B324A1B5B3148B9
:104580000000000070B50546C08E298F401A04B2A5
:1045900005E02021284600F02DF8641E24B2002CEE
:1045A000F7DCE98E2846BDE8704000F001B8000055
:1045B00070B50C46054603E003A1284600F006F856
:1045C000641EA4B2F8D270BD0820080070B506467B
:1045D000D0F8680100240D4600280AD005E0D6F87E
:1045E00068116D1C8847641CA4B228780028F6D195
:1045F000204670BDD0F86821002A01D00846104737
:104600007047000070B50646D0F85C0100EB01155C
:1046100030462968FFF7DAFFC0F116000404240CC5
:1046200000D104240AA13046FFF7D0FF641E240401
:10463000240CF7D107A13046FFF7C8FF3046A96820
:10464000FFF7C4FF3046BDE8704003A1FFF7BEBFCF
:10465000200000002D2D00000D0A00002DE9FE4372
:104660000C4625A2804607CA8DE8070025460A2782
:1046700024A14046FFF7AAFF6E46002C04DA24A1CD
:104680004046FFF7A3FF6D420A2055B1B5FBF0F19C
:1046900000FB1151B5FBF0F57F1EFFB23031F15533
:1046A000F3E7F0194CB10021411A4046FFF78EFFA5
:1046B000082100208DF808000DE00121F4E700BF7B
:1046C00004F00F00092801D9573000E03030491EAE
:1046D000C9B224097054002CF2D10EA14046FFF754
:1046E00075FF69464046FFF771FF0CA14046FFF792
:1046F0006DFFBDE8FE8300003030303030303030A8
:104700003030000052657475726E3A20000000006F
:104710002D0000002C203078000000000D0A000061
:104720002DE9F84F04460025C08EA8464FF0010938
:104730002F4600287ED0221D411C0026E18686548B
:10474000B4F9580100EBC00101EB001004EB40008C
:1047500011462A30FBF7A7FD20B3B4F9580100EB4E
:10476000C00101EB001104EB4100211D5C3000F0A1
:1047700077FC20B1B4F85801401CA4F85801B4F8F3
:104780005601401C81B2A4F85611052902D9052111
:10479000A4F85611B4F95801052801DBA4F85861B2
:1047A000A4F85A6100202EE0B8F1000F07D12118BB
:1047B0000979202921D009291FD02C291DD02118A1
:1047C0000A79D2B1222A04D1B8F1000F05D0002213
:1047D0009046B9F1010F02D009E00122F8E70A1D65
:1047E00004EB85036D1CEDB24FF00009DA63097923
:1047F0005C2906D1401C80B203E021184FF001096A
:104800000E71401C80B2E18E8142CDD8E686B04662
:1048100026877DB122A12046FFF7D8FE21A1D4F83A
:104820005CA1E06BFBF73FFD01004FF0010B04F1D1
:104830003C0900E02EE001D0002622E084F863B1BC
:104840004946284600F0FEF984F8638122E000BF63
:104850000AEB061000900168E06BFBF724FD70B9CD
:1048600084F863B1009801274A464068294600F061
:1048700005F9014684F863812046FFF7EFFE761CB8
:10488000F6B2B4F86001B042E2D81FB907A12046E1
:10489000FFF79CFE20462168BDE8F84FFFF796BE63
:1048A0000D0A000068656C7000000000436F6D6DBC
:1048B000616E64206E6F7420666F756E640D0A0001
:1048C000411C00200A785C2A01D0104670474978C4
:1048D0006E290FD004DC3029F8D0622904D105E01C
:1048E000722905D0742907D0084670470820704700
:1048F0000D2070470A20704709207047F0B5074621
:10490000002539780A26012328462C462D2908D06F
:104910000021CA19002192F800C0BCF1300F04D068
:104920001EE04FF0FF330121F3E75178782907D0DB
:10493000582905D0622905D0422903D002210FE071
:1049400003210DE001210BE092F800C0BCF12E0F15
:1049500006D192F801C0BCF1000F01D0042111E092
:1049600012F801CBBCF1000FEED1012908D00229C9
:1049700003D0032906D1102603E00826012501E013
:10498000022602253D445A1C02D0002215441FE095
:104990000122FBE72E2A05D0A2F13007092F03D808
:1049A000FAB20FE0012412E0A2F16107052F01D84D
:1049B000573A04E0A2F14107052F02D8373AD2B2A4
:1049C00000E0002200FB062004EB840254006D1C72
:1049D0002A78002ADED1042913D194B100EE100AFE
:1049E000B8EE401A00EE104AB8EE400AC1EE000AD6
:1049F00000EE103AB8EEC00A20EE800A10EE100A5F
:104A0000F0BD5843F0BD00002DE9F04101782729A1
:104A10000AD02D2904D000BFA1F13002092A0AD8FA
:104A2000BDE8F041FFF76ABF4278002AF4D0BDE844
:104A3000F041FFF745BFF9B1002605460446374669
:104A400022290AD16C1C254607E05C280CD02228BC
:104A500010D0A855761CB6B2641C20780028F4D17A
:104A6000AF552846BDE8F081601EFFF729FFA85525
:104A7000641CEFE7AF55EDE70020F3E72DE9FE4FAB
:104A80001446054609297DD2DFE801F0A4050A1283
:104A90001F314862820003B0AC46BDE8F04F60476A
:104AA0005068FFF7B1FF03B0AC46BDE8F04F604778
:104AB000A068FFF7A9FF06466068FFF7A5FF03B0EF
:104AC0003146AC46BDE8F04F6047E068FFF79CFF19
:104AD0000746A068FFF798FF06466068FFF794FF57
:104AE00003B03A463146AC46BDE8F04F6047206916
:104AF000FFF78AFF0746E068FFF786FF8046A06859
:104B0000FFF782FF06466068FFF77EFF03B03B4673
:104B100042463146AC46BDE8F04F60476069FFF75A
:104B200073FF07462069FFF76FFF0646E068FFF74F
:104B30006BFF8146A068FFF767FF80466068FFF75C
:104B400063FF33464A4641460097A847BDE8FE8FBB
:104B5000A069FFF759FF82466069FFF755FF81465C
:104B60002069FFF751FF0746E068FFF74DFF064653
:104B7000A068FFF749FF80466068FFF745FF3B46A6
:104B8000324600E026E0CDE9009A4146A847DDE73D
:104B9000E069FFF739FF8346A069FFF735FF8246DA
:104BA0006069FFF731FF81462069FFF72DFF8046DE
:104BB000E068FFF729FF0746A068FFF725FF0646D4
:104BC0006068FFF721FF8DE8000E43463A46314604
:104BD000A847BBE74FF0FF30B8E7000008490020C6
:104BE00051F820201AB192F86321012A05D0401C07
:104BF00000B20528F4DB0020704751F82000704710
:104C0000B403002090F862210AB1FFF71FBC0D2900
:104C10000DD006DC08290CD009290CD00A2904D1B2
:104C200005E01B2909D07F2903D000F0A1B9FFF7C7
:104C300077BDFFF742BC00F01FBA012180F8621176
:104C4000704700002DE9F0410F460346FFF7C6FF0D
:104C5000050016D0012B05D0022B12D10024D5F867
:104C60005C611AE021A1FFF7B1FC002405E02146B8
:104C70002846FFF7C7FC641CA4B2B5F86001A04247
:104C8000F5D8BDE8F08100BF06EB04100168786834
:104C9000FBF709FB38B1641CE4B2B5F86001A0422F
:104CA000F2D817A11CE01BA12846FFF78FFC06EBEA
:104CB000041428462168FFF789FC1AA12846FFF74B
:104CC00085FC2846A168FFF781FC17A12846FFF75D
:104CD0007DFCE1680029D4D02846FFF777FC12A1BB
:104CE0002846BDE8F041FFF771BC00000D0A434FB4
:104CF0004D4D414E44204C4953543A0D0A0D0A0083
:104D0000636F6D6D616E64206E6F7420666F756E7B
:104D1000640D0A00636F6D6D616E642068656C7070
:104D2000202D2D003A0D0A000D0A000070B5044632
:104D3000002561B1012909D1B4F85A01401C00B223
:104D4000A4F85A01002819DDA4F85A5170BDB4F92D
:104D50005A21501EA4F85A01B4F85611B4F958015A
:104D6000814201DD0B4600E003465B429A4205DCCE
:104D7000814200DD08464042A4F85A012046FFF770
:104D800001FCB4F95A01E0B1B4F958110844052105
:104D9000401D90FBF1F201FB120000EBC00101EBA2
:104DA000001004EB4001201D5C3100F059F9E08651
:104DB0000028CBD02087211D2046BDE87040FFF79A
:104DC00005BCE586258770BD10B504461FA1FFF719
:104DD000FDFB20A12046FFF7F9FB2EA12046FFF79F
:104DE000F5FB3CA12046FFF7F1FB4AA12046FFF767
:104DF000EDFB18A12046FFF7E9FB0020E0862087A5
:104E0000A4F85601A4F85801A4F85A0184F86201E4
:104E100050A12160534984F8630100BF51F820205C
:104E200082B1401C00B20528F8DB20462168FFF75C
:104E3000CDFB4D484D49C4F85C01081A0009A4F89F
:104E4000600110BD41F82040EFE700000D0A0D0A97
:104E5000000000002B3D3D3D3D3D3D3D3D3D3D3D88
:104E60003D3D3D3D3D3D3D3D3D3D3D3D3D3D3D3D72
:104E70003D3D3D3D3D3D3D3D3D3D3D3D3D3D3D3D62
:104E80003D3D3D3D3D3D3D3D3D3D3D3D3D3D2B0D94
:104E90000A0000007C20202020202020202020202C
:104EA000202020202028432920434F505952494791
:104EB00048542032303138204C657474657220209B
:104EC00020202020202020202020202020207C0D99
:104ED0000A0000007C2020202020202020202020EC
:104EE00020202020202020204C65747465722073BF
:104EF00068656C6C2076322E302E322020202020E7
:104F000020202020202020202020202020207C0D58
:104F10000A0000007C2020202020202020202020AB
:104F2000202020204275696C643A2053657020313E
:104F30003520323032302032333A33363A3433206F
:104F400020202020202020202020202020207C0D18
:104F50000A0000000D0A4D6963726F4545473E3EE9
:104F600000000000B403002014550008A4550008F8
:104F700070B50446C08E312841D2238F221D98423D
:104F80000AD1431CE3868154208F401C2087204691
:104F9000BDE87040FFF72EBBC01A06E0238FC51C8A
:104FA00023445E5D051D401E5E5500B20028F5DC01
:104FB000208F431C23878154E08E0021401C80B247
:104FC000E08620440171208F401E05B206E0601982
:104FD00001792046FFF70EFB6D1C2DB2E08EA84232
:104FE000F5DC218F80B2401A05B205E00821204689
:104FF000FFF700FB6D1E2DB2002DF7DC70BD07A181
:105000002046FFF7E3FA20462168FFF7DFFA211D6B
:105010002046FFF7DBFAE08E208770BD0D0A57614E
:10502000726E69673A20436F6D6D616E64206973BB
:1050300020746F6F206C6F6E670D0A0030B50446E8
:105040000020024605E0AB4209D1401C521C80B250
:1050500092B2A35C002B02D08D5C002DF3D130BD49
:105060000246002002E01354401C80B20B5C002B6F
:10507000F9D10021115470472DE9F84F4FF0000885
:10508000C18ED0F85C7104464FF032094546464661
:10509000002957D004F1040AB34601F80A6000263B
:1050A00027E000BF07EB061000900168201DFFF706
:1050B000C5FFE18E88421AD1ADB1012D03D127A1E0
:1050C0002046FFF783FA41462046FFF79BFA0098F7
:1050D000016807EB08100068FFF7B0FF49468145FB
:1050E00000D8084681466D1C1FFA86F8ADB2761CC2
:1050F00036B2B4F86001B042D4DC002D2CD0012DC2
:1051000002D12046FFF73EFA07EB08100168201D88
:10511000FFF7A6FFE086012D09D941462046FFF79B
:1051200071FA20462168FFF751FAA4F83690E28E12
:10513000211D02F80AB0E08E20872046BDE8F84F16
:10514000FFF744BA012084F863010021FFF77AFDDC
:1051500084F863612168F0E7BDE8F88F0D0A00006C
:1051600038B5D0F86411044649B16846884700282C
:1051700004D19DF800102046FFF744FD38BD02A180
:10518000FFF724FAFEE700006572726F723A20732F
:1051900068656C6C2E72656164206D757374206235
:1051A0006520646566696E65640D0A002DE9F84343
:1051B0001D4617460E460446082803D94FF0FF3017
:1051C000BDE8F883012E08D0022E0ED0032E0CD09D
:1051D000042E0AD06FF00400F2E7042269464FF46F
:1051E0007060FEF714FB009848B169076FF0050086
:1051F000E6D49DB1012E05D0022E0FD106E06FF04E
:105200000200DDE715F0210FDAD007E0A90601D58D
:105210002906D5D5E90601D52906D1D52046FEF7C0
:105220009FFD600105F0F0014FF0010831430830A7
:10523000FEF7FFFA224E57B93788781C80B2A0F5E6
:105240007F413080F03902D14FF4404030804FF43C
:105250008160390A00EB4410FEF7EBFA4FF4A160CD
:10526000F9B200EB4410FEF7E4FA4FF4847000EB5F
:10527000441007460121FEF7DCFA3846FEF7B6FA7D
:105280000028FAD108FA04F0718805F00102814380
:10529000A2400A437280B1888143B180094900204D
:1052A00021F814000649891D08554FF4427000EB9F
:1052B00044152846FEF79AFA0028FAD060B27FE734
:1052C00014000020C80300202DE9F0475FEA02081F
:1052D0008946064626D042F2085000EB461528467D
:1052E000FEF784FA074642F2084000EB46142046D7
:1052F000FEF77CFA07EB002087B2380200EB46107D
:10530000424649461030FEF7A5FA07EB080086B280
:10531000310A2046FEF78DFAF1B22846BDE8F04783
:10532000FEF787BABDE8F08700000000040404001F
:10533000000800000008102840587088A0B84144B8
:10534000435F5374617274416371006E44524459F7
:1053500020496E7465727275707420456E61626C5E
:1053600065004144435F53746F70416371006E4444
:1053700052445920496E7465727275707420446984
:105380007361626C65004144435F53656E64436FB3
:105390006D6D616E640053656E6420494D44204913
:1053A0006E737472756374696F6E004144435F5726
:1053B000726974655265670057726974652041446B
:1053C0005331323939205265676973746572006CE4
:1053D00061647265670052656164264C697374206C
:1053E00041445331323939205265676973746572AB
:1053F00000636865636B627566666572364200506D
:1054000072696E74206275666665722036627974A0
:1054100065004765745F5453475F434E54004765CA
:10542000742074696D657374616D702067656E6555
:105430007261746F7220636E7400000610160006AD
:10544000101600000000000000000102030406071F
:105450000809000000000102030468656C70006325
:105460006F6D6D616E642068656C700068656C704E
:10547000205B636F6D6D616E645D202D2D73686FB1
:10548000772068656C7020696E666F206F66206398
:105490006F6D6D616E6400636C7300636C65617247
:1054A00020636F6D6D616E64206C696E65001028FD
:1054B00040587088A0B85A1B0A00C0A8010A0C29DD
:1054C000AB7C000101012400002001012500002027
:1054D0000101260000200006BE5400080304BA544F
:1054E00000080201270000200302B6540008010151
:1054F000B8540008A4550008000000205400000023
:10550000483A0008F855000854000020B40900008B
:10551000583A00083E5300084D0300084B5300085A
:105520000000000062530008810300086E53000869
:105530000000000086530008250300089653000869
:1055400000000000AB530008A9030008B85300088E
:1055500000000000CF530008853E0008D653000825
:1055600000000000F1530008293D0008FF53000827
:105570000000000012540008D90900081E54000859
:10558000000000005A540008454C00085F54000811
:105590006C54000897540008614500089B540008AB
:1055A00000000000000000000100000010000000EA
:1055B000000000000024F40000C000000000000013
:1055C00000000000000000000000000000000000DB
:1055D00000000000BD2F0008B1380008ACCCA2C20A
:1055E00000000000000000000000000000000000BB
:0855F0000000000000000000B3
:04000005080001C529
:00000001FF
